{
  "_format": "hh-sol-artifact-1",
  "contractName": "AdvancedERC20",
  "sourceName": "contracts/token/AdvancedERC20.sol",
  "abi": [
    {
      "inputs": [
        {
          "internalType": "address",
          "name": "contractOwner",
          "type": "address"
        },
        {
          "internalType": "string",
          "name": "_name",
          "type": "string"
        },
        {
          "internalType": "string",
          "name": "_symbol",
          "type": "string"
        },
        {
          "internalType": "address",
          "name": "initialHolder",
          "type": "address"
        },
        {
          "internalType": "uint256",
          "name": "initialSupply",
          "type": "uint256"
        },
        {
          "internalType": "uint256",
          "name": "initialFeatures",
          "type": "uint256"
        }
      ],
      "stateMutability": "nonpayable",
      "type": "constructor"
    },
    {
      "inputs": [],
      "name": "AccessDenied",
      "type": "error"
    },
    {
      "anonymous": false,
      "inputs": [
        {
          "indexed": true,
          "internalType": "address",
          "name": "owner",
          "type": "address"
        },
        {
          "indexed": true,
          "internalType": "address",
          "name": "spender",
          "type": "address"
        },
        {
          "indexed": false,
          "internalType": "uint256",
          "name": "oldValue",
          "type": "uint256"
        },
        {
          "indexed": false,
          "internalType": "uint256",
          "name": "value",
          "type": "uint256"
        }
      ],
      "name": "Approval",
      "type": "event"
    },
    {
      "anonymous": false,
      "inputs": [
        {
          "indexed": true,
          "internalType": "address",
          "name": "owner",
          "type": "address"
        },
        {
          "indexed": true,
          "internalType": "address",
          "name": "spender",
          "type": "address"
        },
        {
          "indexed": false,
          "internalType": "uint256",
          "name": "value",
          "type": "uint256"
        }
      ],
      "name": "Approval",
      "type": "event"
    },
    {
      "anonymous": false,
      "inputs": [
        {
          "indexed": true,
          "internalType": "address",
          "name": "authorizer",
          "type": "address"
        },
        {
          "indexed": true,
          "internalType": "bytes32",
          "name": "nonce",
          "type": "bytes32"
        }
      ],
      "name": "AuthorizationCanceled",
      "type": "event"
    },
    {
      "anonymous": false,
      "inputs": [
        {
          "indexed": true,
          "internalType": "address",
          "name": "authorizer",
          "type": "address"
        },
        {
          "indexed": true,
          "internalType": "bytes32",
          "name": "nonce",
          "type": "bytes32"
        }
      ],
      "name": "AuthorizationUsed",
      "type": "event"
    },
    {
      "anonymous": false,
      "inputs": [
        {
          "indexed": true,
          "internalType": "address",
          "name": "by",
          "type": "address"
        },
        {
          "indexed": true,
          "internalType": "address",
          "name": "from",
          "type": "address"
        },
        {
          "indexed": false,
          "internalType": "uint256",
          "name": "value",
          "type": "uint256"
        }
      ],
      "name": "Burnt",
      "type": "event"
    },
    {
      "anonymous": false,
      "inputs": [
        {
          "indexed": true,
          "internalType": "address",
          "name": "source",
          "type": "address"
        },
        {
          "indexed": true,
          "internalType": "address",
          "name": "from",
          "type": "address"
        },
        {
          "indexed": true,
          "internalType": "address",
          "name": "to",
          "type": "address"
        }
      ],
      "name": "DelegateChanged",
      "type": "event"
    },
    {
      "anonymous": false,
      "inputs": [
        {
          "indexed": false,
          "internalType": "uint8",
          "name": "version",
          "type": "uint8"
        }
      ],
      "name": "Initialized",
      "type": "event"
    },
    {
      "anonymous": false,
      "inputs": [
        {
          "indexed": true,
          "internalType": "address",
          "name": "by",
          "type": "address"
        },
        {
          "indexed": true,
          "internalType": "address",
          "name": "to",
          "type": "address"
        },
        {
          "indexed": false,
          "internalType": "uint256",
          "name": "value",
          "type": "uint256"
        }
      ],
      "name": "Minted",
      "type": "event"
    },
    {
      "anonymous": false,
      "inputs": [
        {
          "indexed": true,
          "internalType": "address",
          "name": "operator",
          "type": "address"
        },
        {
          "indexed": false,
          "internalType": "uint256",
          "name": "requested",
          "type": "uint256"
        },
        {
          "indexed": false,
          "internalType": "uint256",
          "name": "assigned",
          "type": "uint256"
        }
      ],
      "name": "RoleUpdated",
      "type": "event"
    },
    {
      "anonymous": false,
      "inputs": [
        {
          "indexed": true,
          "internalType": "address",
          "name": "by",
          "type": "address"
        },
        {
          "indexed": true,
          "internalType": "address",
          "name": "from",
          "type": "address"
        },
        {
          "indexed": true,
          "internalType": "address",
          "name": "to",
          "type": "address"
        },
        {
          "indexed": false,
          "internalType": "uint256",
          "name": "value",
          "type": "uint256"
        }
      ],
      "name": "Transfer",
      "type": "event"
    },
    {
      "anonymous": false,
      "inputs": [
        {
          "indexed": true,
          "internalType": "address",
          "name": "from",
          "type": "address"
        },
        {
          "indexed": true,
          "internalType": "address",
          "name": "to",
          "type": "address"
        },
        {
          "indexed": false,
          "internalType": "uint256",
          "name": "value",
          "type": "uint256"
        }
      ],
      "name": "Transfer",
      "type": "event"
    },
    {
      "anonymous": false,
      "inputs": [
        {
          "indexed": true,
          "internalType": "address",
          "name": "by",
          "type": "address"
        },
        {
          "indexed": true,
          "internalType": "address",
          "name": "target",
          "type": "address"
        },
        {
          "indexed": false,
          "internalType": "uint256",
          "name": "fromVal",
          "type": "uint256"
        },
        {
          "indexed": false,
          "internalType": "uint256",
          "name": "toVal",
          "type": "uint256"
        }
      ],
      "name": "VotingPowerChanged",
      "type": "event"
    },
    {
      "inputs": [],
      "name": "CANCEL_AUTHORIZATION_TYPEHASH",
      "outputs": [
        {
          "internalType": "bytes32",
          "name": "",
          "type": "bytes32"
        }
      ],
      "stateMutability": "view",
      "type": "function"
    },
    {
      "inputs": [],
      "name": "DELEGATION_TYPEHASH",
      "outputs": [
        {
          "internalType": "bytes32",
          "name": "",
          "type": "bytes32"
        }
      ],
      "stateMutability": "view",
      "type": "function"
    },
    {
      "inputs": [],
      "name": "DOMAIN_SEPARATOR",
      "outputs": [
        {
          "internalType": "bytes32",
          "name": "",
          "type": "bytes32"
        }
      ],
      "stateMutability": "view",
      "type": "function"
    },
    {
      "inputs": [],
      "name": "DOMAIN_TYPEHASH",
      "outputs": [
        {
          "internalType": "bytes32",
          "name": "",
          "type": "bytes32"
        }
      ],
      "stateMutability": "view",
      "type": "function"
    },
    {
      "inputs": [],
      "name": "FEATURE_BURNS_ON_BEHALF",
      "outputs": [
        {
          "internalType": "uint32",
          "name": "",
          "type": "uint32"
        }
      ],
      "stateMutability": "view",
      "type": "function"
    },
    {
      "inputs": [],
      "name": "FEATURE_DELEGATIONS",
      "outputs": [
        {
          "internalType": "uint32",
          "name": "",
          "type": "uint32"
        }
      ],
      "stateMutability": "view",
      "type": "function"
    },
    {
      "inputs": [],
      "name": "FEATURE_DELEGATIONS_ON_BEHALF",
      "outputs": [
        {
          "internalType": "uint32",
          "name": "",
          "type": "uint32"
        }
      ],
      "stateMutability": "view",
      "type": "function"
    },
    {
      "inputs": [],
      "name": "FEATURE_EIP2612_PERMITS",
      "outputs": [
        {
          "internalType": "uint32",
          "name": "",
          "type": "uint32"
        }
      ],
      "stateMutability": "view",
      "type": "function"
    },
    {
      "inputs": [],
      "name": "FEATURE_EIP3009_RECEPTIONS",
      "outputs": [
        {
          "internalType": "uint32",
          "name": "",
          "type": "uint32"
        }
      ],
      "stateMutability": "view",
      "type": "function"
    },
    {
      "inputs": [],
      "name": "FEATURE_EIP3009_TRANSFERS",
      "outputs": [
        {
          "internalType": "uint32",
          "name": "",
          "type": "uint32"
        }
      ],
      "stateMutability": "view",
      "type": "function"
    },
    {
      "inputs": [],
      "name": "FEATURE_ERC1363_APPROVALS",
      "outputs": [
        {
          "internalType": "uint32",
          "name": "",
          "type": "uint32"
        }
      ],
      "stateMutability": "view",
      "type": "function"
    },
    {
      "inputs": [],
      "name": "FEATURE_ERC1363_TRANSFERS",
      "outputs": [
        {
          "internalType": "uint32",
          "name": "",
          "type": "uint32"
        }
      ],
      "stateMutability": "view",
      "type": "function"
    },
    {
      "inputs": [],
      "name": "FEATURE_OWN_BURNS",
      "outputs": [
        {
          "internalType": "uint32",
          "name": "",
          "type": "uint32"
        }
      ],
      "stateMutability": "view",
      "type": "function"
    },
    {
      "inputs": [],
      "name": "FEATURE_TRANSFERS",
      "outputs": [
        {
          "internalType": "uint32",
          "name": "",
          "type": "uint32"
        }
      ],
      "stateMutability": "view",
      "type": "function"
    },
    {
      "inputs": [],
      "name": "FEATURE_TRANSFERS_ON_BEHALF",
      "outputs": [
        {
          "internalType": "uint32",
          "name": "",
          "type": "uint32"
        }
      ],
      "stateMutability": "view",
      "type": "function"
    },
    {
      "inputs": [],
      "name": "FEATURE_UNSAFE_TRANSFERS",
      "outputs": [
        {
          "internalType": "uint32",
          "name": "",
          "type": "uint32"
        }
      ],
      "stateMutability": "view",
      "type": "function"
    },
    {
      "inputs": [],
      "name": "PERMIT_TYPEHASH",
      "outputs": [
        {
          "internalType": "bytes32",
          "name": "",
          "type": "bytes32"
        }
      ],
      "stateMutability": "view",
      "type": "function"
    },
    {
      "inputs": [],
      "name": "RECEIVE_WITH_AUTHORIZATION_TYPEHASH",
      "outputs": [
        {
          "internalType": "bytes32",
          "name": "",
          "type": "bytes32"
        }
      ],
      "stateMutability": "view",
      "type": "function"
    },
    {
      "inputs": [],
      "name": "ROLE_ACCESS_MANAGER",
      "outputs": [
        {
          "internalType": "uint256",
          "name": "",
          "type": "uint256"
        }
      ],
      "stateMutability": "view",
      "type": "function"
    },
    {
      "inputs": [],
      "name": "ROLE_ERC20_RECEIVER",
      "outputs": [
        {
          "internalType": "uint32",
          "name": "",
          "type": "uint32"
        }
      ],
      "stateMutability": "view",
      "type": "function"
    },
    {
      "inputs": [],
      "name": "ROLE_ERC20_SENDER",
      "outputs": [
        {
          "internalType": "uint32",
          "name": "",
          "type": "uint32"
        }
      ],
      "stateMutability": "view",
      "type": "function"
    },
    {
      "inputs": [],
      "name": "ROLE_TOKEN_CREATOR",
      "outputs": [
        {
          "internalType": "uint32",
          "name": "",
          "type": "uint32"
        }
      ],
      "stateMutability": "view",
      "type": "function"
    },
    {
      "inputs": [],
      "name": "ROLE_TOKEN_DESTROYER",
      "outputs": [
        {
          "internalType": "uint32",
          "name": "",
          "type": "uint32"
        }
      ],
      "stateMutability": "view",
      "type": "function"
    },
    {
      "inputs": [],
      "name": "ROLE_UPGRADE_MANAGER",
      "outputs": [
        {
          "internalType": "uint256",
          "name": "",
          "type": "uint256"
        }
      ],
      "stateMutability": "view",
      "type": "function"
    },
    {
      "inputs": [],
      "name": "TRANSFER_WITH_AUTHORIZATION_TYPEHASH",
      "outputs": [
        {
          "internalType": "bytes32",
          "name": "",
          "type": "bytes32"
        }
      ],
      "stateMutability": "view",
      "type": "function"
    },
    {
      "inputs": [
        {
          "internalType": "address",
          "name": "owner",
          "type": "address"
        },
        {
          "internalType": "address",
          "name": "spender",
          "type": "address"
        }
      ],
      "name": "allowance",
      "outputs": [
        {
          "internalType": "uint256",
          "name": "remaining",
          "type": "uint256"
        }
      ],
      "stateMutability": "view",
      "type": "function"
    },
    {
      "inputs": [
        {
          "internalType": "address",
          "name": "spender",
          "type": "address"
        },
        {
          "internalType": "uint256",
          "name": "value",
          "type": "uint256"
        }
      ],
      "name": "approve",
      "outputs": [
        {
          "internalType": "bool",
          "name": "success",
          "type": "bool"
        }
      ],
      "stateMutability": "nonpayable",
      "type": "function"
    },
    {
      "inputs": [
        {
          "internalType": "address",
          "name": "spender",
          "type": "address"
        },
        {
          "internalType": "uint256",
          "name": "value",
          "type": "uint256"
        }
      ],
      "name": "approveAndCall",
      "outputs": [
        {
          "internalType": "bool",
          "name": "",
          "type": "bool"
        }
      ],
      "stateMutability": "nonpayable",
      "type": "function"
    },
    {
      "inputs": [
        {
          "internalType": "address",
          "name": "spender",
          "type": "address"
        },
        {
          "internalType": "uint256",
          "name": "value",
          "type": "uint256"
        },
        {
          "internalType": "bytes",
          "name": "data",
          "type": "bytes"
        }
      ],
      "name": "approveAndCall",
      "outputs": [
        {
          "internalType": "bool",
          "name": "",
          "type": "bool"
        }
      ],
      "stateMutability": "nonpayable",
      "type": "function"
    },
    {
      "inputs": [
        {
          "internalType": "address",
          "name": "authorizer",
          "type": "address"
        },
        {
          "internalType": "bytes32",
          "name": "nonce",
          "type": "bytes32"
        }
      ],
      "name": "authorizationState",
      "outputs": [
        {
          "internalType": "bool",
          "name": "",
          "type": "bool"
        }
      ],
      "stateMutability": "view",
      "type": "function"
    },
    {
      "inputs": [
        {
          "internalType": "address",
          "name": "owner",
          "type": "address"
        }
      ],
      "name": "balanceOf",
      "outputs": [
        {
          "internalType": "uint256",
          "name": "balance",
          "type": "uint256"
        }
      ],
      "stateMutability": "view",
      "type": "function"
    },
    {
      "inputs": [
        {
          "internalType": "address",
          "name": "from",
          "type": "address"
        },
        {
          "internalType": "uint256",
          "name": "value",
          "type": "uint256"
        }
      ],
      "name": "burn",
      "outputs": [
        {
          "internalType": "bool",
          "name": "success",
          "type": "bool"
        }
      ],
      "stateMutability": "nonpayable",
      "type": "function"
    },
    {
      "inputs": [
        {
          "internalType": "address",
          "name": "authorizer",
          "type": "address"
        },
        {
          "internalType": "bytes32",
          "name": "nonce",
          "type": "bytes32"
        },
        {
          "internalType": "uint8",
          "name": "v",
          "type": "uint8"
        },
        {
          "internalType": "bytes32",
          "name": "r",
          "type": "bytes32"
        },
        {
          "internalType": "bytes32",
          "name": "s",
          "type": "bytes32"
        }
      ],
      "name": "cancelAuthorization",
      "outputs": [],
      "stateMutability": "nonpayable",
      "type": "function"
    },
    {
      "inputs": [],
      "name": "decimals",
      "outputs": [
        {
          "internalType": "uint8",
          "name": "",
          "type": "uint8"
        }
      ],
      "stateMutability": "view",
      "type": "function"
    },
    {
      "inputs": [
        {
          "internalType": "address",
          "name": "spender",
          "type": "address"
        },
        {
          "internalType": "uint256",
          "name": "value",
          "type": "uint256"
        }
      ],
      "name": "decreaseAllowance",
      "outputs": [
        {
          "internalType": "bool",
          "name": "",
          "type": "bool"
        }
      ],
      "stateMutability": "nonpayable",
      "type": "function"
    },
    {
      "inputs": [
        {
          "internalType": "address",
          "name": "to",
          "type": "address"
        }
      ],
      "name": "delegate",
      "outputs": [],
      "stateMutability": "nonpayable",
      "type": "function"
    },
    {
      "inputs": [
        {
          "internalType": "address",
          "name": "to",
          "type": "address"
        },
        {
          "internalType": "bytes32",
          "name": "nonce",
          "type": "bytes32"
        },
        {
          "internalType": "uint256",
          "name": "exp",
          "type": "uint256"
        },
        {
          "internalType": "uint8",
          "name": "v",
          "type": "uint8"
        },
        {
          "internalType": "bytes32",
          "name": "r",
          "type": "bytes32"
        },
        {
          "internalType": "bytes32",
          "name": "s",
          "type": "bytes32"
        }
      ],
      "name": "delegateWithAuthorization",
      "outputs": [],
      "stateMutability": "nonpayable",
      "type": "function"
    },
    {
      "inputs": [],
      "name": "entireSupplyHistory",
      "outputs": [
        {
          "components": [
            {
              "internalType": "uint64",
              "name": "k",
              "type": "uint64"
            },
            {
              "internalType": "uint192",
              "name": "v",
              "type": "uint192"
            }
          ],
          "internalType": "struct AdvancedERC20.KV[]",
          "name": "",
          "type": "tuple[]"
        }
      ],
      "stateMutability": "view",
      "type": "function"
    },
    {
      "inputs": [],
      "name": "features",
      "outputs": [
        {
          "internalType": "uint256",
          "name": "",
          "type": "uint256"
        }
      ],
      "stateMutability": "view",
      "type": "function"
    },
    {
      "inputs": [],
      "name": "getInitializedVersion",
      "outputs": [
        {
          "internalType": "uint64",
          "name": "",
          "type": "uint64"
        }
      ],
      "stateMutability": "view",
      "type": "function"
    },
    {
      "inputs": [
        {
          "internalType": "address",
          "name": "operator",
          "type": "address"
        }
      ],
      "name": "getRole",
      "outputs": [
        {
          "internalType": "uint256",
          "name": "",
          "type": "uint256"
        }
      ],
      "stateMutability": "view",
      "type": "function"
    },
    {
      "inputs": [
        {
          "internalType": "address",
          "name": "spender",
          "type": "address"
        },
        {
          "internalType": "uint256",
          "name": "value",
          "type": "uint256"
        }
      ],
      "name": "increaseAllowance",
      "outputs": [
        {
          "internalType": "bool",
          "name": "",
          "type": "bool"
        }
      ],
      "stateMutability": "nonpayable",
      "type": "function"
    },
    {
      "inputs": [
        {
          "internalType": "address",
          "name": "to",
          "type": "address"
        },
        {
          "internalType": "uint256",
          "name": "value",
          "type": "uint256"
        }
      ],
      "name": "mint",
      "outputs": [
        {
          "internalType": "bool",
          "name": "success",
          "type": "bool"
        }
      ],
      "stateMutability": "nonpayable",
      "type": "function"
    },
    {
      "inputs": [
        {
          "internalType": "address",
          "name": "to",
          "type": "address"
        },
        {
          "internalType": "uint256",
          "name": "value",
          "type": "uint256"
        },
        {
          "internalType": "bytes",
          "name": "data",
          "type": "bytes"
        }
      ],
      "name": "mintAndCall",
      "outputs": [
        {
          "internalType": "bool",
          "name": "success",
          "type": "bool"
        }
      ],
      "stateMutability": "nonpayable",
      "type": "function"
    },
    {
      "inputs": [
        {
          "internalType": "address",
          "name": "to",
          "type": "address"
        },
        {
          "internalType": "uint256",
          "name": "value",
          "type": "uint256"
        }
      ],
      "name": "mintAndCall",
      "outputs": [
        {
          "internalType": "bool",
          "name": "success",
          "type": "bool"
        }
      ],
      "stateMutability": "nonpayable",
      "type": "function"
    },
    {
      "inputs": [],
      "name": "name",
      "outputs": [
        {
          "internalType": "string",
          "name": "",
          "type": "string"
        }
      ],
      "stateMutability": "view",
      "type": "function"
    },
    {
      "inputs": [
        {
          "internalType": "address",
          "name": "",
          "type": "address"
        }
      ],
      "name": "nonces",
      "outputs": [
        {
          "internalType": "uint256",
          "name": "",
          "type": "uint256"
        }
      ],
      "stateMutability": "view",
      "type": "function"
    },
    {
      "inputs": [
        {
          "internalType": "address",
          "name": "owner",
          "type": "address"
        },
        {
          "internalType": "address",
          "name": "spender",
          "type": "address"
        },
        {
          "internalType": "uint256",
          "name": "value",
          "type": "uint256"
        },
        {
          "internalType": "uint256",
          "name": "exp",
          "type": "uint256"
        },
        {
          "internalType": "uint8",
          "name": "v",
          "type": "uint8"
        },
        {
          "internalType": "bytes32",
          "name": "r",
          "type": "bytes32"
        },
        {
          "internalType": "bytes32",
          "name": "s",
          "type": "bytes32"
        }
      ],
      "name": "permit",
      "outputs": [],
      "stateMutability": "nonpayable",
      "type": "function"
    },
    {
      "inputs": [
        {
          "internalType": "address",
          "name": "contractOwner",
          "type": "address"
        },
        {
          "internalType": "string",
          "name": "_name",
          "type": "string"
        },
        {
          "internalType": "string",
          "name": "_symbol",
          "type": "string"
        },
        {
          "internalType": "address",
          "name": "initialHolder",
          "type": "address"
        },
        {
          "internalType": "uint256",
          "name": "initialSupply",
          "type": "uint256"
        },
        {
          "internalType": "uint256",
          "name": "initialFeatures",
          "type": "uint256"
        }
      ],
      "name": "postConstruct",
      "outputs": [],
      "stateMutability": "nonpayable",
      "type": "function"
    },
    {
      "inputs": [
        {
          "internalType": "address",
          "name": "from",
          "type": "address"
        },
        {
          "internalType": "address",
          "name": "to",
          "type": "address"
        },
        {
          "internalType": "uint256",
          "name": "value",
          "type": "uint256"
        },
        {
          "internalType": "uint256",
          "name": "validAfter",
          "type": "uint256"
        },
        {
          "internalType": "uint256",
          "name": "validBefore",
          "type": "uint256"
        },
        {
          "internalType": "bytes32",
          "name": "nonce",
          "type": "bytes32"
        },
        {
          "internalType": "uint8",
          "name": "v",
          "type": "uint8"
        },
        {
          "internalType": "bytes32",
          "name": "r",
          "type": "bytes32"
        },
        {
          "internalType": "bytes32",
          "name": "s",
          "type": "bytes32"
        }
      ],
      "name": "receiveWithAuthorization",
      "outputs": [],
      "stateMutability": "nonpayable",
      "type": "function"
    },
    {
      "inputs": [
        {
          "internalType": "address",
          "name": "to",
          "type": "address"
        },
        {
          "internalType": "uint256",
          "name": "value",
          "type": "uint256"
        },
        {
          "internalType": "bytes",
          "name": "data",
          "type": "bytes"
        }
      ],
      "name": "safeMint",
      "outputs": [
        {
          "internalType": "bool",
          "name": "success",
          "type": "bool"
        }
      ],
      "stateMutability": "nonpayable",
      "type": "function"
    },
    {
      "inputs": [
        {
          "internalType": "address",
          "name": "from",
          "type": "address"
        },
        {
          "internalType": "address",
          "name": "to",
          "type": "address"
        },
        {
          "internalType": "uint256",
          "name": "value",
          "type": "uint256"
        },
        {
          "internalType": "bytes",
          "name": "data",
          "type": "bytes"
        }
      ],
      "name": "safeTransferFrom",
      "outputs": [
        {
          "internalType": "bool",
          "name": "",
          "type": "bool"
        }
      ],
      "stateMutability": "nonpayable",
      "type": "function"
    },
    {
      "inputs": [
        {
          "internalType": "bytes4",
          "name": "interfaceId",
          "type": "bytes4"
        }
      ],
      "name": "supportsInterface",
      "outputs": [
        {
          "internalType": "bool",
          "name": "",
          "type": "bool"
        }
      ],
      "stateMutability": "pure",
      "type": "function"
    },
    {
      "inputs": [],
      "name": "symbol",
      "outputs": [
        {
          "internalType": "string",
          "name": "",
          "type": "string"
        }
      ],
      "stateMutability": "view",
      "type": "function"
    },
    {
      "inputs": [],
      "name": "totalSupply",
      "outputs": [
        {
          "internalType": "uint256",
          "name": "",
          "type": "uint256"
        }
      ],
      "stateMutability": "view",
      "type": "function"
    },
    {
      "inputs": [
        {
          "internalType": "uint256",
          "name": "blockNum",
          "type": "uint256"
        }
      ],
      "name": "totalSupplyAt",
      "outputs": [
        {
          "internalType": "uint256",
          "name": "",
          "type": "uint256"
        }
      ],
      "stateMutability": "view",
      "type": "function"
    },
    {
      "inputs": [
        {
          "internalType": "uint256",
          "name": "",
          "type": "uint256"
        }
      ],
      "name": "totalSupplyHistory",
      "outputs": [
        {
          "internalType": "uint64",
          "name": "k",
          "type": "uint64"
        },
        {
          "internalType": "uint192",
          "name": "v",
          "type": "uint192"
        }
      ],
      "stateMutability": "view",
      "type": "function"
    },
    {
      "inputs": [],
      "name": "totalSupplyHistoryLength",
      "outputs": [
        {
          "internalType": "uint256",
          "name": "",
          "type": "uint256"
        }
      ],
      "stateMutability": "view",
      "type": "function"
    },
    {
      "inputs": [
        {
          "internalType": "address",
          "name": "to",
          "type": "address"
        },
        {
          "internalType": "uint256",
          "name": "value",
          "type": "uint256"
        }
      ],
      "name": "transfer",
      "outputs": [
        {
          "internalType": "bool",
          "name": "success",
          "type": "bool"
        }
      ],
      "stateMutability": "nonpayable",
      "type": "function"
    },
    {
      "inputs": [
        {
          "internalType": "address",
          "name": "to",
          "type": "address"
        },
        {
          "internalType": "uint256",
          "name": "value",
          "type": "uint256"
        }
      ],
      "name": "transferAndCall",
      "outputs": [
        {
          "internalType": "bool",
          "name": "",
          "type": "bool"
        }
      ],
      "stateMutability": "nonpayable",
      "type": "function"
    },
    {
      "inputs": [
        {
          "internalType": "address",
          "name": "to",
          "type": "address"
        },
        {
          "internalType": "uint256",
          "name": "value",
          "type": "uint256"
        },
        {
          "internalType": "bytes",
          "name": "data",
          "type": "bytes"
        }
      ],
      "name": "transferAndCall",
      "outputs": [
        {
          "internalType": "bool",
          "name": "",
          "type": "bool"
        }
      ],
      "stateMutability": "nonpayable",
      "type": "function"
    },
    {
      "inputs": [
        {
          "internalType": "address",
          "name": "from",
          "type": "address"
        },
        {
          "internalType": "address",
          "name": "to",
          "type": "address"
        },
        {
          "internalType": "uint256",
          "name": "value",
          "type": "uint256"
        }
      ],
      "name": "transferFrom",
      "outputs": [
        {
          "internalType": "bool",
          "name": "success",
          "type": "bool"
        }
      ],
      "stateMutability": "nonpayable",
      "type": "function"
    },
    {
      "inputs": [
        {
          "internalType": "address",
          "name": "from",
          "type": "address"
        },
        {
          "internalType": "address",
          "name": "to",
          "type": "address"
        },
        {
          "internalType": "uint256",
          "name": "value",
          "type": "uint256"
        },
        {
          "internalType": "bytes",
          "name": "data",
          "type": "bytes"
        }
      ],
      "name": "transferFromAndCall",
      "outputs": [
        {
          "internalType": "bool",
          "name": "",
          "type": "bool"
        }
      ],
      "stateMutability": "nonpayable",
      "type": "function"
    },
    {
      "inputs": [
        {
          "internalType": "address",
          "name": "from",
          "type": "address"
        },
        {
          "internalType": "address",
          "name": "to",
          "type": "address"
        },
        {
          "internalType": "uint256",
          "name": "value",
          "type": "uint256"
        }
      ],
      "name": "transferFromAndCall",
      "outputs": [
        {
          "internalType": "bool",
          "name": "",
          "type": "bool"
        }
      ],
      "stateMutability": "nonpayable",
      "type": "function"
    },
    {
      "inputs": [
        {
          "internalType": "address",
          "name": "from",
          "type": "address"
        },
        {
          "internalType": "address",
          "name": "to",
          "type": "address"
        },
        {
          "internalType": "uint256",
          "name": "value",
          "type": "uint256"
        },
        {
          "internalType": "uint256",
          "name": "validAfter",
          "type": "uint256"
        },
        {
          "internalType": "uint256",
          "name": "validBefore",
          "type": "uint256"
        },
        {
          "internalType": "bytes32",
          "name": "nonce",
          "type": "bytes32"
        },
        {
          "internalType": "uint8",
          "name": "v",
          "type": "uint8"
        },
        {
          "internalType": "bytes32",
          "name": "r",
          "type": "bytes32"
        },
        {
          "internalType": "bytes32",
          "name": "s",
          "type": "bytes32"
        }
      ],
      "name": "transferWithAuthorization",
      "outputs": [],
      "stateMutability": "nonpayable",
      "type": "function"
    },
    {
      "inputs": [
        {
          "internalType": "address",
          "name": "from",
          "type": "address"
        },
        {
          "internalType": "address",
          "name": "to",
          "type": "address"
        },
        {
          "internalType": "uint256",
          "name": "value",
          "type": "uint256"
        }
      ],
      "name": "unsafeTransferFrom",
      "outputs": [],
      "stateMutability": "nonpayable",
      "type": "function"
    },
    {
      "inputs": [
        {
          "internalType": "uint256",
          "name": "_mask",
          "type": "uint256"
        }
      ],
      "name": "updateFeatures",
      "outputs": [],
      "stateMutability": "nonpayable",
      "type": "function"
    },
    {
      "inputs": [
        {
          "internalType": "address",
          "name": "operator",
          "type": "address"
        },
        {
          "internalType": "uint256",
          "name": "role",
          "type": "uint256"
        }
      ],
      "name": "updateRole",
      "outputs": [],
      "stateMutability": "nonpayable",
      "type": "function"
    },
    {
      "inputs": [
        {
          "internalType": "address",
          "name": "",
          "type": "address"
        }
      ],
      "name": "votingDelegates",
      "outputs": [
        {
          "internalType": "address",
          "name": "",
          "type": "address"
        }
      ],
      "stateMutability": "view",
      "type": "function"
    },
    {
      "inputs": [
        {
          "internalType": "address",
          "name": "holder",
          "type": "address"
        },
        {
          "internalType": "uint256",
          "name": "blockNum",
          "type": "uint256"
        }
      ],
      "name": "votingPowerAt",
      "outputs": [
        {
          "internalType": "uint256",
          "name": "",
          "type": "uint256"
        }
      ],
      "stateMutability": "view",
      "type": "function"
    },
    {
      "inputs": [
        {
          "internalType": "address",
          "name": "",
          "type": "address"
        },
        {
          "internalType": "uint256",
          "name": "",
          "type": "uint256"
        }
      ],
      "name": "votingPowerHistory",
      "outputs": [
        {
          "internalType": "uint64",
          "name": "k",
          "type": "uint64"
        },
        {
          "internalType": "uint192",
          "name": "v",
          "type": "uint192"
        }
      ],
      "stateMutability": "view",
      "type": "function"
    },
    {
      "inputs": [
        {
          "internalType": "address",
          "name": "holder",
          "type": "address"
        }
      ],
      "name": "votingPowerHistoryLength",
      "outputs": [
        {
          "internalType": "uint256",
          "name": "",
          "type": "uint256"
        }
      ],
      "stateMutability": "view",
      "type": "function"
    },
    {
      "inputs": [
        {
          "internalType": "address",
          "name": "holder",
          "type": "address"
        }
      ],
      "name": "votingPowerHistoryOf",
      "outputs": [
        {
          "components": [
            {
              "internalType": "uint64",
              "name": "k",
              "type": "uint64"
            },
            {
              "internalType": "uint192",
              "name": "v",
              "type": "uint192"
            }
          ],
          "internalType": "struct AdvancedERC20.KV[]",
          "name": "",
          "type": "tuple[]"
        }
      ],
      "stateMutability": "view",
      "type": "function"
    },
    {
      "inputs": [
        {
          "internalType": "address",
          "name": "holder",
          "type": "address"
        }
      ],
      "name": "votingPowerOf",
      "outputs": [
        {
          "internalType": "uint256",
          "name": "",
          "type": "uint256"
        }
      ],
      "stateMutability": "view",
      "type": "function"
    }
  ],
  "bytecode": "0x60806040523480156200001157600080fd5b5060405162004b9f38038062004b9f833981016040819052620000349162000bd2565b600054610100900460ff1615808015620000555750600054600160ff909116105b8062000085575062000072306200015460201b620020bd1760201c565b15801562000085575060005460ff166001145b620000dd5760405162461bcd60e51b815260206004820152602e602482015260008051602062004b3f83398151915260448201526d191e481a5b9a5d1a585b1a5e995960921b60648201526084015b60405180910390fd5b6000805460ff19166001179055801562000101576000805461ff0019166101001790555b801562000137576000805461ff00191690556040516001815260008051602062004b5f8339815191529060200160405180910390a15b506200014886868686868662000163565b50505050505062000d0f565b6001600160a01b03163b151590565b600054610100900460ff1615808015620001845750600054600160ff909116105b80620001b45750620001a1306200015460201b620020bd1760201c565b158015620001b4575060005460ff166001145b620002085760405162461bcd60e51b815260206004820152602e602482015260008051602062004b3f83398151915260448201526d191e481a5b9a5d1a585b1a5e995960921b6064820152608401620000d4565b6000805460ff1916600117905580156200022c576000805461ff0019166101001790555b60008651116200027f5760405162461bcd60e51b815260206004820152601560248201527f746f6b656e206e616d65206973206e6f742073657400000000000000000000006044820152606401620000d4565b6000855111620002d25760405162461bcd60e51b815260206004820152601760248201527f746f6b656e2073796d626f6c206973206e6f74207365740000000000000000006044820152606401620000d4565b8551620002e790603390602089019062000a5c565b508451620002fd90603490602088019062000a5c565b508215806200031457506001600160a01b03841615155b620003705760405162461bcd60e51b815260206004820152602560248201527f5f696e697469616c486f6c646572206e6f742073657420287a65726f20616464604482015264726573732960d81b6064820152608401620000d4565b82156200038357620003838484620003eb565b6001600160a01b0387161515806200039a57508115155b15620003ac57620003ac878362000650565b8015620003e2576000805461ff00191690556040516001815260008051602062004b5f8339815191529060200160405180910390a15b50505050505050565b6001600160a01b038216620004325760405162461bcd60e51b815260206004820152600c60248201526b7a65726f206164647265737360a01b6044820152606401620000d4565b60355481810111620004915760405162461bcd60e51b815260206004820152602160248201527f7a65726f2076616c7565206f722061726974686d65746963206f766572666c6f6044820152607760f81b6064820152608401620000d4565b6035546001600160c01b0390620004aa90839062000c71565b1115620004fa5760405162461bcd60e51b815260206004820152601f60248201527f746f74616c20737570706c79206f766572666c6f77202875696e7431393229006044820152606401620000d4565b80603560008282546200050e919062000c71565b90915550506001600160a01b038216600090815260366020526040812080548392906200053d90849062000c71565b909155506200055c90506039620020cc620006dd60201b1783620006f2565b50506001600160a01b038083166000908152603760205260408120546200058892339291168462000899565b6040518181526001600160a01b0383169033907f9d228d69b5fdb8d273a2336f8fb8612d039631024ea9bf09c424a9503aa078f09060200160405180910390a36040518181526001600160a01b0383169060009033907fd1398bee19313d6bf672ccb116e51f4a1a947e91c757907f51fbb5b5e56c698f9060200160405180910390a46040518181526001600160a01b038316906000907fddf252ad1be2c89b69c2b068fc378daa952ba7f163c4a11628f55a4df523b3ef9060200160405180910390a35050565b600054610100900460ff16620006bd5760405162461bcd60e51b815260206004820152602b60248201527f496e697469616c697a61626c653a20636f6e7472616374206973206e6f74206960448201526a6e697469616c697a696e6760a81b6064820152608401620000d4565b620006cc8260001980620009f4565b620006d9308280620009f4565b5050565b6000620006eb828462000c71565b9392505050565b8254600090819015620007575784548590620007119060019062000c8c565b815481106200073057634e487b7160e01b600052603260045260246000fd5b6000918252602090912001546801000000000000000090046001600160c01b03166200075a565b60005b6001600160c01b031691506200077182848660201c565b855490915015801590620007ca5750845443908690620007949060019062000c8c565b81548110620007b357634e487b7160e01b600052603260045260246000fd5b6000918252602090912001546001600160401b0316145b156200083a57845481908690620007e49060019062000c8c565b815481106200080357634e487b7160e01b600052603260045260246000fd5b9060005260206000200160000160086101000a8154816001600160c01b0302191690836001600160c01b0316021790555062000891565b604080518082019091526001600160401b0343811682526001600160c01b0380841660208085019182528954600181018b5560008b8152919091209451915190921668010000000000000000029216919091179101555b935093915050565b816001600160a01b0316836001600160a01b03161480620008b8575080155b15620008c457620009ee565b6001600160a01b0383161562000959576001600160a01b03831660009081526038602090815260408220919081906200090b90849062000a4e901b620020d81786620006f2565b91509150856001600160a01b0316876001600160a01b031660008051602062004b7f83398151915284846040516200094d929190918252602082015260400190565b60405180910390a35050505b6001600160a01b03821615620009ee576001600160a01b0382166000908152603860209081526040822091908190620009a0908490620006dd901b620020cc1786620006f2565b91509150846001600160a01b0316876001600160a01b031660008051602062004b7f8339815191528484604051620009e2929190918252602082015260400190565b60405180910390a35050505b50505050565b6001600160a01b03831660008181526001602090815260409182902084905581518581529081018490527fe9be537308880e0f56b7d7cfd7abf85f14c4934486d138f848b92a0cbaf659b4910160405180910390a2505050565b6000620006eb828462000c8c565b82805462000a6a9062000ca6565b90600052602060002090601f01602090048101928262000a8e576000855562000ad9565b82601f1062000aa957805160ff191683800117855562000ad9565b8280016001018555821562000ad9579182015b8281111562000ad957825182559160200191906001019062000abc565b5062000ae792915062000aeb565b5090565b5b8082111562000ae7576000815560010162000aec565b80516001600160a01b038116811462000b1a57600080fd5b919050565b600082601f83011262000b30578081fd5b81516001600160401b038082111562000b4d5762000b4d62000cf9565b604051601f8301601f19908116603f0116810190828211818310171562000b785762000b7862000cf9565b8160405283815260209250868385880101111562000b94578485fd5b8491505b8382101562000bb7578582018301518183018401529082019062000b98565b8382111562000bc857848385830101525b9695505050505050565b60008060008060008060c0878903121562000beb578182fd5b62000bf68762000b02565b60208801519096506001600160401b038082111562000c13578384fd5b62000c218a838b0162000b1f565b9650604089015191508082111562000c37578384fd5b5062000c4689828a0162000b1f565b94505062000c576060880162000b02565b92506080870151915060a087015190509295509295509295565b6000821982111562000c875762000c8762000ce3565b500190565b60008282101562000ca15762000ca162000ce3565b500390565b600181811c9082168062000cbb57607f821691505b6020821081141562000cdd57634e487b7160e01b600052602260045260246000fd5b50919050565b634e487b7160e01b600052601160045260246000fd5b634e487b7160e01b600052604160045260246000fd5b613e208062000d1f6000396000f3fe608060405234801561001057600080fd5b506004361061043e5760003560e01c806387793f3e11610236578063b88d4fde1161013b578063d9169487116100c3578063e94a010211610087578063e94a010214610a22578063e98f5ba714610a5b578063ef55bec614610a65578063f63c2f8214610a78578063f9cf927114610a8057600080fd5b8063d91694871461097e578063dd62ed3e146109a5578063e3ee160e146109de578063e62cac76146109f1578063e7a324dc146109fb57600080fd5b8063c5ff500c1161010a578063c5ff500c14610928578063cae9ca5114610932578063d505accf14610945578063d5bb7f6714610958578063d8fbe9941461096b57600080fd5b8063b88d4fde146108e7578063bcc3f3bd146108fa578063c0d6568d1461090d578063c1d34b891461091557600080fd5b80639dc29fac116101be578063ae5b102e1161018d578063ae5b102e146108a1578063ae60bda4146108b4578063ae682e2e146108bf578063b3c65015146108ca578063b66dbdc5146108df57600080fd5b80639dc29fac14610841578063a0cc6a6814610854578063a457c2d71461087b578063a9059cbb1461088e57600080fd5b806394f4f9301161020557806394f4f930146107ed57806395d89b411461080057806397ba461114610808578063981b24d01461081b57806398de4ba31461082e57600080fd5b806387793f3e1461079f5780638832e6e3146107c85780638d4e57e6146107db5780638f6fba8c146107e557600080fd5b806339509351116103475780635c19a95c116102cf57806370a082311161029357806370a08231146107095780637815ef0c146107325780637ecebe00146107455780637f2eecc3146107655780637fd491b01461078c57600080fd5b80635c19a95c146106955780635e2dc2b7146106a857806364cb8b96146106b1578063653de620146106c65780636641d9a0146106cf57600080fd5b8063442767331161031657806344276733146106285780634721272d1461065157806350c29e371461065a57806359b961ef1461066f5780635a049a701461068257600080fd5b806339509351146105e75780633e9c5f7e146105fa5780634000aea01461060257806340c10f191461061557600080fd5b80631e0fa234116103ca5780632d4c39ea116103995780632d4c39ea1461058357806330adf81f1461058b578063313ce567146105b25780633177029f146105cc5780633644e515146105df57600080fd5b80631e0fa234146104f357806320606b701461053457806323b872dd1461055b5780632b5214161461056e57600080fd5b8063136d035f11610411578063136d035f146104a657806313873a24146104c457806318160ddd146104cc5780631993f554146104e35780631a0b04ea146104eb57600080fd5b806301ffc9a71461044357806306fdde031461046b578063095ea7b3146104805780631296ee6214610493575b600080fd5b610456610451366004613abe565b610a93565b60405190151581526020015b60405180910390f35b610473610b1b565b6040516104629190613c5a565b61045661048e366004613924565b610ba9565b6104566104a1366004613924565b610bbf565b6104af61080081565b60405163ffffffff9091168152602001610462565b6104af608081565b6104d560355481565b604051908152602001610462565b6104af600481565b6104af600881565b61051c610501366004613752565b6037602052600090815260409020546001600160a01b031681565b6040516001600160a01b039091168152602001610462565b6104d57f8cad95687ba82c2ce50e74f7b754645e5117c3a5bec8151c0726d5857980a86681565b61045661056936600461379e565b610bd3565b306000908152600160205260409020546104d5565b6104af604081565b6104d57f6e71edae12b1b97f4d1f60370fef10105fa2faae0126114a169c64845d6126c981565b6105ba601281565b60405160ff9091168152602001610462565b6104566105da366004613924565b610c40565b6104d5610c5c565b6104566105f5366004613924565b610cf8565b6104af602081565b610456610610366004613a6a565b610da4565b610456610623366004613924565b610db2565b6104d5610636366004613752565b6001600160a01b031660009081526001602052604090205490565b6104af61020081565b61066d6106683660046139f1565b610e06565b005b61066d61067d36600461379e565b61107b565b61066d6106903660046139a4565b61108c565b61066d6106a3366004613752565b611137565b6104af61040081565b6106b961119a565b6040516104629190613bbd565b6104af61010081565b6106e26106dd366004613af6565b611216565b604080516001600160401b0390931683526001600160c01b03909116602083015201610462565b6104d5610717366004613752565b6001600160a01b031660009081526036602052604090205490565b6106b9610740366004613752565b611251565b6104d5610753366004613752565b603a6020526000908152604090205481565b6104d57fd099cc98ef71107a616c4f0f941f04c322d8e254fe26b3c6668db87aae413de881565b6106e261079a366004613924565b6112e3565b6104d56107ad366004613752565b6001600160a01b031660009081526038602052604090205490565b6104566107d6366004613a6a565b61132c565b6104af6201000081565b6104af600281565b6104d56107fb366004613924565b611348565b6104736113b1565b610456610816366004613a6a565b6113be565b6104d5610829366004613af6565b6113da565b61045661083c366004613924565b61142c565b61045661084f366004613924565b611448565b6104d57f7c7c6cdb67a18743f49ec6fa9b35f50d52ed05cbed4cc592e13b44501c1a226781565b610456610889366004613924565b61189f565b61045661089c366004613924565b61197c565b61066d6108af366004613924565b611989565b6104d5600160fe1b81565b6104d5600160ff1b81565b60005460405160ff9091168152602001610462565b6039546104d5565b6104566108f53660046137d9565b6119f6565b6104d5610908366004613752565b611a1c565b6104af600181565b6104566109233660046137d9565b611a9d565b6104af6204000081565b610456610940366004613a6a565b611b0e565b61066d6109533660046138bb565b611b7d565b61066d610966366004613af6565b611ccc565b61045661097936600461379e565b611cd6565b6104d57f158b0a9edf7a828aad02f63cd515c68ef2f50ba807396f6d12842833a159742981565b6104d56109b336600461376c565b6001600160a01b039182166000908152603c6020908152604080832093909416825291909152205490565b61066d6109ec36600461383e565b611cf3565b6104af6202000081565b6104d57fff41620983935eb4d4a3c7384a066ca8c1d10cef9a5eca9eb97ca735cd14a75581565b610456610a30366004613924565b6001600160a01b03919091166000908152603b60209081526040808320938352929052205460ff1690565b6104af6208000081565b61066d610a7336600461383e565b611e4e565b6104af601081565b61066d610a8e36600461394d565b611fcd565b60006001600160e01b031982166301ffc9a760e01b1480610ac457506001600160e01b031982166336372b0760e01b145b80610adf57506001600160e01b0319821663b0202a1160e01b145b80610afa57506001600160e01b03198216634ec7fbed60e11b145b80610b1557506001600160e01b03198216635ffa99dd60e11b145b92915050565b60338054610b2890613d12565b80601f0160208091040260200160405190810160405280929190818152602001828054610b5490613d12565b8015610ba15780601f10610b7657610100808354040283529160200191610ba1565b820191906000526020600020905b815481529060010190602001808311610b8457829003601f168201915b505050505081565b6000610bb63384846120e4565b50600192915050565b6000610bcc338484611cd6565b9392505050565b6000610bdf60046121f5565b80610bf25750610bf28362040000612211565b80610c045750610c0462080000612233565b15610c1957610c1484848461107b565b610c36565b610c34848484604051806020016040528060008152506119f6565b505b5060019392505050565b6000610bcc838360405180602001604052806000815250611b0e565b604080518082018252600f81526e416476616e6365644552433230763160881b60209182015281517f8cad95687ba82c2ce50e74f7b754645e5117c3a5bec8151c0726d5857980a866818301527f65218aa0cdc6725da873801e9daf9d54f230d8a515289f76c8bd31dd8648c50d81840152466060820152306080808301919091528351808303909101815260a0909101909252815191012090565b336000908152603c602090815260408083206001600160a01b03861684529091528120548281018110610d8e5760405162461bcd60e51b815260206004820152603360248201527f7a65726f2076616c756520617070726f76616c20696e637265617365206f722060448201527261726974686d65746963206f766572666c6f7760681b60648201526084015b60405180910390fd5b610d9c8461048e8584613cc3565b949350505050565b6000610d9c33858585611a9d565b6000610dc062010000612233565b610dfc5760405162461bcd60e51b815260206004820152600d60248201526c1858d8d95cdcc819195b9a5959609a1b6044820152606401610d85565b610bb6838361223f565b600054610100900460ff1615808015610e265750600054600160ff909116105b80610e405750303b158015610e40575060005460ff166001145b610ea35760405162461bcd60e51b815260206004820152602e60248201527f496e697469616c697a61626c653a20636f6e747261637420697320616c72656160448201526d191e481a5b9a5d1a585b1a5e995960921b6064820152608401610d85565b6000805460ff191660011790558015610ec6576000805461ff0019166101001790555b6000865111610f0f5760405162461bcd60e51b81526020600482015260156024820152741d1bdad95b881b985b59481a5cc81b9bdd081cd95d605a1b6044820152606401610d85565b6000855111610f605760405162461bcd60e51b815260206004820152601760248201527f746f6b656e2073796d626f6c206973206e6f74207365740000000000000000006044820152606401610d85565b8551610f73906033906020890190613606565b508451610f87906034906020880190613606565b50821580610f9d57506001600160a01b03841615155b610ff75760405162461bcd60e51b815260206004820152602560248201527f5f696e697469616c486f6c646572206e6f742073657420287a65726f20616464604482015264726573732960d81b6064820152608401610d85565b821561100757611007848461223f565b6001600160a01b03871615158061101d57508115155b1561102c5761102c8783612467565b8015611072576000805461ff0019169055604051600181527f7f26b83ff96e1f2b6a682f133852f6798a09c465da95921460cefb38474024989060200160405180910390a15b50505050505050565b611087338484846124ea565b505050565b604080517f158b0a9edf7a828aad02f63cd515c68ef2f50ba807396f6d12842833a159742960208201526001600160a01b03871691810191909152606081018590526000906110f0906080015b604051602081830303815290604052858585612a76565b9050856001600160a01b0316816001600160a01b0316146111235760405162461bcd60e51b8152600401610d8590613c6d565b61112f86866001612adb565b505050505050565b61114160206121f5565b61118d5760405162461bcd60e51b815260206004820152601860248201527f64656c65676174696f6e73206172652064697361626c656400000000000000006044820152606401610d85565b6111973382612be9565b50565b60606039805480602002602001604051908101604052809291908181526020016000905b8282101561120d57600084815260209081902060408051808201909152908401546001600160401b0381168252600160401b90046001600160c01b0316818301528252600190920191016111be565b50505050905090565b6039818154811061122657600080fd5b6000918252602090912001546001600160401b0381169150600160401b90046001600160c01b031682565b6001600160a01b0381166000908152603860209081526040808320805482518185028101850190935280835260609492939192909184015b828210156112d857600084815260209081902060408051808201909152908401546001600160401b0381168252600160401b90046001600160c01b031681830152825260019092019101611289565b505050509050919050565b603860205281600052604060002081815481106112ff57600080fd5b6000918252602090912001546001600160401b0381169250600160401b90046001600160c01b0316905082565b60006113388484610db2565b50610c3660008585856001612c85565b600043821061138f5760405162461bcd60e51b8152602060048201526013602482015272189b1bd8dac81b9bdd081e595d081b5a5b9959606a1b6044820152606401610d85565b6001600160a01b0383166000908152603860205260409020610bcc9083612dd2565b60348054610b2890613d12565b60006113ca8484610db2565b50610c3660008585856000612c85565b60004382106114215760405162461bcd60e51b8152602060048201526013602482015272189b1bd8dac81b9bdd081e595d081b5a5b9959606a1b6044820152606401610d85565b610b15603983612dd2565b6000610bcc8383604051806020016040528060008152506113be565b600061145662020000612233565b611679576001600160a01b03831633148015611477575061147760086121f5565b8061149b57506001600160a01b038316331480159061149b575061149b60106121f5565b6001600160a01b03841633146114e6576040518060400160405280601c81526020017f6275726e73206f6e20626568616c66206172652064697361626c656400000000815250611512565b60405180604001604052806012815260200171189d5c9b9cc8185c9948191a5cd8589b195960721b8152505b906115305760405162461bcd60e51b8152600401610d859190613c5a565b506001600160a01b0383163314611679576001600160a01b0383166000908152603c60209081526040808320338452909152902054828110156115b55760405162461bcd60e51b815260206004820152601d60248201527f6275726e20616d6f756e74206578636565647320616c6c6f77616e63650000006044820152606401610d85565b600019811015611677576115c98382613cfb565b6001600160a01b0385166000818152603c60209081526040808320338085529252909120839055919250907fb3fd5071835887567a0671151121894ddccc2842f1d10bedad13e0d17cace9a761161f8685613cc3565b60408051918252602082018690520160405180910390a360405181815233906001600160a01b038616907f8c5be1e5ebec7d5bd14f71427d1e84f3dd0314c0f7b2291e5b200ac8c7c3b9259060200160405180910390a35b505b816116b85760405162461bcd60e51b815260206004820152600f60248201526e3d32b937903b30b63ab290313ab93760891b6044820152606401610d85565b6001600160a01b03831661170e5760405162461bcd60e51b815260206004820152601a60248201527f6275726e2066726f6d20746865207a65726f20616464726573730000000000006044820152606401610d85565b6001600160a01b0383166000908152603660205260409020548211156117765760405162461bcd60e51b815260206004820152601b60248201527f6275726e20616d6f756e7420657863656564732062616c616e636500000000006044820152606401610d85565b6001600160a01b0383166000908152603660205260408120805484929061179e908490613cfb565b9250508190555081603560008282546117b79190613cfb565b909155506117cb905060396120d884612ff9565b50506001600160a01b038084166000908152603760205260408120546117f69233929116908561318a565b6040518281526001600160a01b0384169033907fe8a89cc6e5096f9d9f43de82c077c1f4cfe707c0e0c2032176c68813b9ae6a5c9060200160405180910390a36040518281526000906001600160a01b038516903390600080516020613dab8339815191529060200160405180910390a46040518281526000906001600160a01b03851690600080516020613dcb8339815191529060200160405180910390a350600192915050565b336000908152603c602090815260408083206001600160a01b0386168452909152812054826119105760405162461bcd60e51b815260206004820152601c60248201527f7a65726f2076616c756520617070726f76616c206465637265617365000000006044820152606401610d85565b8281101561196e5760405162461bcd60e51b815260206004820152602560248201527f45524332303a2064656372656173656420616c6c6f77616e63652062656c6f77604482015264207a65726f60d81b6064820152608401610d85565b610d9c8461048e8584613cfb565b6000610bcc338484610bd3565b611996600160ff1b6132df565b6119f282826119ed336119be876001600160a01b031660009081526001602052604090205490565b6001600160a01b0391909116600090815260016020526040902054600019808818821618908716919091171690565b6132f0565b5050565b6000611a0385858561107b565b611a11858585856001612c85565b506001949350505050565b6001600160a01b0381166000908152603860205260408120805415611a8a5780548190611a4b90600190613cfb565b81548110611a6957634e487b7160e01b600052603260045260246000fd5b600091825260209091200154600160401b90046001600160c01b0316611a8d565b60005b6001600160c01b03169392505050565b6000611aa960806121f5565b611af55760405162461bcd60e51b815260206004820152601e60248201527f45524331333633207472616e7366657273206172652064697361626c656400006044820152606401610d85565b611b0085858561107b565b611a11858585856000612c85565b6000611b1b6101006121f5565b611b675760405162461bcd60e51b815260206004820152601e60248201527f4552433133363320617070726f76616c73206172652064697361626c656400006044820152606401610d85565b611b718484610ba9565b50610c3684848461334a565b611b886102006121f5565b611bd45760405162461bcd60e51b815260206004820152601c60248201527f45495032363132207065726d697473206172652064697361626c6564000000006044820152606401610d85565b6001600160a01b0387166000908152603a602052604081208054611c65917f6e71edae12b1b97f4d1f60370fef10105fa2faae0126114a169c64845d6126c9918b918b918b9187611c2483613d4d565b909155506040805160208101969096526001600160a01b0394851690860152929091166060840152608083015260a082015260c0810187905260e0016110d9565b9050876001600160a01b0316816001600160a01b031614611c985760405162461bcd60e51b8152600401610d8590613c6d565b844210611cb75760405162461bcd60e51b8152600401610d8590613c98565b611cc28888886120e4565b5050505050505050565b6111973082611989565b6000610d9c84848460405180602001604052806000815250611a9d565b611cfe6104006121f5565b611d4a5760405162461bcd60e51b815260206004820152601e60248201527f45495033303039207472616e7366657273206172652064697361626c656400006044820152606401610d85565b6000611d8f7f7c7c6cdb67a18743f49ec6fa9b35f50d52ed05cbed4cc592e13b44501c1a226760001b8b8b8b8b8b8b6040516020016110d99796959493929190613c1e565b9050896001600160a01b0316816001600160a01b031614611dc25760405162461bcd60e51b8152600401610d8590613c6d565b864211611e0b5760405162461bcd60e51b81526020600482015260176024820152761cda59db985d1d5c99481b9bdd081e595d081d985b1a59604a1b6044820152606401610d85565b854210611e2a5760405162461bcd60e51b8152600401610d8590613c98565b611e368a866000612adb565b611e42818b8b8b6124ea565b50505050505050505050565b611e596108006121f5565b611ea55760405162461bcd60e51b815260206004820152601f60248201527f4549503330303920726563657074696f6e73206172652064697361626c6564006044820152606401610d85565b6000611eea7fd099cc98ef71107a616c4f0f941f04c322d8e254fe26b3c6668db87aae413de860001b8b8b8b8b8b8b6040516020016110d99796959493929190613c1e565b9050896001600160a01b0316816001600160a01b031614611f1d5760405162461bcd60e51b8152600401610d8590613c6d565b864211611f665760405162461bcd60e51b81526020600482015260176024820152761cda59db985d1d5c99481b9bdd081e595d081d985b1a59604a1b6044820152606401610d85565b854210611f855760405162461bcd60e51b8152600401610d8590613c98565b6001600160a01b0389163314611e2a5760405162461bcd60e51b815260206004820152600d60248201526c1858d8d95cdcc819195b9a5959609a1b6044820152606401610d85565b611fd760406121f5565b61202e5760405162461bcd60e51b815260206004820152602260248201527f64656c65676174696f6e73206f6e20626568616c66206172652064697361626c604482015261195960f21b6064820152608401610d85565b604080517fff41620983935eb4d4a3c7384a066ca8c1d10cef9a5eca9eb97ca735cd14a75560208201526001600160a01b0388169181019190915260608101869052608081018590526000906120869060a0016110d9565b90508442106120a75760405162461bcd60e51b8152600401610d8590613c98565b6120b381876000612adb565b6110728188612be9565b6001600160a01b03163b151590565b6000610bcc8284613cc3565b6000610bcc8284613cfb565b6001600160a01b03821661213a5760405162461bcd60e51b815260206004820152601b60248201527f617070726f766520746f20746865207a65726f206164647265737300000000006044820152606401610d85565b6001600160a01b038381166000818152603c602090815260408083209487168084529482529182902080549086905582518181529182018690529392917fb3fd5071835887567a0671151121894ddccc2842f1d10bedad13e0d17cace9a7910160405180910390a3826001600160a01b0316846001600160a01b03167f8c5be1e5ebec7d5bd14f71427d1e84f3dd0314c0f7b2291e5b200ac8c7c3b925846040516121e791815260200190565b60405180910390a350505050565b30600090815260016020526040812054610b15905b8316831490565b6001600160a01b038216600090815260016020526040812054610bcc9061220a565b6000610b153383612211565b6001600160a01b0382166122845760405162461bcd60e51b815260206004820152600c60248201526b7a65726f206164647265737360a01b6044820152606401610d85565b603554818101116122e15760405162461bcd60e51b815260206004820152602160248201527f7a65726f2076616c7565206f722061726974686d65746963206f766572666c6f6044820152607760f81b6064820152608401610d85565b6035546001600160c01b03906122f8908390613cc3565b11156123465760405162461bcd60e51b815260206004820152601f60248201527f746f74616c20737570706c79206f766572666c6f77202875696e7431393229006044820152606401610d85565b80603560008282546123589190613cc3565b90915550506001600160a01b03821660009081526036602052604081208054839290612385908490613cc3565b90915550612399905060396120cc83612ff9565b50506001600160a01b038083166000908152603760205260408120546123c392339291168461318a565b6040518181526001600160a01b0383169033907f9d228d69b5fdb8d273a2336f8fb8612d039631024ea9bf09c424a9503aa078f09060200160405180910390a36040518181526001600160a01b038316906000903390600080516020613dab8339815191529060200160405180910390a46040518181526001600160a01b03831690600090600080516020613dcb8339815191529060200160405180910390a35050565b600054610100900460ff166124d25760405162461bcd60e51b815260206004820152602b60248201527f496e697469616c697a61626c653a20636f6e7472616374206973206e6f74206960448201526a6e697469616c697a696e6760a81b6064820152608401610d85565b6124df82600019806132f0565b6119f23082836132f0565b836001600160a01b0316836001600160a01b0316148015612510575061251060016121f5565b8061253d5750836001600160a01b0316836001600160a01b03161415801561253d575061253d60026121f5565b846001600160a01b0316846001600160a01b031614612591576040518060400160405280602081526020017f7472616e7366657273206f6e20626568616c66206172652064697361626c65648152506125c1565b604051806040016040528060168152602001751d1c985b9cd9995c9cc8185c9948191a5cd8589b195960521b8152505b906125df5760405162461bcd60e51b8152600401610d859190613c5a565b506001600160a01b0383166126365760405162461bcd60e51b815260206004820152601e60248201527f7472616e736665722066726f6d20746865207a65726f206164647265737300006044820152606401610d85565b6001600160a01b03821661268c5760405162461bcd60e51b815260206004820152601c60248201527f7472616e7366657220746f20746865207a65726f2061646472657373000000006044820152606401610d85565b6001600160a01b03821630141561270b5760405162461bcd60e51b815260206004820152603f60248201527f696e76616c696420726563697069656e7420287472616e7366657220746f207460448201527f686520746f6b656e20736d61727420636f6e747261637420697473656c6629006064820152608401610d85565b8061279557816001600160a01b0316836001600160a01b0316856001600160a01b0316600080516020613dab8339815191528460405161274d91815260200190565b60405180910390a4816001600160a01b0316836001600160a01b0316600080516020613dcb8339815191528360405161278891815260200190565b60405180910390a3612a70565b836001600160a01b0316836001600160a01b031614612903576001600160a01b038084166000908152603c60209081526040808320938816835292905220548181101561282e5760405162461bcd60e51b815260206004820152602160248201527f7472616e7366657220616d6f756e74206578636565647320616c6c6f77616e636044820152606560f81b6064820152608401610d85565b600019811015612901576128428282613cfb565b6001600160a01b038086166000818152603c60209081526040808320948b16808452949091529020839055919250907fb3fd5071835887567a0671151121894ddccc2842f1d10bedad13e0d17cace9a761289c8585613cc3565b60408051918252602082018690520160405180910390a3846001600160a01b0316846001600160a01b03167f8c5be1e5ebec7d5bd14f71427d1e84f3dd0314c0f7b2291e5b200ac8c7c3b925836040516128f891815260200190565b60405180910390a35b505b6001600160a01b03831660009081526036602052604090205481111561296b5760405162461bcd60e51b815260206004820152601f60248201527f7472616e7366657220616d6f756e7420657863656564732062616c616e6365006044820152606401610d85565b6001600160a01b03831660009081526036602052604081208054839290612993908490613cfb565b90915550506001600160a01b038216600090815260366020526040812080548392906129c0908490613cc3565b90915550506001600160a01b038084166000908152603760205260408082205485841683529120546129f8928792811691168461318a565b816001600160a01b0316836001600160a01b0316856001600160a01b0316600080516020613dab83398151915284604051612a3591815260200190565b60405180910390a4816001600160a01b0316836001600160a01b0316600080516020613dcb833981519152836040516121e791815260200190565b50505050565b8351602085012060009081612a89610c5c565b60405161190160f01b60208201526022810191909152604281018390526062016040516020818303038152906040528051906020012090506000612acf82888888613485565b98975050505050505050565b6001600160a01b0383166000908152603b6020908152604080832085845290915290205460ff1615612b3f5760405162461bcd60e51b815260206004820152600d60248201526c696e76616c6964206e6f6e636560981b6044820152606401610d85565b6001600160a01b0383166000908152603b602090815260408083208584529091529020805460ff191660011790558015612bae5760405182906001600160a01b038516907f1cdd46ff242716cdaa72d159d339a485b3438398348d68f09d7c8c0a59353d8190600090a3505050565b60405182906001600160a01b038516907f98de503528ee59b575ef0c0a2576a82497bfc029a5685b209e9ec333479b10a590600090a3505050565b6001600160a01b0380831660009081526037602081815260408084208054603684529190942054929091528484166001600160a01b0319821617909255911690612c358483858461318a565b826001600160a01b0316826001600160a01b0316856001600160a01b03167f3134e8a2e6d97e929a7e54011ea5485d7d196dd5f0ba4d4ef95803e8e3fc257f60405160405180910390a450505050565b6001600160a01b0384163b612cd65780612cd15760405162461bcd60e51b815260206004820152600d60248201526c1153d0481c9958da5c1a595b9d609a1b6044820152606401610d85565b612dcb565b604051632229f29760e21b81526000906001600160a01b038616906388a7ca5c90612d0b9033908a9089908990600401613b59565b602060405180830381600087803b158015612d2557600080fd5b505af1158015612d39573d6000803e3d6000fd5b505050506040513d601f19601f82011682018060405250810190612d5d9190613ada565b90506001600160e01b03198116632229f29760e21b1461112f5760405162461bcd60e51b815260206004820152602360248201527f696e76616c6964206f6e5472616e73666572526563656976656420726573706f6044820152626e736560e81b6064820152608401610d85565b5050505050565b8154600090612de357506000610b15565b825482908490612df590600190613cfb565b81548110612e1357634e487b7160e01b600052603260045260246000fd5b6000918252602090912001546001600160401b031611612e7e5782548390612e3d90600190613cfb565b81548110612e5b57634e487b7160e01b600052603260045260246000fd5b600091825260209091200154600160401b90046001600160c01b03169050610b15565b8183600081548110612ea057634e487b7160e01b600052603260045260246000fd5b6000918252602090912001546001600160401b03161115612ec357506000610b15565b82546000908190612ed690600190613cfb565b90505b81811115612fb45760006002612eef8484613cfb565b612ef99190613cdb565b612f039083613cfb565b90506000868281548110612f2757634e487b7160e01b600052603260045260246000fd5b6000918252602091829020604080518082019091529101546001600160401b038116808352600160401b9091046001600160c01b0316928201929092529150861415612f8557602001516001600160c01b03169350610b1592505050565b80516001600160401b0316861115612f9f57819350612fad565b612faa600183613cfb565b92505b5050612ed9565b848281548110612fd457634e487b7160e01b600052603260045260246000fd5b600091825260209091200154600160401b90046001600160c01b031695945050505050565b8254600090819015613054578454859061301590600190613cfb565b8154811061303357634e487b7160e01b600052603260045260246000fd5b600091825260209091200154600160401b90046001600160c01b0316613057565b60005b6001600160c01b0316915061307082848663ffffffff16565b8554909150158015906130c5575084544390869061309090600190613cfb565b815481106130ae57634e487b7160e01b600052603260045260246000fd5b6000918252602090912001546001600160401b0316145b15613130578454819086906130dc90600190613cfb565b815481106130fa57634e487b7160e01b600052603260045260246000fd5b9060005260206000200160000160086101000a8154816001600160c01b0302191690836001600160c01b03160217905550613182565b604080518082019091526001600160401b0343811682526001600160c01b0380841660208085019182528954600181018b5560008b81529190912094519151909216600160401b029216919091179101555b935093915050565b816001600160a01b0316836001600160a01b031614806131a8575080155b156131b257612a70565b6001600160a01b03831615613246576001600160a01b038316600090815260386020526040812090806131e8836120d886612ff9565b91509150856001600160a01b0316876001600160a01b03167fd1404f22081753a56b50e0d5ff5c9ed0e4a3a840e1171a443721a342e71bb5c1848460405161323a929190918252602082015260400190565b60405180910390a35050505b6001600160a01b03821615612a70576001600160a01b0382166000908152603860205260408120908061327c836120cc86612ff9565b91509150846001600160a01b0316876001600160a01b03167fd1404f22081753a56b50e0d5ff5c9ed0e4a3a840e1171a443721a342e71bb5c184846040516132ce929190918252602082015260400190565b60405180910390a350505050505050565b6111976132eb82612233565b6135e8565b6001600160a01b03831660008181526001602090815260409182902084905581518581529081018490527fe9be537308880e0f56b7d7cfd7abf85f14c4934486d138f848b92a0cbaf659b4910160405180910390a2505050565b6000836001600160a01b03163b116133925760405162461bcd60e51b815260206004820152600b60248201526a22a7a09039b832b73232b960a91b6044820152606401610d85565b6040516307b04a2d60e41b81526000906001600160a01b03851690637b04a2d0906133c590339087908790600401613b96565b602060405180830381600087803b1580156133df57600080fd5b505af11580156133f3573d6000803e3d6000fd5b505050506040513d601f19601f820116820180604052508101906134179190613ada565b90506001600160e01b031981166307b04a2d60e41b14612a705760405162461bcd60e51b815260206004820152602360248201527f696e76616c6964206f6e417070726f76616c526563656976656420726573706f6044820152626e736560e81b6064820152608401610d85565b60007f7fffffffffffffffffffffffffffffff5d576e7357a4501ddfe92f46681b20a08211156134f75760405162461bcd60e51b815260206004820152601b60248201527f696e76616c6964207369676e6174757265202773272076616c756500000000006044820152606401610d85565b8360ff16601b148061350c57508360ff16601c145b6135585760405162461bcd60e51b815260206004820152601b60248201527f696e76616c6964207369676e6174757265202776272076616c756500000000006044820152606401610d85565b6040805160008082526020820180845288905260ff871692820192909252606081018590526080810184905260019060a0016020604051602081039080840390855afa1580156135ac573d6000803e3d6000fd5b5050604051601f1901519150506001600160a01b0381166135df5760405162461bcd60e51b8152600401610d8590613c6d565b95945050505050565b8061119757604051634ca8886760e01b815260040160405180910390fd5b82805461361290613d12565b90600052602060002090601f016020900481019282613634576000855561367a565b82601f1061364d57805160ff191683800117855561367a565b8280016001018555821561367a579182015b8281111561367a57825182559160200191906001019061365f565b5061368692915061368a565b5090565b5b80821115613686576000815560010161368b565b80356001600160a01b03811681146136b657600080fd5b919050565b600082601f8301126136cb578081fd5b81356001600160401b03808211156136e5576136e5613d7e565b604051601f8301601f19908116603f0116810190828211818310171561370d5761370d613d7e565b81604052838152866020858801011115613725578485fd5b8360208701602083013792830160200193909352509392505050565b803560ff811681146136b657600080fd5b600060208284031215613763578081fd5b610bcc8261369f565b6000806040838503121561377e578081fd5b6137878361369f565b91506137956020840161369f565b90509250929050565b6000806000606084860312156137b2578081fd5b6137bb8461369f565b92506137c96020850161369f565b9150604084013590509250925092565b600080600080608085870312156137ee578081fd5b6137f78561369f565b93506138056020860161369f565b92506040850135915060608501356001600160401b03811115613826578182fd5b613832878288016136bb565b91505092959194509250565b60008060008060008060008060006101208a8c03121561385c578485fd5b6138658a61369f565b985061387360208b0161369f565b975060408a0135965060608a0135955060808a0135945060a08a0135935061389d60c08b01613741565b925060e08a013591506101008a013590509295985092959850929598565b600080600080600080600060e0888a0312156138d5578283fd5b6138de8861369f565b96506138ec6020890161369f565b9550604088013594506060880135935061390860808901613741565b925060a0880135915060c0880135905092959891949750929550565b60008060408385031215613936578182fd5b61393f8361369f565b946020939093013593505050565b60008060008060008060c08789031215613965578182fd5b61396e8761369f565b9550602087013594506040870135935061398a60608801613741565b92506080870135915060a087013590509295509295509295565b600080600080600060a086880312156139bb578283fd5b6139c48661369f565b9450602086013593506139d960408701613741565b94979396509394606081013594506080013592915050565b60008060008060008060c08789031215613a09578384fd5b613a128761369f565b955060208701356001600160401b0380821115613a2d578586fd5b613a398a838b016136bb565b96506040890135915080821115613a4e578586fd5b50613a5b89828a016136bb565b94505061398a6060880161369f565b600080600060608486031215613a7e578081fd5b613a878461369f565b92506020840135915060408401356001600160401b03811115613aa8578182fd5b613ab4868287016136bb565b9150509250925092565b600060208284031215613acf578081fd5b8135610bcc81613d94565b600060208284031215613aeb578081fd5b8151610bcc81613d94565b600060208284031215613b07578081fd5b5035919050565b60008151808452815b81811015613b3357602081850181015186830182015201613b17565b81811115613b445782602083870101525b50601f01601f19169290920160200192915050565b6001600160a01b0385811682528416602082015260408101839052608060608201819052600090613b8c90830184613b0e565b9695505050505050565b60018060a01b03841681528260208201526060604082015260006135df6060830184613b0e565b602080825282518282018190526000919060409081850190868401855b82811015613c1157815180516001600160401b031685528601516001600160c01b0316868501529284019290850190600101613bda565b5091979650505050505050565b9687526001600160a01b0395861660208801529390941660408601526060850191909152608084015260a083019190915260c082015260e00190565b602081526000610bcc6020830184613b0e565b602080825260119082015270696e76616c6964207369676e617475726560781b604082015260600190565b6020808252601190820152701cda59db985d1d5c9948195e1c1a5c9959607a1b604082015260600190565b60008219821115613cd657613cd6613d68565b500190565b600082613cf657634e487b7160e01b81526012600452602481fd5b500490565b600082821015613d0d57613d0d613d68565b500390565b600181811c90821680613d2657607f821691505b60208210811415613d4757634e487b7160e01b600052602260045260246000fd5b50919050565b6000600019821415613d6157613d61613d68565b5060010190565b634e487b7160e01b600052601160045260246000fd5b634e487b7160e01b600052604160045260246000fd5b6001600160e01b03198116811461119757600080fdfed1398bee19313d6bf672ccb116e51f4a1a947e91c757907f51fbb5b5e56c698fddf252ad1be2c89b69c2b068fc378daa952ba7f163c4a11628f55a4df523b3efa2646970667358221220c7909fcd51b2f877c0d3ee35645924248ec6eacc0e4e7d935d998cc487cf22ad64736f6c63430008040033496e697469616c697a61626c653a20636f6e747261637420697320616c7265617f26b83ff96e1f2b6a682f133852f6798a09c465da95921460cefb3847402498d1404f22081753a56b50e0d5ff5c9ed0e4a3a840e1171a443721a342e71bb5c1",
  "linkReferences": {},
  "deployedLinkReferences": {}
}