{
  "_format": "hh-sol-artifact-1",
  "contractName": "AdvancedERC20",
  "sourceName": "contracts/token/AdvancedERC20.sol",
  "abi": [
    {
      "inputs": [
        {
          "internalType": "address",
          "name": "_contractOwner",
          "type": "address"
        },
        {
          "internalType": "string",
          "name": "_name",
          "type": "string"
        },
        {
          "internalType": "string",
          "name": "_symbol",
          "type": "string"
        },
        {
          "internalType": "address",
          "name": "_initialHolder",
          "type": "address"
        },
        {
          "internalType": "uint256",
          "name": "_initialSupply",
          "type": "uint256"
        },
        {
          "internalType": "uint256",
          "name": "_initialFeatures",
          "type": "uint256"
        }
      ],
      "stateMutability": "nonpayable",
      "type": "constructor"
    },
    {
      "anonymous": false,
      "inputs": [
        {
          "indexed": true,
          "internalType": "address",
          "name": "owner",
          "type": "address"
        },
        {
          "indexed": true,
          "internalType": "address",
          "name": "spender",
          "type": "address"
        },
        {
          "indexed": false,
          "internalType": "uint256",
          "name": "oldValue",
          "type": "uint256"
        },
        {
          "indexed": false,
          "internalType": "uint256",
          "name": "value",
          "type": "uint256"
        }
      ],
      "name": "Approval",
      "type": "event"
    },
    {
      "anonymous": false,
      "inputs": [
        {
          "indexed": true,
          "internalType": "address",
          "name": "owner",
          "type": "address"
        },
        {
          "indexed": true,
          "internalType": "address",
          "name": "spender",
          "type": "address"
        },
        {
          "indexed": false,
          "internalType": "uint256",
          "name": "value",
          "type": "uint256"
        }
      ],
      "name": "Approval",
      "type": "event"
    },
    {
      "anonymous": false,
      "inputs": [
        {
          "indexed": true,
          "internalType": "address",
          "name": "authorizer",
          "type": "address"
        },
        {
          "indexed": true,
          "internalType": "bytes32",
          "name": "nonce",
          "type": "bytes32"
        }
      ],
      "name": "AuthorizationCanceled",
      "type": "event"
    },
    {
      "anonymous": false,
      "inputs": [
        {
          "indexed": true,
          "internalType": "address",
          "name": "authorizer",
          "type": "address"
        },
        {
          "indexed": true,
          "internalType": "bytes32",
          "name": "nonce",
          "type": "bytes32"
        }
      ],
      "name": "AuthorizationUsed",
      "type": "event"
    },
    {
      "anonymous": false,
      "inputs": [
        {
          "indexed": true,
          "internalType": "address",
          "name": "by",
          "type": "address"
        },
        {
          "indexed": true,
          "internalType": "address",
          "name": "from",
          "type": "address"
        },
        {
          "indexed": false,
          "internalType": "uint256",
          "name": "value",
          "type": "uint256"
        }
      ],
      "name": "Burnt",
      "type": "event"
    },
    {
      "anonymous": false,
      "inputs": [
        {
          "indexed": true,
          "internalType": "address",
          "name": "source",
          "type": "address"
        },
        {
          "indexed": true,
          "internalType": "address",
          "name": "from",
          "type": "address"
        },
        {
          "indexed": true,
          "internalType": "address",
          "name": "to",
          "type": "address"
        }
      ],
      "name": "DelegateChanged",
      "type": "event"
    },
    {
      "anonymous": false,
      "inputs": [
        {
          "indexed": false,
          "internalType": "uint8",
          "name": "version",
          "type": "uint8"
        }
      ],
      "name": "Initialized",
      "type": "event"
    },
    {
      "anonymous": false,
      "inputs": [
        {
          "indexed": true,
          "internalType": "address",
          "name": "by",
          "type": "address"
        },
        {
          "indexed": true,
          "internalType": "address",
          "name": "to",
          "type": "address"
        },
        {
          "indexed": false,
          "internalType": "uint256",
          "name": "value",
          "type": "uint256"
        }
      ],
      "name": "Minted",
      "type": "event"
    },
    {
      "anonymous": false,
      "inputs": [
        {
          "indexed": true,
          "internalType": "address",
          "name": "operator",
          "type": "address"
        },
        {
          "indexed": false,
          "internalType": "uint256",
          "name": "requested",
          "type": "uint256"
        },
        {
          "indexed": false,
          "internalType": "uint256",
          "name": "assigned",
          "type": "uint256"
        }
      ],
      "name": "RoleUpdated",
      "type": "event"
    },
    {
      "anonymous": false,
      "inputs": [
        {
          "indexed": true,
          "internalType": "address",
          "name": "by",
          "type": "address"
        },
        {
          "indexed": true,
          "internalType": "address",
          "name": "from",
          "type": "address"
        },
        {
          "indexed": true,
          "internalType": "address",
          "name": "to",
          "type": "address"
        },
        {
          "indexed": false,
          "internalType": "uint256",
          "name": "value",
          "type": "uint256"
        }
      ],
      "name": "Transfer",
      "type": "event"
    },
    {
      "anonymous": false,
      "inputs": [
        {
          "indexed": true,
          "internalType": "address",
          "name": "from",
          "type": "address"
        },
        {
          "indexed": true,
          "internalType": "address",
          "name": "to",
          "type": "address"
        },
        {
          "indexed": false,
          "internalType": "uint256",
          "name": "value",
          "type": "uint256"
        }
      ],
      "name": "Transfer",
      "type": "event"
    },
    {
      "anonymous": false,
      "inputs": [
        {
          "indexed": true,
          "internalType": "address",
          "name": "by",
          "type": "address"
        },
        {
          "indexed": true,
          "internalType": "address",
          "name": "target",
          "type": "address"
        },
        {
          "indexed": false,
          "internalType": "uint256",
          "name": "fromVal",
          "type": "uint256"
        },
        {
          "indexed": false,
          "internalType": "uint256",
          "name": "toVal",
          "type": "uint256"
        }
      ],
      "name": "VotingPowerChanged",
      "type": "event"
    },
    {
      "inputs": [],
      "name": "CANCEL_AUTHORIZATION_TYPEHASH",
      "outputs": [
        {
          "internalType": "bytes32",
          "name": "",
          "type": "bytes32"
        }
      ],
      "stateMutability": "view",
      "type": "function"
    },
    {
      "inputs": [],
      "name": "DELEGATION_TYPEHASH",
      "outputs": [
        {
          "internalType": "bytes32",
          "name": "",
          "type": "bytes32"
        }
      ],
      "stateMutability": "view",
      "type": "function"
    },
    {
      "inputs": [],
      "name": "DOMAIN_SEPARATOR",
      "outputs": [
        {
          "internalType": "bytes32",
          "name": "",
          "type": "bytes32"
        }
      ],
      "stateMutability": "view",
      "type": "function"
    },
    {
      "inputs": [],
      "name": "DOMAIN_TYPEHASH",
      "outputs": [
        {
          "internalType": "bytes32",
          "name": "",
          "type": "bytes32"
        }
      ],
      "stateMutability": "view",
      "type": "function"
    },
    {
      "inputs": [],
      "name": "FEATURE_BURNS_ON_BEHALF",
      "outputs": [
        {
          "internalType": "uint32",
          "name": "",
          "type": "uint32"
        }
      ],
      "stateMutability": "view",
      "type": "function"
    },
    {
      "inputs": [],
      "name": "FEATURE_DELEGATIONS",
      "outputs": [
        {
          "internalType": "uint32",
          "name": "",
          "type": "uint32"
        }
      ],
      "stateMutability": "view",
      "type": "function"
    },
    {
      "inputs": [],
      "name": "FEATURE_DELEGATIONS_ON_BEHALF",
      "outputs": [
        {
          "internalType": "uint32",
          "name": "",
          "type": "uint32"
        }
      ],
      "stateMutability": "view",
      "type": "function"
    },
    {
      "inputs": [],
      "name": "FEATURE_EIP2612_PERMITS",
      "outputs": [
        {
          "internalType": "uint32",
          "name": "",
          "type": "uint32"
        }
      ],
      "stateMutability": "view",
      "type": "function"
    },
    {
      "inputs": [],
      "name": "FEATURE_EIP3009_RECEPTIONS",
      "outputs": [
        {
          "internalType": "uint32",
          "name": "",
          "type": "uint32"
        }
      ],
      "stateMutability": "view",
      "type": "function"
    },
    {
      "inputs": [],
      "name": "FEATURE_EIP3009_TRANSFERS",
      "outputs": [
        {
          "internalType": "uint32",
          "name": "",
          "type": "uint32"
        }
      ],
      "stateMutability": "view",
      "type": "function"
    },
    {
      "inputs": [],
      "name": "FEATURE_ERC1363_APPROVALS",
      "outputs": [
        {
          "internalType": "uint32",
          "name": "",
          "type": "uint32"
        }
      ],
      "stateMutability": "view",
      "type": "function"
    },
    {
      "inputs": [],
      "name": "FEATURE_ERC1363_TRANSFERS",
      "outputs": [
        {
          "internalType": "uint32",
          "name": "",
          "type": "uint32"
        }
      ],
      "stateMutability": "view",
      "type": "function"
    },
    {
      "inputs": [],
      "name": "FEATURE_OWN_BURNS",
      "outputs": [
        {
          "internalType": "uint32",
          "name": "",
          "type": "uint32"
        }
      ],
      "stateMutability": "view",
      "type": "function"
    },
    {
      "inputs": [],
      "name": "FEATURE_TRANSFERS",
      "outputs": [
        {
          "internalType": "uint32",
          "name": "",
          "type": "uint32"
        }
      ],
      "stateMutability": "view",
      "type": "function"
    },
    {
      "inputs": [],
      "name": "FEATURE_TRANSFERS_ON_BEHALF",
      "outputs": [
        {
          "internalType": "uint32",
          "name": "",
          "type": "uint32"
        }
      ],
      "stateMutability": "view",
      "type": "function"
    },
    {
      "inputs": [],
      "name": "FEATURE_UNSAFE_TRANSFERS",
      "outputs": [
        {
          "internalType": "uint32",
          "name": "",
          "type": "uint32"
        }
      ],
      "stateMutability": "view",
      "type": "function"
    },
    {
      "inputs": [],
      "name": "PERMIT_TYPEHASH",
      "outputs": [
        {
          "internalType": "bytes32",
          "name": "",
          "type": "bytes32"
        }
      ],
      "stateMutability": "view",
      "type": "function"
    },
    {
      "inputs": [],
      "name": "RECEIVE_WITH_AUTHORIZATION_TYPEHASH",
      "outputs": [
        {
          "internalType": "bytes32",
          "name": "",
          "type": "bytes32"
        }
      ],
      "stateMutability": "view",
      "type": "function"
    },
    {
      "inputs": [],
      "name": "ROLE_ACCESS_MANAGER",
      "outputs": [
        {
          "internalType": "uint256",
          "name": "",
          "type": "uint256"
        }
      ],
      "stateMutability": "view",
      "type": "function"
    },
    {
      "inputs": [],
      "name": "ROLE_ERC20_RECEIVER",
      "outputs": [
        {
          "internalType": "uint32",
          "name": "",
          "type": "uint32"
        }
      ],
      "stateMutability": "view",
      "type": "function"
    },
    {
      "inputs": [],
      "name": "ROLE_ERC20_SENDER",
      "outputs": [
        {
          "internalType": "uint32",
          "name": "",
          "type": "uint32"
        }
      ],
      "stateMutability": "view",
      "type": "function"
    },
    {
      "inputs": [],
      "name": "ROLE_TOKEN_CREATOR",
      "outputs": [
        {
          "internalType": "uint32",
          "name": "",
          "type": "uint32"
        }
      ],
      "stateMutability": "view",
      "type": "function"
    },
    {
      "inputs": [],
      "name": "ROLE_TOKEN_DESTROYER",
      "outputs": [
        {
          "internalType": "uint32",
          "name": "",
          "type": "uint32"
        }
      ],
      "stateMutability": "view",
      "type": "function"
    },
    {
      "inputs": [],
      "name": "ROLE_UPGRADE_MANAGER",
      "outputs": [
        {
          "internalType": "uint256",
          "name": "",
          "type": "uint256"
        }
      ],
      "stateMutability": "view",
      "type": "function"
    },
    {
      "inputs": [],
      "name": "TRANSFER_WITH_AUTHORIZATION_TYPEHASH",
      "outputs": [
        {
          "internalType": "bytes32",
          "name": "",
          "type": "bytes32"
        }
      ],
      "stateMutability": "view",
      "type": "function"
    },
    {
      "inputs": [
        {
          "internalType": "address",
          "name": "_owner",
          "type": "address"
        },
        {
          "internalType": "address",
          "name": "_spender",
          "type": "address"
        }
      ],
      "name": "allowance",
      "outputs": [
        {
          "internalType": "uint256",
          "name": "remaining",
          "type": "uint256"
        }
      ],
      "stateMutability": "view",
      "type": "function"
    },
    {
      "inputs": [
        {
          "internalType": "address",
          "name": "_spender",
          "type": "address"
        },
        {
          "internalType": "uint256",
          "name": "_value",
          "type": "uint256"
        }
      ],
      "name": "approve",
      "outputs": [
        {
          "internalType": "bool",
          "name": "success",
          "type": "bool"
        }
      ],
      "stateMutability": "nonpayable",
      "type": "function"
    },
    {
      "inputs": [
        {
          "internalType": "address",
          "name": "_spender",
          "type": "address"
        },
        {
          "internalType": "uint256",
          "name": "_value",
          "type": "uint256"
        }
      ],
      "name": "approveAndCall",
      "outputs": [
        {
          "internalType": "bool",
          "name": "",
          "type": "bool"
        }
      ],
      "stateMutability": "nonpayable",
      "type": "function"
    },
    {
      "inputs": [
        {
          "internalType": "address",
          "name": "_spender",
          "type": "address"
        },
        {
          "internalType": "uint256",
          "name": "_value",
          "type": "uint256"
        },
        {
          "internalType": "bytes",
          "name": "_data",
          "type": "bytes"
        }
      ],
      "name": "approveAndCall",
      "outputs": [
        {
          "internalType": "bool",
          "name": "",
          "type": "bool"
        }
      ],
      "stateMutability": "nonpayable",
      "type": "function"
    },
    {
      "inputs": [
        {
          "internalType": "address",
          "name": "_authorizer",
          "type": "address"
        },
        {
          "internalType": "bytes32",
          "name": "_nonce",
          "type": "bytes32"
        }
      ],
      "name": "authorizationState",
      "outputs": [
        {
          "internalType": "bool",
          "name": "",
          "type": "bool"
        }
      ],
      "stateMutability": "view",
      "type": "function"
    },
    {
      "inputs": [
        {
          "internalType": "address",
          "name": "_owner",
          "type": "address"
        }
      ],
      "name": "balanceOf",
      "outputs": [
        {
          "internalType": "uint256",
          "name": "balance",
          "type": "uint256"
        }
      ],
      "stateMutability": "view",
      "type": "function"
    },
    {
      "inputs": [
        {
          "internalType": "address",
          "name": "_from",
          "type": "address"
        },
        {
          "internalType": "uint256",
          "name": "_value",
          "type": "uint256"
        }
      ],
      "name": "burn",
      "outputs": [
        {
          "internalType": "bool",
          "name": "success",
          "type": "bool"
        }
      ],
      "stateMutability": "nonpayable",
      "type": "function"
    },
    {
      "inputs": [
        {
          "internalType": "address",
          "name": "_authorizer",
          "type": "address"
        },
        {
          "internalType": "bytes32",
          "name": "_nonce",
          "type": "bytes32"
        },
        {
          "internalType": "uint8",
          "name": "v",
          "type": "uint8"
        },
        {
          "internalType": "bytes32",
          "name": "r",
          "type": "bytes32"
        },
        {
          "internalType": "bytes32",
          "name": "s",
          "type": "bytes32"
        }
      ],
      "name": "cancelAuthorization",
      "outputs": [],
      "stateMutability": "nonpayable",
      "type": "function"
    },
    {
      "inputs": [],
      "name": "decimals",
      "outputs": [
        {
          "internalType": "uint8",
          "name": "",
          "type": "uint8"
        }
      ],
      "stateMutability": "view",
      "type": "function"
    },
    {
      "inputs": [
        {
          "internalType": "address",
          "name": "_spender",
          "type": "address"
        },
        {
          "internalType": "uint256",
          "name": "_value",
          "type": "uint256"
        }
      ],
      "name": "decreaseAllowance",
      "outputs": [
        {
          "internalType": "bool",
          "name": "",
          "type": "bool"
        }
      ],
      "stateMutability": "nonpayable",
      "type": "function"
    },
    {
      "inputs": [
        {
          "internalType": "address",
          "name": "_to",
          "type": "address"
        }
      ],
      "name": "delegate",
      "outputs": [],
      "stateMutability": "nonpayable",
      "type": "function"
    },
    {
      "inputs": [
        {
          "internalType": "address",
          "name": "_to",
          "type": "address"
        },
        {
          "internalType": "bytes32",
          "name": "_nonce",
          "type": "bytes32"
        },
        {
          "internalType": "uint256",
          "name": "_exp",
          "type": "uint256"
        },
        {
          "internalType": "uint8",
          "name": "v",
          "type": "uint8"
        },
        {
          "internalType": "bytes32",
          "name": "r",
          "type": "bytes32"
        },
        {
          "internalType": "bytes32",
          "name": "s",
          "type": "bytes32"
        }
      ],
      "name": "delegateWithAuthorization",
      "outputs": [],
      "stateMutability": "nonpayable",
      "type": "function"
    },
    {
      "inputs": [],
      "name": "entireSupplyHistory",
      "outputs": [
        {
          "components": [
            {
              "internalType": "uint64",
              "name": "k",
              "type": "uint64"
            },
            {
              "internalType": "uint192",
              "name": "v",
              "type": "uint192"
            }
          ],
          "internalType": "struct AdvancedERC20.KV[]",
          "name": "",
          "type": "tuple[]"
        }
      ],
      "stateMutability": "view",
      "type": "function"
    },
    {
      "inputs": [],
      "name": "features",
      "outputs": [
        {
          "internalType": "uint256",
          "name": "",
          "type": "uint256"
        }
      ],
      "stateMutability": "view",
      "type": "function"
    },
    {
      "inputs": [],
      "name": "getInitializedVersion",
      "outputs": [
        {
          "internalType": "uint64",
          "name": "",
          "type": "uint64"
        }
      ],
      "stateMutability": "view",
      "type": "function"
    },
    {
      "inputs": [
        {
          "internalType": "address",
          "name": "operator",
          "type": "address"
        }
      ],
      "name": "getRole",
      "outputs": [
        {
          "internalType": "uint256",
          "name": "",
          "type": "uint256"
        }
      ],
      "stateMutability": "view",
      "type": "function"
    },
    {
      "inputs": [
        {
          "internalType": "address",
          "name": "_spender",
          "type": "address"
        },
        {
          "internalType": "uint256",
          "name": "_value",
          "type": "uint256"
        }
      ],
      "name": "increaseAllowance",
      "outputs": [
        {
          "internalType": "bool",
          "name": "",
          "type": "bool"
        }
      ],
      "stateMutability": "nonpayable",
      "type": "function"
    },
    {
      "inputs": [
        {
          "internalType": "uint256",
          "name": "required",
          "type": "uint256"
        }
      ],
      "name": "isFeatureEnabled",
      "outputs": [
        {
          "internalType": "bool",
          "name": "",
          "type": "bool"
        }
      ],
      "stateMutability": "view",
      "type": "function"
    },
    {
      "inputs": [
        {
          "internalType": "address",
          "name": "operator",
          "type": "address"
        },
        {
          "internalType": "uint256",
          "name": "required",
          "type": "uint256"
        }
      ],
      "name": "isOperatorInRole",
      "outputs": [
        {
          "internalType": "bool",
          "name": "",
          "type": "bool"
        }
      ],
      "stateMutability": "view",
      "type": "function"
    },
    {
      "inputs": [
        {
          "internalType": "uint256",
          "name": "required",
          "type": "uint256"
        }
      ],
      "name": "isSenderInRole",
      "outputs": [
        {
          "internalType": "bool",
          "name": "",
          "type": "bool"
        }
      ],
      "stateMutability": "view",
      "type": "function"
    },
    {
      "inputs": [
        {
          "internalType": "address",
          "name": "_to",
          "type": "address"
        },
        {
          "internalType": "uint256",
          "name": "_value",
          "type": "uint256"
        }
      ],
      "name": "mint",
      "outputs": [
        {
          "internalType": "bool",
          "name": "success",
          "type": "bool"
        }
      ],
      "stateMutability": "nonpayable",
      "type": "function"
    },
    {
      "inputs": [],
      "name": "name",
      "outputs": [
        {
          "internalType": "string",
          "name": "",
          "type": "string"
        }
      ],
      "stateMutability": "view",
      "type": "function"
    },
    {
      "inputs": [
        {
          "internalType": "address",
          "name": "",
          "type": "address"
        }
      ],
      "name": "nonces",
      "outputs": [
        {
          "internalType": "uint256",
          "name": "",
          "type": "uint256"
        }
      ],
      "stateMutability": "view",
      "type": "function"
    },
    {
      "inputs": [
        {
          "internalType": "address",
          "name": "_owner",
          "type": "address"
        },
        {
          "internalType": "address",
          "name": "_spender",
          "type": "address"
        },
        {
          "internalType": "uint256",
          "name": "_value",
          "type": "uint256"
        },
        {
          "internalType": "uint256",
          "name": "_exp",
          "type": "uint256"
        },
        {
          "internalType": "uint8",
          "name": "v",
          "type": "uint8"
        },
        {
          "internalType": "bytes32",
          "name": "r",
          "type": "bytes32"
        },
        {
          "internalType": "bytes32",
          "name": "s",
          "type": "bytes32"
        }
      ],
      "name": "permit",
      "outputs": [],
      "stateMutability": "nonpayable",
      "type": "function"
    },
    {
      "inputs": [
        {
          "internalType": "address",
          "name": "_contractOwner",
          "type": "address"
        },
        {
          "internalType": "string",
          "name": "_name",
          "type": "string"
        },
        {
          "internalType": "string",
          "name": "_symbol",
          "type": "string"
        },
        {
          "internalType": "address",
          "name": "_initialHolder",
          "type": "address"
        },
        {
          "internalType": "uint256",
          "name": "_initialSupply",
          "type": "uint256"
        },
        {
          "internalType": "uint256",
          "name": "_initialFeatures",
          "type": "uint256"
        }
      ],
      "name": "postConstruct",
      "outputs": [],
      "stateMutability": "nonpayable",
      "type": "function"
    },
    {
      "inputs": [
        {
          "internalType": "address",
          "name": "_from",
          "type": "address"
        },
        {
          "internalType": "address",
          "name": "_to",
          "type": "address"
        },
        {
          "internalType": "uint256",
          "name": "_value",
          "type": "uint256"
        },
        {
          "internalType": "uint256",
          "name": "_validAfter",
          "type": "uint256"
        },
        {
          "internalType": "uint256",
          "name": "_validBefore",
          "type": "uint256"
        },
        {
          "internalType": "bytes32",
          "name": "_nonce",
          "type": "bytes32"
        },
        {
          "internalType": "uint8",
          "name": "v",
          "type": "uint8"
        },
        {
          "internalType": "bytes32",
          "name": "r",
          "type": "bytes32"
        },
        {
          "internalType": "bytes32",
          "name": "s",
          "type": "bytes32"
        }
      ],
      "name": "receiveWithAuthorization",
      "outputs": [],
      "stateMutability": "nonpayable",
      "type": "function"
    },
    {
      "inputs": [
        {
          "internalType": "address",
          "name": "_from",
          "type": "address"
        },
        {
          "internalType": "address",
          "name": "_to",
          "type": "address"
        },
        {
          "internalType": "uint256",
          "name": "_value",
          "type": "uint256"
        },
        {
          "internalType": "bytes",
          "name": "_data",
          "type": "bytes"
        }
      ],
      "name": "safeTransferFrom",
      "outputs": [
        {
          "internalType": "bool",
          "name": "",
          "type": "bool"
        }
      ],
      "stateMutability": "nonpayable",
      "type": "function"
    },
    {
      "inputs": [
        {
          "internalType": "bytes4",
          "name": "interfaceId",
          "type": "bytes4"
        }
      ],
      "name": "supportsInterface",
      "outputs": [
        {
          "internalType": "bool",
          "name": "",
          "type": "bool"
        }
      ],
      "stateMutability": "pure",
      "type": "function"
    },
    {
      "inputs": [],
      "name": "symbol",
      "outputs": [
        {
          "internalType": "string",
          "name": "",
          "type": "string"
        }
      ],
      "stateMutability": "view",
      "type": "function"
    },
    {
      "inputs": [],
      "name": "totalSupply",
      "outputs": [
        {
          "internalType": "uint256",
          "name": "",
          "type": "uint256"
        }
      ],
      "stateMutability": "view",
      "type": "function"
    },
    {
      "inputs": [
        {
          "internalType": "uint256",
          "name": "_blockNum",
          "type": "uint256"
        }
      ],
      "name": "totalSupplyAt",
      "outputs": [
        {
          "internalType": "uint256",
          "name": "",
          "type": "uint256"
        }
      ],
      "stateMutability": "view",
      "type": "function"
    },
    {
      "inputs": [
        {
          "internalType": "uint256",
          "name": "",
          "type": "uint256"
        }
      ],
      "name": "totalSupplyHistory",
      "outputs": [
        {
          "internalType": "uint64",
          "name": "k",
          "type": "uint64"
        },
        {
          "internalType": "uint192",
          "name": "v",
          "type": "uint192"
        }
      ],
      "stateMutability": "view",
      "type": "function"
    },
    {
      "inputs": [],
      "name": "totalSupplyHistoryLength",
      "outputs": [
        {
          "internalType": "uint256",
          "name": "",
          "type": "uint256"
        }
      ],
      "stateMutability": "view",
      "type": "function"
    },
    {
      "inputs": [
        {
          "internalType": "address",
          "name": "_to",
          "type": "address"
        },
        {
          "internalType": "uint256",
          "name": "_value",
          "type": "uint256"
        }
      ],
      "name": "transfer",
      "outputs": [
        {
          "internalType": "bool",
          "name": "success",
          "type": "bool"
        }
      ],
      "stateMutability": "nonpayable",
      "type": "function"
    },
    {
      "inputs": [
        {
          "internalType": "address",
          "name": "_to",
          "type": "address"
        },
        {
          "internalType": "uint256",
          "name": "_value",
          "type": "uint256"
        }
      ],
      "name": "transferAndCall",
      "outputs": [
        {
          "internalType": "bool",
          "name": "",
          "type": "bool"
        }
      ],
      "stateMutability": "nonpayable",
      "type": "function"
    },
    {
      "inputs": [
        {
          "internalType": "address",
          "name": "_to",
          "type": "address"
        },
        {
          "internalType": "uint256",
          "name": "_value",
          "type": "uint256"
        },
        {
          "internalType": "bytes",
          "name": "_data",
          "type": "bytes"
        }
      ],
      "name": "transferAndCall",
      "outputs": [
        {
          "internalType": "bool",
          "name": "",
          "type": "bool"
        }
      ],
      "stateMutability": "nonpayable",
      "type": "function"
    },
    {
      "inputs": [
        {
          "internalType": "address",
          "name": "_from",
          "type": "address"
        },
        {
          "internalType": "address",
          "name": "_to",
          "type": "address"
        },
        {
          "internalType": "uint256",
          "name": "_value",
          "type": "uint256"
        }
      ],
      "name": "transferFrom",
      "outputs": [
        {
          "internalType": "bool",
          "name": "success",
          "type": "bool"
        }
      ],
      "stateMutability": "nonpayable",
      "type": "function"
    },
    {
      "inputs": [
        {
          "internalType": "address",
          "name": "_from",
          "type": "address"
        },
        {
          "internalType": "address",
          "name": "_to",
          "type": "address"
        },
        {
          "internalType": "uint256",
          "name": "_value",
          "type": "uint256"
        },
        {
          "internalType": "bytes",
          "name": "_data",
          "type": "bytes"
        }
      ],
      "name": "transferFromAndCall",
      "outputs": [
        {
          "internalType": "bool",
          "name": "",
          "type": "bool"
        }
      ],
      "stateMutability": "nonpayable",
      "type": "function"
    },
    {
      "inputs": [
        {
          "internalType": "address",
          "name": "_from",
          "type": "address"
        },
        {
          "internalType": "address",
          "name": "_to",
          "type": "address"
        },
        {
          "internalType": "uint256",
          "name": "_value",
          "type": "uint256"
        }
      ],
      "name": "transferFromAndCall",
      "outputs": [
        {
          "internalType": "bool",
          "name": "",
          "type": "bool"
        }
      ],
      "stateMutability": "nonpayable",
      "type": "function"
    },
    {
      "inputs": [
        {
          "internalType": "address",
          "name": "_from",
          "type": "address"
        },
        {
          "internalType": "address",
          "name": "_to",
          "type": "address"
        },
        {
          "internalType": "uint256",
          "name": "_value",
          "type": "uint256"
        },
        {
          "internalType": "uint256",
          "name": "_validAfter",
          "type": "uint256"
        },
        {
          "internalType": "uint256",
          "name": "_validBefore",
          "type": "uint256"
        },
        {
          "internalType": "bytes32",
          "name": "_nonce",
          "type": "bytes32"
        },
        {
          "internalType": "uint8",
          "name": "v",
          "type": "uint8"
        },
        {
          "internalType": "bytes32",
          "name": "r",
          "type": "bytes32"
        },
        {
          "internalType": "bytes32",
          "name": "s",
          "type": "bytes32"
        }
      ],
      "name": "transferWithAuthorization",
      "outputs": [],
      "stateMutability": "nonpayable",
      "type": "function"
    },
    {
      "inputs": [
        {
          "internalType": "address",
          "name": "_from",
          "type": "address"
        },
        {
          "internalType": "address",
          "name": "_to",
          "type": "address"
        },
        {
          "internalType": "uint256",
          "name": "_value",
          "type": "uint256"
        }
      ],
      "name": "unsafeTransferFrom",
      "outputs": [],
      "stateMutability": "nonpayable",
      "type": "function"
    },
    {
      "inputs": [
        {
          "internalType": "uint256",
          "name": "_mask",
          "type": "uint256"
        }
      ],
      "name": "updateFeatures",
      "outputs": [],
      "stateMutability": "nonpayable",
      "type": "function"
    },
    {
      "inputs": [
        {
          "internalType": "address",
          "name": "operator",
          "type": "address"
        },
        {
          "internalType": "uint256",
          "name": "role",
          "type": "uint256"
        }
      ],
      "name": "updateRole",
      "outputs": [],
      "stateMutability": "nonpayable",
      "type": "function"
    },
    {
      "inputs": [
        {
          "internalType": "address",
          "name": "",
          "type": "address"
        }
      ],
      "name": "votingDelegates",
      "outputs": [
        {
          "internalType": "address",
          "name": "",
          "type": "address"
        }
      ],
      "stateMutability": "view",
      "type": "function"
    },
    {
      "inputs": [
        {
          "internalType": "address",
          "name": "_of",
          "type": "address"
        },
        {
          "internalType": "uint256",
          "name": "_blockNum",
          "type": "uint256"
        }
      ],
      "name": "votingPowerAt",
      "outputs": [
        {
          "internalType": "uint256",
          "name": "",
          "type": "uint256"
        }
      ],
      "stateMutability": "view",
      "type": "function"
    },
    {
      "inputs": [
        {
          "internalType": "address",
          "name": "",
          "type": "address"
        },
        {
          "internalType": "uint256",
          "name": "",
          "type": "uint256"
        }
      ],
      "name": "votingPowerHistory",
      "outputs": [
        {
          "internalType": "uint64",
          "name": "k",
          "type": "uint64"
        },
        {
          "internalType": "uint192",
          "name": "v",
          "type": "uint192"
        }
      ],
      "stateMutability": "view",
      "type": "function"
    },
    {
      "inputs": [
        {
          "internalType": "address",
          "name": "_of",
          "type": "address"
        }
      ],
      "name": "votingPowerHistoryLength",
      "outputs": [
        {
          "internalType": "uint256",
          "name": "",
          "type": "uint256"
        }
      ],
      "stateMutability": "view",
      "type": "function"
    },
    {
      "inputs": [
        {
          "internalType": "address",
          "name": "_of",
          "type": "address"
        }
      ],
      "name": "votingPowerHistoryOf",
      "outputs": [
        {
          "components": [
            {
              "internalType": "uint64",
              "name": "k",
              "type": "uint64"
            },
            {
              "internalType": "uint192",
              "name": "v",
              "type": "uint192"
            }
          ],
          "internalType": "struct AdvancedERC20.KV[]",
          "name": "",
          "type": "tuple[]"
        }
      ],
      "stateMutability": "view",
      "type": "function"
    },
    {
      "inputs": [
        {
          "internalType": "address",
          "name": "_of",
          "type": "address"
        }
      ],
      "name": "votingPowerOf",
      "outputs": [
        {
          "internalType": "uint256",
          "name": "",
          "type": "uint256"
        }
      ],
      "stateMutability": "view",
      "type": "function"
    }
  ],
  "bytecode": "0x60806040523480156200001157600080fd5b5060405162004b1f38038062004b1f833981016040819052620000349162000bd2565b600054610100900460ff1615808015620000555750600054600160ff909116105b8062000085575062000072306200015460201b6200208f1760201c565b15801562000085575060005460ff166001145b620000dd5760405162461bcd60e51b815260206004820152602e602482015260008051602062004abf83398151915260448201526d191e481a5b9a5d1a585b1a5e995960921b60648201526084015b60405180910390fd5b6000805460ff19166001179055801562000101576000805461ff0019166101001790555b801562000137576000805461ff00191690556040516001815260008051602062004adf8339815191529060200160405180910390a15b506200014886868686868662000163565b50505050505062000d0f565b6001600160a01b03163b151590565b600054610100900460ff1615808015620001845750600054600160ff909116105b80620001b45750620001a1306200015460201b6200208f1760201c565b158015620001b4575060005460ff166001145b620002085760405162461bcd60e51b815260206004820152602e602482015260008051602062004abf83398151915260448201526d191e481a5b9a5d1a585b1a5e995960921b6064820152608401620000d4565b6000805460ff1916600117905580156200022c576000805461ff0019166101001790555b60008651116200027f5760405162461bcd60e51b815260206004820152601560248201527f746f6b656e206e616d65206973206e6f742073657400000000000000000000006044820152606401620000d4565b6000855111620002d25760405162461bcd60e51b815260206004820152601760248201527f746f6b656e2073796d626f6c206973206e6f74207365740000000000000000006044820152606401620000d4565b8551620002e790603390602089019062000a5c565b508451620002fd90603490602088019062000a5c565b508215806200031457506001600160a01b03841615155b620003705760405162461bcd60e51b815260206004820152602560248201527f5f696e697469616c486f6c646572206e6f742073657420287a65726f20616464604482015264726573732960d81b6064820152608401620000d4565b82156200038357620003838484620003eb565b6001600160a01b0387161515806200039a57508115155b15620003ac57620003ac878362000650565b8015620003e2576000805461ff00191690556040516001815260008051602062004adf8339815191529060200160405180910390a15b50505050505050565b6001600160a01b038216620004325760405162461bcd60e51b815260206004820152600c60248201526b7a65726f206164647265737360a01b6044820152606401620000d4565b60355481810111620004915760405162461bcd60e51b815260206004820152602160248201527f7a65726f2076616c7565206f722061726974686d65746963206f766572666c6f6044820152607760f81b6064820152608401620000d4565b6035546001600160c01b0390620004aa90839062000c71565b1115620004fa5760405162461bcd60e51b815260206004820152601f60248201527f746f74616c20737570706c79206f766572666c6f77202875696e7431393229006044820152606401620000d4565b80603560008282546200050e919062000c71565b90915550506001600160a01b038216600090815260366020526040812080548392906200053d90849062000c71565b909155506200055c905060396200209e620006dd60201b1783620006f2565b50506001600160a01b038083166000908152603760205260408120546200058892339291168462000899565b6040518181526001600160a01b0383169033907f9d228d69b5fdb8d273a2336f8fb8612d039631024ea9bf09c424a9503aa078f09060200160405180910390a36040518181526001600160a01b0383169060009033907fd1398bee19313d6bf672ccb116e51f4a1a947e91c757907f51fbb5b5e56c698f9060200160405180910390a46040518181526001600160a01b038316906000907fddf252ad1be2c89b69c2b068fc378daa952ba7f163c4a11628f55a4df523b3ef9060200160405180910390a35050565b600054610100900460ff16620006bd5760405162461bcd60e51b815260206004820152602b60248201527f496e697469616c697a61626c653a20636f6e7472616374206973206e6f74206960448201526a6e697469616c697a696e6760a81b6064820152608401620000d4565b620006cc8260001980620009f4565b620006d9308280620009f4565b5050565b6000620006eb828462000c71565b9392505050565b8254600090819015620007575784548590620007119060019062000c8c565b815481106200073057634e487b7160e01b600052603260045260246000fd5b6000918252602090912001546801000000000000000090046001600160c01b03166200075a565b60005b6001600160c01b031691506200077182848660201c565b855490915015801590620007ca5750845443908690620007949060019062000c8c565b81548110620007b357634e487b7160e01b600052603260045260246000fd5b6000918252602090912001546001600160401b0316145b156200083a57845481908690620007e49060019062000c8c565b815481106200080357634e487b7160e01b600052603260045260246000fd5b9060005260206000200160000160086101000a8154816001600160c01b0302191690836001600160c01b0316021790555062000891565b604080518082019091526001600160401b0343811682526001600160c01b0380841660208085019182528954600181018b5560008b8152919091209451915190921668010000000000000000029216919091179101555b935093915050565b816001600160a01b0316836001600160a01b03161480620008b8575080155b15620008c457620009ee565b6001600160a01b0383161562000959576001600160a01b03831660009081526038602090815260408220919081906200090b90849062000a4e901b620020aa1786620006f2565b91509150856001600160a01b0316876001600160a01b031660008051602062004aff83398151915284846040516200094d929190918252602082015260400190565b60405180910390a35050505b6001600160a01b03821615620009ee576001600160a01b0382166000908152603860209081526040822091908190620009a0908490620006dd901b6200209e1786620006f2565b91509150846001600160a01b0316876001600160a01b031660008051602062004aff8339815191528484604051620009e2929190918252602082015260400190565b60405180910390a35050505b50505050565b6001600160a01b03831660008181526001602090815260409182902084905581518581529081018490527fe9be537308880e0f56b7d7cfd7abf85f14c4934486d138f848b92a0cbaf659b4910160405180910390a2505050565b6000620006eb828462000c8c565b82805462000a6a9062000ca6565b90600052602060002090601f01602090048101928262000a8e576000855562000ad9565b82601f1062000aa957805160ff191683800117855562000ad9565b8280016001018555821562000ad9579182015b8281111562000ad957825182559160200191906001019062000abc565b5062000ae792915062000aeb565b5090565b5b8082111562000ae7576000815560010162000aec565b80516001600160a01b038116811462000b1a57600080fd5b919050565b600082601f83011262000b30578081fd5b81516001600160401b038082111562000b4d5762000b4d62000cf9565b604051601f8301601f19908116603f0116810190828211818310171562000b785762000b7862000cf9565b8160405283815260209250868385880101111562000b94578485fd5b8491505b8382101562000bb7578582018301518183018401529082019062000b98565b8382111562000bc857848385830101525b9695505050505050565b60008060008060008060c0878903121562000beb578182fd5b62000bf68762000b02565b60208801519096506001600160401b038082111562000c13578384fd5b62000c218a838b0162000b1f565b9650604089015191508082111562000c37578384fd5b5062000c4689828a0162000b1f565b94505062000c576060880162000b02565b92506080870151915060a087015190509295509295509295565b6000821982111562000c875762000c8762000ce3565b500190565b60008282101562000ca15762000ca162000ce3565b500390565b600181811c9082168062000cbb57607f821691505b6020821081141562000cdd57634e487b7160e01b600052602260045260246000fd5b50919050565b634e487b7160e01b600052601160045260246000fd5b634e487b7160e01b600052604160045260246000fd5b613da08062000d1f6000396000f3fe608060405234801561001057600080fd5b506004361061043e5760003560e01c80637fd491b011610236578063c0d6568d1161013b578063dd62ed3e116100c3578063e98f5ba711610087578063e98f5ba714610a48578063ef55bec614610a52578063f63c2f8214610a65578063f9cf927114610a6d578063fcc2c07814610a8057600080fd5b8063dd62ed3e14610992578063e3ee160e146109cb578063e62cac76146109de578063e7a324dc146109e8578063e94a010214610a0f57600080fd5b8063cae9ca511161010a578063cae9ca511461091f578063d505accf14610932578063d5bb7f6714610945578063d8fbe99414610958578063d91694871461096b57600080fd5b8063c0d6568d146108e7578063c1d34b89146108ef578063c5ff500c14610902578063c688d6931461090c57600080fd5b8063a457c2d7116101be578063ae682e2e1161018d578063ae682e2e14610899578063b3c65015146108a4578063b66dbdc5146108b9578063b88d4fde146108c1578063bcc3f3bd146108d457600080fd5b8063a457c2d714610855578063a9059cbb14610868578063ae5b102e1461087b578063ae60bda41461088e57600080fd5b806394f4f9301161020557806394f4f930146107ed57806395d89b4114610800578063981b24d0146108085780639dc29fac1461081b578063a0cc6a681461082e57600080fd5b80637fd491b01461079f57806387793f3e146107b25780638d4e57e6146107db5780638f6fba8c146107e557600080fd5b806339509351116103475780635c19a95c116102cf57806370a082311161029357806370a0823114610709578063725f3626146107325780637815ef0c146107455780637ecebe00146107585780637f2eecc31461077857600080fd5b80635c19a95c146106955780635e2dc2b7146106a857806364cb8b96146106b1578063653de620146106c65780636641d9a0146106cf57600080fd5b8063442767331161031657806344276733146106285780634721272d1461065157806350c29e371461065a57806359b961ef1461066f5780635a049a701461068257600080fd5b806339509351146105e75780633e9c5f7e146105fa5780634000aea01461060257806340c10f191461061557600080fd5b80631e0fa234116103ca5780632d4c39ea116103995780632d4c39ea1461058357806330adf81f1461058b578063313ce567146105b25780633177029f146105cc5780633644e515146105df57600080fd5b80631e0fa234146104f357806320606b701461053457806323b872dd1461055b5780632b5214161461056e57600080fd5b8063136d035f11610411578063136d035f146104a657806313873a24146104c457806318160ddd146104cc5780631993f554146104e35780631a0b04ea146104eb57600080fd5b806301ffc9a71461044357806306fdde031461046b578063095ea7b3146104805780631296ee6214610493575b600080fd5b610456610451366004613a17565b610a93565b60405190151581526020015b60405180910390f35b610473610b1b565b6040516104629190613bb3565b61045661048e36600461387d565b610ba9565b6104566104a136600461387d565b610bbf565b6104af61080081565b60405163ffffffff9091168152602001610462565b6104af608081565b6104d560355481565b604051908152602001610462565b6104af600481565b6104af600881565b61051c6105013660046136ab565b6037602052600090815260409020546001600160a01b031681565b6040516001600160a01b039091168152602001610462565b6104d57f8cad95687ba82c2ce50e74f7b754645e5117c3a5bec8151c0726d5857980a86681565b6104566105693660046136f7565b610bd3565b306000908152600160205260409020546104d5565b6104af604081565b6104d57f6e71edae12b1b97f4d1f60370fef10105fa2faae0126114a169c64845d6126c981565b6105ba601281565b60405160ff9091168152602001610462565b6104566105da36600461387d565b610c40565b6104d5610c5c565b6104566105f536600461387d565b610cf8565b6104af602081565b6104566106103660046139c3565b610da4565b61045661062336600461387d565b610db2565b6104d56106363660046136ab565b6001600160a01b031660009081526001602052604090205490565b6104af61020081565b61066d61066836600461394a565b610de6565b005b61066d61067d3660046136f7565b61105b565b61066d6106903660046138fd565b61106c565b61066d6106a33660046136ab565b611117565b6104af61040081565b6106b961117a565b6040516104629190613b16565b6104af61010081565b6106e26106dd366004613a4f565b6111f6565b604080516001600160401b0390931683526001600160c01b03909116602083015201610462565b6104d56107173660046136ab565b6001600160a01b031660009081526036602052604090205490565b610456610740366004613a4f565b611231565b6106b96107533660046136ab565b61124d565b6104d56107663660046136ab565b603a6020526000908152604090205481565b6104d57fd099cc98ef71107a616c4f0f941f04c322d8e254fe26b3c6668db87aae413de881565b6106e26107ad36600461387d565b6112df565b6104d56107c03660046136ab565b6001600160a01b031660009081526038602052604090205490565b6104af6201000081565b6104af600281565b6104d56107fb36600461387d565b611328565b610473611391565b6104d5610816366004613a4f565b61139e565b61045661082936600461387d565b6113f0565b6104d57f7c7c6cdb67a18743f49ec6fa9b35f50d52ed05cbed4cc592e13b44501c1a226781565b61045661086336600461387d565b611847565b61045661087636600461387d565b611924565b61066d61088936600461387d565b611931565b6104d5600160fe1b81565b6104d5600160ff1b81565b60005460405160ff9091168152602001610462565b6039546104d5565b6104566108cf366004613732565b6119ba565b6104d56108e23660046136ab565b6119e0565b6104af600181565b6104566108fd366004613732565b611a61565b6104af6204000081565b61045661091a36600461387d565b611ad2565b61045661092d3660046139c3565b611af4565b61066d610940366004613814565b611b63565b61066d610953366004613a4f565b611cb2565b6104566109663660046136f7565b611cbc565b6104d57f158b0a9edf7a828aad02f63cd515c68ef2f50ba807396f6d12842833a159742981565b6104d56109a03660046136c5565b6001600160a01b039182166000908152603c6020908152604080832093909416825291909152205490565b61066d6109d9366004613797565b611cd9565b6104af6202000081565b6104d57fff41620983935eb4d4a3c7384a066ca8c1d10cef9a5eca9eb97ca735cd14a75581565b610456610a1d36600461387d565b6001600160a01b03919091166000908152603b60209081526040808320938352929052205460ff1690565b6104af6208000081565b61066d610a60366004613797565b611e34565b6104af601081565b61066d610a7b3660046138a6565b611f93565b610456610a8e366004613a4f565b612083565b60006001600160e01b031982166301ffc9a760e01b1480610ac457506001600160e01b031982166336372b0760e01b145b80610adf57506001600160e01b0319821663b0202a1160e01b145b80610afa57506001600160e01b03198216634ec7fbed60e11b145b80610b1557506001600160e01b03198216635ffa99dd60e11b145b92915050565b60338054610b2890613c92565b80601f0160208091040260200160405190810160405280929190818152602001828054610b5490613c92565b8015610ba15780601f10610b7657610100808354040283529160200191610ba1565b820191906000526020600020905b815481529060010190602001808311610b8457829003601f168201915b505050505081565b6000610bb63384846120b6565b50600192915050565b6000610bcc338484611cbc565b9392505050565b6000610bdf6004611231565b80610bf25750610bf28362040000611ad2565b80610c045750610c0462080000612083565b15610c1957610c1484848461105b565b610c36565b610c34848484604051806020016040528060008152506119ba565b505b5060019392505050565b6000610bcc838360405180602001604052806000815250611af4565b604080518082018252600f81526e416476616e6365644552433230763160881b60209182015281517f8cad95687ba82c2ce50e74f7b754645e5117c3a5bec8151c0726d5857980a866818301527f65218aa0cdc6725da873801e9daf9d54f230d8a515289f76c8bd31dd8648c50d81840152466060820152306080808301919091528351808303909101815260a0909101909252815191012090565b336000908152603c602090815260408083206001600160a01b03861684529091528120548281018110610d8e5760405162461bcd60e51b815260206004820152603360248201527f7a65726f2076616c756520617070726f76616c20696e637265617365206f722060448201527261726974686d65746963206f766572666c6f7760681b60648201526084015b60405180910390fd5b610d9c8461048e8584613c43565b949350505050565b6000610d9c33858585611a61565b6000610dc062010000612083565b610ddc5760405162461bcd60e51b8152600401610d8590613bf1565b610bb683836121c7565b600054610100900460ff1615808015610e065750600054600160ff909116105b80610e205750303b158015610e20575060005460ff166001145b610e835760405162461bcd60e51b815260206004820152602e60248201527f496e697469616c697a61626c653a20636f6e747261637420697320616c72656160448201526d191e481a5b9a5d1a585b1a5e995960921b6064820152608401610d85565b6000805460ff191660011790558015610ea6576000805461ff0019166101001790555b6000865111610eef5760405162461bcd60e51b81526020600482015260156024820152741d1bdad95b881b985b59481a5cc81b9bdd081cd95d605a1b6044820152606401610d85565b6000855111610f405760405162461bcd60e51b815260206004820152601760248201527f746f6b656e2073796d626f6c206973206e6f74207365740000000000000000006044820152606401610d85565b8551610f5390603390602089019061355f565b508451610f6790603490602088019061355f565b50821580610f7d57506001600160a01b03841615155b610fd75760405162461bcd60e51b815260206004820152602560248201527f5f696e697469616c486f6c646572206e6f742073657420287a65726f20616464604482015264726573732960d81b6064820152608401610d85565b8215610fe757610fe784846121c7565b6001600160a01b038716151580610ffd57508115155b1561100c5761100c87836123ef565b8015611052576000805461ff0019169055604051600181527f7f26b83ff96e1f2b6a682f133852f6798a09c465da95921460cefb38474024989060200160405180910390a15b50505050505050565b61106733848484612472565b505050565b604080517f158b0a9edf7a828aad02f63cd515c68ef2f50ba807396f6d12842833a159742960208201526001600160a01b03871691810191909152606081018590526000906110d0906080015b6040516020818303038152906040528585856129fe565b9050856001600160a01b0316816001600160a01b0316146111035760405162461bcd60e51b8152600401610d8590613bc6565b61110f86866001612a63565b505050505050565b6111216020611231565b61116d5760405162461bcd60e51b815260206004820152601860248201527f64656c65676174696f6e73206172652064697361626c656400000000000000006044820152606401610d85565b6111773382612b71565b50565b60606039805480602002602001604051908101604052809291908181526020016000905b828210156111ed57600084815260209081902060408051808201909152908401546001600160401b0381168252600160401b90046001600160c01b03168183015282526001909201910161119e565b50505050905090565b6039818154811061120657600080fd5b6000918252602090912001546001600160401b0381169150600160401b90046001600160c01b031682565b30600090815260016020526040812054610b15905b8316831490565b6001600160a01b0381166000908152603860209081526040808320805482518185028101850190935280835260609492939192909184015b828210156112d457600084815260209081902060408051808201909152908401546001600160401b0381168252600160401b90046001600160c01b031681830152825260019092019101611285565b505050509050919050565b603860205281600052604060002081815481106112fb57600080fd5b6000918252602090912001546001600160401b0381169250600160401b90046001600160c01b0316905082565b600043821061136f5760405162461bcd60e51b8152602060048201526013602482015272189b1bd8dac81b9bdd081e595d081b5a5b9959606a1b6044820152606401610d85565b6001600160a01b0383166000908152603860205260409020610bcc9083612c0d565b60348054610b2890613c92565b60004382106113e55760405162461bcd60e51b8152602060048201526013602482015272189b1bd8dac81b9bdd081e595d081b5a5b9959606a1b6044820152606401610d85565b610b15603983612c0d565b60006113fe62020000612083565b611621576001600160a01b0383163314801561141f575061141f6008611231565b8061144357506001600160a01b038316331480159061144357506114436010611231565b6001600160a01b038416331461148e576040518060400160405280601c81526020017f6275726e73206f6e20626568616c66206172652064697361626c6564000000008152506114ba565b60405180604001604052806012815260200171189d5c9b9cc8185c9948191a5cd8589b195960721b8152505b906114d85760405162461bcd60e51b8152600401610d859190613bb3565b506001600160a01b0383163314611621576001600160a01b0383166000908152603c602090815260408083203384529091529020548281101561155d5760405162461bcd60e51b815260206004820152601d60248201527f6275726e20616d6f756e74206578636565647320616c6c6f77616e63650000006044820152606401610d85565b60001981101561161f576115718382613c7b565b6001600160a01b0385166000818152603c60209081526040808320338085529252909120839055919250907fb3fd5071835887567a0671151121894ddccc2842f1d10bedad13e0d17cace9a76115c78685613c43565b60408051918252602082018690520160405180910390a360405181815233906001600160a01b038616907f8c5be1e5ebec7d5bd14f71427d1e84f3dd0314c0f7b2291e5b200ac8c7c3b9259060200160405180910390a35b505b816116605760405162461bcd60e51b815260206004820152600f60248201526e3d32b937903b30b63ab290313ab93760891b6044820152606401610d85565b6001600160a01b0383166116b65760405162461bcd60e51b815260206004820152601a60248201527f6275726e2066726f6d20746865207a65726f20616464726573730000000000006044820152606401610d85565b6001600160a01b03831660009081526036602052604090205482111561171e5760405162461bcd60e51b815260206004820152601b60248201527f6275726e20616d6f756e7420657863656564732062616c616e636500000000006044820152606401610d85565b6001600160a01b03831660009081526036602052604081208054849290611746908490613c7b565b92505081905550816035600082825461175f9190613c7b565b90915550611773905060396120aa84612e34565b50506001600160a01b0380841660009081526037602052604081205461179e92339291169085612fc5565b6040518281526001600160a01b0384169033907fe8a89cc6e5096f9d9f43de82c077c1f4cfe707c0e0c2032176c68813b9ae6a5c9060200160405180910390a36040518281526000906001600160a01b038516903390600080516020613d2b8339815191529060200160405180910390a46040518281526000906001600160a01b03851690600080516020613d4b8339815191529060200160405180910390a350600192915050565b336000908152603c602090815260408083206001600160a01b0386168452909152812054826118b85760405162461bcd60e51b815260206004820152601c60248201527f7a65726f2076616c756520617070726f76616c206465637265617365000000006044820152606401610d85565b828110156119165760405162461bcd60e51b815260206004820152602560248201527f45524332303a2064656372656173656420616c6c6f77616e63652062656c6f77604482015264207a65726f60d81b6064820152608401610d85565b610d9c8461048e8584613c7b565b6000610bcc338484610bd3565b61193e600160ff1b612083565b61195a5760405162461bcd60e51b8152600401610d8590613bf1565b6119b682826119b133611982876001600160a01b031660009081526001602052604090205490565b6001600160a01b0391909116600090815260016020526040902054600019808818821618908716919091171690565b61311a565b5050565b60006119c785858561105b565b6119d5858585856001613174565b506001949350505050565b6001600160a01b0381166000908152603860205260408120805415611a4e5780548190611a0f90600190613c7b565b81548110611a2d57634e487b7160e01b600052603260045260246000fd5b600091825260209091200154600160401b90046001600160c01b0316611a51565b60005b6001600160c01b03169392505050565b6000611a6d6080611231565b611ab95760405162461bcd60e51b815260206004820152601e60248201527f45524331333633207472616e7366657273206172652064697361626c656400006044820152606401610d85565b611ac485858561105b565b6119d5858585856000613174565b6001600160a01b038216600090815260016020526040812054610bcc90611246565b6000611b01610100611231565b611b4d5760405162461bcd60e51b815260206004820152601e60248201527f4552433133363320617070726f76616c73206172652064697361626c656400006044820152606401610d85565b611b578484610ba9565b50610c368484846132c1565b611b6e610200611231565b611bba5760405162461bcd60e51b815260206004820152601c60248201527f45495032363132207065726d697473206172652064697361626c6564000000006044820152606401610d85565b6001600160a01b0387166000908152603a602052604081208054611c4b917f6e71edae12b1b97f4d1f60370fef10105fa2faae0126114a169c64845d6126c9918b918b918b9187611c0a83613ccd565b909155506040805160208101969096526001600160a01b0394851690860152929091166060840152608083015260a082015260c0810187905260e0016110b9565b9050876001600160a01b0316816001600160a01b031614611c7e5760405162461bcd60e51b8152600401610d8590613bc6565b844210611c9d5760405162461bcd60e51b8152600401610d8590613c18565b611ca88888886120b6565b5050505050505050565b6111773082611931565b6000610d9c84848460405180602001604052806000815250611a61565b611ce4610400611231565b611d305760405162461bcd60e51b815260206004820152601e60248201527f45495033303039207472616e7366657273206172652064697361626c656400006044820152606401610d85565b6000611d757f7c7c6cdb67a18743f49ec6fa9b35f50d52ed05cbed4cc592e13b44501c1a226760001b8b8b8b8b8b8b6040516020016110b99796959493929190613b77565b9050896001600160a01b0316816001600160a01b031614611da85760405162461bcd60e51b8152600401610d8590613bc6565b864211611df15760405162461bcd60e51b81526020600482015260176024820152761cda59db985d1d5c99481b9bdd081e595d081d985b1a59604a1b6044820152606401610d85565b854210611e105760405162461bcd60e51b8152600401610d8590613c18565b611e1c8a866000612a63565b611e28818b8b8b612472565b50505050505050505050565b611e3f610800611231565b611e8b5760405162461bcd60e51b815260206004820152601f60248201527f4549503330303920726563657074696f6e73206172652064697361626c6564006044820152606401610d85565b6000611ed07fd099cc98ef71107a616c4f0f941f04c322d8e254fe26b3c6668db87aae413de860001b8b8b8b8b8b8b6040516020016110b99796959493929190613b77565b9050896001600160a01b0316816001600160a01b031614611f035760405162461bcd60e51b8152600401610d8590613bc6565b864211611f4c5760405162461bcd60e51b81526020600482015260176024820152761cda59db985d1d5c99481b9bdd081e595d081d985b1a59604a1b6044820152606401610d85565b854210611f6b5760405162461bcd60e51b8152600401610d8590613c18565b6001600160a01b0389163314611e105760405162461bcd60e51b8152600401610d8590613bf1565b611f9d6040611231565b611ff45760405162461bcd60e51b815260206004820152602260248201527f64656c65676174696f6e73206f6e20626568616c66206172652064697361626c604482015261195960f21b6064820152608401610d85565b604080517fff41620983935eb4d4a3c7384a066ca8c1d10cef9a5eca9eb97ca735cd14a75560208201526001600160a01b03881691810191909152606081018690526080810185905260009061204c9060a0016110b9565b905084421061206d5760405162461bcd60e51b8152600401610d8590613c18565b61207981876000612a63565b6110528188612b71565b6000610b153383611ad2565b6001600160a01b03163b151590565b6000610bcc8284613c43565b6000610bcc8284613c7b565b6001600160a01b03821661210c5760405162461bcd60e51b815260206004820152601b60248201527f617070726f766520746f20746865207a65726f206164647265737300000000006044820152606401610d85565b6001600160a01b038381166000818152603c602090815260408083209487168084529482529182902080549086905582518181529182018690529392917fb3fd5071835887567a0671151121894ddccc2842f1d10bedad13e0d17cace9a7910160405180910390a3826001600160a01b0316846001600160a01b03167f8c5be1e5ebec7d5bd14f71427d1e84f3dd0314c0f7b2291e5b200ac8c7c3b925846040516121b991815260200190565b60405180910390a350505050565b6001600160a01b03821661220c5760405162461bcd60e51b815260206004820152600c60248201526b7a65726f206164647265737360a01b6044820152606401610d85565b603554818101116122695760405162461bcd60e51b815260206004820152602160248201527f7a65726f2076616c7565206f722061726974686d65746963206f766572666c6f6044820152607760f81b6064820152608401610d85565b6035546001600160c01b0390612280908390613c43565b11156122ce5760405162461bcd60e51b815260206004820152601f60248201527f746f74616c20737570706c79206f766572666c6f77202875696e7431393229006044820152606401610d85565b80603560008282546122e09190613c43565b90915550506001600160a01b0382166000908152603660205260408120805483929061230d908490613c43565b909155506123219050603961209e83612e34565b50506001600160a01b0380831660009081526037602052604081205461234b923392911684612fc5565b6040518181526001600160a01b0383169033907f9d228d69b5fdb8d273a2336f8fb8612d039631024ea9bf09c424a9503aa078f09060200160405180910390a36040518181526001600160a01b038316906000903390600080516020613d2b8339815191529060200160405180910390a46040518181526001600160a01b03831690600090600080516020613d4b8339815191529060200160405180910390a35050565b600054610100900460ff1661245a5760405162461bcd60e51b815260206004820152602b60248201527f496e697469616c697a61626c653a20636f6e7472616374206973206e6f74206960448201526a6e697469616c697a696e6760a81b6064820152608401610d85565b612467826000198061311a565b6119b630828361311a565b836001600160a01b0316836001600160a01b031614801561249857506124986001611231565b806124c55750836001600160a01b0316836001600160a01b0316141580156124c557506124c56002611231565b846001600160a01b0316846001600160a01b031614612519576040518060400160405280602081526020017f7472616e7366657273206f6e20626568616c66206172652064697361626c6564815250612549565b604051806040016040528060168152602001751d1c985b9cd9995c9cc8185c9948191a5cd8589b195960521b8152505b906125675760405162461bcd60e51b8152600401610d859190613bb3565b506001600160a01b0383166125be5760405162461bcd60e51b815260206004820152601e60248201527f7472616e736665722066726f6d20746865207a65726f206164647265737300006044820152606401610d85565b6001600160a01b0382166126145760405162461bcd60e51b815260206004820152601c60248201527f7472616e7366657220746f20746865207a65726f2061646472657373000000006044820152606401610d85565b6001600160a01b0382163014156126935760405162461bcd60e51b815260206004820152603f60248201527f696e76616c696420726563697069656e7420287472616e7366657220746f207460448201527f686520746f6b656e20736d61727420636f6e747261637420697473656c6629006064820152608401610d85565b8061271d57816001600160a01b0316836001600160a01b0316856001600160a01b0316600080516020613d2b833981519152846040516126d591815260200190565b60405180910390a4816001600160a01b0316836001600160a01b0316600080516020613d4b8339815191528360405161271091815260200190565b60405180910390a36129f8565b836001600160a01b0316836001600160a01b03161461288b576001600160a01b038084166000908152603c6020908152604080832093881683529290522054818110156127b65760405162461bcd60e51b815260206004820152602160248201527f7472616e7366657220616d6f756e74206578636565647320616c6c6f77616e636044820152606560f81b6064820152608401610d85565b600019811015612889576127ca8282613c7b565b6001600160a01b038086166000818152603c60209081526040808320948b16808452949091529020839055919250907fb3fd5071835887567a0671151121894ddccc2842f1d10bedad13e0d17cace9a76128248585613c43565b60408051918252602082018690520160405180910390a3846001600160a01b0316846001600160a01b03167f8c5be1e5ebec7d5bd14f71427d1e84f3dd0314c0f7b2291e5b200ac8c7c3b9258360405161288091815260200190565b60405180910390a35b505b6001600160a01b0383166000908152603660205260409020548111156128f35760405162461bcd60e51b815260206004820152601f60248201527f7472616e7366657220616d6f756e7420657863656564732062616c616e6365006044820152606401610d85565b6001600160a01b0383166000908152603660205260408120805483929061291b908490613c7b565b90915550506001600160a01b03821660009081526036602052604081208054839290612948908490613c43565b90915550506001600160a01b038084166000908152603760205260408082205485841683529120546129809287928116911684612fc5565b816001600160a01b0316836001600160a01b0316856001600160a01b0316600080516020613d2b833981519152846040516129bd91815260200190565b60405180910390a4816001600160a01b0316836001600160a01b0316600080516020613d4b833981519152836040516121b991815260200190565b50505050565b8351602085012060009081612a11610c5c565b60405161190160f01b60208201526022810191909152604281018390526062016040516020818303038152906040528051906020012090506000612a57828888886133fc565b98975050505050505050565b6001600160a01b0383166000908152603b6020908152604080832085845290915290205460ff1615612ac75760405162461bcd60e51b815260206004820152600d60248201526c696e76616c6964206e6f6e636560981b6044820152606401610d85565b6001600160a01b0383166000908152603b602090815260408083208584529091529020805460ff191660011790558015612b365760405182906001600160a01b038516907f1cdd46ff242716cdaa72d159d339a485b3438398348d68f09d7c8c0a59353d8190600090a3505050565b60405182906001600160a01b038516907f98de503528ee59b575ef0c0a2576a82497bfc029a5685b209e9ec333479b10a590600090a3505050565b6001600160a01b0380831660009081526037602081815260408084208054603684529190942054929091528484166001600160a01b0319821617909255911690612bbd84838584612fc5565b826001600160a01b0316826001600160a01b0316856001600160a01b03167f3134e8a2e6d97e929a7e54011ea5485d7d196dd5f0ba4d4ef95803e8e3fc257f60405160405180910390a450505050565b8154600090612c1e57506000610b15565b825482908490612c3090600190613c7b565b81548110612c4e57634e487b7160e01b600052603260045260246000fd5b6000918252602090912001546001600160401b031611612cb95782548390612c7890600190613c7b565b81548110612c9657634e487b7160e01b600052603260045260246000fd5b600091825260209091200154600160401b90046001600160c01b03169050610b15565b8183600081548110612cdb57634e487b7160e01b600052603260045260246000fd5b6000918252602090912001546001600160401b03161115612cfe57506000610b15565b82546000908190612d1190600190613c7b565b90505b81811115612def5760006002612d2a8484613c7b565b612d349190613c5b565b612d3e9083613c7b565b90506000868281548110612d6257634e487b7160e01b600052603260045260246000fd5b6000918252602091829020604080518082019091529101546001600160401b038116808352600160401b9091046001600160c01b0316928201929092529150861415612dc057602001516001600160c01b03169350610b1592505050565b80516001600160401b0316861115612dda57819350612de8565b612de5600183613c7b565b92505b5050612d14565b848281548110612e0f57634e487b7160e01b600052603260045260246000fd5b600091825260209091200154600160401b90046001600160c01b031695945050505050565b8254600090819015612e8f5784548590612e5090600190613c7b565b81548110612e6e57634e487b7160e01b600052603260045260246000fd5b600091825260209091200154600160401b90046001600160c01b0316612e92565b60005b6001600160c01b03169150612eab82848663ffffffff16565b855490915015801590612f005750845443908690612ecb90600190613c7b565b81548110612ee957634e487b7160e01b600052603260045260246000fd5b6000918252602090912001546001600160401b0316145b15612f6b57845481908690612f1790600190613c7b565b81548110612f3557634e487b7160e01b600052603260045260246000fd5b9060005260206000200160000160086101000a8154816001600160c01b0302191690836001600160c01b03160217905550612fbd565b604080518082019091526001600160401b0343811682526001600160c01b0380841660208085019182528954600181018b5560008b81529190912094519151909216600160401b029216919091179101555b935093915050565b816001600160a01b0316836001600160a01b03161480612fe3575080155b15612fed576129f8565b6001600160a01b03831615613081576001600160a01b03831660009081526038602052604081209080613023836120aa86612e34565b91509150856001600160a01b0316876001600160a01b03167fd1404f22081753a56b50e0d5ff5c9ed0e4a3a840e1171a443721a342e71bb5c18484604051613075929190918252602082015260400190565b60405180910390a35050505b6001600160a01b038216156129f8576001600160a01b038216600090815260386020526040812090806130b78361209e86612e34565b91509150846001600160a01b0316876001600160a01b03167fd1404f22081753a56b50e0d5ff5c9ed0e4a3a840e1171a443721a342e71bb5c18484604051613109929190918252602082015260400190565b60405180910390a350505050505050565b6001600160a01b03831660008181526001602090815260409182902084905581518581529081018490527fe9be537308880e0f56b7d7cfd7abf85f14c4934486d138f848b92a0cbaf659b4910160405180910390a2505050565b6001600160a01b0384163b6131c557806131c05760405162461bcd60e51b815260206004820152600d60248201526c1153d0481c9958da5c1a595b9d609a1b6044820152606401610d85565b6132ba565b604051632229f29760e21b81526000906001600160a01b038616906388a7ca5c906131fa9033908a9089908990600401613ab2565b602060405180830381600087803b15801561321457600080fd5b505af1158015613228573d6000803e3d6000fd5b505050506040513d601f19601f8201168201806040525081019061324c9190613a33565b90506001600160e01b03198116632229f29760e21b1461110f5760405162461bcd60e51b815260206004820152602360248201527f696e76616c6964206f6e5472616e73666572526563656976656420726573706f6044820152626e736560e81b6064820152608401610d85565b5050505050565b6000836001600160a01b03163b116133095760405162461bcd60e51b815260206004820152600b60248201526a22a7a09039b832b73232b960a91b6044820152606401610d85565b6040516307b04a2d60e41b81526000906001600160a01b03851690637b04a2d09061333c90339087908790600401613aef565b602060405180830381600087803b15801561335657600080fd5b505af115801561336a573d6000803e3d6000fd5b505050506040513d601f19601f8201168201806040525081019061338e9190613a33565b90506001600160e01b031981166307b04a2d60e41b146129f85760405162461bcd60e51b815260206004820152602360248201527f696e76616c6964206f6e417070726f76616c526563656976656420726573706f6044820152626e736560e81b6064820152608401610d85565b60007f7fffffffffffffffffffffffffffffff5d576e7357a4501ddfe92f46681b20a082111561346e5760405162461bcd60e51b815260206004820152601b60248201527f696e76616c6964207369676e6174757265202773272076616c756500000000006044820152606401610d85565b8360ff16601b148061348357508360ff16601c145b6134cf5760405162461bcd60e51b815260206004820152601b60248201527f696e76616c6964207369676e6174757265202776272076616c756500000000006044820152606401610d85565b6040805160008082526020820180845288905260ff871692820192909252606081018590526080810184905260019060a0016020604051602081039080840390855afa158015613523573d6000803e3d6000fd5b5050604051601f1901519150506001600160a01b0381166135565760405162461bcd60e51b8152600401610d8590613bc6565b95945050505050565b82805461356b90613c92565b90600052602060002090601f01602090048101928261358d57600085556135d3565b82601f106135a657805160ff19168380011785556135d3565b828001600101855582156135d3579182015b828111156135d35782518255916020019190600101906135b8565b506135df9291506135e3565b5090565b5b808211156135df57600081556001016135e4565b80356001600160a01b038116811461360f57600080fd5b919050565b600082601f830112613624578081fd5b81356001600160401b038082111561363e5761363e613cfe565b604051601f8301601f19908116603f0116810190828211818310171561366657613666613cfe565b8160405283815286602085880101111561367e578485fd5b8360208701602083013792830160200193909352509392505050565b803560ff8116811461360f57600080fd5b6000602082840312156136bc578081fd5b610bcc826135f8565b600080604083850312156136d7578081fd5b6136e0836135f8565b91506136ee602084016135f8565b90509250929050565b60008060006060848603121561370b578081fd5b613714846135f8565b9250613722602085016135f8565b9150604084013590509250925092565b60008060008060808587031215613747578081fd5b613750856135f8565b935061375e602086016135f8565b92506040850135915060608501356001600160401b0381111561377f578182fd5b61378b87828801613614565b91505092959194509250565b60008060008060008060008060006101208a8c0312156137b5578485fd5b6137be8a6135f8565b98506137cc60208b016135f8565b975060408a0135965060608a0135955060808a0135945060a08a013593506137f660c08b0161369a565b925060e08a013591506101008a013590509295985092959850929598565b600080600080600080600060e0888a03121561382e578283fd5b613837886135f8565b9650613845602089016135f8565b955060408801359450606088013593506138616080890161369a565b925060a0880135915060c0880135905092959891949750929550565b6000806040838503121561388f578182fd5b613898836135f8565b946020939093013593505050565b60008060008060008060c087890312156138be578182fd5b6138c7876135f8565b955060208701359450604087013593506138e36060880161369a565b92506080870135915060a087013590509295509295509295565b600080600080600060a08688031215613914578283fd5b61391d866135f8565b9450602086013593506139326040870161369a565b94979396509394606081013594506080013592915050565b60008060008060008060c08789031215613962578384fd5b61396b876135f8565b955060208701356001600160401b0380821115613986578586fd5b6139928a838b01613614565b965060408901359150808211156139a7578586fd5b506139b489828a01613614565b9450506138e3606088016135f8565b6000806000606084860312156139d7578081fd5b6139e0846135f8565b92506020840135915060408401356001600160401b03811115613a01578182fd5b613a0d86828701613614565b9150509250925092565b600060208284031215613a28578081fd5b8135610bcc81613d14565b600060208284031215613a44578081fd5b8151610bcc81613d14565b600060208284031215613a60578081fd5b5035919050565b60008151808452815b81811015613a8c57602081850181015186830182015201613a70565b81811115613a9d5782602083870101525b50601f01601f19169290920160200192915050565b6001600160a01b0385811682528416602082015260408101839052608060608201819052600090613ae590830184613a67565b9695505050505050565b60018060a01b03841681528260208201526060604082015260006135566060830184613a67565b602080825282518282018190526000919060409081850190868401855b82811015613b6a57815180516001600160401b031685528601516001600160c01b0316868501529284019290850190600101613b33565b5091979650505050505050565b9687526001600160a01b0395861660208801529390941660408601526060850191909152608084015260a083019190915260c082015260e00190565b602081526000610bcc6020830184613a67565b602080825260119082015270696e76616c6964207369676e617475726560781b604082015260600190565b6020808252600d908201526c1858d8d95cdcc819195b9a5959609a1b604082015260600190565b6020808252601190820152701cda59db985d1d5c9948195e1c1a5c9959607a1b604082015260600190565b60008219821115613c5657613c56613ce8565b500190565b600082613c7657634e487b7160e01b81526012600452602481fd5b500490565b600082821015613c8d57613c8d613ce8565b500390565b600181811c90821680613ca657607f821691505b60208210811415613cc757634e487b7160e01b600052602260045260246000fd5b50919050565b6000600019821415613ce157613ce1613ce8565b5060010190565b634e487b7160e01b600052601160045260246000fd5b634e487b7160e01b600052604160045260246000fd5b6001600160e01b03198116811461117757600080fdfed1398bee19313d6bf672ccb116e51f4a1a947e91c757907f51fbb5b5e56c698fddf252ad1be2c89b69c2b068fc378daa952ba7f163c4a11628f55a4df523b3efa2646970667358221220618e2186c1b8ec413af92e1b6b0085ad655f43ef3827df2c7902d19bb7aee31e64736f6c63430008040033496e697469616c697a61626c653a20636f6e747261637420697320616c7265617f26b83ff96e1f2b6a682f133852f6798a09c465da95921460cefb3847402498d1404f22081753a56b50e0d5ff5c9ed0e4a3a840e1171a443721a342e71bb5c1",
  "linkReferences": {},
  "deployedLinkReferences": {}
}