{
  "_format": "hh-sol-artifact-1",
  "contractName": "AdvancedERC20",
  "sourceName": "contracts/token/AdvancedERC20.sol",
  "abi": [
    {
      "inputs": [
        {
          "internalType": "address",
          "name": "contractOwner",
          "type": "address"
        },
        {
          "internalType": "string",
          "name": "_name",
          "type": "string"
        },
        {
          "internalType": "string",
          "name": "_symbol",
          "type": "string"
        },
        {
          "internalType": "address",
          "name": "initialHolder",
          "type": "address"
        },
        {
          "internalType": "uint256",
          "name": "initialSupply",
          "type": "uint256"
        },
        {
          "internalType": "uint256",
          "name": "initialFeatures",
          "type": "uint256"
        }
      ],
      "stateMutability": "nonpayable",
      "type": "constructor"
    },
    {
      "anonymous": false,
      "inputs": [
        {
          "indexed": true,
          "internalType": "address",
          "name": "owner",
          "type": "address"
        },
        {
          "indexed": true,
          "internalType": "address",
          "name": "spender",
          "type": "address"
        },
        {
          "indexed": false,
          "internalType": "uint256",
          "name": "oldValue",
          "type": "uint256"
        },
        {
          "indexed": false,
          "internalType": "uint256",
          "name": "value",
          "type": "uint256"
        }
      ],
      "name": "Approval",
      "type": "event"
    },
    {
      "anonymous": false,
      "inputs": [
        {
          "indexed": true,
          "internalType": "address",
          "name": "owner",
          "type": "address"
        },
        {
          "indexed": true,
          "internalType": "address",
          "name": "spender",
          "type": "address"
        },
        {
          "indexed": false,
          "internalType": "uint256",
          "name": "value",
          "type": "uint256"
        }
      ],
      "name": "Approval",
      "type": "event"
    },
    {
      "anonymous": false,
      "inputs": [
        {
          "indexed": true,
          "internalType": "address",
          "name": "authorizer",
          "type": "address"
        },
        {
          "indexed": true,
          "internalType": "bytes32",
          "name": "nonce",
          "type": "bytes32"
        }
      ],
      "name": "AuthorizationCanceled",
      "type": "event"
    },
    {
      "anonymous": false,
      "inputs": [
        {
          "indexed": true,
          "internalType": "address",
          "name": "authorizer",
          "type": "address"
        },
        {
          "indexed": true,
          "internalType": "bytes32",
          "name": "nonce",
          "type": "bytes32"
        }
      ],
      "name": "AuthorizationUsed",
      "type": "event"
    },
    {
      "anonymous": false,
      "inputs": [
        {
          "indexed": true,
          "internalType": "address",
          "name": "by",
          "type": "address"
        },
        {
          "indexed": true,
          "internalType": "address",
          "name": "from",
          "type": "address"
        },
        {
          "indexed": false,
          "internalType": "uint256",
          "name": "value",
          "type": "uint256"
        }
      ],
      "name": "Burnt",
      "type": "event"
    },
    {
      "anonymous": false,
      "inputs": [
        {
          "indexed": true,
          "internalType": "address",
          "name": "source",
          "type": "address"
        },
        {
          "indexed": true,
          "internalType": "address",
          "name": "from",
          "type": "address"
        },
        {
          "indexed": true,
          "internalType": "address",
          "name": "to",
          "type": "address"
        }
      ],
      "name": "DelegateChanged",
      "type": "event"
    },
    {
      "anonymous": false,
      "inputs": [
        {
          "indexed": false,
          "internalType": "uint8",
          "name": "version",
          "type": "uint8"
        }
      ],
      "name": "Initialized",
      "type": "event"
    },
    {
      "anonymous": false,
      "inputs": [
        {
          "indexed": true,
          "internalType": "address",
          "name": "by",
          "type": "address"
        },
        {
          "indexed": true,
          "internalType": "address",
          "name": "to",
          "type": "address"
        },
        {
          "indexed": false,
          "internalType": "uint256",
          "name": "value",
          "type": "uint256"
        }
      ],
      "name": "Minted",
      "type": "event"
    },
    {
      "anonymous": false,
      "inputs": [
        {
          "indexed": true,
          "internalType": "address",
          "name": "operator",
          "type": "address"
        },
        {
          "indexed": false,
          "internalType": "uint256",
          "name": "requested",
          "type": "uint256"
        },
        {
          "indexed": false,
          "internalType": "uint256",
          "name": "assigned",
          "type": "uint256"
        }
      ],
      "name": "RoleUpdated",
      "type": "event"
    },
    {
      "anonymous": false,
      "inputs": [
        {
          "indexed": true,
          "internalType": "address",
          "name": "by",
          "type": "address"
        },
        {
          "indexed": true,
          "internalType": "address",
          "name": "from",
          "type": "address"
        },
        {
          "indexed": true,
          "internalType": "address",
          "name": "to",
          "type": "address"
        },
        {
          "indexed": false,
          "internalType": "uint256",
          "name": "value",
          "type": "uint256"
        }
      ],
      "name": "Transfer",
      "type": "event"
    },
    {
      "anonymous": false,
      "inputs": [
        {
          "indexed": true,
          "internalType": "address",
          "name": "from",
          "type": "address"
        },
        {
          "indexed": true,
          "internalType": "address",
          "name": "to",
          "type": "address"
        },
        {
          "indexed": false,
          "internalType": "uint256",
          "name": "value",
          "type": "uint256"
        }
      ],
      "name": "Transfer",
      "type": "event"
    },
    {
      "anonymous": false,
      "inputs": [
        {
          "indexed": true,
          "internalType": "address",
          "name": "by",
          "type": "address"
        },
        {
          "indexed": true,
          "internalType": "address",
          "name": "target",
          "type": "address"
        },
        {
          "indexed": false,
          "internalType": "uint256",
          "name": "fromVal",
          "type": "uint256"
        },
        {
          "indexed": false,
          "internalType": "uint256",
          "name": "toVal",
          "type": "uint256"
        }
      ],
      "name": "VotingPowerChanged",
      "type": "event"
    },
    {
      "inputs": [],
      "name": "CANCEL_AUTHORIZATION_TYPEHASH",
      "outputs": [
        {
          "internalType": "bytes32",
          "name": "",
          "type": "bytes32"
        }
      ],
      "stateMutability": "view",
      "type": "function"
    },
    {
      "inputs": [],
      "name": "DELEGATION_TYPEHASH",
      "outputs": [
        {
          "internalType": "bytes32",
          "name": "",
          "type": "bytes32"
        }
      ],
      "stateMutability": "view",
      "type": "function"
    },
    {
      "inputs": [],
      "name": "DOMAIN_SEPARATOR",
      "outputs": [
        {
          "internalType": "bytes32",
          "name": "",
          "type": "bytes32"
        }
      ],
      "stateMutability": "view",
      "type": "function"
    },
    {
      "inputs": [],
      "name": "DOMAIN_TYPEHASH",
      "outputs": [
        {
          "internalType": "bytes32",
          "name": "",
          "type": "bytes32"
        }
      ],
      "stateMutability": "view",
      "type": "function"
    },
    {
      "inputs": [],
      "name": "FEATURE_BURNS_ON_BEHALF",
      "outputs": [
        {
          "internalType": "uint32",
          "name": "",
          "type": "uint32"
        }
      ],
      "stateMutability": "view",
      "type": "function"
    },
    {
      "inputs": [],
      "name": "FEATURE_DELEGATIONS",
      "outputs": [
        {
          "internalType": "uint32",
          "name": "",
          "type": "uint32"
        }
      ],
      "stateMutability": "view",
      "type": "function"
    },
    {
      "inputs": [],
      "name": "FEATURE_DELEGATIONS_ON_BEHALF",
      "outputs": [
        {
          "internalType": "uint32",
          "name": "",
          "type": "uint32"
        }
      ],
      "stateMutability": "view",
      "type": "function"
    },
    {
      "inputs": [],
      "name": "FEATURE_EIP2612_PERMITS",
      "outputs": [
        {
          "internalType": "uint32",
          "name": "",
          "type": "uint32"
        }
      ],
      "stateMutability": "view",
      "type": "function"
    },
    {
      "inputs": [],
      "name": "FEATURE_EIP3009_RECEPTIONS",
      "outputs": [
        {
          "internalType": "uint32",
          "name": "",
          "type": "uint32"
        }
      ],
      "stateMutability": "view",
      "type": "function"
    },
    {
      "inputs": [],
      "name": "FEATURE_EIP3009_TRANSFERS",
      "outputs": [
        {
          "internalType": "uint32",
          "name": "",
          "type": "uint32"
        }
      ],
      "stateMutability": "view",
      "type": "function"
    },
    {
      "inputs": [],
      "name": "FEATURE_ERC1363_APPROVALS",
      "outputs": [
        {
          "internalType": "uint32",
          "name": "",
          "type": "uint32"
        }
      ],
      "stateMutability": "view",
      "type": "function"
    },
    {
      "inputs": [],
      "name": "FEATURE_ERC1363_TRANSFERS",
      "outputs": [
        {
          "internalType": "uint32",
          "name": "",
          "type": "uint32"
        }
      ],
      "stateMutability": "view",
      "type": "function"
    },
    {
      "inputs": [],
      "name": "FEATURE_OWN_BURNS",
      "outputs": [
        {
          "internalType": "uint32",
          "name": "",
          "type": "uint32"
        }
      ],
      "stateMutability": "view",
      "type": "function"
    },
    {
      "inputs": [],
      "name": "FEATURE_TRANSFERS",
      "outputs": [
        {
          "internalType": "uint32",
          "name": "",
          "type": "uint32"
        }
      ],
      "stateMutability": "view",
      "type": "function"
    },
    {
      "inputs": [],
      "name": "FEATURE_TRANSFERS_ON_BEHALF",
      "outputs": [
        {
          "internalType": "uint32",
          "name": "",
          "type": "uint32"
        }
      ],
      "stateMutability": "view",
      "type": "function"
    },
    {
      "inputs": [],
      "name": "FEATURE_UNSAFE_TRANSFERS",
      "outputs": [
        {
          "internalType": "uint32",
          "name": "",
          "type": "uint32"
        }
      ],
      "stateMutability": "view",
      "type": "function"
    },
    {
      "inputs": [],
      "name": "PERMIT_TYPEHASH",
      "outputs": [
        {
          "internalType": "bytes32",
          "name": "",
          "type": "bytes32"
        }
      ],
      "stateMutability": "view",
      "type": "function"
    },
    {
      "inputs": [],
      "name": "RECEIVE_WITH_AUTHORIZATION_TYPEHASH",
      "outputs": [
        {
          "internalType": "bytes32",
          "name": "",
          "type": "bytes32"
        }
      ],
      "stateMutability": "view",
      "type": "function"
    },
    {
      "inputs": [],
      "name": "ROLE_ACCESS_MANAGER",
      "outputs": [
        {
          "internalType": "uint256",
          "name": "",
          "type": "uint256"
        }
      ],
      "stateMutability": "view",
      "type": "function"
    },
    {
      "inputs": [],
      "name": "ROLE_ERC20_RECEIVER",
      "outputs": [
        {
          "internalType": "uint32",
          "name": "",
          "type": "uint32"
        }
      ],
      "stateMutability": "view",
      "type": "function"
    },
    {
      "inputs": [],
      "name": "ROLE_ERC20_SENDER",
      "outputs": [
        {
          "internalType": "uint32",
          "name": "",
          "type": "uint32"
        }
      ],
      "stateMutability": "view",
      "type": "function"
    },
    {
      "inputs": [],
      "name": "ROLE_TOKEN_CREATOR",
      "outputs": [
        {
          "internalType": "uint32",
          "name": "",
          "type": "uint32"
        }
      ],
      "stateMutability": "view",
      "type": "function"
    },
    {
      "inputs": [],
      "name": "ROLE_TOKEN_DESTROYER",
      "outputs": [
        {
          "internalType": "uint32",
          "name": "",
          "type": "uint32"
        }
      ],
      "stateMutability": "view",
      "type": "function"
    },
    {
      "inputs": [],
      "name": "ROLE_UPGRADE_MANAGER",
      "outputs": [
        {
          "internalType": "uint256",
          "name": "",
          "type": "uint256"
        }
      ],
      "stateMutability": "view",
      "type": "function"
    },
    {
      "inputs": [],
      "name": "TRANSFER_WITH_AUTHORIZATION_TYPEHASH",
      "outputs": [
        {
          "internalType": "bytes32",
          "name": "",
          "type": "bytes32"
        }
      ],
      "stateMutability": "view",
      "type": "function"
    },
    {
      "inputs": [
        {
          "internalType": "address",
          "name": "owner",
          "type": "address"
        },
        {
          "internalType": "address",
          "name": "spender",
          "type": "address"
        }
      ],
      "name": "allowance",
      "outputs": [
        {
          "internalType": "uint256",
          "name": "remaining",
          "type": "uint256"
        }
      ],
      "stateMutability": "view",
      "type": "function"
    },
    {
      "inputs": [
        {
          "internalType": "address",
          "name": "spender",
          "type": "address"
        },
        {
          "internalType": "uint256",
          "name": "value",
          "type": "uint256"
        }
      ],
      "name": "approve",
      "outputs": [
        {
          "internalType": "bool",
          "name": "success",
          "type": "bool"
        }
      ],
      "stateMutability": "nonpayable",
      "type": "function"
    },
    {
      "inputs": [
        {
          "internalType": "address",
          "name": "spender",
          "type": "address"
        },
        {
          "internalType": "uint256",
          "name": "value",
          "type": "uint256"
        }
      ],
      "name": "approveAndCall",
      "outputs": [
        {
          "internalType": "bool",
          "name": "",
          "type": "bool"
        }
      ],
      "stateMutability": "nonpayable",
      "type": "function"
    },
    {
      "inputs": [
        {
          "internalType": "address",
          "name": "spender",
          "type": "address"
        },
        {
          "internalType": "uint256",
          "name": "value",
          "type": "uint256"
        },
        {
          "internalType": "bytes",
          "name": "data",
          "type": "bytes"
        }
      ],
      "name": "approveAndCall",
      "outputs": [
        {
          "internalType": "bool",
          "name": "",
          "type": "bool"
        }
      ],
      "stateMutability": "nonpayable",
      "type": "function"
    },
    {
      "inputs": [
        {
          "internalType": "address",
          "name": "authorizer",
          "type": "address"
        },
        {
          "internalType": "bytes32",
          "name": "nonce",
          "type": "bytes32"
        }
      ],
      "name": "authorizationState",
      "outputs": [
        {
          "internalType": "bool",
          "name": "",
          "type": "bool"
        }
      ],
      "stateMutability": "view",
      "type": "function"
    },
    {
      "inputs": [
        {
          "internalType": "address",
          "name": "owner",
          "type": "address"
        }
      ],
      "name": "balanceOf",
      "outputs": [
        {
          "internalType": "uint256",
          "name": "balance",
          "type": "uint256"
        }
      ],
      "stateMutability": "view",
      "type": "function"
    },
    {
      "inputs": [
        {
          "internalType": "address",
          "name": "from",
          "type": "address"
        },
        {
          "internalType": "uint256",
          "name": "value",
          "type": "uint256"
        }
      ],
      "name": "burn",
      "outputs": [
        {
          "internalType": "bool",
          "name": "success",
          "type": "bool"
        }
      ],
      "stateMutability": "nonpayable",
      "type": "function"
    },
    {
      "inputs": [
        {
          "internalType": "address",
          "name": "authorizer",
          "type": "address"
        },
        {
          "internalType": "bytes32",
          "name": "nonce",
          "type": "bytes32"
        },
        {
          "internalType": "uint8",
          "name": "v",
          "type": "uint8"
        },
        {
          "internalType": "bytes32",
          "name": "r",
          "type": "bytes32"
        },
        {
          "internalType": "bytes32",
          "name": "s",
          "type": "bytes32"
        }
      ],
      "name": "cancelAuthorization",
      "outputs": [],
      "stateMutability": "nonpayable",
      "type": "function"
    },
    {
      "inputs": [],
      "name": "decimals",
      "outputs": [
        {
          "internalType": "uint8",
          "name": "",
          "type": "uint8"
        }
      ],
      "stateMutability": "view",
      "type": "function"
    },
    {
      "inputs": [
        {
          "internalType": "address",
          "name": "spender",
          "type": "address"
        },
        {
          "internalType": "uint256",
          "name": "value",
          "type": "uint256"
        }
      ],
      "name": "decreaseAllowance",
      "outputs": [
        {
          "internalType": "bool",
          "name": "",
          "type": "bool"
        }
      ],
      "stateMutability": "nonpayable",
      "type": "function"
    },
    {
      "inputs": [
        {
          "internalType": "address",
          "name": "to",
          "type": "address"
        }
      ],
      "name": "delegate",
      "outputs": [],
      "stateMutability": "nonpayable",
      "type": "function"
    },
    {
      "inputs": [
        {
          "internalType": "address",
          "name": "to",
          "type": "address"
        },
        {
          "internalType": "bytes32",
          "name": "nonce",
          "type": "bytes32"
        },
        {
          "internalType": "uint256",
          "name": "exp",
          "type": "uint256"
        },
        {
          "internalType": "uint8",
          "name": "v",
          "type": "uint8"
        },
        {
          "internalType": "bytes32",
          "name": "r",
          "type": "bytes32"
        },
        {
          "internalType": "bytes32",
          "name": "s",
          "type": "bytes32"
        }
      ],
      "name": "delegateWithAuthorization",
      "outputs": [],
      "stateMutability": "nonpayable",
      "type": "function"
    },
    {
      "inputs": [],
      "name": "entireSupplyHistory",
      "outputs": [
        {
          "components": [
            {
              "internalType": "uint64",
              "name": "k",
              "type": "uint64"
            },
            {
              "internalType": "uint192",
              "name": "v",
              "type": "uint192"
            }
          ],
          "internalType": "struct AdvancedERC20.KV[]",
          "name": "",
          "type": "tuple[]"
        }
      ],
      "stateMutability": "view",
      "type": "function"
    },
    {
      "inputs": [],
      "name": "features",
      "outputs": [
        {
          "internalType": "uint256",
          "name": "",
          "type": "uint256"
        }
      ],
      "stateMutability": "view",
      "type": "function"
    },
    {
      "inputs": [],
      "name": "getInitializedVersion",
      "outputs": [
        {
          "internalType": "uint64",
          "name": "",
          "type": "uint64"
        }
      ],
      "stateMutability": "view",
      "type": "function"
    },
    {
      "inputs": [
        {
          "internalType": "address",
          "name": "operator",
          "type": "address"
        }
      ],
      "name": "getRole",
      "outputs": [
        {
          "internalType": "uint256",
          "name": "",
          "type": "uint256"
        }
      ],
      "stateMutability": "view",
      "type": "function"
    },
    {
      "inputs": [
        {
          "internalType": "address",
          "name": "spender",
          "type": "address"
        },
        {
          "internalType": "uint256",
          "name": "value",
          "type": "uint256"
        }
      ],
      "name": "increaseAllowance",
      "outputs": [
        {
          "internalType": "bool",
          "name": "",
          "type": "bool"
        }
      ],
      "stateMutability": "nonpayable",
      "type": "function"
    },
    {
      "inputs": [
        {
          "internalType": "uint256",
          "name": "required",
          "type": "uint256"
        }
      ],
      "name": "isFeatureEnabled",
      "outputs": [
        {
          "internalType": "bool",
          "name": "",
          "type": "bool"
        }
      ],
      "stateMutability": "view",
      "type": "function"
    },
    {
      "inputs": [
        {
          "internalType": "address",
          "name": "operator",
          "type": "address"
        },
        {
          "internalType": "uint256",
          "name": "required",
          "type": "uint256"
        }
      ],
      "name": "isOperatorInRole",
      "outputs": [
        {
          "internalType": "bool",
          "name": "",
          "type": "bool"
        }
      ],
      "stateMutability": "view",
      "type": "function"
    },
    {
      "inputs": [
        {
          "internalType": "uint256",
          "name": "required",
          "type": "uint256"
        }
      ],
      "name": "isSenderInRole",
      "outputs": [
        {
          "internalType": "bool",
          "name": "",
          "type": "bool"
        }
      ],
      "stateMutability": "view",
      "type": "function"
    },
    {
      "inputs": [
        {
          "internalType": "address",
          "name": "to",
          "type": "address"
        },
        {
          "internalType": "uint256",
          "name": "value",
          "type": "uint256"
        }
      ],
      "name": "mint",
      "outputs": [
        {
          "internalType": "bool",
          "name": "success",
          "type": "bool"
        }
      ],
      "stateMutability": "nonpayable",
      "type": "function"
    },
    {
      "inputs": [
        {
          "internalType": "address",
          "name": "to",
          "type": "address"
        },
        {
          "internalType": "uint256",
          "name": "value",
          "type": "uint256"
        },
        {
          "internalType": "bytes",
          "name": "data",
          "type": "bytes"
        }
      ],
      "name": "mintAndCall",
      "outputs": [
        {
          "internalType": "bool",
          "name": "success",
          "type": "bool"
        }
      ],
      "stateMutability": "nonpayable",
      "type": "function"
    },
    {
      "inputs": [
        {
          "internalType": "address",
          "name": "to",
          "type": "address"
        },
        {
          "internalType": "uint256",
          "name": "value",
          "type": "uint256"
        }
      ],
      "name": "mintAndCall",
      "outputs": [
        {
          "internalType": "bool",
          "name": "success",
          "type": "bool"
        }
      ],
      "stateMutability": "nonpayable",
      "type": "function"
    },
    {
      "inputs": [],
      "name": "name",
      "outputs": [
        {
          "internalType": "string",
          "name": "",
          "type": "string"
        }
      ],
      "stateMutability": "view",
      "type": "function"
    },
    {
      "inputs": [
        {
          "internalType": "address",
          "name": "",
          "type": "address"
        }
      ],
      "name": "nonces",
      "outputs": [
        {
          "internalType": "uint256",
          "name": "",
          "type": "uint256"
        }
      ],
      "stateMutability": "view",
      "type": "function"
    },
    {
      "inputs": [
        {
          "internalType": "address",
          "name": "owner",
          "type": "address"
        },
        {
          "internalType": "address",
          "name": "spender",
          "type": "address"
        },
        {
          "internalType": "uint256",
          "name": "value",
          "type": "uint256"
        },
        {
          "internalType": "uint256",
          "name": "exp",
          "type": "uint256"
        },
        {
          "internalType": "uint8",
          "name": "v",
          "type": "uint8"
        },
        {
          "internalType": "bytes32",
          "name": "r",
          "type": "bytes32"
        },
        {
          "internalType": "bytes32",
          "name": "s",
          "type": "bytes32"
        }
      ],
      "name": "permit",
      "outputs": [],
      "stateMutability": "nonpayable",
      "type": "function"
    },
    {
      "inputs": [
        {
          "internalType": "address",
          "name": "contractOwner",
          "type": "address"
        },
        {
          "internalType": "string",
          "name": "_name",
          "type": "string"
        },
        {
          "internalType": "string",
          "name": "_symbol",
          "type": "string"
        },
        {
          "internalType": "address",
          "name": "initialHolder",
          "type": "address"
        },
        {
          "internalType": "uint256",
          "name": "initialSupply",
          "type": "uint256"
        },
        {
          "internalType": "uint256",
          "name": "initialFeatures",
          "type": "uint256"
        }
      ],
      "name": "postConstruct",
      "outputs": [],
      "stateMutability": "nonpayable",
      "type": "function"
    },
    {
      "inputs": [
        {
          "internalType": "address",
          "name": "from",
          "type": "address"
        },
        {
          "internalType": "address",
          "name": "to",
          "type": "address"
        },
        {
          "internalType": "uint256",
          "name": "value",
          "type": "uint256"
        },
        {
          "internalType": "uint256",
          "name": "validAfter",
          "type": "uint256"
        },
        {
          "internalType": "uint256",
          "name": "validBefore",
          "type": "uint256"
        },
        {
          "internalType": "bytes32",
          "name": "nonce",
          "type": "bytes32"
        },
        {
          "internalType": "uint8",
          "name": "v",
          "type": "uint8"
        },
        {
          "internalType": "bytes32",
          "name": "r",
          "type": "bytes32"
        },
        {
          "internalType": "bytes32",
          "name": "s",
          "type": "bytes32"
        }
      ],
      "name": "receiveWithAuthorization",
      "outputs": [],
      "stateMutability": "nonpayable",
      "type": "function"
    },
    {
      "inputs": [
        {
          "internalType": "address",
          "name": "to",
          "type": "address"
        },
        {
          "internalType": "uint256",
          "name": "value",
          "type": "uint256"
        },
        {
          "internalType": "bytes",
          "name": "data",
          "type": "bytes"
        }
      ],
      "name": "safeMint",
      "outputs": [
        {
          "internalType": "bool",
          "name": "success",
          "type": "bool"
        }
      ],
      "stateMutability": "nonpayable",
      "type": "function"
    },
    {
      "inputs": [
        {
          "internalType": "address",
          "name": "from",
          "type": "address"
        },
        {
          "internalType": "address",
          "name": "to",
          "type": "address"
        },
        {
          "internalType": "uint256",
          "name": "value",
          "type": "uint256"
        },
        {
          "internalType": "bytes",
          "name": "data",
          "type": "bytes"
        }
      ],
      "name": "safeTransferFrom",
      "outputs": [
        {
          "internalType": "bool",
          "name": "",
          "type": "bool"
        }
      ],
      "stateMutability": "nonpayable",
      "type": "function"
    },
    {
      "inputs": [
        {
          "internalType": "bytes4",
          "name": "interfaceId",
          "type": "bytes4"
        }
      ],
      "name": "supportsInterface",
      "outputs": [
        {
          "internalType": "bool",
          "name": "",
          "type": "bool"
        }
      ],
      "stateMutability": "pure",
      "type": "function"
    },
    {
      "inputs": [],
      "name": "symbol",
      "outputs": [
        {
          "internalType": "string",
          "name": "",
          "type": "string"
        }
      ],
      "stateMutability": "view",
      "type": "function"
    },
    {
      "inputs": [],
      "name": "totalSupply",
      "outputs": [
        {
          "internalType": "uint256",
          "name": "",
          "type": "uint256"
        }
      ],
      "stateMutability": "view",
      "type": "function"
    },
    {
      "inputs": [
        {
          "internalType": "uint256",
          "name": "blockNum",
          "type": "uint256"
        }
      ],
      "name": "totalSupplyAt",
      "outputs": [
        {
          "internalType": "uint256",
          "name": "",
          "type": "uint256"
        }
      ],
      "stateMutability": "view",
      "type": "function"
    },
    {
      "inputs": [
        {
          "internalType": "uint256",
          "name": "",
          "type": "uint256"
        }
      ],
      "name": "totalSupplyHistory",
      "outputs": [
        {
          "internalType": "uint64",
          "name": "k",
          "type": "uint64"
        },
        {
          "internalType": "uint192",
          "name": "v",
          "type": "uint192"
        }
      ],
      "stateMutability": "view",
      "type": "function"
    },
    {
      "inputs": [],
      "name": "totalSupplyHistoryLength",
      "outputs": [
        {
          "internalType": "uint256",
          "name": "",
          "type": "uint256"
        }
      ],
      "stateMutability": "view",
      "type": "function"
    },
    {
      "inputs": [
        {
          "internalType": "address",
          "name": "to",
          "type": "address"
        },
        {
          "internalType": "uint256",
          "name": "value",
          "type": "uint256"
        }
      ],
      "name": "transfer",
      "outputs": [
        {
          "internalType": "bool",
          "name": "success",
          "type": "bool"
        }
      ],
      "stateMutability": "nonpayable",
      "type": "function"
    },
    {
      "inputs": [
        {
          "internalType": "address",
          "name": "to",
          "type": "address"
        },
        {
          "internalType": "uint256",
          "name": "value",
          "type": "uint256"
        }
      ],
      "name": "transferAndCall",
      "outputs": [
        {
          "internalType": "bool",
          "name": "",
          "type": "bool"
        }
      ],
      "stateMutability": "nonpayable",
      "type": "function"
    },
    {
      "inputs": [
        {
          "internalType": "address",
          "name": "to",
          "type": "address"
        },
        {
          "internalType": "uint256",
          "name": "value",
          "type": "uint256"
        },
        {
          "internalType": "bytes",
          "name": "data",
          "type": "bytes"
        }
      ],
      "name": "transferAndCall",
      "outputs": [
        {
          "internalType": "bool",
          "name": "",
          "type": "bool"
        }
      ],
      "stateMutability": "nonpayable",
      "type": "function"
    },
    {
      "inputs": [
        {
          "internalType": "address",
          "name": "from",
          "type": "address"
        },
        {
          "internalType": "address",
          "name": "to",
          "type": "address"
        },
        {
          "internalType": "uint256",
          "name": "value",
          "type": "uint256"
        }
      ],
      "name": "transferFrom",
      "outputs": [
        {
          "internalType": "bool",
          "name": "success",
          "type": "bool"
        }
      ],
      "stateMutability": "nonpayable",
      "type": "function"
    },
    {
      "inputs": [
        {
          "internalType": "address",
          "name": "from",
          "type": "address"
        },
        {
          "internalType": "address",
          "name": "to",
          "type": "address"
        },
        {
          "internalType": "uint256",
          "name": "value",
          "type": "uint256"
        },
        {
          "internalType": "bytes",
          "name": "data",
          "type": "bytes"
        }
      ],
      "name": "transferFromAndCall",
      "outputs": [
        {
          "internalType": "bool",
          "name": "",
          "type": "bool"
        }
      ],
      "stateMutability": "nonpayable",
      "type": "function"
    },
    {
      "inputs": [
        {
          "internalType": "address",
          "name": "from",
          "type": "address"
        },
        {
          "internalType": "address",
          "name": "to",
          "type": "address"
        },
        {
          "internalType": "uint256",
          "name": "value",
          "type": "uint256"
        }
      ],
      "name": "transferFromAndCall",
      "outputs": [
        {
          "internalType": "bool",
          "name": "",
          "type": "bool"
        }
      ],
      "stateMutability": "nonpayable",
      "type": "function"
    },
    {
      "inputs": [
        {
          "internalType": "address",
          "name": "from",
          "type": "address"
        },
        {
          "internalType": "address",
          "name": "to",
          "type": "address"
        },
        {
          "internalType": "uint256",
          "name": "value",
          "type": "uint256"
        },
        {
          "internalType": "uint256",
          "name": "validAfter",
          "type": "uint256"
        },
        {
          "internalType": "uint256",
          "name": "validBefore",
          "type": "uint256"
        },
        {
          "internalType": "bytes32",
          "name": "nonce",
          "type": "bytes32"
        },
        {
          "internalType": "uint8",
          "name": "v",
          "type": "uint8"
        },
        {
          "internalType": "bytes32",
          "name": "r",
          "type": "bytes32"
        },
        {
          "internalType": "bytes32",
          "name": "s",
          "type": "bytes32"
        }
      ],
      "name": "transferWithAuthorization",
      "outputs": [],
      "stateMutability": "nonpayable",
      "type": "function"
    },
    {
      "inputs": [
        {
          "internalType": "address",
          "name": "from",
          "type": "address"
        },
        {
          "internalType": "address",
          "name": "to",
          "type": "address"
        },
        {
          "internalType": "uint256",
          "name": "value",
          "type": "uint256"
        }
      ],
      "name": "unsafeTransferFrom",
      "outputs": [],
      "stateMutability": "nonpayable",
      "type": "function"
    },
    {
      "inputs": [
        {
          "internalType": "uint256",
          "name": "_mask",
          "type": "uint256"
        }
      ],
      "name": "updateFeatures",
      "outputs": [],
      "stateMutability": "nonpayable",
      "type": "function"
    },
    {
      "inputs": [
        {
          "internalType": "address",
          "name": "operator",
          "type": "address"
        },
        {
          "internalType": "uint256",
          "name": "role",
          "type": "uint256"
        }
      ],
      "name": "updateRole",
      "outputs": [],
      "stateMutability": "nonpayable",
      "type": "function"
    },
    {
      "inputs": [
        {
          "internalType": "address",
          "name": "",
          "type": "address"
        }
      ],
      "name": "votingDelegates",
      "outputs": [
        {
          "internalType": "address",
          "name": "",
          "type": "address"
        }
      ],
      "stateMutability": "view",
      "type": "function"
    },
    {
      "inputs": [
        {
          "internalType": "address",
          "name": "holder",
          "type": "address"
        },
        {
          "internalType": "uint256",
          "name": "blockNum",
          "type": "uint256"
        }
      ],
      "name": "votingPowerAt",
      "outputs": [
        {
          "internalType": "uint256",
          "name": "",
          "type": "uint256"
        }
      ],
      "stateMutability": "view",
      "type": "function"
    },
    {
      "inputs": [
        {
          "internalType": "address",
          "name": "",
          "type": "address"
        },
        {
          "internalType": "uint256",
          "name": "",
          "type": "uint256"
        }
      ],
      "name": "votingPowerHistory",
      "outputs": [
        {
          "internalType": "uint64",
          "name": "k",
          "type": "uint64"
        },
        {
          "internalType": "uint192",
          "name": "v",
          "type": "uint192"
        }
      ],
      "stateMutability": "view",
      "type": "function"
    },
    {
      "inputs": [
        {
          "internalType": "address",
          "name": "holder",
          "type": "address"
        }
      ],
      "name": "votingPowerHistoryLength",
      "outputs": [
        {
          "internalType": "uint256",
          "name": "",
          "type": "uint256"
        }
      ],
      "stateMutability": "view",
      "type": "function"
    },
    {
      "inputs": [
        {
          "internalType": "address",
          "name": "holder",
          "type": "address"
        }
      ],
      "name": "votingPowerHistoryOf",
      "outputs": [
        {
          "components": [
            {
              "internalType": "uint64",
              "name": "k",
              "type": "uint64"
            },
            {
              "internalType": "uint192",
              "name": "v",
              "type": "uint192"
            }
          ],
          "internalType": "struct AdvancedERC20.KV[]",
          "name": "",
          "type": "tuple[]"
        }
      ],
      "stateMutability": "view",
      "type": "function"
    },
    {
      "inputs": [
        {
          "internalType": "address",
          "name": "holder",
          "type": "address"
        }
      ],
      "name": "votingPowerOf",
      "outputs": [
        {
          "internalType": "uint256",
          "name": "",
          "type": "uint256"
        }
      ],
      "stateMutability": "view",
      "type": "function"
    }
  ],
  "bytecode": "0x60806040523480156200001157600080fd5b5060405162004bcd38038062004bcd833981016040819052620000349162000bd2565b600054610100900460ff1615808015620000555750600054600160ff909116105b8062000085575062000072306200015460201b6200213d1760201c565b15801562000085575060005460ff166001145b620000dd5760405162461bcd60e51b815260206004820152602e602482015260008051602062004b6d83398151915260448201526d191e481a5b9a5d1a585b1a5e995960921b60648201526084015b60405180910390fd5b6000805460ff19166001179055801562000101576000805461ff0019166101001790555b801562000137576000805461ff00191690556040516001815260008051602062004b8d8339815191529060200160405180910390a15b506200014886868686868662000163565b50505050505062000d0f565b6001600160a01b03163b151590565b600054610100900460ff1615808015620001845750600054600160ff909116105b80620001b45750620001a1306200015460201b6200213d1760201c565b158015620001b4575060005460ff166001145b620002085760405162461bcd60e51b815260206004820152602e602482015260008051602062004b6d83398151915260448201526d191e481a5b9a5d1a585b1a5e995960921b6064820152608401620000d4565b6000805460ff1916600117905580156200022c576000805461ff0019166101001790555b60008651116200027f5760405162461bcd60e51b815260206004820152601560248201527f746f6b656e206e616d65206973206e6f742073657400000000000000000000006044820152606401620000d4565b6000855111620002d25760405162461bcd60e51b815260206004820152601760248201527f746f6b656e2073796d626f6c206973206e6f74207365740000000000000000006044820152606401620000d4565b8551620002e790603390602089019062000a5c565b508451620002fd90603490602088019062000a5c565b508215806200031457506001600160a01b03841615155b620003705760405162461bcd60e51b815260206004820152602560248201527f5f696e697469616c486f6c646572206e6f742073657420287a65726f20616464604482015264726573732960d81b6064820152608401620000d4565b82156200038357620003838484620003eb565b6001600160a01b0387161515806200039a57508115155b15620003ac57620003ac878362000650565b8015620003e2576000805461ff00191690556040516001815260008051602062004b8d8339815191529060200160405180910390a15b50505050505050565b6001600160a01b038216620004325760405162461bcd60e51b815260206004820152600c60248201526b7a65726f206164647265737360a01b6044820152606401620000d4565b60355481810111620004915760405162461bcd60e51b815260206004820152602160248201527f7a65726f2076616c7565206f722061726974686d65746963206f766572666c6f6044820152607760f81b6064820152608401620000d4565b6035546001600160c01b0390620004aa90839062000c71565b1115620004fa5760405162461bcd60e51b815260206004820152601f60248201527f746f74616c20737570706c79206f766572666c6f77202875696e7431393229006044820152606401620000d4565b80603560008282546200050e919062000c71565b90915550506001600160a01b038216600090815260366020526040812080548392906200053d90849062000c71565b909155506200055c905060396200214c620006dd60201b1783620006f2565b50506001600160a01b038083166000908152603760205260408120546200058892339291168462000899565b6040518181526001600160a01b0383169033907f9d228d69b5fdb8d273a2336f8fb8612d039631024ea9bf09c424a9503aa078f09060200160405180910390a36040518181526001600160a01b0383169060009033907fd1398bee19313d6bf672ccb116e51f4a1a947e91c757907f51fbb5b5e56c698f9060200160405180910390a46040518181526001600160a01b038316906000907fddf252ad1be2c89b69c2b068fc378daa952ba7f163c4a11628f55a4df523b3ef9060200160405180910390a35050565b600054610100900460ff16620006bd5760405162461bcd60e51b815260206004820152602b60248201527f496e697469616c697a61626c653a20636f6e7472616374206973206e6f74206960448201526a6e697469616c697a696e6760a81b6064820152608401620000d4565b620006cc8260001980620009f4565b620006d9308280620009f4565b5050565b6000620006eb828462000c71565b9392505050565b8254600090819015620007575784548590620007119060019062000c8c565b815481106200073057634e487b7160e01b600052603260045260246000fd5b6000918252602090912001546801000000000000000090046001600160c01b03166200075a565b60005b6001600160c01b031691506200077182848660201c565b855490915015801590620007ca5750845443908690620007949060019062000c8c565b81548110620007b357634e487b7160e01b600052603260045260246000fd5b6000918252602090912001546001600160401b0316145b156200083a57845481908690620007e49060019062000c8c565b815481106200080357634e487b7160e01b600052603260045260246000fd5b9060005260206000200160000160086101000a8154816001600160c01b0302191690836001600160c01b0316021790555062000891565b604080518082019091526001600160401b0343811682526001600160c01b0380841660208085019182528954600181018b5560008b8152919091209451915190921668010000000000000000029216919091179101555b935093915050565b816001600160a01b0316836001600160a01b03161480620008b8575080155b15620008c457620009ee565b6001600160a01b0383161562000959576001600160a01b03831660009081526038602090815260408220919081906200090b90849062000a4e901b620021581786620006f2565b91509150856001600160a01b0316876001600160a01b031660008051602062004bad83398151915284846040516200094d929190918252602082015260400190565b60405180910390a35050505b6001600160a01b03821615620009ee576001600160a01b0382166000908152603860209081526040822091908190620009a0908490620006dd901b6200214c1786620006f2565b91509150846001600160a01b0316876001600160a01b031660008051602062004bad8339815191528484604051620009e2929190918252602082015260400190565b60405180910390a35050505b50505050565b6001600160a01b03831660008181526001602090815260409182902084905581518581529081018490527fe9be537308880e0f56b7d7cfd7abf85f14c4934486d138f848b92a0cbaf659b4910160405180910390a2505050565b6000620006eb828462000c8c565b82805462000a6a9062000ca6565b90600052602060002090601f01602090048101928262000a8e576000855562000ad9565b82601f1062000aa957805160ff191683800117855562000ad9565b8280016001018555821562000ad9579182015b8281111562000ad957825182559160200191906001019062000abc565b5062000ae792915062000aeb565b5090565b5b8082111562000ae7576000815560010162000aec565b80516001600160a01b038116811462000b1a57600080fd5b919050565b600082601f83011262000b30578081fd5b81516001600160401b038082111562000b4d5762000b4d62000cf9565b604051601f8301601f19908116603f0116810190828211818310171562000b785762000b7862000cf9565b8160405283815260209250868385880101111562000b94578485fd5b8491505b8382101562000bb7578582018301518183018401529082019062000b98565b8382111562000bc857848385830101525b9695505050505050565b60008060008060008060c0878903121562000beb578182fd5b62000bf68762000b02565b60208801519096506001600160401b038082111562000c13578384fd5b62000c218a838b0162000b1f565b9650604089015191508082111562000c37578384fd5b5062000c4689828a0162000b1f565b94505062000c576060880162000b02565b92506080870151915060a087015190509295509295509295565b6000821982111562000c875762000c8762000ce3565b500190565b60008282101562000ca15762000ca162000ce3565b500390565b600181811c9082168062000cbb57607f821691505b6020821081141562000cdd57634e487b7160e01b600052602260045260246000fd5b50919050565b634e487b7160e01b600052601160045260246000fd5b634e487b7160e01b600052604160045260246000fd5b613e4e8062000d1f6000396000f3fe608060405234801561001057600080fd5b506004361061045f5760003560e01c806387793f3e1161024c578063bcc3f3bd11610146578063dd62ed3e116100c3578063e98f5ba711610087578063e98f5ba714610aa2578063ef55bec614610aac578063f63c2f8214610abf578063f9cf927114610ac7578063fcc2c07814610ada57600080fd5b8063dd62ed3e146109ec578063e3ee160e14610a25578063e62cac7614610a38578063e7a324dc14610a42578063e94a010214610a6957600080fd5b8063cae9ca511161010a578063cae9ca5114610979578063d505accf1461098c578063d5bb7f671461099f578063d8fbe994146109b2578063d9169487146109c557600080fd5b8063bcc3f3bd1461092e578063c0d6568d14610941578063c1d34b8914610949578063c5ff500c1461095c578063c688d6931461096657600080fd5b80639dc29fac116101d4578063ae60bda411610198578063ae60bda4146108e8578063ae682e2e146108f3578063b3c65015146108fe578063b66dbdc514610913578063b88d4fde1461091b57600080fd5b80639dc29fac14610875578063a0cc6a6814610888578063a457c2d7146108af578063a9059cbb146108c2578063ae5b102e146108d557600080fd5b806394f4f9301161021b57806394f4f9301461082157806395d89b411461083457806397ba46111461083c578063981b24d01461084f57806398de4ba31461086257600080fd5b806387793f3e146107d35780638832e6e3146107fc5780638d4e57e61461080f5780638f6fba8c1461081957600080fd5b80633e9c5f7e1161035d5780635e2dc2b7116102e5578063725f3626116102a9578063725f3626146107535780637815ef0c146107665780637ecebe00146107795780637f2eecc3146107995780637fd491b0146107c057600080fd5b80635e2dc2b7146106c957806364cb8b96146106d2578063653de620146106e75780636641d9a0146106f057806370a082311461072a57600080fd5b80634721272d1161032c5780634721272d1461067257806350c29e371461067b57806359b961ef146106905780635a049a70146106a35780635c19a95c146106b657600080fd5b80633e9c5f7e1461061b5780634000aea01461062357806340c10f1914610636578063442767331461064957600080fd5b80631e0fa234116103eb57806330adf81f116103af57806330adf81f146105ac578063313ce567146105d35780633177029f146105ed5780633644e51514610600578063395093511461060857600080fd5b80631e0fa2341461051457806320606b701461055557806323b872dd1461057c5780632b5214161461058f5780632d4c39ea146105a457600080fd5b8063136d035f11610432578063136d035f146104c757806313873a24146104e557806318160ddd146104ed5780631993f554146105045780631a0b04ea1461050c57600080fd5b806301ffc9a71461046457806306fdde031461048c578063095ea7b3146104a15780631296ee62146104b4575b600080fd5b610477610472366004613ac5565b610aed565b60405190151581526020015b60405180910390f35b610494610b75565b6040516104839190613c61565b6104776104af36600461392b565b610c03565b6104776104c236600461392b565b610c19565b6104d061080081565b60405163ffffffff9091168152602001610483565b6104d0608081565b6104f660355481565b604051908152602001610483565b6104d0600481565b6104d0600881565b61053d610522366004613759565b6037602052600090815260409020546001600160a01b031681565b6040516001600160a01b039091168152602001610483565b6104f67f8cad95687ba82c2ce50e74f7b754645e5117c3a5bec8151c0726d5857980a86681565b61047761058a3660046137a5565b610c2d565b306000908152600160205260409020546104f6565b6104d0604081565b6104f67f6e71edae12b1b97f4d1f60370fef10105fa2faae0126114a169c64845d6126c981565b6105db601281565b60405160ff9091168152602001610483565b6104776105fb36600461392b565b610c9a565b6104f6610cb6565b61047761061636600461392b565b610d52565b6104d0602081565b610477610631366004613a71565b610dfe565b61047761064436600461392b565b610e0c565b6104f6610657366004613759565b6001600160a01b031660009081526001602052604090205490565b6104d061020081565b61068e6106893660046139f8565b610e40565b005b61068e61069e3660046137a5565b6110b5565b61068e6106b13660046139ab565b6110c6565b61068e6106c4366004613759565b611171565b6104d061040081565b6106da6111d4565b6040516104839190613bc4565b6104d061010081565b6107036106fe366004613afd565b611250565b604080516001600160401b0390931683526001600160c01b03909116602083015201610483565b6104f6610738366004613759565b6001600160a01b031660009081526036602052604090205490565b610477610761366004613afd565b61128b565b6106da610774366004613759565b6112a7565b6104f6610787366004613759565b603a6020526000908152604090205481565b6104f67fd099cc98ef71107a616c4f0f941f04c322d8e254fe26b3c6668db87aae413de881565b6107036107ce36600461392b565b611339565b6104f66107e1366004613759565b6001600160a01b031660009081526038602052604090205490565b61047761080a366004613a71565b611382565b6104d06201000081565b6104d0600281565b6104f661082f36600461392b565b61139e565b610494611407565b61047761084a366004613a71565b611414565b6104f661085d366004613afd565b611430565b61047761087036600461392b565b611482565b61047761088336600461392b565b61149e565b6104f67f7c7c6cdb67a18743f49ec6fa9b35f50d52ed05cbed4cc592e13b44501c1a226781565b6104776108bd36600461392b565b6118f5565b6104776108d036600461392b565b6119d2565b61068e6108e336600461392b565b6119df565b6104f6600160fe1b81565b6104f6600160ff1b81565b60005460405160ff9091168152602001610483565b6039546104f6565b6104776109293660046137e0565b611a68565b6104f661093c366004613759565b611a8e565b6104d0600181565b6104776109573660046137e0565b611b0f565b6104d06204000081565b61047761097436600461392b565b611b80565b610477610987366004613a71565b611ba2565b61068e61099a3660046138c2565b611c11565b61068e6109ad366004613afd565b611d60565b6104776109c03660046137a5565b611d6a565b6104f67f158b0a9edf7a828aad02f63cd515c68ef2f50ba807396f6d12842833a159742981565b6104f66109fa366004613773565b6001600160a01b039182166000908152603c6020908152604080832093909416825291909152205490565b61068e610a33366004613845565b611d87565b6104d06202000081565b6104f67fff41620983935eb4d4a3c7384a066ca8c1d10cef9a5eca9eb97ca735cd14a75581565b610477610a7736600461392b565b6001600160a01b03919091166000908152603b60209081526040808320938352929052205460ff1690565b6104d06208000081565b61068e610aba366004613845565b611ee2565b6104d0601081565b61068e610ad5366004613954565b612041565b610477610ae8366004613afd565b612131565b60006001600160e01b031982166301ffc9a760e01b1480610b1e57506001600160e01b031982166336372b0760e01b145b80610b3957506001600160e01b0319821663b0202a1160e01b145b80610b5457506001600160e01b03198216634ec7fbed60e11b145b80610b6f57506001600160e01b03198216635ffa99dd60e11b145b92915050565b60338054610b8290613d40565b80601f0160208091040260200160405190810160405280929190818152602001828054610bae90613d40565b8015610bfb5780601f10610bd057610100808354040283529160200191610bfb565b820191906000526020600020905b815481529060010190602001808311610bde57829003601f168201915b505050505081565b6000610c10338484612164565b50600192915050565b6000610c26338484611d6a565b9392505050565b6000610c39600461128b565b80610c4c5750610c4c8362040000611b80565b80610c5e5750610c5e62080000612131565b15610c7357610c6e8484846110b5565b610c90565b610c8e84848460405180602001604052806000815250611a68565b505b5060019392505050565b6000610c26838360405180602001604052806000815250611ba2565b604080518082018252600f81526e416476616e6365644552433230763160881b60209182015281517f8cad95687ba82c2ce50e74f7b754645e5117c3a5bec8151c0726d5857980a866818301527f65218aa0cdc6725da873801e9daf9d54f230d8a515289f76c8bd31dd8648c50d81840152466060820152306080808301919091528351808303909101815260a0909101909252815191012090565b336000908152603c602090815260408083206001600160a01b03861684529091528120548281018110610de85760405162461bcd60e51b815260206004820152603360248201527f7a65726f2076616c756520617070726f76616c20696e637265617365206f722060448201527261726974686d65746963206f766572666c6f7760681b60648201526084015b60405180910390fd5b610df6846104af8584613cf1565b949350505050565b6000610df633858585611b0f565b6000610e1a62010000612131565b610e365760405162461bcd60e51b8152600401610ddf90613c9f565b610c108383612275565b600054610100900460ff1615808015610e605750600054600160ff909116105b80610e7a5750303b158015610e7a575060005460ff166001145b610edd5760405162461bcd60e51b815260206004820152602e60248201527f496e697469616c697a61626c653a20636f6e747261637420697320616c72656160448201526d191e481a5b9a5d1a585b1a5e995960921b6064820152608401610ddf565b6000805460ff191660011790558015610f00576000805461ff0019166101001790555b6000865111610f495760405162461bcd60e51b81526020600482015260156024820152741d1bdad95b881b985b59481a5cc81b9bdd081cd95d605a1b6044820152606401610ddf565b6000855111610f9a5760405162461bcd60e51b815260206004820152601760248201527f746f6b656e2073796d626f6c206973206e6f74207365740000000000000000006044820152606401610ddf565b8551610fad90603390602089019061360d565b508451610fc190603490602088019061360d565b50821580610fd757506001600160a01b03841615155b6110315760405162461bcd60e51b815260206004820152602560248201527f5f696e697469616c486f6c646572206e6f742073657420287a65726f20616464604482015264726573732960d81b6064820152608401610ddf565b8215611041576110418484612275565b6001600160a01b03871615158061105757508115155b1561106657611066878361249d565b80156110ac576000805461ff0019169055604051600181527f7f26b83ff96e1f2b6a682f133852f6798a09c465da95921460cefb38474024989060200160405180910390a15b50505050505050565b6110c133848484612520565b505050565b604080517f158b0a9edf7a828aad02f63cd515c68ef2f50ba807396f6d12842833a159742960208201526001600160a01b038716918101919091526060810185905260009061112a906080015b604051602081830303815290604052858585612aac565b9050856001600160a01b0316816001600160a01b03161461115d5760405162461bcd60e51b8152600401610ddf90613c74565b61116986866001612b11565b505050505050565b61117b602061128b565b6111c75760405162461bcd60e51b815260206004820152601860248201527f64656c65676174696f6e73206172652064697361626c656400000000000000006044820152606401610ddf565b6111d13382612c1f565b50565b60606039805480602002602001604051908101604052809291908181526020016000905b8282101561124757600084815260209081902060408051808201909152908401546001600160401b0381168252600160401b90046001600160c01b0316818301528252600190920191016111f8565b50505050905090565b6039818154811061126057600080fd5b6000918252602090912001546001600160401b0381169150600160401b90046001600160c01b031682565b30600090815260016020526040812054610b6f905b8316831490565b6001600160a01b0381166000908152603860209081526040808320805482518185028101850190935280835260609492939192909184015b8282101561132e57600084815260209081902060408051808201909152908401546001600160401b0381168252600160401b90046001600160c01b0316818301528252600190920191016112df565b505050509050919050565b6038602052816000526040600020818154811061135557600080fd5b6000918252602090912001546001600160401b0381169250600160401b90046001600160c01b0316905082565b600061138e8484610e0c565b50610c9060008585856001612cbb565b60004382106113e55760405162461bcd60e51b8152602060048201526013602482015272189b1bd8dac81b9bdd081e595d081b5a5b9959606a1b6044820152606401610ddf565b6001600160a01b0383166000908152603860205260409020610c269083612e08565b60348054610b8290613d40565b60006114208484610e0c565b50610c9060008585856000612cbb565b60004382106114775760405162461bcd60e51b8152602060048201526013602482015272189b1bd8dac81b9bdd081e595d081b5a5b9959606a1b6044820152606401610ddf565b610b6f603983612e08565b6000610c26838360405180602001604052806000815250611414565b60006114ac62020000612131565b6116cf576001600160a01b038316331480156114cd57506114cd600861128b565b806114f157506001600160a01b03831633148015906114f157506114f1601061128b565b6001600160a01b038416331461153c576040518060400160405280601c81526020017f6275726e73206f6e20626568616c66206172652064697361626c656400000000815250611568565b60405180604001604052806012815260200171189d5c9b9cc8185c9948191a5cd8589b195960721b8152505b906115865760405162461bcd60e51b8152600401610ddf9190613c61565b506001600160a01b03831633146116cf576001600160a01b0383166000908152603c602090815260408083203384529091529020548281101561160b5760405162461bcd60e51b815260206004820152601d60248201527f6275726e20616d6f756e74206578636565647320616c6c6f77616e63650000006044820152606401610ddf565b6000198110156116cd5761161f8382613d29565b6001600160a01b0385166000818152603c60209081526040808320338085529252909120839055919250907fb3fd5071835887567a0671151121894ddccc2842f1d10bedad13e0d17cace9a76116758685613cf1565b60408051918252602082018690520160405180910390a360405181815233906001600160a01b038616907f8c5be1e5ebec7d5bd14f71427d1e84f3dd0314c0f7b2291e5b200ac8c7c3b9259060200160405180910390a35b505b8161170e5760405162461bcd60e51b815260206004820152600f60248201526e3d32b937903b30b63ab290313ab93760891b6044820152606401610ddf565b6001600160a01b0383166117645760405162461bcd60e51b815260206004820152601a60248201527f6275726e2066726f6d20746865207a65726f20616464726573730000000000006044820152606401610ddf565b6001600160a01b0383166000908152603660205260409020548211156117cc5760405162461bcd60e51b815260206004820152601b60248201527f6275726e20616d6f756e7420657863656564732062616c616e636500000000006044820152606401610ddf565b6001600160a01b038316600090815260366020526040812080548492906117f4908490613d29565b92505081905550816035600082825461180d9190613d29565b90915550611821905060396121588461302f565b50506001600160a01b0380841660009081526037602052604081205461184c923392911690856131c0565b6040518281526001600160a01b0384169033907fe8a89cc6e5096f9d9f43de82c077c1f4cfe707c0e0c2032176c68813b9ae6a5c9060200160405180910390a36040518281526000906001600160a01b038516903390600080516020613dd98339815191529060200160405180910390a46040518281526000906001600160a01b03851690600080516020613df98339815191529060200160405180910390a350600192915050565b336000908152603c602090815260408083206001600160a01b0386168452909152812054826119665760405162461bcd60e51b815260206004820152601c60248201527f7a65726f2076616c756520617070726f76616c206465637265617365000000006044820152606401610ddf565b828110156119c45760405162461bcd60e51b815260206004820152602560248201527f45524332303a2064656372656173656420616c6c6f77616e63652062656c6f77604482015264207a65726f60d81b6064820152608401610ddf565b610df6846104af8584613d29565b6000610c26338484610c2d565b6119ec600160ff1b612131565b611a085760405162461bcd60e51b8152600401610ddf90613c9f565b611a648282611a5f33611a30876001600160a01b031660009081526001602052604090205490565b6001600160a01b0391909116600090815260016020526040902054600019808818821618908716919091171690565b613315565b5050565b6000611a758585856110b5565b611a83858585856001612cbb565b506001949350505050565b6001600160a01b0381166000908152603860205260408120805415611afc5780548190611abd90600190613d29565b81548110611adb57634e487b7160e01b600052603260045260246000fd5b600091825260209091200154600160401b90046001600160c01b0316611aff565b60005b6001600160c01b03169392505050565b6000611b1b608061128b565b611b675760405162461bcd60e51b815260206004820152601e60248201527f45524331333633207472616e7366657273206172652064697361626c656400006044820152606401610ddf565b611b728585856110b5565b611a83858585856000612cbb565b6001600160a01b038216600090815260016020526040812054610c26906112a0565b6000611baf61010061128b565b611bfb5760405162461bcd60e51b815260206004820152601e60248201527f4552433133363320617070726f76616c73206172652064697361626c656400006044820152606401610ddf565b611c058484610c03565b50610c9084848461336f565b611c1c61020061128b565b611c685760405162461bcd60e51b815260206004820152601c60248201527f45495032363132207065726d697473206172652064697361626c6564000000006044820152606401610ddf565b6001600160a01b0387166000908152603a602052604081208054611cf9917f6e71edae12b1b97f4d1f60370fef10105fa2faae0126114a169c64845d6126c9918b918b918b9187611cb883613d7b565b909155506040805160208101969096526001600160a01b0394851690860152929091166060840152608083015260a082015260c0810187905260e001611113565b9050876001600160a01b0316816001600160a01b031614611d2c5760405162461bcd60e51b8152600401610ddf90613c74565b844210611d4b5760405162461bcd60e51b8152600401610ddf90613cc6565b611d56888888612164565b5050505050505050565b6111d130826119df565b6000610df684848460405180602001604052806000815250611b0f565b611d9261040061128b565b611dde5760405162461bcd60e51b815260206004820152601e60248201527f45495033303039207472616e7366657273206172652064697361626c656400006044820152606401610ddf565b6000611e237f7c7c6cdb67a18743f49ec6fa9b35f50d52ed05cbed4cc592e13b44501c1a226760001b8b8b8b8b8b8b6040516020016111139796959493929190613c25565b9050896001600160a01b0316816001600160a01b031614611e565760405162461bcd60e51b8152600401610ddf90613c74565b864211611e9f5760405162461bcd60e51b81526020600482015260176024820152761cda59db985d1d5c99481b9bdd081e595d081d985b1a59604a1b6044820152606401610ddf565b854210611ebe5760405162461bcd60e51b8152600401610ddf90613cc6565b611eca8a866000612b11565b611ed6818b8b8b612520565b50505050505050505050565b611eed61080061128b565b611f395760405162461bcd60e51b815260206004820152601f60248201527f4549503330303920726563657074696f6e73206172652064697361626c6564006044820152606401610ddf565b6000611f7e7fd099cc98ef71107a616c4f0f941f04c322d8e254fe26b3c6668db87aae413de860001b8b8b8b8b8b8b6040516020016111139796959493929190613c25565b9050896001600160a01b0316816001600160a01b031614611fb15760405162461bcd60e51b8152600401610ddf90613c74565b864211611ffa5760405162461bcd60e51b81526020600482015260176024820152761cda59db985d1d5c99481b9bdd081e595d081d985b1a59604a1b6044820152606401610ddf565b8542106120195760405162461bcd60e51b8152600401610ddf90613cc6565b6001600160a01b0389163314611ebe5760405162461bcd60e51b8152600401610ddf90613c9f565b61204b604061128b565b6120a25760405162461bcd60e51b815260206004820152602260248201527f64656c65676174696f6e73206f6e20626568616c66206172652064697361626c604482015261195960f21b6064820152608401610ddf565b604080517fff41620983935eb4d4a3c7384a066ca8c1d10cef9a5eca9eb97ca735cd14a75560208201526001600160a01b0388169181019190915260608101869052608081018590526000906120fa9060a001611113565b905084421061211b5760405162461bcd60e51b8152600401610ddf90613cc6565b61212781876000612b11565b6110ac8188612c1f565b6000610b6f3383611b80565b6001600160a01b03163b151590565b6000610c268284613cf1565b6000610c268284613d29565b6001600160a01b0382166121ba5760405162461bcd60e51b815260206004820152601b60248201527f617070726f766520746f20746865207a65726f206164647265737300000000006044820152606401610ddf565b6001600160a01b038381166000818152603c602090815260408083209487168084529482529182902080549086905582518181529182018690529392917fb3fd5071835887567a0671151121894ddccc2842f1d10bedad13e0d17cace9a7910160405180910390a3826001600160a01b0316846001600160a01b03167f8c5be1e5ebec7d5bd14f71427d1e84f3dd0314c0f7b2291e5b200ac8c7c3b9258460405161226791815260200190565b60405180910390a350505050565b6001600160a01b0382166122ba5760405162461bcd60e51b815260206004820152600c60248201526b7a65726f206164647265737360a01b6044820152606401610ddf565b603554818101116123175760405162461bcd60e51b815260206004820152602160248201527f7a65726f2076616c7565206f722061726974686d65746963206f766572666c6f6044820152607760f81b6064820152608401610ddf565b6035546001600160c01b039061232e908390613cf1565b111561237c5760405162461bcd60e51b815260206004820152601f60248201527f746f74616c20737570706c79206f766572666c6f77202875696e7431393229006044820152606401610ddf565b806035600082825461238e9190613cf1565b90915550506001600160a01b038216600090815260366020526040812080548392906123bb908490613cf1565b909155506123cf9050603961214c8361302f565b50506001600160a01b038083166000908152603760205260408120546123f99233929116846131c0565b6040518181526001600160a01b0383169033907f9d228d69b5fdb8d273a2336f8fb8612d039631024ea9bf09c424a9503aa078f09060200160405180910390a36040518181526001600160a01b038316906000903390600080516020613dd98339815191529060200160405180910390a46040518181526001600160a01b03831690600090600080516020613df98339815191529060200160405180910390a35050565b600054610100900460ff166125085760405162461bcd60e51b815260206004820152602b60248201527f496e697469616c697a61626c653a20636f6e7472616374206973206e6f74206960448201526a6e697469616c697a696e6760a81b6064820152608401610ddf565b6125158260001980613315565b611a64308283613315565b836001600160a01b0316836001600160a01b03161480156125465750612546600161128b565b806125735750836001600160a01b0316836001600160a01b0316141580156125735750612573600261128b565b846001600160a01b0316846001600160a01b0316146125c7576040518060400160405280602081526020017f7472616e7366657273206f6e20626568616c66206172652064697361626c65648152506125f7565b604051806040016040528060168152602001751d1c985b9cd9995c9cc8185c9948191a5cd8589b195960521b8152505b906126155760405162461bcd60e51b8152600401610ddf9190613c61565b506001600160a01b03831661266c5760405162461bcd60e51b815260206004820152601e60248201527f7472616e736665722066726f6d20746865207a65726f206164647265737300006044820152606401610ddf565b6001600160a01b0382166126c25760405162461bcd60e51b815260206004820152601c60248201527f7472616e7366657220746f20746865207a65726f2061646472657373000000006044820152606401610ddf565b6001600160a01b0382163014156127415760405162461bcd60e51b815260206004820152603f60248201527f696e76616c696420726563697069656e7420287472616e7366657220746f207460448201527f686520746f6b656e20736d61727420636f6e747261637420697473656c6629006064820152608401610ddf565b806127cb57816001600160a01b0316836001600160a01b0316856001600160a01b0316600080516020613dd98339815191528460405161278391815260200190565b60405180910390a4816001600160a01b0316836001600160a01b0316600080516020613df9833981519152836040516127be91815260200190565b60405180910390a3612aa6565b836001600160a01b0316836001600160a01b031614612939576001600160a01b038084166000908152603c6020908152604080832093881683529290522054818110156128645760405162461bcd60e51b815260206004820152602160248201527f7472616e7366657220616d6f756e74206578636565647320616c6c6f77616e636044820152606560f81b6064820152608401610ddf565b600019811015612937576128788282613d29565b6001600160a01b038086166000818152603c60209081526040808320948b16808452949091529020839055919250907fb3fd5071835887567a0671151121894ddccc2842f1d10bedad13e0d17cace9a76128d28585613cf1565b60408051918252602082018690520160405180910390a3846001600160a01b0316846001600160a01b03167f8c5be1e5ebec7d5bd14f71427d1e84f3dd0314c0f7b2291e5b200ac8c7c3b9258360405161292e91815260200190565b60405180910390a35b505b6001600160a01b0383166000908152603660205260409020548111156129a15760405162461bcd60e51b815260206004820152601f60248201527f7472616e7366657220616d6f756e7420657863656564732062616c616e6365006044820152606401610ddf565b6001600160a01b038316600090815260366020526040812080548392906129c9908490613d29565b90915550506001600160a01b038216600090815260366020526040812080548392906129f6908490613cf1565b90915550506001600160a01b03808416600090815260376020526040808220548584168352912054612a2e92879281169116846131c0565b816001600160a01b0316836001600160a01b0316856001600160a01b0316600080516020613dd983398151915284604051612a6b91815260200190565b60405180910390a4816001600160a01b0316836001600160a01b0316600080516020613df98339815191528360405161226791815260200190565b50505050565b8351602085012060009081612abf610cb6565b60405161190160f01b60208201526022810191909152604281018390526062016040516020818303038152906040528051906020012090506000612b05828888886134aa565b98975050505050505050565b6001600160a01b0383166000908152603b6020908152604080832085845290915290205460ff1615612b755760405162461bcd60e51b815260206004820152600d60248201526c696e76616c6964206e6f6e636560981b6044820152606401610ddf565b6001600160a01b0383166000908152603b602090815260408083208584529091529020805460ff191660011790558015612be45760405182906001600160a01b038516907f1cdd46ff242716cdaa72d159d339a485b3438398348d68f09d7c8c0a59353d8190600090a3505050565b60405182906001600160a01b038516907f98de503528ee59b575ef0c0a2576a82497bfc029a5685b209e9ec333479b10a590600090a3505050565b6001600160a01b0380831660009081526037602081815260408084208054603684529190942054929091528484166001600160a01b0319821617909255911690612c6b848385846131c0565b826001600160a01b0316826001600160a01b0316856001600160a01b03167f3134e8a2e6d97e929a7e54011ea5485d7d196dd5f0ba4d4ef95803e8e3fc257f60405160405180910390a450505050565b6001600160a01b0384163b612d0c5780612d075760405162461bcd60e51b815260206004820152600d60248201526c1153d0481c9958da5c1a595b9d609a1b6044820152606401610ddf565b612e01565b604051632229f29760e21b81526000906001600160a01b038616906388a7ca5c90612d419033908a9089908990600401613b60565b602060405180830381600087803b158015612d5b57600080fd5b505af1158015612d6f573d6000803e3d6000fd5b505050506040513d601f19601f82011682018060405250810190612d939190613ae1565b90506001600160e01b03198116632229f29760e21b146111695760405162461bcd60e51b815260206004820152602360248201527f696e76616c6964206f6e5472616e73666572526563656976656420726573706f6044820152626e736560e81b6064820152608401610ddf565b5050505050565b8154600090612e1957506000610b6f565b825482908490612e2b90600190613d29565b81548110612e4957634e487b7160e01b600052603260045260246000fd5b6000918252602090912001546001600160401b031611612eb45782548390612e7390600190613d29565b81548110612e9157634e487b7160e01b600052603260045260246000fd5b600091825260209091200154600160401b90046001600160c01b03169050610b6f565b8183600081548110612ed657634e487b7160e01b600052603260045260246000fd5b6000918252602090912001546001600160401b03161115612ef957506000610b6f565b82546000908190612f0c90600190613d29565b90505b81811115612fea5760006002612f258484613d29565b612f2f9190613d09565b612f399083613d29565b90506000868281548110612f5d57634e487b7160e01b600052603260045260246000fd5b6000918252602091829020604080518082019091529101546001600160401b038116808352600160401b9091046001600160c01b0316928201929092529150861415612fbb57602001516001600160c01b03169350610b6f92505050565b80516001600160401b0316861115612fd557819350612fe3565b612fe0600183613d29565b92505b5050612f0f565b84828154811061300a57634e487b7160e01b600052603260045260246000fd5b600091825260209091200154600160401b90046001600160c01b031695945050505050565b825460009081901561308a578454859061304b90600190613d29565b8154811061306957634e487b7160e01b600052603260045260246000fd5b600091825260209091200154600160401b90046001600160c01b031661308d565b60005b6001600160c01b031691506130a682848663ffffffff16565b8554909150158015906130fb57508454439086906130c690600190613d29565b815481106130e457634e487b7160e01b600052603260045260246000fd5b6000918252602090912001546001600160401b0316145b156131665784548190869061311290600190613d29565b8154811061313057634e487b7160e01b600052603260045260246000fd5b9060005260206000200160000160086101000a8154816001600160c01b0302191690836001600160c01b031602179055506131b8565b604080518082019091526001600160401b0343811682526001600160c01b0380841660208085019182528954600181018b5560008b81529190912094519151909216600160401b029216919091179101555b935093915050565b816001600160a01b0316836001600160a01b031614806131de575080155b156131e857612aa6565b6001600160a01b0383161561327c576001600160a01b0383166000908152603860205260408120908061321e836121588661302f565b91509150856001600160a01b0316876001600160a01b03167fd1404f22081753a56b50e0d5ff5c9ed0e4a3a840e1171a443721a342e71bb5c18484604051613270929190918252602082015260400190565b60405180910390a35050505b6001600160a01b03821615612aa6576001600160a01b038216600090815260386020526040812090806132b28361214c8661302f565b91509150846001600160a01b0316876001600160a01b03167fd1404f22081753a56b50e0d5ff5c9ed0e4a3a840e1171a443721a342e71bb5c18484604051613304929190918252602082015260400190565b60405180910390a350505050505050565b6001600160a01b03831660008181526001602090815260409182902084905581518581529081018490527fe9be537308880e0f56b7d7cfd7abf85f14c4934486d138f848b92a0cbaf659b4910160405180910390a2505050565b6000836001600160a01b03163b116133b75760405162461bcd60e51b815260206004820152600b60248201526a22a7a09039b832b73232b960a91b6044820152606401610ddf565b6040516307b04a2d60e41b81526000906001600160a01b03851690637b04a2d0906133ea90339087908790600401613b9d565b602060405180830381600087803b15801561340457600080fd5b505af1158015613418573d6000803e3d6000fd5b505050506040513d601f19601f8201168201806040525081019061343c9190613ae1565b90506001600160e01b031981166307b04a2d60e41b14612aa65760405162461bcd60e51b815260206004820152602360248201527f696e76616c6964206f6e417070726f76616c526563656976656420726573706f6044820152626e736560e81b6064820152608401610ddf565b60007f7fffffffffffffffffffffffffffffff5d576e7357a4501ddfe92f46681b20a082111561351c5760405162461bcd60e51b815260206004820152601b60248201527f696e76616c6964207369676e6174757265202773272076616c756500000000006044820152606401610ddf565b8360ff16601b148061353157508360ff16601c145b61357d5760405162461bcd60e51b815260206004820152601b60248201527f696e76616c6964207369676e6174757265202776272076616c756500000000006044820152606401610ddf565b6040805160008082526020820180845288905260ff871692820192909252606081018590526080810184905260019060a0016020604051602081039080840390855afa1580156135d1573d6000803e3d6000fd5b5050604051601f1901519150506001600160a01b0381166136045760405162461bcd60e51b8152600401610ddf90613c74565b95945050505050565b82805461361990613d40565b90600052602060002090601f01602090048101928261363b5760008555613681565b82601f1061365457805160ff1916838001178555613681565b82800160010185558215613681579182015b82811115613681578251825591602001919060010190613666565b5061368d929150613691565b5090565b5b8082111561368d5760008155600101613692565b80356001600160a01b03811681146136bd57600080fd5b919050565b600082601f8301126136d2578081fd5b81356001600160401b03808211156136ec576136ec613dac565b604051601f8301601f19908116603f0116810190828211818310171561371457613714613dac565b8160405283815286602085880101111561372c578485fd5b8360208701602083013792830160200193909352509392505050565b803560ff811681146136bd57600080fd5b60006020828403121561376a578081fd5b610c26826136a6565b60008060408385031215613785578081fd5b61378e836136a6565b915061379c602084016136a6565b90509250929050565b6000806000606084860312156137b9578081fd5b6137c2846136a6565b92506137d0602085016136a6565b9150604084013590509250925092565b600080600080608085870312156137f5578081fd5b6137fe856136a6565b935061380c602086016136a6565b92506040850135915060608501356001600160401b0381111561382d578182fd5b613839878288016136c2565b91505092959194509250565b60008060008060008060008060006101208a8c031215613863578485fd5b61386c8a6136a6565b985061387a60208b016136a6565b975060408a0135965060608a0135955060808a0135945060a08a013593506138a460c08b01613748565b925060e08a013591506101008a013590509295985092959850929598565b600080600080600080600060e0888a0312156138dc578283fd5b6138e5886136a6565b96506138f3602089016136a6565b9550604088013594506060880135935061390f60808901613748565b925060a0880135915060c0880135905092959891949750929550565b6000806040838503121561393d578182fd5b613946836136a6565b946020939093013593505050565b60008060008060008060c0878903121561396c578182fd5b613975876136a6565b9550602087013594506040870135935061399160608801613748565b92506080870135915060a087013590509295509295509295565b600080600080600060a086880312156139c2578283fd5b6139cb866136a6565b9450602086013593506139e060408701613748565b94979396509394606081013594506080013592915050565b60008060008060008060c08789031215613a10578384fd5b613a19876136a6565b955060208701356001600160401b0380821115613a34578586fd5b613a408a838b016136c2565b96506040890135915080821115613a55578586fd5b50613a6289828a016136c2565b945050613991606088016136a6565b600080600060608486031215613a85578081fd5b613a8e846136a6565b92506020840135915060408401356001600160401b03811115613aaf578182fd5b613abb868287016136c2565b9150509250925092565b600060208284031215613ad6578081fd5b8135610c2681613dc2565b600060208284031215613af2578081fd5b8151610c2681613dc2565b600060208284031215613b0e578081fd5b5035919050565b60008151808452815b81811015613b3a57602081850181015186830182015201613b1e565b81811115613b4b5782602083870101525b50601f01601f19169290920160200192915050565b6001600160a01b0385811682528416602082015260408101839052608060608201819052600090613b9390830184613b15565b9695505050505050565b60018060a01b03841681528260208201526060604082015260006136046060830184613b15565b602080825282518282018190526000919060409081850190868401855b82811015613c1857815180516001600160401b031685528601516001600160c01b0316868501529284019290850190600101613be1565b5091979650505050505050565b9687526001600160a01b0395861660208801529390941660408601526060850191909152608084015260a083019190915260c082015260e00190565b602081526000610c266020830184613b15565b602080825260119082015270696e76616c6964207369676e617475726560781b604082015260600190565b6020808252600d908201526c1858d8d95cdcc819195b9a5959609a1b604082015260600190565b6020808252601190820152701cda59db985d1d5c9948195e1c1a5c9959607a1b604082015260600190565b60008219821115613d0457613d04613d96565b500190565b600082613d2457634e487b7160e01b81526012600452602481fd5b500490565b600082821015613d3b57613d3b613d96565b500390565b600181811c90821680613d5457607f821691505b60208210811415613d7557634e487b7160e01b600052602260045260246000fd5b50919050565b6000600019821415613d8f57613d8f613d96565b5060010190565b634e487b7160e01b600052601160045260246000fd5b634e487b7160e01b600052604160045260246000fd5b6001600160e01b0319811681146111d157600080fdfed1398bee19313d6bf672ccb116e51f4a1a947e91c757907f51fbb5b5e56c698fddf252ad1be2c89b69c2b068fc378daa952ba7f163c4a11628f55a4df523b3efa26469706673582212200998ff3ba9e437a433e759dcb411536482d115193a1bd958681a29af119cbabc64736f6c63430008040033496e697469616c697a61626c653a20636f6e747261637420697320616c7265617f26b83ff96e1f2b6a682f133852f6798a09c465da95921460cefb3847402498d1404f22081753a56b50e0d5ff5c9ed0e4a3a840e1171a443721a342e71bb5c1",
  "linkReferences": {},
  "deployedLinkReferences": {}
}