{
  "_format": "hh-sol-artifact-1",
  "contractName": "AdvancedERC20",
  "sourceName": "contracts/token/AdvancedERC20.sol",
  "abi": [
    {
      "inputs": [
        {
          "internalType": "address",
          "name": "_contractOwner",
          "type": "address"
        },
        {
          "internalType": "string",
          "name": "_name",
          "type": "string"
        },
        {
          "internalType": "string",
          "name": "_symbol",
          "type": "string"
        },
        {
          "internalType": "address",
          "name": "_initialHolder",
          "type": "address"
        },
        {
          "internalType": "uint256",
          "name": "_initialSupply",
          "type": "uint256"
        },
        {
          "internalType": "uint256",
          "name": "_initialFeatures",
          "type": "uint256"
        }
      ],
      "stateMutability": "nonpayable",
      "type": "constructor"
    },
    {
      "anonymous": false,
      "inputs": [
        {
          "indexed": true,
          "internalType": "address",
          "name": "owner",
          "type": "address"
        },
        {
          "indexed": true,
          "internalType": "address",
          "name": "spender",
          "type": "address"
        },
        {
          "indexed": false,
          "internalType": "uint256",
          "name": "oldValue",
          "type": "uint256"
        },
        {
          "indexed": false,
          "internalType": "uint256",
          "name": "value",
          "type": "uint256"
        }
      ],
      "name": "Approval",
      "type": "event"
    },
    {
      "anonymous": false,
      "inputs": [
        {
          "indexed": true,
          "internalType": "address",
          "name": "owner",
          "type": "address"
        },
        {
          "indexed": true,
          "internalType": "address",
          "name": "spender",
          "type": "address"
        },
        {
          "indexed": false,
          "internalType": "uint256",
          "name": "value",
          "type": "uint256"
        }
      ],
      "name": "Approval",
      "type": "event"
    },
    {
      "anonymous": false,
      "inputs": [
        {
          "indexed": true,
          "internalType": "address",
          "name": "authorizer",
          "type": "address"
        },
        {
          "indexed": true,
          "internalType": "bytes32",
          "name": "nonce",
          "type": "bytes32"
        }
      ],
      "name": "AuthorizationCanceled",
      "type": "event"
    },
    {
      "anonymous": false,
      "inputs": [
        {
          "indexed": true,
          "internalType": "address",
          "name": "authorizer",
          "type": "address"
        },
        {
          "indexed": true,
          "internalType": "bytes32",
          "name": "nonce",
          "type": "bytes32"
        }
      ],
      "name": "AuthorizationUsed",
      "type": "event"
    },
    {
      "anonymous": false,
      "inputs": [
        {
          "indexed": true,
          "internalType": "address",
          "name": "by",
          "type": "address"
        },
        {
          "indexed": true,
          "internalType": "address",
          "name": "from",
          "type": "address"
        },
        {
          "indexed": false,
          "internalType": "uint256",
          "name": "value",
          "type": "uint256"
        }
      ],
      "name": "Burnt",
      "type": "event"
    },
    {
      "anonymous": false,
      "inputs": [
        {
          "indexed": true,
          "internalType": "address",
          "name": "source",
          "type": "address"
        },
        {
          "indexed": true,
          "internalType": "address",
          "name": "from",
          "type": "address"
        },
        {
          "indexed": true,
          "internalType": "address",
          "name": "to",
          "type": "address"
        }
      ],
      "name": "DelegateChanged",
      "type": "event"
    },
    {
      "anonymous": false,
      "inputs": [
        {
          "indexed": false,
          "internalType": "uint8",
          "name": "version",
          "type": "uint8"
        }
      ],
      "name": "Initialized",
      "type": "event"
    },
    {
      "anonymous": false,
      "inputs": [
        {
          "indexed": true,
          "internalType": "address",
          "name": "by",
          "type": "address"
        },
        {
          "indexed": true,
          "internalType": "address",
          "name": "to",
          "type": "address"
        },
        {
          "indexed": false,
          "internalType": "uint256",
          "name": "value",
          "type": "uint256"
        }
      ],
      "name": "Minted",
      "type": "event"
    },
    {
      "anonymous": false,
      "inputs": [
        {
          "indexed": true,
          "internalType": "address",
          "name": "operator",
          "type": "address"
        },
        {
          "indexed": false,
          "internalType": "uint256",
          "name": "requested",
          "type": "uint256"
        },
        {
          "indexed": false,
          "internalType": "uint256",
          "name": "assigned",
          "type": "uint256"
        }
      ],
      "name": "RoleUpdated",
      "type": "event"
    },
    {
      "anonymous": false,
      "inputs": [
        {
          "indexed": true,
          "internalType": "address",
          "name": "by",
          "type": "address"
        },
        {
          "indexed": true,
          "internalType": "address",
          "name": "from",
          "type": "address"
        },
        {
          "indexed": true,
          "internalType": "address",
          "name": "to",
          "type": "address"
        },
        {
          "indexed": false,
          "internalType": "uint256",
          "name": "value",
          "type": "uint256"
        }
      ],
      "name": "Transfer",
      "type": "event"
    },
    {
      "anonymous": false,
      "inputs": [
        {
          "indexed": true,
          "internalType": "address",
          "name": "from",
          "type": "address"
        },
        {
          "indexed": true,
          "internalType": "address",
          "name": "to",
          "type": "address"
        },
        {
          "indexed": false,
          "internalType": "uint256",
          "name": "value",
          "type": "uint256"
        }
      ],
      "name": "Transfer",
      "type": "event"
    },
    {
      "anonymous": false,
      "inputs": [
        {
          "indexed": true,
          "internalType": "address",
          "name": "by",
          "type": "address"
        },
        {
          "indexed": true,
          "internalType": "address",
          "name": "target",
          "type": "address"
        },
        {
          "indexed": false,
          "internalType": "uint256",
          "name": "fromVal",
          "type": "uint256"
        },
        {
          "indexed": false,
          "internalType": "uint256",
          "name": "toVal",
          "type": "uint256"
        }
      ],
      "name": "VotingPowerChanged",
      "type": "event"
    },
    {
      "inputs": [],
      "name": "CANCEL_AUTHORIZATION_TYPEHASH",
      "outputs": [
        {
          "internalType": "bytes32",
          "name": "",
          "type": "bytes32"
        }
      ],
      "stateMutability": "view",
      "type": "function"
    },
    {
      "inputs": [],
      "name": "DELEGATION_TYPEHASH",
      "outputs": [
        {
          "internalType": "bytes32",
          "name": "",
          "type": "bytes32"
        }
      ],
      "stateMutability": "view",
      "type": "function"
    },
    {
      "inputs": [],
      "name": "DOMAIN_SEPARATOR",
      "outputs": [
        {
          "internalType": "bytes32",
          "name": "",
          "type": "bytes32"
        }
      ],
      "stateMutability": "view",
      "type": "function"
    },
    {
      "inputs": [],
      "name": "DOMAIN_TYPEHASH",
      "outputs": [
        {
          "internalType": "bytes32",
          "name": "",
          "type": "bytes32"
        }
      ],
      "stateMutability": "view",
      "type": "function"
    },
    {
      "inputs": [],
      "name": "FEATURE_BURNS_ON_BEHALF",
      "outputs": [
        {
          "internalType": "uint32",
          "name": "",
          "type": "uint32"
        }
      ],
      "stateMutability": "view",
      "type": "function"
    },
    {
      "inputs": [],
      "name": "FEATURE_DELEGATIONS",
      "outputs": [
        {
          "internalType": "uint32",
          "name": "",
          "type": "uint32"
        }
      ],
      "stateMutability": "view",
      "type": "function"
    },
    {
      "inputs": [],
      "name": "FEATURE_DELEGATIONS_ON_BEHALF",
      "outputs": [
        {
          "internalType": "uint32",
          "name": "",
          "type": "uint32"
        }
      ],
      "stateMutability": "view",
      "type": "function"
    },
    {
      "inputs": [],
      "name": "FEATURE_EIP2612_PERMITS",
      "outputs": [
        {
          "internalType": "uint32",
          "name": "",
          "type": "uint32"
        }
      ],
      "stateMutability": "view",
      "type": "function"
    },
    {
      "inputs": [],
      "name": "FEATURE_EIP3009_RECEPTIONS",
      "outputs": [
        {
          "internalType": "uint32",
          "name": "",
          "type": "uint32"
        }
      ],
      "stateMutability": "view",
      "type": "function"
    },
    {
      "inputs": [],
      "name": "FEATURE_EIP3009_TRANSFERS",
      "outputs": [
        {
          "internalType": "uint32",
          "name": "",
          "type": "uint32"
        }
      ],
      "stateMutability": "view",
      "type": "function"
    },
    {
      "inputs": [],
      "name": "FEATURE_ERC1363_APPROVALS",
      "outputs": [
        {
          "internalType": "uint32",
          "name": "",
          "type": "uint32"
        }
      ],
      "stateMutability": "view",
      "type": "function"
    },
    {
      "inputs": [],
      "name": "FEATURE_ERC1363_TRANSFERS",
      "outputs": [
        {
          "internalType": "uint32",
          "name": "",
          "type": "uint32"
        }
      ],
      "stateMutability": "view",
      "type": "function"
    },
    {
      "inputs": [],
      "name": "FEATURE_OWN_BURNS",
      "outputs": [
        {
          "internalType": "uint32",
          "name": "",
          "type": "uint32"
        }
      ],
      "stateMutability": "view",
      "type": "function"
    },
    {
      "inputs": [],
      "name": "FEATURE_TRANSFERS",
      "outputs": [
        {
          "internalType": "uint32",
          "name": "",
          "type": "uint32"
        }
      ],
      "stateMutability": "view",
      "type": "function"
    },
    {
      "inputs": [],
      "name": "FEATURE_TRANSFERS_ON_BEHALF",
      "outputs": [
        {
          "internalType": "uint32",
          "name": "",
          "type": "uint32"
        }
      ],
      "stateMutability": "view",
      "type": "function"
    },
    {
      "inputs": [],
      "name": "FEATURE_UNSAFE_TRANSFERS",
      "outputs": [
        {
          "internalType": "uint32",
          "name": "",
          "type": "uint32"
        }
      ],
      "stateMutability": "view",
      "type": "function"
    },
    {
      "inputs": [],
      "name": "PERMIT_TYPEHASH",
      "outputs": [
        {
          "internalType": "bytes32",
          "name": "",
          "type": "bytes32"
        }
      ],
      "stateMutability": "view",
      "type": "function"
    },
    {
      "inputs": [],
      "name": "RECEIVE_WITH_AUTHORIZATION_TYPEHASH",
      "outputs": [
        {
          "internalType": "bytes32",
          "name": "",
          "type": "bytes32"
        }
      ],
      "stateMutability": "view",
      "type": "function"
    },
    {
      "inputs": [],
      "name": "ROLE_ACCESS_MANAGER",
      "outputs": [
        {
          "internalType": "uint256",
          "name": "",
          "type": "uint256"
        }
      ],
      "stateMutability": "view",
      "type": "function"
    },
    {
      "inputs": [],
      "name": "ROLE_ERC20_RECEIVER",
      "outputs": [
        {
          "internalType": "uint32",
          "name": "",
          "type": "uint32"
        }
      ],
      "stateMutability": "view",
      "type": "function"
    },
    {
      "inputs": [],
      "name": "ROLE_ERC20_SENDER",
      "outputs": [
        {
          "internalType": "uint32",
          "name": "",
          "type": "uint32"
        }
      ],
      "stateMutability": "view",
      "type": "function"
    },
    {
      "inputs": [],
      "name": "ROLE_TOKEN_CREATOR",
      "outputs": [
        {
          "internalType": "uint32",
          "name": "",
          "type": "uint32"
        }
      ],
      "stateMutability": "view",
      "type": "function"
    },
    {
      "inputs": [],
      "name": "ROLE_TOKEN_DESTROYER",
      "outputs": [
        {
          "internalType": "uint32",
          "name": "",
          "type": "uint32"
        }
      ],
      "stateMutability": "view",
      "type": "function"
    },
    {
      "inputs": [],
      "name": "ROLE_UPGRADE_MANAGER",
      "outputs": [
        {
          "internalType": "uint256",
          "name": "",
          "type": "uint256"
        }
      ],
      "stateMutability": "view",
      "type": "function"
    },
    {
      "inputs": [],
      "name": "TOKEN_UID",
      "outputs": [
        {
          "internalType": "uint256",
          "name": "",
          "type": "uint256"
        }
      ],
      "stateMutability": "view",
      "type": "function"
    },
    {
      "inputs": [],
      "name": "TRANSFER_WITH_AUTHORIZATION_TYPEHASH",
      "outputs": [
        {
          "internalType": "bytes32",
          "name": "",
          "type": "bytes32"
        }
      ],
      "stateMutability": "view",
      "type": "function"
    },
    {
      "inputs": [
        {
          "internalType": "address",
          "name": "_owner",
          "type": "address"
        },
        {
          "internalType": "address",
          "name": "_spender",
          "type": "address"
        }
      ],
      "name": "allowance",
      "outputs": [
        {
          "internalType": "uint256",
          "name": "remaining",
          "type": "uint256"
        }
      ],
      "stateMutability": "view",
      "type": "function"
    },
    {
      "inputs": [
        {
          "internalType": "address",
          "name": "_spender",
          "type": "address"
        },
        {
          "internalType": "uint256",
          "name": "_value",
          "type": "uint256"
        }
      ],
      "name": "approve",
      "outputs": [
        {
          "internalType": "bool",
          "name": "success",
          "type": "bool"
        }
      ],
      "stateMutability": "nonpayable",
      "type": "function"
    },
    {
      "inputs": [
        {
          "internalType": "address",
          "name": "_spender",
          "type": "address"
        },
        {
          "internalType": "uint256",
          "name": "_value",
          "type": "uint256"
        }
      ],
      "name": "approveAndCall",
      "outputs": [
        {
          "internalType": "bool",
          "name": "",
          "type": "bool"
        }
      ],
      "stateMutability": "nonpayable",
      "type": "function"
    },
    {
      "inputs": [
        {
          "internalType": "address",
          "name": "_spender",
          "type": "address"
        },
        {
          "internalType": "uint256",
          "name": "_value",
          "type": "uint256"
        },
        {
          "internalType": "bytes",
          "name": "_data",
          "type": "bytes"
        }
      ],
      "name": "approveAndCall",
      "outputs": [
        {
          "internalType": "bool",
          "name": "",
          "type": "bool"
        }
      ],
      "stateMutability": "nonpayable",
      "type": "function"
    },
    {
      "inputs": [
        {
          "internalType": "address",
          "name": "_authorizer",
          "type": "address"
        },
        {
          "internalType": "bytes32",
          "name": "_nonce",
          "type": "bytes32"
        }
      ],
      "name": "authorizationState",
      "outputs": [
        {
          "internalType": "bool",
          "name": "",
          "type": "bool"
        }
      ],
      "stateMutability": "view",
      "type": "function"
    },
    {
      "inputs": [
        {
          "internalType": "address",
          "name": "_owner",
          "type": "address"
        }
      ],
      "name": "balanceOf",
      "outputs": [
        {
          "internalType": "uint256",
          "name": "balance",
          "type": "uint256"
        }
      ],
      "stateMutability": "view",
      "type": "function"
    },
    {
      "inputs": [
        {
          "internalType": "address",
          "name": "_from",
          "type": "address"
        },
        {
          "internalType": "uint256",
          "name": "_value",
          "type": "uint256"
        }
      ],
      "name": "burn",
      "outputs": [
        {
          "internalType": "bool",
          "name": "success",
          "type": "bool"
        }
      ],
      "stateMutability": "nonpayable",
      "type": "function"
    },
    {
      "inputs": [
        {
          "internalType": "address",
          "name": "_authorizer",
          "type": "address"
        },
        {
          "internalType": "bytes32",
          "name": "_nonce",
          "type": "bytes32"
        },
        {
          "internalType": "uint8",
          "name": "v",
          "type": "uint8"
        },
        {
          "internalType": "bytes32",
          "name": "r",
          "type": "bytes32"
        },
        {
          "internalType": "bytes32",
          "name": "s",
          "type": "bytes32"
        }
      ],
      "name": "cancelAuthorization",
      "outputs": [],
      "stateMutability": "nonpayable",
      "type": "function"
    },
    {
      "inputs": [],
      "name": "decimals",
      "outputs": [
        {
          "internalType": "uint8",
          "name": "",
          "type": "uint8"
        }
      ],
      "stateMutability": "view",
      "type": "function"
    },
    {
      "inputs": [
        {
          "internalType": "address",
          "name": "_spender",
          "type": "address"
        },
        {
          "internalType": "uint256",
          "name": "_value",
          "type": "uint256"
        }
      ],
      "name": "decreaseAllowance",
      "outputs": [
        {
          "internalType": "bool",
          "name": "",
          "type": "bool"
        }
      ],
      "stateMutability": "nonpayable",
      "type": "function"
    },
    {
      "inputs": [
        {
          "internalType": "address",
          "name": "_to",
          "type": "address"
        }
      ],
      "name": "delegate",
      "outputs": [],
      "stateMutability": "nonpayable",
      "type": "function"
    },
    {
      "inputs": [
        {
          "internalType": "address",
          "name": "_to",
          "type": "address"
        },
        {
          "internalType": "bytes32",
          "name": "_nonce",
          "type": "bytes32"
        },
        {
          "internalType": "uint256",
          "name": "_exp",
          "type": "uint256"
        },
        {
          "internalType": "uint8",
          "name": "v",
          "type": "uint8"
        },
        {
          "internalType": "bytes32",
          "name": "r",
          "type": "bytes32"
        },
        {
          "internalType": "bytes32",
          "name": "s",
          "type": "bytes32"
        }
      ],
      "name": "delegateWithAuthorization",
      "outputs": [],
      "stateMutability": "nonpayable",
      "type": "function"
    },
    {
      "inputs": [],
      "name": "entireSupplyHistory",
      "outputs": [
        {
          "components": [
            {
              "internalType": "uint64",
              "name": "k",
              "type": "uint64"
            },
            {
              "internalType": "uint192",
              "name": "v",
              "type": "uint192"
            }
          ],
          "internalType": "struct AdvancedERC20.KV[]",
          "name": "",
          "type": "tuple[]"
        }
      ],
      "stateMutability": "view",
      "type": "function"
    },
    {
      "inputs": [],
      "name": "features",
      "outputs": [
        {
          "internalType": "uint256",
          "name": "",
          "type": "uint256"
        }
      ],
      "stateMutability": "view",
      "type": "function"
    },
    {
      "inputs": [],
      "name": "getInitializedVersion",
      "outputs": [
        {
          "internalType": "uint64",
          "name": "",
          "type": "uint64"
        }
      ],
      "stateMutability": "view",
      "type": "function"
    },
    {
      "inputs": [
        {
          "internalType": "address",
          "name": "operator",
          "type": "address"
        }
      ],
      "name": "getRole",
      "outputs": [
        {
          "internalType": "uint256",
          "name": "",
          "type": "uint256"
        }
      ],
      "stateMutability": "view",
      "type": "function"
    },
    {
      "inputs": [
        {
          "internalType": "address",
          "name": "_spender",
          "type": "address"
        },
        {
          "internalType": "uint256",
          "name": "_value",
          "type": "uint256"
        }
      ],
      "name": "increaseAllowance",
      "outputs": [
        {
          "internalType": "bool",
          "name": "",
          "type": "bool"
        }
      ],
      "stateMutability": "nonpayable",
      "type": "function"
    },
    {
      "inputs": [
        {
          "internalType": "uint256",
          "name": "required",
          "type": "uint256"
        }
      ],
      "name": "isFeatureEnabled",
      "outputs": [
        {
          "internalType": "bool",
          "name": "",
          "type": "bool"
        }
      ],
      "stateMutability": "view",
      "type": "function"
    },
    {
      "inputs": [
        {
          "internalType": "address",
          "name": "operator",
          "type": "address"
        },
        {
          "internalType": "uint256",
          "name": "required",
          "type": "uint256"
        }
      ],
      "name": "isOperatorInRole",
      "outputs": [
        {
          "internalType": "bool",
          "name": "",
          "type": "bool"
        }
      ],
      "stateMutability": "view",
      "type": "function"
    },
    {
      "inputs": [
        {
          "internalType": "uint256",
          "name": "required",
          "type": "uint256"
        }
      ],
      "name": "isSenderInRole",
      "outputs": [
        {
          "internalType": "bool",
          "name": "",
          "type": "bool"
        }
      ],
      "stateMutability": "view",
      "type": "function"
    },
    {
      "inputs": [
        {
          "internalType": "address",
          "name": "_to",
          "type": "address"
        },
        {
          "internalType": "uint256",
          "name": "_value",
          "type": "uint256"
        }
      ],
      "name": "mint",
      "outputs": [
        {
          "internalType": "bool",
          "name": "success",
          "type": "bool"
        }
      ],
      "stateMutability": "nonpayable",
      "type": "function"
    },
    {
      "inputs": [],
      "name": "name",
      "outputs": [
        {
          "internalType": "string",
          "name": "",
          "type": "string"
        }
      ],
      "stateMutability": "view",
      "type": "function"
    },
    {
      "inputs": [
        {
          "internalType": "address",
          "name": "",
          "type": "address"
        }
      ],
      "name": "nonces",
      "outputs": [
        {
          "internalType": "uint256",
          "name": "",
          "type": "uint256"
        }
      ],
      "stateMutability": "view",
      "type": "function"
    },
    {
      "inputs": [
        {
          "internalType": "address",
          "name": "_owner",
          "type": "address"
        },
        {
          "internalType": "address",
          "name": "_spender",
          "type": "address"
        },
        {
          "internalType": "uint256",
          "name": "_value",
          "type": "uint256"
        },
        {
          "internalType": "uint256",
          "name": "_exp",
          "type": "uint256"
        },
        {
          "internalType": "uint8",
          "name": "v",
          "type": "uint8"
        },
        {
          "internalType": "bytes32",
          "name": "r",
          "type": "bytes32"
        },
        {
          "internalType": "bytes32",
          "name": "s",
          "type": "bytes32"
        }
      ],
      "name": "permit",
      "outputs": [],
      "stateMutability": "nonpayable",
      "type": "function"
    },
    {
      "inputs": [
        {
          "internalType": "address",
          "name": "_contractOwner",
          "type": "address"
        },
        {
          "internalType": "string",
          "name": "_name",
          "type": "string"
        },
        {
          "internalType": "string",
          "name": "_symbol",
          "type": "string"
        },
        {
          "internalType": "address",
          "name": "_initialHolder",
          "type": "address"
        },
        {
          "internalType": "uint256",
          "name": "_initialSupply",
          "type": "uint256"
        },
        {
          "internalType": "uint256",
          "name": "_initialFeatures",
          "type": "uint256"
        }
      ],
      "name": "postConstruct",
      "outputs": [],
      "stateMutability": "nonpayable",
      "type": "function"
    },
    {
      "inputs": [
        {
          "internalType": "address",
          "name": "_from",
          "type": "address"
        },
        {
          "internalType": "address",
          "name": "_to",
          "type": "address"
        },
        {
          "internalType": "uint256",
          "name": "_value",
          "type": "uint256"
        },
        {
          "internalType": "uint256",
          "name": "_validAfter",
          "type": "uint256"
        },
        {
          "internalType": "uint256",
          "name": "_validBefore",
          "type": "uint256"
        },
        {
          "internalType": "bytes32",
          "name": "_nonce",
          "type": "bytes32"
        },
        {
          "internalType": "uint8",
          "name": "v",
          "type": "uint8"
        },
        {
          "internalType": "bytes32",
          "name": "r",
          "type": "bytes32"
        },
        {
          "internalType": "bytes32",
          "name": "s",
          "type": "bytes32"
        }
      ],
      "name": "receiveWithAuthorization",
      "outputs": [],
      "stateMutability": "nonpayable",
      "type": "function"
    },
    {
      "inputs": [
        {
          "internalType": "address",
          "name": "_from",
          "type": "address"
        },
        {
          "internalType": "address",
          "name": "_to",
          "type": "address"
        },
        {
          "internalType": "uint256",
          "name": "_value",
          "type": "uint256"
        },
        {
          "internalType": "bytes",
          "name": "_data",
          "type": "bytes"
        }
      ],
      "name": "safeTransferFrom",
      "outputs": [
        {
          "internalType": "bool",
          "name": "",
          "type": "bool"
        }
      ],
      "stateMutability": "nonpayable",
      "type": "function"
    },
    {
      "inputs": [
        {
          "internalType": "bytes4",
          "name": "interfaceId",
          "type": "bytes4"
        }
      ],
      "name": "supportsInterface",
      "outputs": [
        {
          "internalType": "bool",
          "name": "",
          "type": "bool"
        }
      ],
      "stateMutability": "pure",
      "type": "function"
    },
    {
      "inputs": [],
      "name": "symbol",
      "outputs": [
        {
          "internalType": "string",
          "name": "",
          "type": "string"
        }
      ],
      "stateMutability": "view",
      "type": "function"
    },
    {
      "inputs": [],
      "name": "totalSupply",
      "outputs": [
        {
          "internalType": "uint256",
          "name": "",
          "type": "uint256"
        }
      ],
      "stateMutability": "view",
      "type": "function"
    },
    {
      "inputs": [
        {
          "internalType": "uint256",
          "name": "_blockNum",
          "type": "uint256"
        }
      ],
      "name": "totalSupplyAt",
      "outputs": [
        {
          "internalType": "uint256",
          "name": "",
          "type": "uint256"
        }
      ],
      "stateMutability": "view",
      "type": "function"
    },
    {
      "inputs": [
        {
          "internalType": "uint256",
          "name": "",
          "type": "uint256"
        }
      ],
      "name": "totalSupplyHistory",
      "outputs": [
        {
          "internalType": "uint64",
          "name": "k",
          "type": "uint64"
        },
        {
          "internalType": "uint192",
          "name": "v",
          "type": "uint192"
        }
      ],
      "stateMutability": "view",
      "type": "function"
    },
    {
      "inputs": [],
      "name": "totalSupplyHistoryLength",
      "outputs": [
        {
          "internalType": "uint256",
          "name": "",
          "type": "uint256"
        }
      ],
      "stateMutability": "view",
      "type": "function"
    },
    {
      "inputs": [
        {
          "internalType": "address",
          "name": "_to",
          "type": "address"
        },
        {
          "internalType": "uint256",
          "name": "_value",
          "type": "uint256"
        }
      ],
      "name": "transfer",
      "outputs": [
        {
          "internalType": "bool",
          "name": "success",
          "type": "bool"
        }
      ],
      "stateMutability": "nonpayable",
      "type": "function"
    },
    {
      "inputs": [
        {
          "internalType": "address",
          "name": "_to",
          "type": "address"
        },
        {
          "internalType": "uint256",
          "name": "_value",
          "type": "uint256"
        }
      ],
      "name": "transferAndCall",
      "outputs": [
        {
          "internalType": "bool",
          "name": "",
          "type": "bool"
        }
      ],
      "stateMutability": "nonpayable",
      "type": "function"
    },
    {
      "inputs": [
        {
          "internalType": "address",
          "name": "_to",
          "type": "address"
        },
        {
          "internalType": "uint256",
          "name": "_value",
          "type": "uint256"
        },
        {
          "internalType": "bytes",
          "name": "_data",
          "type": "bytes"
        }
      ],
      "name": "transferAndCall",
      "outputs": [
        {
          "internalType": "bool",
          "name": "",
          "type": "bool"
        }
      ],
      "stateMutability": "nonpayable",
      "type": "function"
    },
    {
      "inputs": [
        {
          "internalType": "address",
          "name": "_from",
          "type": "address"
        },
        {
          "internalType": "address",
          "name": "_to",
          "type": "address"
        },
        {
          "internalType": "uint256",
          "name": "_value",
          "type": "uint256"
        }
      ],
      "name": "transferFrom",
      "outputs": [
        {
          "internalType": "bool",
          "name": "success",
          "type": "bool"
        }
      ],
      "stateMutability": "nonpayable",
      "type": "function"
    },
    {
      "inputs": [
        {
          "internalType": "address",
          "name": "_from",
          "type": "address"
        },
        {
          "internalType": "address",
          "name": "_to",
          "type": "address"
        },
        {
          "internalType": "uint256",
          "name": "_value",
          "type": "uint256"
        },
        {
          "internalType": "bytes",
          "name": "_data",
          "type": "bytes"
        }
      ],
      "name": "transferFromAndCall",
      "outputs": [
        {
          "internalType": "bool",
          "name": "",
          "type": "bool"
        }
      ],
      "stateMutability": "nonpayable",
      "type": "function"
    },
    {
      "inputs": [
        {
          "internalType": "address",
          "name": "_from",
          "type": "address"
        },
        {
          "internalType": "address",
          "name": "_to",
          "type": "address"
        },
        {
          "internalType": "uint256",
          "name": "_value",
          "type": "uint256"
        }
      ],
      "name": "transferFromAndCall",
      "outputs": [
        {
          "internalType": "bool",
          "name": "",
          "type": "bool"
        }
      ],
      "stateMutability": "nonpayable",
      "type": "function"
    },
    {
      "inputs": [
        {
          "internalType": "address",
          "name": "_from",
          "type": "address"
        },
        {
          "internalType": "address",
          "name": "_to",
          "type": "address"
        },
        {
          "internalType": "uint256",
          "name": "_value",
          "type": "uint256"
        },
        {
          "internalType": "uint256",
          "name": "_validAfter",
          "type": "uint256"
        },
        {
          "internalType": "uint256",
          "name": "_validBefore",
          "type": "uint256"
        },
        {
          "internalType": "bytes32",
          "name": "_nonce",
          "type": "bytes32"
        },
        {
          "internalType": "uint8",
          "name": "v",
          "type": "uint8"
        },
        {
          "internalType": "bytes32",
          "name": "r",
          "type": "bytes32"
        },
        {
          "internalType": "bytes32",
          "name": "s",
          "type": "bytes32"
        }
      ],
      "name": "transferWithAuthorization",
      "outputs": [],
      "stateMutability": "nonpayable",
      "type": "function"
    },
    {
      "inputs": [
        {
          "internalType": "address",
          "name": "_from",
          "type": "address"
        },
        {
          "internalType": "address",
          "name": "_to",
          "type": "address"
        },
        {
          "internalType": "uint256",
          "name": "_value",
          "type": "uint256"
        }
      ],
      "name": "unsafeTransferFrom",
      "outputs": [],
      "stateMutability": "nonpayable",
      "type": "function"
    },
    {
      "inputs": [
        {
          "internalType": "uint256",
          "name": "_mask",
          "type": "uint256"
        }
      ],
      "name": "updateFeatures",
      "outputs": [],
      "stateMutability": "nonpayable",
      "type": "function"
    },
    {
      "inputs": [
        {
          "internalType": "address",
          "name": "operator",
          "type": "address"
        },
        {
          "internalType": "uint256",
          "name": "role",
          "type": "uint256"
        }
      ],
      "name": "updateRole",
      "outputs": [],
      "stateMutability": "nonpayable",
      "type": "function"
    },
    {
      "inputs": [
        {
          "internalType": "address",
          "name": "",
          "type": "address"
        }
      ],
      "name": "votingDelegates",
      "outputs": [
        {
          "internalType": "address",
          "name": "",
          "type": "address"
        }
      ],
      "stateMutability": "view",
      "type": "function"
    },
    {
      "inputs": [
        {
          "internalType": "address",
          "name": "_of",
          "type": "address"
        },
        {
          "internalType": "uint256",
          "name": "_blockNum",
          "type": "uint256"
        }
      ],
      "name": "votingPowerAt",
      "outputs": [
        {
          "internalType": "uint256",
          "name": "",
          "type": "uint256"
        }
      ],
      "stateMutability": "view",
      "type": "function"
    },
    {
      "inputs": [
        {
          "internalType": "address",
          "name": "",
          "type": "address"
        },
        {
          "internalType": "uint256",
          "name": "",
          "type": "uint256"
        }
      ],
      "name": "votingPowerHistory",
      "outputs": [
        {
          "internalType": "uint64",
          "name": "k",
          "type": "uint64"
        },
        {
          "internalType": "uint192",
          "name": "v",
          "type": "uint192"
        }
      ],
      "stateMutability": "view",
      "type": "function"
    },
    {
      "inputs": [
        {
          "internalType": "address",
          "name": "_of",
          "type": "address"
        }
      ],
      "name": "votingPowerHistoryLength",
      "outputs": [
        {
          "internalType": "uint256",
          "name": "",
          "type": "uint256"
        }
      ],
      "stateMutability": "view",
      "type": "function"
    },
    {
      "inputs": [
        {
          "internalType": "address",
          "name": "_of",
          "type": "address"
        }
      ],
      "name": "votingPowerHistoryOf",
      "outputs": [
        {
          "components": [
            {
              "internalType": "uint64",
              "name": "k",
              "type": "uint64"
            },
            {
              "internalType": "uint192",
              "name": "v",
              "type": "uint192"
            }
          ],
          "internalType": "struct AdvancedERC20.KV[]",
          "name": "",
          "type": "tuple[]"
        }
      ],
      "stateMutability": "view",
      "type": "function"
    },
    {
      "inputs": [
        {
          "internalType": "address",
          "name": "_of",
          "type": "address"
        }
      ],
      "name": "votingPowerOf",
      "outputs": [
        {
          "internalType": "uint256",
          "name": "",
          "type": "uint256"
        }
      ],
      "stateMutability": "view",
      "type": "function"
    }
  ],
  "bytecode": "0x60806040523480156200001157600080fd5b5060405162004bec38038062004bec833981016040819052620000349162000c32565b600054610100900460ff1615808015620000555750600054600160ff909116105b8062000085575062000072306200015460201b620021111760201c565b15801562000085575060005460ff166001145b620000dd5760405162461bcd60e51b815260206004820152602e602482015260008051602062004b8c83398151915260448201526d191e481a5b9a5d1a585b1a5e995960921b60648201526084015b60405180910390fd5b6000805460ff19166001179055801562000101576000805461ff0019166101001790555b801562000137576000805461ff00191690556040516001815260008051602062004bac8339815191529060200160405180910390a15b506200014886868686868662000163565b50505050505062000d6f565b6001600160a01b03163b151590565b600054610100900460ff1615808015620001845750600054600160ff909116105b80620001b45750620001a1306200015460201b620021111760201c565b158015620001b4575060005460ff166001145b620002085760405162461bcd60e51b815260206004820152602e602482015260008051602062004b8c83398151915260448201526d191e481a5b9a5d1a585b1a5e995960921b6064820152608401620000d4565b6000805460ff1916600117905580156200022c576000805461ff0019166101001790555b603380546200023b9062000d06565b1590506200028c5760405162461bcd60e51b815260206004820152601360248201527f616c726561647920696e697469616c697a6564000000000000000000000000006044820152606401620000d4565b6000865111620002df5760405162461bcd60e51b815260206004820152601560248201527f746f6b656e206e616d65206973206e6f742073657400000000000000000000006044820152606401620000d4565b6000855111620003325760405162461bcd60e51b815260206004820152601760248201527f746f6b656e2073796d626f6c206973206e6f74207365740000000000000000006044820152606401620000d4565b85516200034790603390602089019062000abc565b5084516200035d90603490602088019062000abc565b508215806200037457506001600160a01b03841615155b620003d05760405162461bcd60e51b815260206004820152602560248201527f5f696e697469616c486f6c646572206e6f742073657420287a65726f20616464604482015264726573732960d81b6064820152608401620000d4565b8215620003e357620003e384846200044b565b6001600160a01b038716151580620003fa57508115155b156200040c576200040c8783620006b0565b801562000442576000805461ff00191690556040516001815260008051602062004bac8339815191529060200160405180910390a15b50505050505050565b6001600160a01b038216620004925760405162461bcd60e51b815260206004820152600c60248201526b7a65726f206164647265737360a01b6044820152606401620000d4565b60355481810111620004f15760405162461bcd60e51b815260206004820152602160248201527f7a65726f2076616c7565206f722061726974686d65746963206f766572666c6f6044820152607760f81b6064820152608401620000d4565b6035546001600160c01b03906200050a90839062000cd1565b11156200055a5760405162461bcd60e51b815260206004820152601f60248201527f746f74616c20737570706c79206f766572666c6f77202875696e7431393229006044820152606401620000d4565b80603560008282546200056e919062000cd1565b90915550506001600160a01b038216600090815260366020526040812080548392906200059d90849062000cd1565b90915550620005bc90506039620021206200073d60201b178362000752565b50506001600160a01b03808316600090815260376020526040812054620005e8923392911684620008f9565b6040518181526001600160a01b0383169033907f9d228d69b5fdb8d273a2336f8fb8612d039631024ea9bf09c424a9503aa078f09060200160405180910390a36040518181526001600160a01b0383169060009033907fd1398bee19313d6bf672ccb116e51f4a1a947e91c757907f51fbb5b5e56c698f9060200160405180910390a46040518181526001600160a01b038316906000907fddf252ad1be2c89b69c2b068fc378daa952ba7f163c4a11628f55a4df523b3ef9060200160405180910390a35050565b600054610100900460ff166200071d5760405162461bcd60e51b815260206004820152602b60248201527f496e697469616c697a61626c653a20636f6e7472616374206973206e6f74206960448201526a6e697469616c697a696e6760a81b6064820152608401620000d4565b6200072c826000198062000a54565b6200073930828062000a54565b5050565b60006200074b828462000cd1565b9392505050565b8254600090819015620007b75784548590620007719060019062000cec565b815481106200079057634e487b7160e01b600052603260045260246000fd5b6000918252602090912001546801000000000000000090046001600160c01b0316620007ba565b60005b6001600160c01b03169150620007d182848660201c565b8554909150158015906200082a5750845443908690620007f49060019062000cec565b815481106200081357634e487b7160e01b600052603260045260246000fd5b6000918252602090912001546001600160401b0316145b156200089a57845481908690620008449060019062000cec565b815481106200086357634e487b7160e01b600052603260045260246000fd5b9060005260206000200160000160086101000a8154816001600160c01b0302191690836001600160c01b03160217905550620008f1565b604080518082019091526001600160401b0343811682526001600160c01b0380841660208085019182528954600181018b5560008b8152919091209451915190921668010000000000000000029216919091179101555b935093915050565b816001600160a01b0316836001600160a01b0316148062000918575080155b15620009245762000a4e565b6001600160a01b03831615620009b9576001600160a01b03831660009081526038602090815260408220919081906200096b90849062000aae901b6200212c178662000752565b91509150856001600160a01b0316876001600160a01b031660008051602062004bcc8339815191528484604051620009ad929190918252602082015260400190565b60405180910390a35050505b6001600160a01b0382161562000a4e576001600160a01b038216600090815260386020908152604082209190819062000a009084906200073d901b62002120178662000752565b91509150846001600160a01b0316876001600160a01b031660008051602062004bcc833981519152848460405162000a42929190918252602082015260400190565b60405180910390a35050505b50505050565b6001600160a01b03831660008181526001602090815260409182902084905581518581529081018490527fe9be537308880e0f56b7d7cfd7abf85f14c4934486d138f848b92a0cbaf659b4910160405180910390a2505050565b60006200074b828462000cec565b82805462000aca9062000d06565b90600052602060002090601f01602090048101928262000aee576000855562000b39565b82601f1062000b0957805160ff191683800117855562000b39565b8280016001018555821562000b39579182015b8281111562000b3957825182559160200191906001019062000b1c565b5062000b4792915062000b4b565b5090565b5b8082111562000b47576000815560010162000b4c565b80516001600160a01b038116811462000b7a57600080fd5b919050565b600082601f83011262000b90578081fd5b81516001600160401b038082111562000bad5762000bad62000d59565b604051601f8301601f19908116603f0116810190828211818310171562000bd85762000bd862000d59565b8160405283815260209250868385880101111562000bf4578485fd5b8491505b8382101562000c17578582018301518183018401529082019062000bf8565b8382111562000c2857848385830101525b9695505050505050565b60008060008060008060c0878903121562000c4b578182fd5b62000c568762000b62565b60208801519096506001600160401b038082111562000c73578384fd5b62000c818a838b0162000b7f565b9650604089015191508082111562000c97578384fd5b5062000ca689828a0162000b7f565b94505062000cb76060880162000b62565b92506080870151915060a087015190509295509295509295565b6000821982111562000ce75762000ce762000d43565b500190565b60008282101562000d015762000d0162000d43565b500390565b600181811c9082168062000d1b57607f821691505b6020821081141562000d3d57634e487b7160e01b600052602260045260246000fd5b50919050565b634e487b7160e01b600052601160045260246000fd5b634e487b7160e01b600052604160045260246000fd5b613e0d8062000d7f6000396000f3fe608060405234801561001057600080fd5b50600436106104495760003560e01c80637fd491b011610241578063c0d6568d1161013b578063dd62ed3e116100c3578063e98f5ba711610087578063e98f5ba714610a7a578063ef55bec614610a84578063f63c2f8214610a97578063f9cf927114610a9f578063fcc2c07814610ab257600080fd5b8063dd62ed3e146109c4578063e3ee160e146109fd578063e62cac7614610a10578063e7a324dc14610a1a578063e94a010214610a4157600080fd5b8063cae9ca511161010a578063cae9ca5114610951578063d505accf14610964578063d5bb7f6714610977578063d8fbe9941461098a578063d91694871461099d57600080fd5b8063c0d6568d14610919578063c1d34b8914610921578063c5ff500c14610934578063c688d6931461093e57600080fd5b8063a0cc6a68116101c9578063ae682e2e1161018d578063ae682e2e146108cb578063b3c65015146108d6578063b66dbdc5146108eb578063b88d4fde146108f3578063bcc3f3bd1461090657600080fd5b8063a0cc6a6814610860578063a457c2d714610887578063a9059cbb1461089a578063ae5b102e146108ad578063ae60bda4146108c057600080fd5b80638f6fba8c116102105780638f6fba8c1461081757806394f4f9301461081f57806395d89b4114610832578063981b24d01461083a5780639dc29fac1461084d57600080fd5b80637fd491b0146107aa57806387793f3e146107bd5780638a114e13146107e65780638d4e57e61461080d57600080fd5b806339509351116103525780635c19a95c116102da57806370a082311161029e57806370a0823114610714578063725f36261461073d5780637815ef0c146107505780637ecebe00146107635780637f2eecc31461078357600080fd5b80635c19a95c146106a05780635e2dc2b7146106b357806364cb8b96146106bc578063653de620146106d15780636641d9a0146106da57600080fd5b8063442767331161032157806344276733146106335780634721272d1461065c57806350c29e371461066557806359b961ef1461067a5780635a049a701461068d57600080fd5b806339509351146105f25780633e9c5f7e146106055780634000aea01461060d57806340c10f191461062057600080fd5b80631e0fa234116103d55780632d4c39ea116103a45780632d4c39ea1461058e57806330adf81f14610596578063313ce567146105bd5780633177029f146105d75780633644e515146105ea57600080fd5b80631e0fa234146104fe57806320606b701461053f57806323b872dd146105665780632b5214161461057957600080fd5b8063136d035f1161041c578063136d035f146104b157806313873a24146104cf57806318160ddd146104d75780631993f554146104ee5780631a0b04ea146104f657600080fd5b806301ffc9a71461044e57806306fdde0314610476578063095ea7b31461048b5780631296ee621461049e575b600080fd5b61046161045c366004613a84565b610ac5565b60405190151581526020015b60405180910390f35b61047e610b4d565b60405161046d9190613c20565b6104616104993660046138ea565b610bdb565b6104616104ac3660046138ea565b610bf1565b6104ba61080081565b60405163ffffffff909116815260200161046d565b6104ba608081565b6104e060355481565b60405190815260200161046d565b6104ba600481565b6104ba600881565b61052761050c366004613718565b6037602052600090815260409020546001600160a01b031681565b6040516001600160a01b03909116815260200161046d565b6104e07f8cad95687ba82c2ce50e74f7b754645e5117c3a5bec8151c0726d5857980a86681565b610461610574366004613764565b610c05565b306000908152600160205260409020546104e0565b6104ba604081565b6104e07f6e71edae12b1b97f4d1f60370fef10105fa2faae0126114a169c64845d6126c981565b6105c5601281565b60405160ff909116815260200161046d565b6104616105e53660046138ea565b610c72565b6104e0610c8e565b6104616106003660046138ea565b610d28565b6104ba602081565b61046161061b366004613a30565b610dd4565b61046161062e3660046138ea565b610de2565b6104e0610641366004613718565b6001600160a01b031660009081526001602052604090205490565b6104ba61020081565b6106786106733660046139b7565b610e16565b005b610678610688366004613764565b6110dd565b61067861069b36600461396a565b6110ee565b6106786106ae366004613718565b611199565b6104ba61040081565b6106c46111fc565b60405161046d9190613b83565b6104ba61010081565b6106ed6106e8366004613abc565b611278565b604080516001600160401b0390931683526001600160c01b0390911660208301520161046d565b6104e0610722366004613718565b6001600160a01b031660009081526036602052604090205490565b61046161074b366004613abc565b6112b3565b6106c461075e366004613718565b6112cf565b6104e0610771366004613718565b603a6020526000908152604090205481565b6104e07fd099cc98ef71107a616c4f0f941f04c322d8e254fe26b3c6668db87aae413de881565b6106ed6107b83660046138ea565b611361565b6104e06107cb366004613718565b6001600160a01b031660009081526038602052604090205490565b6104e07f85852ae5a7cdee80493c98daa64f98f0cb54ed1def5bdc3f1c4a1feff79713d281565b6104ba6201000081565b6104ba600281565b6104e061082d3660046138ea565b6113aa565b61047e611413565b6104e0610848366004613abc565b611420565b61046161085b3660046138ea565b611472565b6104e07f7c7c6cdb67a18743f49ec6fa9b35f50d52ed05cbed4cc592e13b44501c1a226781565b6104616108953660046138ea565b6118c9565b6104616108a83660046138ea565b6119a6565b6106786108bb3660046138ea565b6119b3565b6104e0600160fe1b81565b6104e0600160ff1b81565b60005460405160ff909116815260200161046d565b6039546104e0565b61046161090136600461379f565b611a3c565b6104e0610914366004613718565b611a62565b6104ba600181565b61046161092f36600461379f565b611ae3565b6104ba6204000081565b61046161094c3660046138ea565b611b54565b61046161095f366004613a30565b611b76565b610678610972366004613881565b611be5565b610678610985366004613abc565b611d34565b610461610998366004613764565b611d3e565b6104e07f158b0a9edf7a828aad02f63cd515c68ef2f50ba807396f6d12842833a159742981565b6104e06109d2366004613732565b6001600160a01b039182166000908152603c6020908152604080832093909416825291909152205490565b610678610a0b366004613804565b611d5b565b6104ba6202000081565b6104e07fff41620983935eb4d4a3c7384a066ca8c1d10cef9a5eca9eb97ca735cd14a75581565b610461610a4f3660046138ea565b6001600160a01b03919091166000908152603b60209081526040808320938352929052205460ff1690565b6104ba6208000081565b610678610a92366004613804565b611eb6565b6104ba601081565b610678610aad366004613913565b612015565b610461610ac0366004613abc565b612105565b60006001600160e01b031982166301ffc9a760e01b1480610af657506001600160e01b031982166336372b0760e01b145b80610b1157506001600160e01b0319821663b0202a1160e01b145b80610b2c57506001600160e01b03198216634ec7fbed60e11b145b80610b4757506001600160e01b03198216635ffa99dd60e11b145b92915050565b60338054610b5a90613cff565b80601f0160208091040260200160405190810160405280929190818152602001828054610b8690613cff565b8015610bd35780601f10610ba857610100808354040283529160200191610bd3565b820191906000526020600020905b815481529060010190602001808311610bb657829003601f168201915b505050505081565b6000610be8338484612138565b50600192915050565b6000610bfe338484611d3e565b9392505050565b6000610c1160046112b3565b80610c245750610c248362040000611b54565b80610c365750610c3662080000612105565b15610c4b57610c468484846110dd565b610c68565b610c6684848460405180602001604052806000815250611a3c565b505b5060019392505050565b6000610bfe838360405180602001604052806000815250611b76565b604080518082018252600d81526c0416476616e636564455243323609c1b60209182015281517f8cad95687ba82c2ce50e74f7b754645e5117c3a5bec8151c0726d5857980a866818301527f95e063ea3f6920cec8774a093b44a4cec7d0563cf046029dde7e776f099c41fe81840152466060820152306080808301919091528351808303909101815260a0909101909252815191012090565b336000908152603c602090815260408083206001600160a01b03861684529091528120548281018110610dbe5760405162461bcd60e51b815260206004820152603360248201527f7a65726f2076616c756520617070726f76616c20696e637265617365206f722060448201527261726974686d65746963206f766572666c6f7760681b60648201526084015b60405180910390fd5b610dcc846104998584613cb0565b949350505050565b6000610dcc33858585611ae3565b6000610df062010000612105565b610e0c5760405162461bcd60e51b8152600401610db590613c5e565b610be88383612249565b600054610100900460ff1615808015610e365750600054600160ff909116105b80610e505750303b158015610e50575060005460ff166001145b610eb35760405162461bcd60e51b815260206004820152602e60248201527f496e697469616c697a61626c653a20636f6e747261637420697320616c72656160448201526d191e481a5b9a5d1a585b1a5e995960921b6064820152608401610db5565b6000805460ff191660011790558015610ed6576000805461ff0019166101001790555b60338054610ee390613cff565b159050610f285760405162461bcd60e51b8152602060048201526013602482015272185b1c9958591e481a5b9a5d1a585b1a5e9959606a1b6044820152606401610db5565b6000865111610f715760405162461bcd60e51b81526020600482015260156024820152741d1bdad95b881b985b59481a5cc81b9bdd081cd95d605a1b6044820152606401610db5565b6000855111610fc25760405162461bcd60e51b815260206004820152601760248201527f746f6b656e2073796d626f6c206973206e6f74207365740000000000000000006044820152606401610db5565b8551610fd59060339060208901906135cc565b508451610fe99060349060208801906135cc565b50821580610fff57506001600160a01b03841615155b6110595760405162461bcd60e51b815260206004820152602560248201527f5f696e697469616c486f6c646572206e6f742073657420287a65726f20616464604482015264726573732960d81b6064820152608401610db5565b8215611069576110698484612249565b6001600160a01b03871615158061107f57508115155b1561108e5761108e8783612471565b80156110d4576000805461ff0019169055604051600181527f7f26b83ff96e1f2b6a682f133852f6798a09c465da95921460cefb38474024989060200160405180910390a15b50505050505050565b6110e9338484846124f4565b505050565b604080517f158b0a9edf7a828aad02f63cd515c68ef2f50ba807396f6d12842833a159742960208201526001600160a01b0387169181019190915260608101859052600090611152906080015b604051602081830303815290604052858585612a80565b9050856001600160a01b0316816001600160a01b0316146111855760405162461bcd60e51b8152600401610db590613c33565b61119186866001612ae5565b505050505050565b6111a360206112b3565b6111ef5760405162461bcd60e51b815260206004820152601860248201527f64656c65676174696f6e73206172652064697361626c656400000000000000006044820152606401610db5565b6111f93382612bf3565b50565b60606039805480602002602001604051908101604052809291908181526020016000905b8282101561126f57600084815260209081902060408051808201909152908401546001600160401b0381168252600160401b90046001600160c01b031681830152825260019092019101611220565b50505050905090565b6039818154811061128857600080fd5b6000918252602090912001546001600160401b0381169150600160401b90046001600160c01b031682565b30600090815260016020526040812054610b47905b8316831490565b6001600160a01b0381166000908152603860209081526040808320805482518185028101850190935280835260609492939192909184015b8282101561135657600084815260209081902060408051808201909152908401546001600160401b0381168252600160401b90046001600160c01b031681830152825260019092019101611307565b505050509050919050565b6038602052816000526040600020818154811061137d57600080fd5b6000918252602090912001546001600160401b0381169250600160401b90046001600160c01b0316905082565b60004382106113f15760405162461bcd60e51b8152602060048201526013602482015272189b1bd8dac81b9bdd081e595d081b5a5b9959606a1b6044820152606401610db5565b6001600160a01b0383166000908152603860205260409020610bfe9083612c8f565b60348054610b5a90613cff565b60004382106114675760405162461bcd60e51b8152602060048201526013602482015272189b1bd8dac81b9bdd081e595d081b5a5b9959606a1b6044820152606401610db5565b610b47603983612c8f565b600061148062020000612105565b6116a3576001600160a01b038316331480156114a157506114a160086112b3565b806114c557506001600160a01b03831633148015906114c557506114c560106112b3565b6001600160a01b0384163314611510576040518060400160405280601c81526020017f6275726e73206f6e20626568616c66206172652064697361626c65640000000081525061153c565b60405180604001604052806012815260200171189d5c9b9cc8185c9948191a5cd8589b195960721b8152505b9061155a5760405162461bcd60e51b8152600401610db59190613c20565b506001600160a01b03831633146116a3576001600160a01b0383166000908152603c60209081526040808320338452909152902054828110156115df5760405162461bcd60e51b815260206004820152601d60248201527f6275726e20616d6f756e74206578636565647320616c6c6f77616e63650000006044820152606401610db5565b6000198110156116a1576115f38382613ce8565b6001600160a01b0385166000818152603c60209081526040808320338085529252909120839055919250907fb3fd5071835887567a0671151121894ddccc2842f1d10bedad13e0d17cace9a76116498685613cb0565b60408051918252602082018690520160405180910390a360405181815233906001600160a01b038616907f8c5be1e5ebec7d5bd14f71427d1e84f3dd0314c0f7b2291e5b200ac8c7c3b9259060200160405180910390a35b505b816116e25760405162461bcd60e51b815260206004820152600f60248201526e3d32b937903b30b63ab290313ab93760891b6044820152606401610db5565b6001600160a01b0383166117385760405162461bcd60e51b815260206004820152601a60248201527f6275726e2066726f6d20746865207a65726f20616464726573730000000000006044820152606401610db5565b6001600160a01b0383166000908152603660205260409020548211156117a05760405162461bcd60e51b815260206004820152601b60248201527f6275726e20616d6f756e7420657863656564732062616c616e636500000000006044820152606401610db5565b6001600160a01b038316600090815260366020526040812080548492906117c8908490613ce8565b9250508190555081603560008282546117e19190613ce8565b909155506117f59050603961212c84612eb6565b50506001600160a01b0380841660009081526037602052604081205461182092339291169085613047565b6040518281526001600160a01b0384169033907fe8a89cc6e5096f9d9f43de82c077c1f4cfe707c0e0c2032176c68813b9ae6a5c9060200160405180910390a36040518281526000906001600160a01b038516903390600080516020613d988339815191529060200160405180910390a46040518281526000906001600160a01b03851690600080516020613db88339815191529060200160405180910390a350600192915050565b336000908152603c602090815260408083206001600160a01b03861684529091528120548261193a5760405162461bcd60e51b815260206004820152601c60248201527f7a65726f2076616c756520617070726f76616c206465637265617365000000006044820152606401610db5565b828110156119985760405162461bcd60e51b815260206004820152602560248201527f45524332303a2064656372656173656420616c6c6f77616e63652062656c6f77604482015264207a65726f60d81b6064820152608401610db5565b610dcc846104998584613ce8565b6000610bfe338484610c05565b6119c0600160ff1b612105565b6119dc5760405162461bcd60e51b8152600401610db590613c5e565b611a388282611a3333611a04876001600160a01b031660009081526001602052604090205490565b6001600160a01b0391909116600090815260016020526040902054600019808818821618908716919091171690565b61319c565b5050565b6000611a498585856110dd565b611a578585858560016131f6565b506001949350505050565b6001600160a01b0381166000908152603860205260408120805415611ad05780548190611a9190600190613ce8565b81548110611aaf57634e487b7160e01b600052603260045260246000fd5b600091825260209091200154600160401b90046001600160c01b0316611ad3565b60005b6001600160c01b03169392505050565b6000611aef60806112b3565b611b3b5760405162461bcd60e51b815260206004820152601e60248201527f45524331333633207472616e7366657273206172652064697361626c656400006044820152606401610db5565b611b468585856110dd565b611a578585858560006131f6565b6001600160a01b038216600090815260016020526040812054610bfe906112c8565b6000611b836101006112b3565b611bcf5760405162461bcd60e51b815260206004820152601e60248201527f4552433133363320617070726f76616c73206172652064697361626c656400006044820152606401610db5565b611bd98484610bdb565b50610c6884848461333a565b611bf06102006112b3565b611c3c5760405162461bcd60e51b815260206004820152601c60248201527f45495032363132207065726d697473206172652064697361626c6564000000006044820152606401610db5565b6001600160a01b0387166000908152603a602052604081208054611ccd917f6e71edae12b1b97f4d1f60370fef10105fa2faae0126114a169c64845d6126c9918b918b918b9187611c8c83613d3a565b909155506040805160208101969096526001600160a01b0394851690860152929091166060840152608083015260a082015260c0810187905260e00161113b565b9050876001600160a01b0316816001600160a01b031614611d005760405162461bcd60e51b8152600401610db590613c33565b844210611d1f5760405162461bcd60e51b8152600401610db590613c85565b611d2a888888612138565b5050505050505050565b6111f930826119b3565b6000610dcc84848460405180602001604052806000815250611ae3565b611d666104006112b3565b611db25760405162461bcd60e51b815260206004820152601e60248201527f45495033303039207472616e7366657273206172652064697361626c656400006044820152606401610db5565b6000611df77f7c7c6cdb67a18743f49ec6fa9b35f50d52ed05cbed4cc592e13b44501c1a226760001b8b8b8b8b8b8b60405160200161113b9796959493929190613be4565b9050896001600160a01b0316816001600160a01b031614611e2a5760405162461bcd60e51b8152600401610db590613c33565b864211611e735760405162461bcd60e51b81526020600482015260176024820152761cda59db985d1d5c99481b9bdd081e595d081d985b1a59604a1b6044820152606401610db5565b854210611e925760405162461bcd60e51b8152600401610db590613c85565b611e9e8a866000612ae5565b611eaa818b8b8b6124f4565b50505050505050505050565b611ec16108006112b3565b611f0d5760405162461bcd60e51b815260206004820152601f60248201527f4549503330303920726563657074696f6e73206172652064697361626c6564006044820152606401610db5565b6000611f527fd099cc98ef71107a616c4f0f941f04c322d8e254fe26b3c6668db87aae413de860001b8b8b8b8b8b8b60405160200161113b9796959493929190613be4565b9050896001600160a01b0316816001600160a01b031614611f855760405162461bcd60e51b8152600401610db590613c33565b864211611fce5760405162461bcd60e51b81526020600482015260176024820152761cda59db985d1d5c99481b9bdd081e595d081d985b1a59604a1b6044820152606401610db5565b854210611fed5760405162461bcd60e51b8152600401610db590613c85565b6001600160a01b0389163314611e925760405162461bcd60e51b8152600401610db590613c5e565b61201f60406112b3565b6120765760405162461bcd60e51b815260206004820152602260248201527f64656c65676174696f6e73206f6e20626568616c66206172652064697361626c604482015261195960f21b6064820152608401610db5565b604080517fff41620983935eb4d4a3c7384a066ca8c1d10cef9a5eca9eb97ca735cd14a75560208201526001600160a01b0388169181019190915260608101869052608081018590526000906120ce9060a00161113b565b90508442106120ef5760405162461bcd60e51b8152600401610db590613c85565b6120fb81876000612ae5565b6110d48188612bf3565b6000610b473383611b54565b6001600160a01b03163b151590565b6000610bfe8284613cb0565b6000610bfe8284613ce8565b6001600160a01b03821661218e5760405162461bcd60e51b815260206004820152601b60248201527f617070726f766520746f20746865207a65726f206164647265737300000000006044820152606401610db5565b6001600160a01b038381166000818152603c602090815260408083209487168084529482529182902080549086905582518181529182018690529392917fb3fd5071835887567a0671151121894ddccc2842f1d10bedad13e0d17cace9a7910160405180910390a3826001600160a01b0316846001600160a01b03167f8c5be1e5ebec7d5bd14f71427d1e84f3dd0314c0f7b2291e5b200ac8c7c3b9258460405161223b91815260200190565b60405180910390a350505050565b6001600160a01b03821661228e5760405162461bcd60e51b815260206004820152600c60248201526b7a65726f206164647265737360a01b6044820152606401610db5565b603554818101116122eb5760405162461bcd60e51b815260206004820152602160248201527f7a65726f2076616c7565206f722061726974686d65746963206f766572666c6f6044820152607760f81b6064820152608401610db5565b6035546001600160c01b0390612302908390613cb0565b11156123505760405162461bcd60e51b815260206004820152601f60248201527f746f74616c20737570706c79206f766572666c6f77202875696e7431393229006044820152606401610db5565b80603560008282546123629190613cb0565b90915550506001600160a01b0382166000908152603660205260408120805483929061238f908490613cb0565b909155506123a39050603961212083612eb6565b50506001600160a01b038083166000908152603760205260408120546123cd923392911684613047565b6040518181526001600160a01b0383169033907f9d228d69b5fdb8d273a2336f8fb8612d039631024ea9bf09c424a9503aa078f09060200160405180910390a36040518181526001600160a01b038316906000903390600080516020613d988339815191529060200160405180910390a46040518181526001600160a01b03831690600090600080516020613db88339815191529060200160405180910390a35050565b600054610100900460ff166124dc5760405162461bcd60e51b815260206004820152602b60248201527f496e697469616c697a61626c653a20636f6e7472616374206973206e6f74206960448201526a6e697469616c697a696e6760a81b6064820152608401610db5565b6124e9826000198061319c565b611a3830828361319c565b836001600160a01b0316836001600160a01b031614801561251a575061251a60016112b3565b806125475750836001600160a01b0316836001600160a01b031614158015612547575061254760026112b3565b846001600160a01b0316846001600160a01b03161461259b576040518060400160405280602081526020017f7472616e7366657273206f6e20626568616c66206172652064697361626c65648152506125cb565b604051806040016040528060168152602001751d1c985b9cd9995c9cc8185c9948191a5cd8589b195960521b8152505b906125e95760405162461bcd60e51b8152600401610db59190613c20565b506001600160a01b0383166126405760405162461bcd60e51b815260206004820152601e60248201527f7472616e736665722066726f6d20746865207a65726f206164647265737300006044820152606401610db5565b6001600160a01b0382166126965760405162461bcd60e51b815260206004820152601c60248201527f7472616e7366657220746f20746865207a65726f2061646472657373000000006044820152606401610db5565b6001600160a01b0382163014156127155760405162461bcd60e51b815260206004820152603f60248201527f696e76616c696420726563697069656e7420287472616e7366657220746f207460448201527f686520746f6b656e20736d61727420636f6e747261637420697473656c6629006064820152608401610db5565b8061279f57816001600160a01b0316836001600160a01b0316856001600160a01b0316600080516020613d988339815191528460405161275791815260200190565b60405180910390a4816001600160a01b0316836001600160a01b0316600080516020613db88339815191528360405161279291815260200190565b60405180910390a3612a7a565b836001600160a01b0316836001600160a01b03161461290d576001600160a01b038084166000908152603c6020908152604080832093881683529290522054818110156128385760405162461bcd60e51b815260206004820152602160248201527f7472616e7366657220616d6f756e74206578636565647320616c6c6f77616e636044820152606560f81b6064820152608401610db5565b60001981101561290b5761284c8282613ce8565b6001600160a01b038086166000818152603c60209081526040808320948b16808452949091529020839055919250907fb3fd5071835887567a0671151121894ddccc2842f1d10bedad13e0d17cace9a76128a68585613cb0565b60408051918252602082018690520160405180910390a3846001600160a01b0316846001600160a01b03167f8c5be1e5ebec7d5bd14f71427d1e84f3dd0314c0f7b2291e5b200ac8c7c3b9258360405161290291815260200190565b60405180910390a35b505b6001600160a01b0383166000908152603660205260409020548111156129755760405162461bcd60e51b815260206004820152601f60248201527f7472616e7366657220616d6f756e7420657863656564732062616c616e6365006044820152606401610db5565b6001600160a01b0383166000908152603660205260408120805483929061299d908490613ce8565b90915550506001600160a01b038216600090815260366020526040812080548392906129ca908490613cb0565b90915550506001600160a01b03808416600090815260376020526040808220548584168352912054612a029287928116911684613047565b816001600160a01b0316836001600160a01b0316856001600160a01b0316600080516020613d9883398151915284604051612a3f91815260200190565b60405180910390a4816001600160a01b0316836001600160a01b0316600080516020613db88339815191528360405161223b91815260200190565b50505050565b8351602085012060009081612a93610c8e565b60405161190160f01b60208201526022810191909152604281018390526062016040516020818303038152906040528051906020012090506000612ad982888888613469565b98975050505050505050565b6001600160a01b0383166000908152603b6020908152604080832085845290915290205460ff1615612b495760405162461bcd60e51b815260206004820152600d60248201526c696e76616c6964206e6f6e636560981b6044820152606401610db5565b6001600160a01b0383166000908152603b602090815260408083208584529091529020805460ff191660011790558015612bb85760405182906001600160a01b038516907f1cdd46ff242716cdaa72d159d339a485b3438398348d68f09d7c8c0a59353d8190600090a3505050565b60405182906001600160a01b038516907f98de503528ee59b575ef0c0a2576a82497bfc029a5685b209e9ec333479b10a590600090a3505050565b6001600160a01b0380831660009081526037602081815260408084208054603684529190942054929091528484166001600160a01b0319821617909255911690612c3f84838584613047565b826001600160a01b0316826001600160a01b0316856001600160a01b03167f3134e8a2e6d97e929a7e54011ea5485d7d196dd5f0ba4d4ef95803e8e3fc257f60405160405180910390a450505050565b8154600090612ca057506000610b47565b825482908490612cb290600190613ce8565b81548110612cd057634e487b7160e01b600052603260045260246000fd5b6000918252602090912001546001600160401b031611612d3b5782548390612cfa90600190613ce8565b81548110612d1857634e487b7160e01b600052603260045260246000fd5b600091825260209091200154600160401b90046001600160c01b03169050610b47565b8183600081548110612d5d57634e487b7160e01b600052603260045260246000fd5b6000918252602090912001546001600160401b03161115612d8057506000610b47565b82546000908190612d9390600190613ce8565b90505b81811115612e715760006002612dac8484613ce8565b612db69190613cc8565b612dc09083613ce8565b90506000868281548110612de457634e487b7160e01b600052603260045260246000fd5b6000918252602091829020604080518082019091529101546001600160401b038116808352600160401b9091046001600160c01b0316928201929092529150861415612e4257602001516001600160c01b03169350610b4792505050565b80516001600160401b0316861115612e5c57819350612e6a565b612e67600183613ce8565b92505b5050612d96565b848281548110612e9157634e487b7160e01b600052603260045260246000fd5b600091825260209091200154600160401b90046001600160c01b031695945050505050565b8254600090819015612f115784548590612ed290600190613ce8565b81548110612ef057634e487b7160e01b600052603260045260246000fd5b600091825260209091200154600160401b90046001600160c01b0316612f14565b60005b6001600160c01b03169150612f2d82848663ffffffff16565b855490915015801590612f825750845443908690612f4d90600190613ce8565b81548110612f6b57634e487b7160e01b600052603260045260246000fd5b6000918252602090912001546001600160401b0316145b15612fed57845481908690612f9990600190613ce8565b81548110612fb757634e487b7160e01b600052603260045260246000fd5b9060005260206000200160000160086101000a8154816001600160c01b0302191690836001600160c01b0316021790555061303f565b604080518082019091526001600160401b0343811682526001600160c01b0380841660208085019182528954600181018b5560008b81529190912094519151909216600160401b029216919091179101555b935093915050565b816001600160a01b0316836001600160a01b03161480613065575080155b1561306f57612a7a565b6001600160a01b03831615613103576001600160a01b038316600090815260386020526040812090806130a58361212c86612eb6565b91509150856001600160a01b0316876001600160a01b03167fd1404f22081753a56b50e0d5ff5c9ed0e4a3a840e1171a443721a342e71bb5c184846040516130f7929190918252602082015260400190565b60405180910390a35050505b6001600160a01b03821615612a7a576001600160a01b038216600090815260386020526040812090806131398361212086612eb6565b91509150846001600160a01b0316876001600160a01b03167fd1404f22081753a56b50e0d5ff5c9ed0e4a3a840e1171a443721a342e71bb5c1848460405161318b929190918252602082015260400190565b60405180910390a350505050505050565b6001600160a01b03831660008181526001602090815260409182902084905581518581529081018490527fe9be537308880e0f56b7d7cfd7abf85f14c4934486d138f848b92a0cbaf659b4910160405180910390a2505050565b833b61323e57806132395760405162461bcd60e51b815260206004820152600d60248201526c1153d0481c9958da5c1a595b9d609a1b6044820152606401610db5565b613333565b604051632229f29760e21b81526000906001600160a01b038616906388a7ca5c906132739033908a9089908990600401613b1f565b602060405180830381600087803b15801561328d57600080fd5b505af11580156132a1573d6000803e3d6000fd5b505050506040513d601f19601f820116820180604052508101906132c59190613aa0565b90506001600160e01b03198116632229f29760e21b146111915760405162461bcd60e51b815260206004820152602360248201527f696e76616c6964206f6e5472616e73666572526563656976656420726573706f6044820152626e736560e81b6064820152608401610db5565b5050505050565b823b6133765760405162461bcd60e51b815260206004820152600b60248201526a22a7a09039b832b73232b960a91b6044820152606401610db5565b6040516307b04a2d60e41b81526000906001600160a01b03851690637b04a2d0906133a990339087908790600401613b5c565b602060405180830381600087803b1580156133c357600080fd5b505af11580156133d7573d6000803e3d6000fd5b505050506040513d601f19601f820116820180604052508101906133fb9190613aa0565b90506001600160e01b031981166307b04a2d60e41b14612a7a5760405162461bcd60e51b815260206004820152602360248201527f696e76616c6964206f6e417070726f76616c526563656976656420726573706f6044820152626e736560e81b6064820152608401610db5565b60007f7fffffffffffffffffffffffffffffff5d576e7357a4501ddfe92f46681b20a08211156134db5760405162461bcd60e51b815260206004820152601b60248201527f696e76616c6964207369676e6174757265202773272076616c756500000000006044820152606401610db5565b8360ff16601b14806134f057508360ff16601c145b61353c5760405162461bcd60e51b815260206004820152601b60248201527f696e76616c6964207369676e6174757265202776272076616c756500000000006044820152606401610db5565b6040805160008082526020820180845288905260ff871692820192909252606081018590526080810184905260019060a0016020604051602081039080840390855afa158015613590573d6000803e3d6000fd5b5050604051601f1901519150506001600160a01b0381166135c35760405162461bcd60e51b8152600401610db590613c33565b95945050505050565b8280546135d890613cff565b90600052602060002090601f0160209004810192826135fa5760008555613640565b82601f1061361357805160ff1916838001178555613640565b82800160010185558215613640579182015b82811115613640578251825591602001919060010190613625565b5061364c929150613650565b5090565b5b8082111561364c5760008155600101613651565b80356001600160a01b038116811461367c57600080fd5b919050565b600082601f830112613691578081fd5b81356001600160401b03808211156136ab576136ab613d6b565b604051601f8301601f19908116603f011681019082821181831017156136d3576136d3613d6b565b816040528381528660208588010111156136eb578485fd5b8360208701602083013792830160200193909352509392505050565b803560ff8116811461367c57600080fd5b600060208284031215613729578081fd5b610bfe82613665565b60008060408385031215613744578081fd5b61374d83613665565b915061375b60208401613665565b90509250929050565b600080600060608486031215613778578081fd5b61378184613665565b925061378f60208501613665565b9150604084013590509250925092565b600080600080608085870312156137b4578081fd5b6137bd85613665565b93506137cb60208601613665565b92506040850135915060608501356001600160401b038111156137ec578182fd5b6137f887828801613681565b91505092959194509250565b60008060008060008060008060006101208a8c031215613822578485fd5b61382b8a613665565b985061383960208b01613665565b975060408a0135965060608a0135955060808a0135945060a08a0135935061386360c08b01613707565b925060e08a013591506101008a013590509295985092959850929598565b600080600080600080600060e0888a03121561389b578283fd5b6138a488613665565b96506138b260208901613665565b955060408801359450606088013593506138ce60808901613707565b925060a0880135915060c0880135905092959891949750929550565b600080604083850312156138fc578182fd5b61390583613665565b946020939093013593505050565b60008060008060008060c0878903121561392b578182fd5b61393487613665565b9550602087013594506040870135935061395060608801613707565b92506080870135915060a087013590509295509295509295565b600080600080600060a08688031215613981578283fd5b61398a86613665565b94506020860135935061399f60408701613707565b94979396509394606081013594506080013592915050565b60008060008060008060c087890312156139cf578384fd5b6139d887613665565b955060208701356001600160401b03808211156139f3578586fd5b6139ff8a838b01613681565b96506040890135915080821115613a14578586fd5b50613a2189828a01613681565b94505061395060608801613665565b600080600060608486031215613a44578081fd5b613a4d84613665565b92506020840135915060408401356001600160401b03811115613a6e578182fd5b613a7a86828701613681565b9150509250925092565b600060208284031215613a95578081fd5b8135610bfe81613d81565b600060208284031215613ab1578081fd5b8151610bfe81613d81565b600060208284031215613acd578081fd5b5035919050565b60008151808452815b81811015613af957602081850181015186830182015201613add565b81811115613b0a5782602083870101525b50601f01601f19169290920160200192915050565b6001600160a01b0385811682528416602082015260408101839052608060608201819052600090613b5290830184613ad4565b9695505050505050565b60018060a01b03841681528260208201526060604082015260006135c36060830184613ad4565b602080825282518282018190526000919060409081850190868401855b82811015613bd757815180516001600160401b031685528601516001600160c01b0316868501529284019290850190600101613ba0565b5091979650505050505050565b9687526001600160a01b0395861660208801529390941660408601526060850191909152608084015260a083019190915260c082015260e00190565b602081526000610bfe6020830184613ad4565b602080825260119082015270696e76616c6964207369676e617475726560781b604082015260600190565b6020808252600d908201526c1858d8d95cdcc819195b9a5959609a1b604082015260600190565b6020808252601190820152701cda59db985d1d5c9948195e1c1a5c9959607a1b604082015260600190565b60008219821115613cc357613cc3613d55565b500190565b600082613ce357634e487b7160e01b81526012600452602481fd5b500490565b600082821015613cfa57613cfa613d55565b500390565b600181811c90821680613d1357607f821691505b60208210811415613d3457634e487b7160e01b600052602260045260246000fd5b50919050565b6000600019821415613d4e57613d4e613d55565b5060010190565b634e487b7160e01b600052601160045260246000fd5b634e487b7160e01b600052604160045260246000fd5b6001600160e01b0319811681146111f957600080fdfed1398bee19313d6bf672ccb116e51f4a1a947e91c757907f51fbb5b5e56c698fddf252ad1be2c89b69c2b068fc378daa952ba7f163c4a11628f55a4df523b3efa264697066735822122006fc4f4d7441c8ea32ef5e6fd91c35ad2d1003dcfd13afa9a8c6ba32a602e84464736f6c63430008040033496e697469616c697a61626c653a20636f6e747261637420697320616c7265617f26b83ff96e1f2b6a682f133852f6798a09c465da95921460cefb3847402498d1404f22081753a56b50e0d5ff5c9ed0e4a3a840e1171a443721a342e71bb5c1",
  "linkReferences": {},
  "deployedLinkReferences": {}
}