{
  "_format": "hh-sol-artifact-1",
  "contractName": "AdvancedERC20",
  "sourceName": "contracts/token/AdvancedERC20.sol",
  "abi": [
    {
      "inputs": [
        {
          "internalType": "address",
          "name": "contractOwner",
          "type": "address"
        },
        {
          "internalType": "string",
          "name": "_name",
          "type": "string"
        },
        {
          "internalType": "string",
          "name": "_symbol",
          "type": "string"
        },
        {
          "internalType": "address",
          "name": "initialHolder",
          "type": "address"
        },
        {
          "internalType": "uint256",
          "name": "initialSupply",
          "type": "uint256"
        },
        {
          "internalType": "uint256",
          "name": "initialFeatures",
          "type": "uint256"
        }
      ],
      "stateMutability": "nonpayable",
      "type": "constructor"
    },
    {
      "anonymous": false,
      "inputs": [
        {
          "indexed": true,
          "internalType": "address",
          "name": "owner",
          "type": "address"
        },
        {
          "indexed": true,
          "internalType": "address",
          "name": "spender",
          "type": "address"
        },
        {
          "indexed": false,
          "internalType": "uint256",
          "name": "oldValue",
          "type": "uint256"
        },
        {
          "indexed": false,
          "internalType": "uint256",
          "name": "value",
          "type": "uint256"
        }
      ],
      "name": "Approval",
      "type": "event"
    },
    {
      "anonymous": false,
      "inputs": [
        {
          "indexed": true,
          "internalType": "address",
          "name": "owner",
          "type": "address"
        },
        {
          "indexed": true,
          "internalType": "address",
          "name": "spender",
          "type": "address"
        },
        {
          "indexed": false,
          "internalType": "uint256",
          "name": "value",
          "type": "uint256"
        }
      ],
      "name": "Approval",
      "type": "event"
    },
    {
      "anonymous": false,
      "inputs": [
        {
          "indexed": true,
          "internalType": "address",
          "name": "authorizer",
          "type": "address"
        },
        {
          "indexed": true,
          "internalType": "bytes32",
          "name": "nonce",
          "type": "bytes32"
        }
      ],
      "name": "AuthorizationCanceled",
      "type": "event"
    },
    {
      "anonymous": false,
      "inputs": [
        {
          "indexed": true,
          "internalType": "address",
          "name": "authorizer",
          "type": "address"
        },
        {
          "indexed": true,
          "internalType": "bytes32",
          "name": "nonce",
          "type": "bytes32"
        }
      ],
      "name": "AuthorizationUsed",
      "type": "event"
    },
    {
      "anonymous": false,
      "inputs": [
        {
          "indexed": true,
          "internalType": "address",
          "name": "by",
          "type": "address"
        },
        {
          "indexed": true,
          "internalType": "address",
          "name": "from",
          "type": "address"
        },
        {
          "indexed": false,
          "internalType": "uint256",
          "name": "value",
          "type": "uint256"
        }
      ],
      "name": "Burnt",
      "type": "event"
    },
    {
      "anonymous": false,
      "inputs": [
        {
          "indexed": true,
          "internalType": "address",
          "name": "source",
          "type": "address"
        },
        {
          "indexed": true,
          "internalType": "address",
          "name": "from",
          "type": "address"
        },
        {
          "indexed": true,
          "internalType": "address",
          "name": "to",
          "type": "address"
        }
      ],
      "name": "DelegateChanged",
      "type": "event"
    },
    {
      "anonymous": false,
      "inputs": [
        {
          "indexed": false,
          "internalType": "uint8",
          "name": "version",
          "type": "uint8"
        }
      ],
      "name": "Initialized",
      "type": "event"
    },
    {
      "anonymous": false,
      "inputs": [
        {
          "indexed": true,
          "internalType": "address",
          "name": "by",
          "type": "address"
        },
        {
          "indexed": true,
          "internalType": "address",
          "name": "to",
          "type": "address"
        },
        {
          "indexed": false,
          "internalType": "uint256",
          "name": "value",
          "type": "uint256"
        }
      ],
      "name": "Minted",
      "type": "event"
    },
    {
      "anonymous": false,
      "inputs": [
        {
          "indexed": true,
          "internalType": "address",
          "name": "operator",
          "type": "address"
        },
        {
          "indexed": false,
          "internalType": "uint256",
          "name": "requested",
          "type": "uint256"
        },
        {
          "indexed": false,
          "internalType": "uint256",
          "name": "assigned",
          "type": "uint256"
        }
      ],
      "name": "RoleUpdated",
      "type": "event"
    },
    {
      "anonymous": false,
      "inputs": [
        {
          "indexed": true,
          "internalType": "address",
          "name": "by",
          "type": "address"
        },
        {
          "indexed": true,
          "internalType": "address",
          "name": "from",
          "type": "address"
        },
        {
          "indexed": true,
          "internalType": "address",
          "name": "to",
          "type": "address"
        },
        {
          "indexed": false,
          "internalType": "uint256",
          "name": "value",
          "type": "uint256"
        }
      ],
      "name": "Transfer",
      "type": "event"
    },
    {
      "anonymous": false,
      "inputs": [
        {
          "indexed": true,
          "internalType": "address",
          "name": "from",
          "type": "address"
        },
        {
          "indexed": true,
          "internalType": "address",
          "name": "to",
          "type": "address"
        },
        {
          "indexed": false,
          "internalType": "uint256",
          "name": "value",
          "type": "uint256"
        }
      ],
      "name": "Transfer",
      "type": "event"
    },
    {
      "anonymous": false,
      "inputs": [
        {
          "indexed": true,
          "internalType": "address",
          "name": "by",
          "type": "address"
        },
        {
          "indexed": true,
          "internalType": "address",
          "name": "target",
          "type": "address"
        },
        {
          "indexed": false,
          "internalType": "uint256",
          "name": "fromVal",
          "type": "uint256"
        },
        {
          "indexed": false,
          "internalType": "uint256",
          "name": "toVal",
          "type": "uint256"
        }
      ],
      "name": "VotingPowerChanged",
      "type": "event"
    },
    {
      "inputs": [],
      "name": "CANCEL_AUTHORIZATION_TYPEHASH",
      "outputs": [
        {
          "internalType": "bytes32",
          "name": "",
          "type": "bytes32"
        }
      ],
      "stateMutability": "view",
      "type": "function"
    },
    {
      "inputs": [],
      "name": "DELEGATION_TYPEHASH",
      "outputs": [
        {
          "internalType": "bytes32",
          "name": "",
          "type": "bytes32"
        }
      ],
      "stateMutability": "view",
      "type": "function"
    },
    {
      "inputs": [],
      "name": "DOMAIN_SEPARATOR",
      "outputs": [
        {
          "internalType": "bytes32",
          "name": "",
          "type": "bytes32"
        }
      ],
      "stateMutability": "view",
      "type": "function"
    },
    {
      "inputs": [],
      "name": "DOMAIN_TYPEHASH",
      "outputs": [
        {
          "internalType": "bytes32",
          "name": "",
          "type": "bytes32"
        }
      ],
      "stateMutability": "view",
      "type": "function"
    },
    {
      "inputs": [],
      "name": "FEATURE_BURNS_ON_BEHALF",
      "outputs": [
        {
          "internalType": "uint32",
          "name": "",
          "type": "uint32"
        }
      ],
      "stateMutability": "view",
      "type": "function"
    },
    {
      "inputs": [],
      "name": "FEATURE_DELEGATIONS",
      "outputs": [
        {
          "internalType": "uint32",
          "name": "",
          "type": "uint32"
        }
      ],
      "stateMutability": "view",
      "type": "function"
    },
    {
      "inputs": [],
      "name": "FEATURE_DELEGATIONS_ON_BEHALF",
      "outputs": [
        {
          "internalType": "uint32",
          "name": "",
          "type": "uint32"
        }
      ],
      "stateMutability": "view",
      "type": "function"
    },
    {
      "inputs": [],
      "name": "FEATURE_EIP2612_PERMITS",
      "outputs": [
        {
          "internalType": "uint32",
          "name": "",
          "type": "uint32"
        }
      ],
      "stateMutability": "view",
      "type": "function"
    },
    {
      "inputs": [],
      "name": "FEATURE_EIP3009_RECEPTIONS",
      "outputs": [
        {
          "internalType": "uint32",
          "name": "",
          "type": "uint32"
        }
      ],
      "stateMutability": "view",
      "type": "function"
    },
    {
      "inputs": [],
      "name": "FEATURE_EIP3009_TRANSFERS",
      "outputs": [
        {
          "internalType": "uint32",
          "name": "",
          "type": "uint32"
        }
      ],
      "stateMutability": "view",
      "type": "function"
    },
    {
      "inputs": [],
      "name": "FEATURE_ERC1363_APPROVALS",
      "outputs": [
        {
          "internalType": "uint32",
          "name": "",
          "type": "uint32"
        }
      ],
      "stateMutability": "view",
      "type": "function"
    },
    {
      "inputs": [],
      "name": "FEATURE_ERC1363_TRANSFERS",
      "outputs": [
        {
          "internalType": "uint32",
          "name": "",
          "type": "uint32"
        }
      ],
      "stateMutability": "view",
      "type": "function"
    },
    {
      "inputs": [],
      "name": "FEATURE_OWN_BURNS",
      "outputs": [
        {
          "internalType": "uint32",
          "name": "",
          "type": "uint32"
        }
      ],
      "stateMutability": "view",
      "type": "function"
    },
    {
      "inputs": [],
      "name": "FEATURE_TRANSFERS",
      "outputs": [
        {
          "internalType": "uint32",
          "name": "",
          "type": "uint32"
        }
      ],
      "stateMutability": "view",
      "type": "function"
    },
    {
      "inputs": [],
      "name": "FEATURE_TRANSFERS_ON_BEHALF",
      "outputs": [
        {
          "internalType": "uint32",
          "name": "",
          "type": "uint32"
        }
      ],
      "stateMutability": "view",
      "type": "function"
    },
    {
      "inputs": [],
      "name": "FEATURE_UNSAFE_TRANSFERS",
      "outputs": [
        {
          "internalType": "uint32",
          "name": "",
          "type": "uint32"
        }
      ],
      "stateMutability": "view",
      "type": "function"
    },
    {
      "inputs": [],
      "name": "PERMIT_TYPEHASH",
      "outputs": [
        {
          "internalType": "bytes32",
          "name": "",
          "type": "bytes32"
        }
      ],
      "stateMutability": "view",
      "type": "function"
    },
    {
      "inputs": [],
      "name": "RECEIVE_WITH_AUTHORIZATION_TYPEHASH",
      "outputs": [
        {
          "internalType": "bytes32",
          "name": "",
          "type": "bytes32"
        }
      ],
      "stateMutability": "view",
      "type": "function"
    },
    {
      "inputs": [],
      "name": "ROLE_ACCESS_MANAGER",
      "outputs": [
        {
          "internalType": "uint256",
          "name": "",
          "type": "uint256"
        }
      ],
      "stateMutability": "view",
      "type": "function"
    },
    {
      "inputs": [],
      "name": "ROLE_ERC20_RECEIVER",
      "outputs": [
        {
          "internalType": "uint32",
          "name": "",
          "type": "uint32"
        }
      ],
      "stateMutability": "view",
      "type": "function"
    },
    {
      "inputs": [],
      "name": "ROLE_ERC20_SENDER",
      "outputs": [
        {
          "internalType": "uint32",
          "name": "",
          "type": "uint32"
        }
      ],
      "stateMutability": "view",
      "type": "function"
    },
    {
      "inputs": [],
      "name": "ROLE_TOKEN_CREATOR",
      "outputs": [
        {
          "internalType": "uint32",
          "name": "",
          "type": "uint32"
        }
      ],
      "stateMutability": "view",
      "type": "function"
    },
    {
      "inputs": [],
      "name": "ROLE_TOKEN_DESTROYER",
      "outputs": [
        {
          "internalType": "uint32",
          "name": "",
          "type": "uint32"
        }
      ],
      "stateMutability": "view",
      "type": "function"
    },
    {
      "inputs": [],
      "name": "ROLE_UPGRADE_MANAGER",
      "outputs": [
        {
          "internalType": "uint256",
          "name": "",
          "type": "uint256"
        }
      ],
      "stateMutability": "view",
      "type": "function"
    },
    {
      "inputs": [],
      "name": "TRANSFER_WITH_AUTHORIZATION_TYPEHASH",
      "outputs": [
        {
          "internalType": "bytes32",
          "name": "",
          "type": "bytes32"
        }
      ],
      "stateMutability": "view",
      "type": "function"
    },
    {
      "inputs": [
        {
          "internalType": "address",
          "name": "owner",
          "type": "address"
        },
        {
          "internalType": "address",
          "name": "spender",
          "type": "address"
        }
      ],
      "name": "allowance",
      "outputs": [
        {
          "internalType": "uint256",
          "name": "remaining",
          "type": "uint256"
        }
      ],
      "stateMutability": "view",
      "type": "function"
    },
    {
      "inputs": [
        {
          "internalType": "address",
          "name": "spender",
          "type": "address"
        },
        {
          "internalType": "uint256",
          "name": "value",
          "type": "uint256"
        }
      ],
      "name": "approve",
      "outputs": [
        {
          "internalType": "bool",
          "name": "success",
          "type": "bool"
        }
      ],
      "stateMutability": "nonpayable",
      "type": "function"
    },
    {
      "inputs": [
        {
          "internalType": "address",
          "name": "spender",
          "type": "address"
        },
        {
          "internalType": "uint256",
          "name": "value",
          "type": "uint256"
        }
      ],
      "name": "approveAndCall",
      "outputs": [
        {
          "internalType": "bool",
          "name": "",
          "type": "bool"
        }
      ],
      "stateMutability": "nonpayable",
      "type": "function"
    },
    {
      "inputs": [
        {
          "internalType": "address",
          "name": "spender",
          "type": "address"
        },
        {
          "internalType": "uint256",
          "name": "value",
          "type": "uint256"
        },
        {
          "internalType": "bytes",
          "name": "data",
          "type": "bytes"
        }
      ],
      "name": "approveAndCall",
      "outputs": [
        {
          "internalType": "bool",
          "name": "",
          "type": "bool"
        }
      ],
      "stateMutability": "nonpayable",
      "type": "function"
    },
    {
      "inputs": [
        {
          "internalType": "address",
          "name": "authorizer",
          "type": "address"
        },
        {
          "internalType": "bytes32",
          "name": "nonce",
          "type": "bytes32"
        }
      ],
      "name": "authorizationState",
      "outputs": [
        {
          "internalType": "bool",
          "name": "",
          "type": "bool"
        }
      ],
      "stateMutability": "view",
      "type": "function"
    },
    {
      "inputs": [
        {
          "internalType": "address",
          "name": "owner",
          "type": "address"
        }
      ],
      "name": "balanceOf",
      "outputs": [
        {
          "internalType": "uint256",
          "name": "balance",
          "type": "uint256"
        }
      ],
      "stateMutability": "view",
      "type": "function"
    },
    {
      "inputs": [
        {
          "internalType": "address",
          "name": "from",
          "type": "address"
        },
        {
          "internalType": "uint256",
          "name": "value",
          "type": "uint256"
        }
      ],
      "name": "burn",
      "outputs": [
        {
          "internalType": "bool",
          "name": "success",
          "type": "bool"
        }
      ],
      "stateMutability": "nonpayable",
      "type": "function"
    },
    {
      "inputs": [
        {
          "internalType": "address",
          "name": "authorizer",
          "type": "address"
        },
        {
          "internalType": "bytes32",
          "name": "nonce",
          "type": "bytes32"
        },
        {
          "internalType": "uint8",
          "name": "v",
          "type": "uint8"
        },
        {
          "internalType": "bytes32",
          "name": "r",
          "type": "bytes32"
        },
        {
          "internalType": "bytes32",
          "name": "s",
          "type": "bytes32"
        }
      ],
      "name": "cancelAuthorization",
      "outputs": [],
      "stateMutability": "nonpayable",
      "type": "function"
    },
    {
      "inputs": [],
      "name": "decimals",
      "outputs": [
        {
          "internalType": "uint8",
          "name": "",
          "type": "uint8"
        }
      ],
      "stateMutability": "view",
      "type": "function"
    },
    {
      "inputs": [
        {
          "internalType": "address",
          "name": "spender",
          "type": "address"
        },
        {
          "internalType": "uint256",
          "name": "value",
          "type": "uint256"
        }
      ],
      "name": "decreaseAllowance",
      "outputs": [
        {
          "internalType": "bool",
          "name": "",
          "type": "bool"
        }
      ],
      "stateMutability": "nonpayable",
      "type": "function"
    },
    {
      "inputs": [
        {
          "internalType": "address",
          "name": "to",
          "type": "address"
        }
      ],
      "name": "delegate",
      "outputs": [],
      "stateMutability": "nonpayable",
      "type": "function"
    },
    {
      "inputs": [
        {
          "internalType": "address",
          "name": "to",
          "type": "address"
        },
        {
          "internalType": "bytes32",
          "name": "nonce",
          "type": "bytes32"
        },
        {
          "internalType": "uint256",
          "name": "exp",
          "type": "uint256"
        },
        {
          "internalType": "uint8",
          "name": "v",
          "type": "uint8"
        },
        {
          "internalType": "bytes32",
          "name": "r",
          "type": "bytes32"
        },
        {
          "internalType": "bytes32",
          "name": "s",
          "type": "bytes32"
        }
      ],
      "name": "delegateWithAuthorization",
      "outputs": [],
      "stateMutability": "nonpayable",
      "type": "function"
    },
    {
      "inputs": [],
      "name": "entireSupplyHistory",
      "outputs": [
        {
          "components": [
            {
              "internalType": "uint64",
              "name": "k",
              "type": "uint64"
            },
            {
              "internalType": "uint192",
              "name": "v",
              "type": "uint192"
            }
          ],
          "internalType": "struct AdvancedERC20.KV[]",
          "name": "",
          "type": "tuple[]"
        }
      ],
      "stateMutability": "view",
      "type": "function"
    },
    {
      "inputs": [],
      "name": "features",
      "outputs": [
        {
          "internalType": "uint256",
          "name": "",
          "type": "uint256"
        }
      ],
      "stateMutability": "view",
      "type": "function"
    },
    {
      "inputs": [],
      "name": "getInitializedVersion",
      "outputs": [
        {
          "internalType": "uint64",
          "name": "",
          "type": "uint64"
        }
      ],
      "stateMutability": "view",
      "type": "function"
    },
    {
      "inputs": [
        {
          "internalType": "address",
          "name": "operator",
          "type": "address"
        }
      ],
      "name": "getRole",
      "outputs": [
        {
          "internalType": "uint256",
          "name": "",
          "type": "uint256"
        }
      ],
      "stateMutability": "view",
      "type": "function"
    },
    {
      "inputs": [
        {
          "internalType": "address",
          "name": "spender",
          "type": "address"
        },
        {
          "internalType": "uint256",
          "name": "value",
          "type": "uint256"
        }
      ],
      "name": "increaseAllowance",
      "outputs": [
        {
          "internalType": "bool",
          "name": "",
          "type": "bool"
        }
      ],
      "stateMutability": "nonpayable",
      "type": "function"
    },
    {
      "inputs": [
        {
          "internalType": "uint256",
          "name": "required",
          "type": "uint256"
        }
      ],
      "name": "isFeatureEnabled",
      "outputs": [
        {
          "internalType": "bool",
          "name": "",
          "type": "bool"
        }
      ],
      "stateMutability": "view",
      "type": "function"
    },
    {
      "inputs": [
        {
          "internalType": "address",
          "name": "operator",
          "type": "address"
        },
        {
          "internalType": "uint256",
          "name": "required",
          "type": "uint256"
        }
      ],
      "name": "isOperatorInRole",
      "outputs": [
        {
          "internalType": "bool",
          "name": "",
          "type": "bool"
        }
      ],
      "stateMutability": "view",
      "type": "function"
    },
    {
      "inputs": [
        {
          "internalType": "uint256",
          "name": "required",
          "type": "uint256"
        }
      ],
      "name": "isSenderInRole",
      "outputs": [
        {
          "internalType": "bool",
          "name": "",
          "type": "bool"
        }
      ],
      "stateMutability": "view",
      "type": "function"
    },
    {
      "inputs": [
        {
          "internalType": "address",
          "name": "to",
          "type": "address"
        },
        {
          "internalType": "uint256",
          "name": "value",
          "type": "uint256"
        }
      ],
      "name": "mint",
      "outputs": [
        {
          "internalType": "bool",
          "name": "success",
          "type": "bool"
        }
      ],
      "stateMutability": "nonpayable",
      "type": "function"
    },
    {
      "inputs": [
        {
          "internalType": "address",
          "name": "to",
          "type": "address"
        },
        {
          "internalType": "uint256",
          "name": "value",
          "type": "uint256"
        },
        {
          "internalType": "bytes",
          "name": "data",
          "type": "bytes"
        }
      ],
      "name": "mintAndCall",
      "outputs": [
        {
          "internalType": "bool",
          "name": "success",
          "type": "bool"
        }
      ],
      "stateMutability": "nonpayable",
      "type": "function"
    },
    {
      "inputs": [
        {
          "internalType": "address",
          "name": "to",
          "type": "address"
        },
        {
          "internalType": "uint256",
          "name": "value",
          "type": "uint256"
        }
      ],
      "name": "mintAndCall",
      "outputs": [
        {
          "internalType": "bool",
          "name": "success",
          "type": "bool"
        }
      ],
      "stateMutability": "nonpayable",
      "type": "function"
    },
    {
      "inputs": [],
      "name": "name",
      "outputs": [
        {
          "internalType": "string",
          "name": "",
          "type": "string"
        }
      ],
      "stateMutability": "view",
      "type": "function"
    },
    {
      "inputs": [
        {
          "internalType": "address",
          "name": "",
          "type": "address"
        }
      ],
      "name": "nonces",
      "outputs": [
        {
          "internalType": "uint256",
          "name": "",
          "type": "uint256"
        }
      ],
      "stateMutability": "view",
      "type": "function"
    },
    {
      "inputs": [
        {
          "internalType": "address",
          "name": "owner",
          "type": "address"
        },
        {
          "internalType": "address",
          "name": "spender",
          "type": "address"
        },
        {
          "internalType": "uint256",
          "name": "value",
          "type": "uint256"
        },
        {
          "internalType": "uint256",
          "name": "exp",
          "type": "uint256"
        },
        {
          "internalType": "uint8",
          "name": "v",
          "type": "uint8"
        },
        {
          "internalType": "bytes32",
          "name": "r",
          "type": "bytes32"
        },
        {
          "internalType": "bytes32",
          "name": "s",
          "type": "bytes32"
        }
      ],
      "name": "permit",
      "outputs": [],
      "stateMutability": "nonpayable",
      "type": "function"
    },
    {
      "inputs": [
        {
          "internalType": "address",
          "name": "contractOwner",
          "type": "address"
        },
        {
          "internalType": "string",
          "name": "_name",
          "type": "string"
        },
        {
          "internalType": "string",
          "name": "_symbol",
          "type": "string"
        },
        {
          "internalType": "address",
          "name": "initialHolder",
          "type": "address"
        },
        {
          "internalType": "uint256",
          "name": "initialSupply",
          "type": "uint256"
        },
        {
          "internalType": "uint256",
          "name": "initialFeatures",
          "type": "uint256"
        }
      ],
      "name": "postConstruct",
      "outputs": [],
      "stateMutability": "nonpayable",
      "type": "function"
    },
    {
      "inputs": [
        {
          "internalType": "address",
          "name": "from",
          "type": "address"
        },
        {
          "internalType": "address",
          "name": "to",
          "type": "address"
        },
        {
          "internalType": "uint256",
          "name": "value",
          "type": "uint256"
        },
        {
          "internalType": "uint256",
          "name": "validAfter",
          "type": "uint256"
        },
        {
          "internalType": "uint256",
          "name": "validBefore",
          "type": "uint256"
        },
        {
          "internalType": "bytes32",
          "name": "nonce",
          "type": "bytes32"
        },
        {
          "internalType": "uint8",
          "name": "v",
          "type": "uint8"
        },
        {
          "internalType": "bytes32",
          "name": "r",
          "type": "bytes32"
        },
        {
          "internalType": "bytes32",
          "name": "s",
          "type": "bytes32"
        }
      ],
      "name": "receiveWithAuthorization",
      "outputs": [],
      "stateMutability": "nonpayable",
      "type": "function"
    },
    {
      "inputs": [
        {
          "internalType": "address",
          "name": "from",
          "type": "address"
        },
        {
          "internalType": "address",
          "name": "to",
          "type": "address"
        },
        {
          "internalType": "uint256",
          "name": "value",
          "type": "uint256"
        },
        {
          "internalType": "bytes",
          "name": "data",
          "type": "bytes"
        }
      ],
      "name": "safeTransferFrom",
      "outputs": [
        {
          "internalType": "bool",
          "name": "",
          "type": "bool"
        }
      ],
      "stateMutability": "nonpayable",
      "type": "function"
    },
    {
      "inputs": [
        {
          "internalType": "bytes4",
          "name": "interfaceId",
          "type": "bytes4"
        }
      ],
      "name": "supportsInterface",
      "outputs": [
        {
          "internalType": "bool",
          "name": "",
          "type": "bool"
        }
      ],
      "stateMutability": "pure",
      "type": "function"
    },
    {
      "inputs": [],
      "name": "symbol",
      "outputs": [
        {
          "internalType": "string",
          "name": "",
          "type": "string"
        }
      ],
      "stateMutability": "view",
      "type": "function"
    },
    {
      "inputs": [],
      "name": "totalSupply",
      "outputs": [
        {
          "internalType": "uint256",
          "name": "",
          "type": "uint256"
        }
      ],
      "stateMutability": "view",
      "type": "function"
    },
    {
      "inputs": [
        {
          "internalType": "uint256",
          "name": "blockNum",
          "type": "uint256"
        }
      ],
      "name": "totalSupplyAt",
      "outputs": [
        {
          "internalType": "uint256",
          "name": "",
          "type": "uint256"
        }
      ],
      "stateMutability": "view",
      "type": "function"
    },
    {
      "inputs": [
        {
          "internalType": "uint256",
          "name": "",
          "type": "uint256"
        }
      ],
      "name": "totalSupplyHistory",
      "outputs": [
        {
          "internalType": "uint64",
          "name": "k",
          "type": "uint64"
        },
        {
          "internalType": "uint192",
          "name": "v",
          "type": "uint192"
        }
      ],
      "stateMutability": "view",
      "type": "function"
    },
    {
      "inputs": [],
      "name": "totalSupplyHistoryLength",
      "outputs": [
        {
          "internalType": "uint256",
          "name": "",
          "type": "uint256"
        }
      ],
      "stateMutability": "view",
      "type": "function"
    },
    {
      "inputs": [
        {
          "internalType": "address",
          "name": "to",
          "type": "address"
        },
        {
          "internalType": "uint256",
          "name": "value",
          "type": "uint256"
        }
      ],
      "name": "transfer",
      "outputs": [
        {
          "internalType": "bool",
          "name": "success",
          "type": "bool"
        }
      ],
      "stateMutability": "nonpayable",
      "type": "function"
    },
    {
      "inputs": [
        {
          "internalType": "address",
          "name": "to",
          "type": "address"
        },
        {
          "internalType": "uint256",
          "name": "value",
          "type": "uint256"
        }
      ],
      "name": "transferAndCall",
      "outputs": [
        {
          "internalType": "bool",
          "name": "",
          "type": "bool"
        }
      ],
      "stateMutability": "nonpayable",
      "type": "function"
    },
    {
      "inputs": [
        {
          "internalType": "address",
          "name": "to",
          "type": "address"
        },
        {
          "internalType": "uint256",
          "name": "value",
          "type": "uint256"
        },
        {
          "internalType": "bytes",
          "name": "data",
          "type": "bytes"
        }
      ],
      "name": "transferAndCall",
      "outputs": [
        {
          "internalType": "bool",
          "name": "",
          "type": "bool"
        }
      ],
      "stateMutability": "nonpayable",
      "type": "function"
    },
    {
      "inputs": [
        {
          "internalType": "address",
          "name": "from",
          "type": "address"
        },
        {
          "internalType": "address",
          "name": "to",
          "type": "address"
        },
        {
          "internalType": "uint256",
          "name": "value",
          "type": "uint256"
        }
      ],
      "name": "transferFrom",
      "outputs": [
        {
          "internalType": "bool",
          "name": "success",
          "type": "bool"
        }
      ],
      "stateMutability": "nonpayable",
      "type": "function"
    },
    {
      "inputs": [
        {
          "internalType": "address",
          "name": "from",
          "type": "address"
        },
        {
          "internalType": "address",
          "name": "to",
          "type": "address"
        },
        {
          "internalType": "uint256",
          "name": "value",
          "type": "uint256"
        },
        {
          "internalType": "bytes",
          "name": "data",
          "type": "bytes"
        }
      ],
      "name": "transferFromAndCall",
      "outputs": [
        {
          "internalType": "bool",
          "name": "",
          "type": "bool"
        }
      ],
      "stateMutability": "nonpayable",
      "type": "function"
    },
    {
      "inputs": [
        {
          "internalType": "address",
          "name": "from",
          "type": "address"
        },
        {
          "internalType": "address",
          "name": "to",
          "type": "address"
        },
        {
          "internalType": "uint256",
          "name": "value",
          "type": "uint256"
        }
      ],
      "name": "transferFromAndCall",
      "outputs": [
        {
          "internalType": "bool",
          "name": "",
          "type": "bool"
        }
      ],
      "stateMutability": "nonpayable",
      "type": "function"
    },
    {
      "inputs": [
        {
          "internalType": "address",
          "name": "from",
          "type": "address"
        },
        {
          "internalType": "address",
          "name": "to",
          "type": "address"
        },
        {
          "internalType": "uint256",
          "name": "value",
          "type": "uint256"
        },
        {
          "internalType": "uint256",
          "name": "validAfter",
          "type": "uint256"
        },
        {
          "internalType": "uint256",
          "name": "validBefore",
          "type": "uint256"
        },
        {
          "internalType": "bytes32",
          "name": "nonce",
          "type": "bytes32"
        },
        {
          "internalType": "uint8",
          "name": "v",
          "type": "uint8"
        },
        {
          "internalType": "bytes32",
          "name": "r",
          "type": "bytes32"
        },
        {
          "internalType": "bytes32",
          "name": "s",
          "type": "bytes32"
        }
      ],
      "name": "transferWithAuthorization",
      "outputs": [],
      "stateMutability": "nonpayable",
      "type": "function"
    },
    {
      "inputs": [
        {
          "internalType": "address",
          "name": "from",
          "type": "address"
        },
        {
          "internalType": "address",
          "name": "to",
          "type": "address"
        },
        {
          "internalType": "uint256",
          "name": "value",
          "type": "uint256"
        }
      ],
      "name": "unsafeTransferFrom",
      "outputs": [],
      "stateMutability": "nonpayable",
      "type": "function"
    },
    {
      "inputs": [
        {
          "internalType": "uint256",
          "name": "_mask",
          "type": "uint256"
        }
      ],
      "name": "updateFeatures",
      "outputs": [],
      "stateMutability": "nonpayable",
      "type": "function"
    },
    {
      "inputs": [
        {
          "internalType": "address",
          "name": "operator",
          "type": "address"
        },
        {
          "internalType": "uint256",
          "name": "role",
          "type": "uint256"
        }
      ],
      "name": "updateRole",
      "outputs": [],
      "stateMutability": "nonpayable",
      "type": "function"
    },
    {
      "inputs": [
        {
          "internalType": "address",
          "name": "",
          "type": "address"
        }
      ],
      "name": "votingDelegates",
      "outputs": [
        {
          "internalType": "address",
          "name": "",
          "type": "address"
        }
      ],
      "stateMutability": "view",
      "type": "function"
    },
    {
      "inputs": [
        {
          "internalType": "address",
          "name": "holder",
          "type": "address"
        },
        {
          "internalType": "uint256",
          "name": "blockNum",
          "type": "uint256"
        }
      ],
      "name": "votingPowerAt",
      "outputs": [
        {
          "internalType": "uint256",
          "name": "",
          "type": "uint256"
        }
      ],
      "stateMutability": "view",
      "type": "function"
    },
    {
      "inputs": [
        {
          "internalType": "address",
          "name": "",
          "type": "address"
        },
        {
          "internalType": "uint256",
          "name": "",
          "type": "uint256"
        }
      ],
      "name": "votingPowerHistory",
      "outputs": [
        {
          "internalType": "uint64",
          "name": "k",
          "type": "uint64"
        },
        {
          "internalType": "uint192",
          "name": "v",
          "type": "uint192"
        }
      ],
      "stateMutability": "view",
      "type": "function"
    },
    {
      "inputs": [
        {
          "internalType": "address",
          "name": "holder",
          "type": "address"
        }
      ],
      "name": "votingPowerHistoryLength",
      "outputs": [
        {
          "internalType": "uint256",
          "name": "",
          "type": "uint256"
        }
      ],
      "stateMutability": "view",
      "type": "function"
    },
    {
      "inputs": [
        {
          "internalType": "address",
          "name": "holder",
          "type": "address"
        }
      ],
      "name": "votingPowerHistoryOf",
      "outputs": [
        {
          "components": [
            {
              "internalType": "uint64",
              "name": "k",
              "type": "uint64"
            },
            {
              "internalType": "uint192",
              "name": "v",
              "type": "uint192"
            }
          ],
          "internalType": "struct AdvancedERC20.KV[]",
          "name": "",
          "type": "tuple[]"
        }
      ],
      "stateMutability": "view",
      "type": "function"
    },
    {
      "inputs": [
        {
          "internalType": "address",
          "name": "holder",
          "type": "address"
        }
      ],
      "name": "votingPowerOf",
      "outputs": [
        {
          "internalType": "uint256",
          "name": "",
          "type": "uint256"
        }
      ],
      "stateMutability": "view",
      "type": "function"
    }
  ],
  "bytecode": "0x60806040523480156200001157600080fd5b5060405162004b9338038062004b93833981016040819052620000349162000bd2565b600054610100900460ff1615808015620000555750600054600160ff909116105b8062000085575062000072306200015460201b620021031760201c565b15801562000085575060005460ff166001145b620000dd5760405162461bcd60e51b815260206004820152602e602482015260008051602062004b3383398151915260448201526d191e481a5b9a5d1a585b1a5e995960921b60648201526084015b60405180910390fd5b6000805460ff19166001179055801562000101576000805461ff0019166101001790555b801562000137576000805461ff00191690556040516001815260008051602062004b538339815191529060200160405180910390a15b506200014886868686868662000163565b50505050505062000d0f565b6001600160a01b03163b151590565b600054610100900460ff1615808015620001845750600054600160ff909116105b80620001b45750620001a1306200015460201b620021031760201c565b158015620001b4575060005460ff166001145b620002085760405162461bcd60e51b815260206004820152602e602482015260008051602062004b3383398151915260448201526d191e481a5b9a5d1a585b1a5e995960921b6064820152608401620000d4565b6000805460ff1916600117905580156200022c576000805461ff0019166101001790555b60008651116200027f5760405162461bcd60e51b815260206004820152601560248201527f746f6b656e206e616d65206973206e6f742073657400000000000000000000006044820152606401620000d4565b6000855111620002d25760405162461bcd60e51b815260206004820152601760248201527f746f6b656e2073796d626f6c206973206e6f74207365740000000000000000006044820152606401620000d4565b8551620002e790603390602089019062000a5c565b508451620002fd90603490602088019062000a5c565b508215806200031457506001600160a01b03841615155b620003705760405162461bcd60e51b815260206004820152602560248201527f5f696e697469616c486f6c646572206e6f742073657420287a65726f20616464604482015264726573732960d81b6064820152608401620000d4565b82156200038357620003838484620003eb565b6001600160a01b0387161515806200039a57508115155b15620003ac57620003ac878362000650565b8015620003e2576000805461ff00191690556040516001815260008051602062004b538339815191529060200160405180910390a15b50505050505050565b6001600160a01b038216620004325760405162461bcd60e51b815260206004820152600c60248201526b7a65726f206164647265737360a01b6044820152606401620000d4565b60355481810111620004915760405162461bcd60e51b815260206004820152602160248201527f7a65726f2076616c7565206f722061726974686d65746963206f766572666c6f6044820152607760f81b6064820152608401620000d4565b6035546001600160c01b0390620004aa90839062000c71565b1115620004fa5760405162461bcd60e51b815260206004820152601f60248201527f746f74616c20737570706c79206f766572666c6f77202875696e7431393229006044820152606401620000d4565b80603560008282546200050e919062000c71565b90915550506001600160a01b038216600090815260366020526040812080548392906200053d90849062000c71565b909155506200055c9050603962002112620006dd60201b1783620006f2565b50506001600160a01b038083166000908152603760205260408120546200058892339291168462000899565b6040518181526001600160a01b0383169033907f9d228d69b5fdb8d273a2336f8fb8612d039631024ea9bf09c424a9503aa078f09060200160405180910390a36040518181526001600160a01b0383169060009033907fd1398bee19313d6bf672ccb116e51f4a1a947e91c757907f51fbb5b5e56c698f9060200160405180910390a46040518181526001600160a01b038316906000907fddf252ad1be2c89b69c2b068fc378daa952ba7f163c4a11628f55a4df523b3ef9060200160405180910390a35050565b600054610100900460ff16620006bd5760405162461bcd60e51b815260206004820152602b60248201527f496e697469616c697a61626c653a20636f6e7472616374206973206e6f74206960448201526a6e697469616c697a696e6760a81b6064820152608401620000d4565b620006cc8260001980620009f4565b620006d9308280620009f4565b5050565b6000620006eb828462000c71565b9392505050565b8254600090819015620007575784548590620007119060019062000c8c565b815481106200073057634e487b7160e01b600052603260045260246000fd5b6000918252602090912001546801000000000000000090046001600160c01b03166200075a565b60005b6001600160c01b031691506200077182848660201c565b855490915015801590620007ca5750845443908690620007949060019062000c8c565b81548110620007b357634e487b7160e01b600052603260045260246000fd5b6000918252602090912001546001600160401b0316145b156200083a57845481908690620007e49060019062000c8c565b815481106200080357634e487b7160e01b600052603260045260246000fd5b9060005260206000200160000160086101000a8154816001600160c01b0302191690836001600160c01b0316021790555062000891565b604080518082019091526001600160401b0343811682526001600160c01b0380841660208085019182528954600181018b5560008b8152919091209451915190921668010000000000000000029216919091179101555b935093915050565b816001600160a01b0316836001600160a01b03161480620008b8575080155b15620008c457620009ee565b6001600160a01b0383161562000959576001600160a01b03831660009081526038602090815260408220919081906200090b90849062000a4e901b6200211e1786620006f2565b91509150856001600160a01b0316876001600160a01b031660008051602062004b7383398151915284846040516200094d929190918252602082015260400190565b60405180910390a35050505b6001600160a01b03821615620009ee576001600160a01b0382166000908152603860209081526040822091908190620009a0908490620006dd901b620021121786620006f2565b91509150846001600160a01b0316876001600160a01b031660008051602062004b738339815191528484604051620009e2929190918252602082015260400190565b60405180910390a35050505b50505050565b6001600160a01b03831660008181526001602090815260409182902084905581518581529081018490527fe9be537308880e0f56b7d7cfd7abf85f14c4934486d138f848b92a0cbaf659b4910160405180910390a2505050565b6000620006eb828462000c8c565b82805462000a6a9062000ca6565b90600052602060002090601f01602090048101928262000a8e576000855562000ad9565b82601f1062000aa957805160ff191683800117855562000ad9565b8280016001018555821562000ad9579182015b8281111562000ad957825182559160200191906001019062000abc565b5062000ae792915062000aeb565b5090565b5b8082111562000ae7576000815560010162000aec565b80516001600160a01b038116811462000b1a57600080fd5b919050565b600082601f83011262000b30578081fd5b81516001600160401b038082111562000b4d5762000b4d62000cf9565b604051601f8301601f19908116603f0116810190828211818310171562000b785762000b7862000cf9565b8160405283815260209250868385880101111562000b94578485fd5b8491505b8382101562000bb7578582018301518183018401529082019062000b98565b8382111562000bc857848385830101525b9695505050505050565b60008060008060008060c0878903121562000beb578182fd5b62000bf68762000b02565b60208801519096506001600160401b038082111562000c13578384fd5b62000c218a838b0162000b1f565b9650604089015191508082111562000c37578384fd5b5062000c4689828a0162000b1f565b94505062000c576060880162000b02565b92506080870151915060a087015190509295509295509295565b6000821982111562000c875762000c8762000ce3565b500190565b60008282101562000ca15762000ca162000ce3565b500390565b600181811c9082168062000cbb57607f821691505b6020821081141562000cdd57634e487b7160e01b600052602260045260246000fd5b50919050565b634e487b7160e01b600052601160045260246000fd5b634e487b7160e01b600052604160045260246000fd5b613e148062000d1f6000396000f3fe608060405234801561001057600080fd5b50600436106104545760003560e01c806387793f3e11610241578063c0d6568d1161013b578063dd62ed3e116100c3578063e98f5ba711610087578063e98f5ba714610a84578063ef55bec614610a8e578063f63c2f8214610aa1578063f9cf927114610aa9578063fcc2c07814610abc57600080fd5b8063dd62ed3e146109ce578063e3ee160e14610a07578063e62cac7614610a1a578063e7a324dc14610a24578063e94a010214610a4b57600080fd5b8063cae9ca511161010a578063cae9ca511461095b578063d505accf1461096e578063d5bb7f6714610981578063d8fbe99414610994578063d9169487146109a757600080fd5b8063c0d6568d14610923578063c1d34b891461092b578063c5ff500c1461093e578063c688d6931461094857600080fd5b8063a0cc6a68116101c9578063ae682e2e1161018d578063ae682e2e146108d5578063b3c65015146108e0578063b66dbdc5146108f5578063b88d4fde146108fd578063bcc3f3bd1461091057600080fd5b8063a0cc6a681461086a578063a457c2d714610891578063a9059cbb146108a4578063ae5b102e146108b7578063ae60bda4146108ca57600080fd5b806395d89b411161021057806395d89b411461081657806397ba46111461081e578063981b24d01461083157806398de4ba3146108445780639dc29fac1461085757600080fd5b806387793f3e146107c85780638d4e57e6146107f15780638f6fba8c146107fb57806394f4f9301461080357600080fd5b80633e9c5f7e116103525780635e2dc2b7116102da578063725f36261161029e578063725f3626146107485780637815ef0c1461075b5780637ecebe001461076e5780637f2eecc31461078e5780637fd491b0146107b557600080fd5b80635e2dc2b7146106be57806364cb8b96146106c7578063653de620146106dc5780636641d9a0146106e557806370a082311461071f57600080fd5b80634721272d116103215780634721272d1461066757806350c29e371461067057806359b961ef146106855780635a049a70146106985780635c19a95c146106ab57600080fd5b80633e9c5f7e146106105780634000aea01461061857806340c10f191461062b578063442767331461063e57600080fd5b80631e0fa234116103e057806330adf81f116103a457806330adf81f146105a1578063313ce567146105c85780633177029f146105e25780633644e515146105f557806339509351146105fd57600080fd5b80631e0fa2341461050957806320606b701461054a57806323b872dd146105715780632b521416146105845780632d4c39ea1461059957600080fd5b8063136d035f11610427578063136d035f146104bc57806313873a24146104da57806318160ddd146104e25780631993f554146104f95780631a0b04ea1461050157600080fd5b806301ffc9a71461045957806306fdde0314610481578063095ea7b3146104965780631296ee62146104a9575b600080fd5b61046c610467366004613a8b565b610acf565b60405190151581526020015b60405180910390f35b610489610b57565b6040516104789190613c27565b61046c6104a43660046138f1565b610be5565b61046c6104b73660046138f1565b610bfb565b6104c561080081565b60405163ffffffff9091168152602001610478565b6104c5608081565b6104eb60355481565b604051908152602001610478565b6104c5600481565b6104c5600881565b61053261051736600461371f565b6037602052600090815260409020546001600160a01b031681565b6040516001600160a01b039091168152602001610478565b6104eb7f8cad95687ba82c2ce50e74f7b754645e5117c3a5bec8151c0726d5857980a86681565b61046c61057f36600461376b565b610c0f565b306000908152600160205260409020546104eb565b6104c5604081565b6104eb7f6e71edae12b1b97f4d1f60370fef10105fa2faae0126114a169c64845d6126c981565b6105d0601281565b60405160ff9091168152602001610478565b61046c6105f03660046138f1565b610c7c565b6104eb610c98565b61046c61060b3660046138f1565b610d34565b6104c5602081565b61046c610626366004613a37565b610de0565b61046c6106393660046138f1565b610dee565b6104eb61064c36600461371f565b6001600160a01b031660009081526001602052604090205490565b6104c561020081565b61068361067e3660046139be565b610e22565b005b61068361069336600461376b565b611097565b6106836106a6366004613971565b6110a8565b6106836106b936600461371f565b611153565b6104c561040081565b6106cf6111b6565b6040516104789190613b8a565b6104c561010081565b6106f86106f3366004613ac3565b611232565b604080516001600160401b0390931683526001600160c01b03909116602083015201610478565b6104eb61072d36600461371f565b6001600160a01b031660009081526036602052604090205490565b61046c610756366004613ac3565b61126d565b6106cf61076936600461371f565b611289565b6104eb61077c36600461371f565b603a6020526000908152604090205481565b6104eb7fd099cc98ef71107a616c4f0f941f04c322d8e254fe26b3c6668db87aae413de881565b6106f86107c33660046138f1565b61131b565b6104eb6107d636600461371f565b6001600160a01b031660009081526038602052604090205490565b6104c56201000081565b6104c5600281565b6104eb6108113660046138f1565b611364565b6104896113cd565b61046c61082c366004613a37565b6113da565b6104eb61083f366004613ac3565b6113f6565b61046c6108523660046138f1565b611448565b61046c6108653660046138f1565b611464565b6104eb7f7c7c6cdb67a18743f49ec6fa9b35f50d52ed05cbed4cc592e13b44501c1a226781565b61046c61089f3660046138f1565b6118bb565b61046c6108b23660046138f1565b611998565b6106836108c53660046138f1565b6119a5565b6104eb600160fe1b81565b6104eb600160ff1b81565b60005460405160ff9091168152602001610478565b6039546104eb565b61046c61090b3660046137a6565b611a2e565b6104eb61091e36600461371f565b611a54565b6104c5600181565b61046c6109393660046137a6565b611ad5565b6104c56204000081565b61046c6109563660046138f1565b611b46565b61046c610969366004613a37565b611b68565b61068361097c366004613888565b611bd7565b61068361098f366004613ac3565b611d26565b61046c6109a236600461376b565b611d30565b6104eb7f158b0a9edf7a828aad02f63cd515c68ef2f50ba807396f6d12842833a159742981565b6104eb6109dc366004613739565b6001600160a01b039182166000908152603c6020908152604080832093909416825291909152205490565b610683610a1536600461380b565b611d4d565b6104c56202000081565b6104eb7fff41620983935eb4d4a3c7384a066ca8c1d10cef9a5eca9eb97ca735cd14a75581565b61046c610a593660046138f1565b6001600160a01b03919091166000908152603b60209081526040808320938352929052205460ff1690565b6104c56208000081565b610683610a9c36600461380b565b611ea8565b6104c5601081565b610683610ab736600461391a565b612007565b61046c610aca366004613ac3565b6120f7565b60006001600160e01b031982166301ffc9a760e01b1480610b0057506001600160e01b031982166336372b0760e01b145b80610b1b57506001600160e01b0319821663b0202a1160e01b145b80610b3657506001600160e01b03198216634ec7fbed60e11b145b80610b5157506001600160e01b03198216635ffa99dd60e11b145b92915050565b60338054610b6490613d06565b80601f0160208091040260200160405190810160405280929190818152602001828054610b9090613d06565b8015610bdd5780601f10610bb257610100808354040283529160200191610bdd565b820191906000526020600020905b815481529060010190602001808311610bc057829003601f168201915b505050505081565b6000610bf233848461212a565b50600192915050565b6000610c08338484611d30565b9392505050565b6000610c1b600461126d565b80610c2e5750610c2e8362040000611b46565b80610c405750610c40620800006120f7565b15610c5557610c50848484611097565b610c72565b610c7084848460405180602001604052806000815250611a2e565b505b5060019392505050565b6000610c08838360405180602001604052806000815250611b68565b604080518082018252600f81526e416476616e6365644552433230763160881b60209182015281517f8cad95687ba82c2ce50e74f7b754645e5117c3a5bec8151c0726d5857980a866818301527f65218aa0cdc6725da873801e9daf9d54f230d8a515289f76c8bd31dd8648c50d81840152466060820152306080808301919091528351808303909101815260a0909101909252815191012090565b336000908152603c602090815260408083206001600160a01b03861684529091528120548281018110610dca5760405162461bcd60e51b815260206004820152603360248201527f7a65726f2076616c756520617070726f76616c20696e637265617365206f722060448201527261726974686d65746963206f766572666c6f7760681b60648201526084015b60405180910390fd5b610dd8846104a48584613cb7565b949350505050565b6000610dd833858585611ad5565b6000610dfc620100006120f7565b610e185760405162461bcd60e51b8152600401610dc190613c65565b610bf2838361223b565b600054610100900460ff1615808015610e425750600054600160ff909116105b80610e5c5750303b158015610e5c575060005460ff166001145b610ebf5760405162461bcd60e51b815260206004820152602e60248201527f496e697469616c697a61626c653a20636f6e747261637420697320616c72656160448201526d191e481a5b9a5d1a585b1a5e995960921b6064820152608401610dc1565b6000805460ff191660011790558015610ee2576000805461ff0019166101001790555b6000865111610f2b5760405162461bcd60e51b81526020600482015260156024820152741d1bdad95b881b985b59481a5cc81b9bdd081cd95d605a1b6044820152606401610dc1565b6000855111610f7c5760405162461bcd60e51b815260206004820152601760248201527f746f6b656e2073796d626f6c206973206e6f74207365740000000000000000006044820152606401610dc1565b8551610f8f9060339060208901906135d3565b508451610fa39060349060208801906135d3565b50821580610fb957506001600160a01b03841615155b6110135760405162461bcd60e51b815260206004820152602560248201527f5f696e697469616c486f6c646572206e6f742073657420287a65726f20616464604482015264726573732960d81b6064820152608401610dc1565b821561102357611023848461223b565b6001600160a01b03871615158061103957508115155b15611048576110488783612463565b801561108e576000805461ff0019169055604051600181527f7f26b83ff96e1f2b6a682f133852f6798a09c465da95921460cefb38474024989060200160405180910390a15b50505050505050565b6110a3338484846124e6565b505050565b604080517f158b0a9edf7a828aad02f63cd515c68ef2f50ba807396f6d12842833a159742960208201526001600160a01b038716918101919091526060810185905260009061110c906080015b604051602081830303815290604052858585612a72565b9050856001600160a01b0316816001600160a01b03161461113f5760405162461bcd60e51b8152600401610dc190613c3a565b61114b86866001612ad7565b505050505050565b61115d602061126d565b6111a95760405162461bcd60e51b815260206004820152601860248201527f64656c65676174696f6e73206172652064697361626c656400000000000000006044820152606401610dc1565b6111b33382612be5565b50565b60606039805480602002602001604051908101604052809291908181526020016000905b8282101561122957600084815260209081902060408051808201909152908401546001600160401b0381168252600160401b90046001600160c01b0316818301528252600190920191016111da565b50505050905090565b6039818154811061124257600080fd5b6000918252602090912001546001600160401b0381169150600160401b90046001600160c01b031682565b30600090815260016020526040812054610b51905b8316831490565b6001600160a01b0381166000908152603860209081526040808320805482518185028101850190935280835260609492939192909184015b8282101561131057600084815260209081902060408051808201909152908401546001600160401b0381168252600160401b90046001600160c01b0316818301528252600190920191016112c1565b505050509050919050565b6038602052816000526040600020818154811061133757600080fd5b6000918252602090912001546001600160401b0381169250600160401b90046001600160c01b0316905082565b60004382106113ab5760405162461bcd60e51b8152602060048201526013602482015272189b1bd8dac81b9bdd081e595d081b5a5b9959606a1b6044820152606401610dc1565b6001600160a01b0383166000908152603860205260409020610c089083612c81565b60348054610b6490613d06565b60006113e68484610dee565b50610c7260008585856000612ea8565b600043821061143d5760405162461bcd60e51b8152602060048201526013602482015272189b1bd8dac81b9bdd081e595d081b5a5b9959606a1b6044820152606401610dc1565b610b51603983612c81565b6000610c088383604051806020016040528060008152506113da565b6000611472620200006120f7565b611695576001600160a01b038316331480156114935750611493600861126d565b806114b757506001600160a01b03831633148015906114b757506114b7601061126d565b6001600160a01b0384163314611502576040518060400160405280601c81526020017f6275726e73206f6e20626568616c66206172652064697361626c65640000000081525061152e565b60405180604001604052806012815260200171189d5c9b9cc8185c9948191a5cd8589b195960721b8152505b9061154c5760405162461bcd60e51b8152600401610dc19190613c27565b506001600160a01b0383163314611695576001600160a01b0383166000908152603c60209081526040808320338452909152902054828110156115d15760405162461bcd60e51b815260206004820152601d60248201527f6275726e20616d6f756e74206578636565647320616c6c6f77616e63650000006044820152606401610dc1565b600019811015611693576115e58382613cef565b6001600160a01b0385166000818152603c60209081526040808320338085529252909120839055919250907fb3fd5071835887567a0671151121894ddccc2842f1d10bedad13e0d17cace9a761163b8685613cb7565b60408051918252602082018690520160405180910390a360405181815233906001600160a01b038616907f8c5be1e5ebec7d5bd14f71427d1e84f3dd0314c0f7b2291e5b200ac8c7c3b9259060200160405180910390a35b505b816116d45760405162461bcd60e51b815260206004820152600f60248201526e3d32b937903b30b63ab290313ab93760891b6044820152606401610dc1565b6001600160a01b03831661172a5760405162461bcd60e51b815260206004820152601a60248201527f6275726e2066726f6d20746865207a65726f20616464726573730000000000006044820152606401610dc1565b6001600160a01b0383166000908152603660205260409020548211156117925760405162461bcd60e51b815260206004820152601b60248201527f6275726e20616d6f756e7420657863656564732062616c616e636500000000006044820152606401610dc1565b6001600160a01b038316600090815260366020526040812080548492906117ba908490613cef565b9250508190555081603560008282546117d39190613cef565b909155506117e79050603961211e84612ff5565b50506001600160a01b0380841660009081526037602052604081205461181292339291169085613186565b6040518281526001600160a01b0384169033907fe8a89cc6e5096f9d9f43de82c077c1f4cfe707c0e0c2032176c68813b9ae6a5c9060200160405180910390a36040518281526000906001600160a01b038516903390600080516020613d9f8339815191529060200160405180910390a46040518281526000906001600160a01b03851690600080516020613dbf8339815191529060200160405180910390a350600192915050565b336000908152603c602090815260408083206001600160a01b03861684529091528120548261192c5760405162461bcd60e51b815260206004820152601c60248201527f7a65726f2076616c756520617070726f76616c206465637265617365000000006044820152606401610dc1565b8281101561198a5760405162461bcd60e51b815260206004820152602560248201527f45524332303a2064656372656173656420616c6c6f77616e63652062656c6f77604482015264207a65726f60d81b6064820152608401610dc1565b610dd8846104a48584613cef565b6000610c08338484610c0f565b6119b2600160ff1b6120f7565b6119ce5760405162461bcd60e51b8152600401610dc190613c65565b611a2a8282611a25336119f6876001600160a01b031660009081526001602052604090205490565b6001600160a01b0391909116600090815260016020526040902054600019808818821618908716919091171690565b6132db565b5050565b6000611a3b858585611097565b611a49858585856001612ea8565b506001949350505050565b6001600160a01b0381166000908152603860205260408120805415611ac25780548190611a8390600190613cef565b81548110611aa157634e487b7160e01b600052603260045260246000fd5b600091825260209091200154600160401b90046001600160c01b0316611ac5565b60005b6001600160c01b03169392505050565b6000611ae1608061126d565b611b2d5760405162461bcd60e51b815260206004820152601e60248201527f45524331333633207472616e7366657273206172652064697361626c656400006044820152606401610dc1565b611b38858585611097565b611a49858585856000612ea8565b6001600160a01b038216600090815260016020526040812054610c0890611282565b6000611b7561010061126d565b611bc15760405162461bcd60e51b815260206004820152601e60248201527f4552433133363320617070726f76616c73206172652064697361626c656400006044820152606401610dc1565b611bcb8484610be5565b50610c72848484613335565b611be261020061126d565b611c2e5760405162461bcd60e51b815260206004820152601c60248201527f45495032363132207065726d697473206172652064697361626c6564000000006044820152606401610dc1565b6001600160a01b0387166000908152603a602052604081208054611cbf917f6e71edae12b1b97f4d1f60370fef10105fa2faae0126114a169c64845d6126c9918b918b918b9187611c7e83613d41565b909155506040805160208101969096526001600160a01b0394851690860152929091166060840152608083015260a082015260c0810187905260e0016110f5565b9050876001600160a01b0316816001600160a01b031614611cf25760405162461bcd60e51b8152600401610dc190613c3a565b844210611d115760405162461bcd60e51b8152600401610dc190613c8c565b611d1c88888861212a565b5050505050505050565b6111b330826119a5565b6000610dd884848460405180602001604052806000815250611ad5565b611d5861040061126d565b611da45760405162461bcd60e51b815260206004820152601e60248201527f45495033303039207472616e7366657273206172652064697361626c656400006044820152606401610dc1565b6000611de97f7c7c6cdb67a18743f49ec6fa9b35f50d52ed05cbed4cc592e13b44501c1a226760001b8b8b8b8b8b8b6040516020016110f59796959493929190613beb565b9050896001600160a01b0316816001600160a01b031614611e1c5760405162461bcd60e51b8152600401610dc190613c3a565b864211611e655760405162461bcd60e51b81526020600482015260176024820152761cda59db985d1d5c99481b9bdd081e595d081d985b1a59604a1b6044820152606401610dc1565b854210611e845760405162461bcd60e51b8152600401610dc190613c8c565b611e908a866000612ad7565b611e9c818b8b8b6124e6565b50505050505050505050565b611eb361080061126d565b611eff5760405162461bcd60e51b815260206004820152601f60248201527f4549503330303920726563657074696f6e73206172652064697361626c6564006044820152606401610dc1565b6000611f447fd099cc98ef71107a616c4f0f941f04c322d8e254fe26b3c6668db87aae413de860001b8b8b8b8b8b8b6040516020016110f59796959493929190613beb565b9050896001600160a01b0316816001600160a01b031614611f775760405162461bcd60e51b8152600401610dc190613c3a565b864211611fc05760405162461bcd60e51b81526020600482015260176024820152761cda59db985d1d5c99481b9bdd081e595d081d985b1a59604a1b6044820152606401610dc1565b854210611fdf5760405162461bcd60e51b8152600401610dc190613c8c565b6001600160a01b0389163314611e845760405162461bcd60e51b8152600401610dc190613c65565b612011604061126d565b6120685760405162461bcd60e51b815260206004820152602260248201527f64656c65676174696f6e73206f6e20626568616c66206172652064697361626c604482015261195960f21b6064820152608401610dc1565b604080517fff41620983935eb4d4a3c7384a066ca8c1d10cef9a5eca9eb97ca735cd14a75560208201526001600160a01b0388169181019190915260608101869052608081018590526000906120c09060a0016110f5565b90508442106120e15760405162461bcd60e51b8152600401610dc190613c8c565b6120ed81876000612ad7565b61108e8188612be5565b6000610b513383611b46565b6001600160a01b03163b151590565b6000610c088284613cb7565b6000610c088284613cef565b6001600160a01b0382166121805760405162461bcd60e51b815260206004820152601b60248201527f617070726f766520746f20746865207a65726f206164647265737300000000006044820152606401610dc1565b6001600160a01b038381166000818152603c602090815260408083209487168084529482529182902080549086905582518181529182018690529392917fb3fd5071835887567a0671151121894ddccc2842f1d10bedad13e0d17cace9a7910160405180910390a3826001600160a01b0316846001600160a01b03167f8c5be1e5ebec7d5bd14f71427d1e84f3dd0314c0f7b2291e5b200ac8c7c3b9258460405161222d91815260200190565b60405180910390a350505050565b6001600160a01b0382166122805760405162461bcd60e51b815260206004820152600c60248201526b7a65726f206164647265737360a01b6044820152606401610dc1565b603554818101116122dd5760405162461bcd60e51b815260206004820152602160248201527f7a65726f2076616c7565206f722061726974686d65746963206f766572666c6f6044820152607760f81b6064820152608401610dc1565b6035546001600160c01b03906122f4908390613cb7565b11156123425760405162461bcd60e51b815260206004820152601f60248201527f746f74616c20737570706c79206f766572666c6f77202875696e7431393229006044820152606401610dc1565b80603560008282546123549190613cb7565b90915550506001600160a01b03821660009081526036602052604081208054839290612381908490613cb7565b909155506123959050603961211283612ff5565b50506001600160a01b038083166000908152603760205260408120546123bf923392911684613186565b6040518181526001600160a01b0383169033907f9d228d69b5fdb8d273a2336f8fb8612d039631024ea9bf09c424a9503aa078f09060200160405180910390a36040518181526001600160a01b038316906000903390600080516020613d9f8339815191529060200160405180910390a46040518181526001600160a01b03831690600090600080516020613dbf8339815191529060200160405180910390a35050565b600054610100900460ff166124ce5760405162461bcd60e51b815260206004820152602b60248201527f496e697469616c697a61626c653a20636f6e7472616374206973206e6f74206960448201526a6e697469616c697a696e6760a81b6064820152608401610dc1565b6124db82600019806132db565b611a2a3082836132db565b836001600160a01b0316836001600160a01b031614801561250c575061250c600161126d565b806125395750836001600160a01b0316836001600160a01b0316141580156125395750612539600261126d565b846001600160a01b0316846001600160a01b03161461258d576040518060400160405280602081526020017f7472616e7366657273206f6e20626568616c66206172652064697361626c65648152506125bd565b604051806040016040528060168152602001751d1c985b9cd9995c9cc8185c9948191a5cd8589b195960521b8152505b906125db5760405162461bcd60e51b8152600401610dc19190613c27565b506001600160a01b0383166126325760405162461bcd60e51b815260206004820152601e60248201527f7472616e736665722066726f6d20746865207a65726f206164647265737300006044820152606401610dc1565b6001600160a01b0382166126885760405162461bcd60e51b815260206004820152601c60248201527f7472616e7366657220746f20746865207a65726f2061646472657373000000006044820152606401610dc1565b6001600160a01b0382163014156127075760405162461bcd60e51b815260206004820152603f60248201527f696e76616c696420726563697069656e7420287472616e7366657220746f207460448201527f686520746f6b656e20736d61727420636f6e747261637420697473656c6629006064820152608401610dc1565b8061279157816001600160a01b0316836001600160a01b0316856001600160a01b0316600080516020613d9f8339815191528460405161274991815260200190565b60405180910390a4816001600160a01b0316836001600160a01b0316600080516020613dbf8339815191528360405161278491815260200190565b60405180910390a3612a6c565b836001600160a01b0316836001600160a01b0316146128ff576001600160a01b038084166000908152603c60209081526040808320938816835292905220548181101561282a5760405162461bcd60e51b815260206004820152602160248201527f7472616e7366657220616d6f756e74206578636565647320616c6c6f77616e636044820152606560f81b6064820152608401610dc1565b6000198110156128fd5761283e8282613cef565b6001600160a01b038086166000818152603c60209081526040808320948b16808452949091529020839055919250907fb3fd5071835887567a0671151121894ddccc2842f1d10bedad13e0d17cace9a76128988585613cb7565b60408051918252602082018690520160405180910390a3846001600160a01b0316846001600160a01b03167f8c5be1e5ebec7d5bd14f71427d1e84f3dd0314c0f7b2291e5b200ac8c7c3b925836040516128f491815260200190565b60405180910390a35b505b6001600160a01b0383166000908152603660205260409020548111156129675760405162461bcd60e51b815260206004820152601f60248201527f7472616e7366657220616d6f756e7420657863656564732062616c616e6365006044820152606401610dc1565b6001600160a01b0383166000908152603660205260408120805483929061298f908490613cef565b90915550506001600160a01b038216600090815260366020526040812080548392906129bc908490613cb7565b90915550506001600160a01b038084166000908152603760205260408082205485841683529120546129f49287928116911684613186565b816001600160a01b0316836001600160a01b0316856001600160a01b0316600080516020613d9f83398151915284604051612a3191815260200190565b60405180910390a4816001600160a01b0316836001600160a01b0316600080516020613dbf8339815191528360405161222d91815260200190565b50505050565b8351602085012060009081612a85610c98565b60405161190160f01b60208201526022810191909152604281018390526062016040516020818303038152906040528051906020012090506000612acb82888888613470565b98975050505050505050565b6001600160a01b0383166000908152603b6020908152604080832085845290915290205460ff1615612b3b5760405162461bcd60e51b815260206004820152600d60248201526c696e76616c6964206e6f6e636560981b6044820152606401610dc1565b6001600160a01b0383166000908152603b602090815260408083208584529091529020805460ff191660011790558015612baa5760405182906001600160a01b038516907f1cdd46ff242716cdaa72d159d339a485b3438398348d68f09d7c8c0a59353d8190600090a3505050565b60405182906001600160a01b038516907f98de503528ee59b575ef0c0a2576a82497bfc029a5685b209e9ec333479b10a590600090a3505050565b6001600160a01b0380831660009081526037602081815260408084208054603684529190942054929091528484166001600160a01b0319821617909255911690612c3184838584613186565b826001600160a01b0316826001600160a01b0316856001600160a01b03167f3134e8a2e6d97e929a7e54011ea5485d7d196dd5f0ba4d4ef95803e8e3fc257f60405160405180910390a450505050565b8154600090612c9257506000610b51565b825482908490612ca490600190613cef565b81548110612cc257634e487b7160e01b600052603260045260246000fd5b6000918252602090912001546001600160401b031611612d2d5782548390612cec90600190613cef565b81548110612d0a57634e487b7160e01b600052603260045260246000fd5b600091825260209091200154600160401b90046001600160c01b03169050610b51565b8183600081548110612d4f57634e487b7160e01b600052603260045260246000fd5b6000918252602090912001546001600160401b03161115612d7257506000610b51565b82546000908190612d8590600190613cef565b90505b81811115612e635760006002612d9e8484613cef565b612da89190613ccf565b612db29083613cef565b90506000868281548110612dd657634e487b7160e01b600052603260045260246000fd5b6000918252602091829020604080518082019091529101546001600160401b038116808352600160401b9091046001600160c01b0316928201929092529150861415612e3457602001516001600160c01b03169350610b5192505050565b80516001600160401b0316861115612e4e57819350612e5c565b612e59600183613cef565b92505b5050612d88565b848281548110612e8357634e487b7160e01b600052603260045260246000fd5b600091825260209091200154600160401b90046001600160c01b031695945050505050565b6001600160a01b0384163b612ef95780612ef45760405162461bcd60e51b815260206004820152600d60248201526c1153d0481c9958da5c1a595b9d609a1b6044820152606401610dc1565b612fee565b604051632229f29760e21b81526000906001600160a01b038616906388a7ca5c90612f2e9033908a9089908990600401613b26565b602060405180830381600087803b158015612f4857600080fd5b505af1158015612f5c573d6000803e3d6000fd5b505050506040513d601f19601f82011682018060405250810190612f809190613aa7565b90506001600160e01b03198116632229f29760e21b1461114b5760405162461bcd60e51b815260206004820152602360248201527f696e76616c6964206f6e5472616e73666572526563656976656420726573706f6044820152626e736560e81b6064820152608401610dc1565b5050505050565b8254600090819015613050578454859061301190600190613cef565b8154811061302f57634e487b7160e01b600052603260045260246000fd5b600091825260209091200154600160401b90046001600160c01b0316613053565b60005b6001600160c01b0316915061306c82848663ffffffff16565b8554909150158015906130c1575084544390869061308c90600190613cef565b815481106130aa57634e487b7160e01b600052603260045260246000fd5b6000918252602090912001546001600160401b0316145b1561312c578454819086906130d890600190613cef565b815481106130f657634e487b7160e01b600052603260045260246000fd5b9060005260206000200160000160086101000a8154816001600160c01b0302191690836001600160c01b0316021790555061317e565b604080518082019091526001600160401b0343811682526001600160c01b0380841660208085019182528954600181018b5560008b81529190912094519151909216600160401b029216919091179101555b935093915050565b816001600160a01b0316836001600160a01b031614806131a4575080155b156131ae57612a6c565b6001600160a01b03831615613242576001600160a01b038316600090815260386020526040812090806131e48361211e86612ff5565b91509150856001600160a01b0316876001600160a01b03167fd1404f22081753a56b50e0d5ff5c9ed0e4a3a840e1171a443721a342e71bb5c18484604051613236929190918252602082015260400190565b60405180910390a35050505b6001600160a01b03821615612a6c576001600160a01b038216600090815260386020526040812090806132788361211286612ff5565b91509150846001600160a01b0316876001600160a01b03167fd1404f22081753a56b50e0d5ff5c9ed0e4a3a840e1171a443721a342e71bb5c184846040516132ca929190918252602082015260400190565b60405180910390a350505050505050565b6001600160a01b03831660008181526001602090815260409182902084905581518581529081018490527fe9be537308880e0f56b7d7cfd7abf85f14c4934486d138f848b92a0cbaf659b4910160405180910390a2505050565b6000836001600160a01b03163b1161337d5760405162461bcd60e51b815260206004820152600b60248201526a22a7a09039b832b73232b960a91b6044820152606401610dc1565b6040516307b04a2d60e41b81526000906001600160a01b03851690637b04a2d0906133b090339087908790600401613b63565b602060405180830381600087803b1580156133ca57600080fd5b505af11580156133de573d6000803e3d6000fd5b505050506040513d601f19601f820116820180604052508101906134029190613aa7565b90506001600160e01b031981166307b04a2d60e41b14612a6c5760405162461bcd60e51b815260206004820152602360248201527f696e76616c6964206f6e417070726f76616c526563656976656420726573706f6044820152626e736560e81b6064820152608401610dc1565b60007f7fffffffffffffffffffffffffffffff5d576e7357a4501ddfe92f46681b20a08211156134e25760405162461bcd60e51b815260206004820152601b60248201527f696e76616c6964207369676e6174757265202773272076616c756500000000006044820152606401610dc1565b8360ff16601b14806134f757508360ff16601c145b6135435760405162461bcd60e51b815260206004820152601b60248201527f696e76616c6964207369676e6174757265202776272076616c756500000000006044820152606401610dc1565b6040805160008082526020820180845288905260ff871692820192909252606081018590526080810184905260019060a0016020604051602081039080840390855afa158015613597573d6000803e3d6000fd5b5050604051601f1901519150506001600160a01b0381166135ca5760405162461bcd60e51b8152600401610dc190613c3a565b95945050505050565b8280546135df90613d06565b90600052602060002090601f0160209004810192826136015760008555613647565b82601f1061361a57805160ff1916838001178555613647565b82800160010185558215613647579182015b8281111561364757825182559160200191906001019061362c565b50613653929150613657565b5090565b5b808211156136535760008155600101613658565b80356001600160a01b038116811461368357600080fd5b919050565b600082601f830112613698578081fd5b81356001600160401b03808211156136b2576136b2613d72565b604051601f8301601f19908116603f011681019082821181831017156136da576136da613d72565b816040528381528660208588010111156136f2578485fd5b8360208701602083013792830160200193909352509392505050565b803560ff8116811461368357600080fd5b600060208284031215613730578081fd5b610c088261366c565b6000806040838503121561374b578081fd5b6137548361366c565b91506137626020840161366c565b90509250929050565b60008060006060848603121561377f578081fd5b6137888461366c565b92506137966020850161366c565b9150604084013590509250925092565b600080600080608085870312156137bb578081fd5b6137c48561366c565b93506137d26020860161366c565b92506040850135915060608501356001600160401b038111156137f3578182fd5b6137ff87828801613688565b91505092959194509250565b60008060008060008060008060006101208a8c031215613829578485fd5b6138328a61366c565b985061384060208b0161366c565b975060408a0135965060608a0135955060808a0135945060a08a0135935061386a60c08b0161370e565b925060e08a013591506101008a013590509295985092959850929598565b600080600080600080600060e0888a0312156138a2578283fd5b6138ab8861366c565b96506138b96020890161366c565b955060408801359450606088013593506138d56080890161370e565b925060a0880135915060c0880135905092959891949750929550565b60008060408385031215613903578182fd5b61390c8361366c565b946020939093013593505050565b60008060008060008060c08789031215613932578182fd5b61393b8761366c565b955060208701359450604087013593506139576060880161370e565b92506080870135915060a087013590509295509295509295565b600080600080600060a08688031215613988578283fd5b6139918661366c565b9450602086013593506139a66040870161370e565b94979396509394606081013594506080013592915050565b60008060008060008060c087890312156139d6578384fd5b6139df8761366c565b955060208701356001600160401b03808211156139fa578586fd5b613a068a838b01613688565b96506040890135915080821115613a1b578586fd5b50613a2889828a01613688565b9450506139576060880161366c565b600080600060608486031215613a4b578081fd5b613a548461366c565b92506020840135915060408401356001600160401b03811115613a75578182fd5b613a8186828701613688565b9150509250925092565b600060208284031215613a9c578081fd5b8135610c0881613d88565b600060208284031215613ab8578081fd5b8151610c0881613d88565b600060208284031215613ad4578081fd5b5035919050565b60008151808452815b81811015613b0057602081850181015186830182015201613ae4565b81811115613b115782602083870101525b50601f01601f19169290920160200192915050565b6001600160a01b0385811682528416602082015260408101839052608060608201819052600090613b5990830184613adb565b9695505050505050565b60018060a01b03841681528260208201526060604082015260006135ca6060830184613adb565b602080825282518282018190526000919060409081850190868401855b82811015613bde57815180516001600160401b031685528601516001600160c01b0316868501529284019290850190600101613ba7565b5091979650505050505050565b9687526001600160a01b0395861660208801529390941660408601526060850191909152608084015260a083019190915260c082015260e00190565b602081526000610c086020830184613adb565b602080825260119082015270696e76616c6964207369676e617475726560781b604082015260600190565b6020808252600d908201526c1858d8d95cdcc819195b9a5959609a1b604082015260600190565b6020808252601190820152701cda59db985d1d5c9948195e1c1a5c9959607a1b604082015260600190565b60008219821115613cca57613cca613d5c565b500190565b600082613cea57634e487b7160e01b81526012600452602481fd5b500490565b600082821015613d0157613d01613d5c565b500390565b600181811c90821680613d1a57607f821691505b60208210811415613d3b57634e487b7160e01b600052602260045260246000fd5b50919050565b6000600019821415613d5557613d55613d5c565b5060010190565b634e487b7160e01b600052601160045260246000fd5b634e487b7160e01b600052604160045260246000fd5b6001600160e01b0319811681146111b357600080fdfed1398bee19313d6bf672ccb116e51f4a1a947e91c757907f51fbb5b5e56c698fddf252ad1be2c89b69c2b068fc378daa952ba7f163c4a11628f55a4df523b3efa2646970667358221220d87628fe55bdc1730cb9b1a1d3526ec0ee3c3e070e95a188b8247e75f434cae764736f6c63430008040033496e697469616c697a61626c653a20636f6e747261637420697320616c7265617f26b83ff96e1f2b6a682f133852f6798a09c465da95921460cefb3847402498d1404f22081753a56b50e0d5ff5c9ed0e4a3a840e1171a443721a342e71bb5c1",
  "linkReferences": {},
  "deployedLinkReferences": {}
}