{
  "_format": "hh-sol-artifact-1",
  "contractName": "GenericFactoryV1",
  "sourceName": "contracts/protocol/GenericFactoryV1.sol",
  "abi": [
    {
      "inputs": [],
      "name": "AccessDenied",
      "type": "error"
    },
    {
      "anonymous": false,
      "inputs": [
        {
          "indexed": false,
          "internalType": "address",
          "name": "previousAdmin",
          "type": "address"
        },
        {
          "indexed": false,
          "internalType": "address",
          "name": "newAdmin",
          "type": "address"
        }
      ],
      "name": "AdminChanged",
      "type": "event"
    },
    {
      "anonymous": false,
      "inputs": [
        {
          "indexed": true,
          "internalType": "address",
          "name": "beacon",
          "type": "address"
        }
      ],
      "name": "BeaconUpgraded",
      "type": "event"
    },
    {
      "anonymous": false,
      "inputs": [
        {
          "indexed": false,
          "internalType": "uint8",
          "name": "version",
          "type": "uint8"
        }
      ],
      "name": "Initialized",
      "type": "event"
    },
    {
      "anonymous": false,
      "inputs": [
        {
          "indexed": true,
          "internalType": "address",
          "name": "by",
          "type": "address"
        },
        {
          "indexed": false,
          "internalType": "address",
          "name": "proxyAddress",
          "type": "address"
        },
        {
          "indexed": true,
          "internalType": "address",
          "name": "implAddress",
          "type": "address"
        },
        {
          "indexed": false,
          "internalType": "bytes",
          "name": "data",
          "type": "bytes"
        },
        {
          "indexed": false,
          "internalType": "bytes",
          "name": "returnData",
          "type": "bytes"
        }
      ],
      "name": "ProxyDeployed",
      "type": "event"
    },
    {
      "anonymous": false,
      "inputs": [
        {
          "indexed": true,
          "internalType": "address",
          "name": "operator",
          "type": "address"
        },
        {
          "indexed": false,
          "internalType": "uint256",
          "name": "requested",
          "type": "uint256"
        },
        {
          "indexed": false,
          "internalType": "uint256",
          "name": "assigned",
          "type": "uint256"
        }
      ],
      "name": "RoleUpdated",
      "type": "event"
    },
    {
      "anonymous": false,
      "inputs": [
        {
          "indexed": true,
          "internalType": "address",
          "name": "implementation",
          "type": "address"
        }
      ],
      "name": "Upgraded",
      "type": "event"
    },
    {
      "inputs": [],
      "name": "ROLE_ACCESS_MANAGER",
      "outputs": [
        {
          "internalType": "uint256",
          "name": "",
          "type": "uint256"
        }
      ],
      "stateMutability": "view",
      "type": "function"
    },
    {
      "inputs": [],
      "name": "ROLE_UPGRADE_MANAGER",
      "outputs": [
        {
          "internalType": "uint256",
          "name": "",
          "type": "uint256"
        }
      ],
      "stateMutability": "view",
      "type": "function"
    },
    {
      "inputs": [
        {
          "internalType": "address",
          "name": "_implAddress",
          "type": "address"
        },
        {
          "internalType": "bytes",
          "name": "_data",
          "type": "bytes"
        }
      ],
      "name": "clone",
      "outputs": [
        {
          "internalType": "address",
          "name": "proxyAddress",
          "type": "address"
        },
        {
          "internalType": "bytes",
          "name": "returnData",
          "type": "bytes"
        }
      ],
      "stateMutability": "nonpayable",
      "type": "function"
    },
    {
      "inputs": [],
      "name": "features",
      "outputs": [
        {
          "internalType": "uint256",
          "name": "",
          "type": "uint256"
        }
      ],
      "stateMutability": "view",
      "type": "function"
    },
    {
      "inputs": [],
      "name": "getImplementation",
      "outputs": [
        {
          "internalType": "address",
          "name": "",
          "type": "address"
        }
      ],
      "stateMutability": "view",
      "type": "function"
    },
    {
      "inputs": [],
      "name": "getInitializedVersion",
      "outputs": [
        {
          "internalType": "uint64",
          "name": "",
          "type": "uint64"
        }
      ],
      "stateMutability": "view",
      "type": "function"
    },
    {
      "inputs": [
        {
          "internalType": "address",
          "name": "operator",
          "type": "address"
        }
      ],
      "name": "getRole",
      "outputs": [
        {
          "internalType": "uint256",
          "name": "",
          "type": "uint256"
        }
      ],
      "stateMutability": "view",
      "type": "function"
    },
    {
      "inputs": [
        {
          "internalType": "uint256",
          "name": "required",
          "type": "uint256"
        }
      ],
      "name": "isFeatureEnabled",
      "outputs": [
        {
          "internalType": "bool",
          "name": "",
          "type": "bool"
        }
      ],
      "stateMutability": "view",
      "type": "function"
    },
    {
      "inputs": [
        {
          "internalType": "address",
          "name": "operator",
          "type": "address"
        },
        {
          "internalType": "uint256",
          "name": "required",
          "type": "uint256"
        }
      ],
      "name": "isOperatorInRole",
      "outputs": [
        {
          "internalType": "bool",
          "name": "",
          "type": "bool"
        }
      ],
      "stateMutability": "view",
      "type": "function"
    },
    {
      "inputs": [
        {
          "internalType": "uint256",
          "name": "required",
          "type": "uint256"
        }
      ],
      "name": "isSenderInRole",
      "outputs": [
        {
          "internalType": "bool",
          "name": "",
          "type": "bool"
        }
      ],
      "stateMutability": "view",
      "type": "function"
    },
    {
      "inputs": [],
      "name": "postConstruct",
      "outputs": [],
      "stateMutability": "nonpayable",
      "type": "function"
    },
    {
      "inputs": [],
      "name": "proxiableUUID",
      "outputs": [
        {
          "internalType": "bytes32",
          "name": "",
          "type": "bytes32"
        }
      ],
      "stateMutability": "view",
      "type": "function"
    },
    {
      "inputs": [
        {
          "internalType": "uint256",
          "name": "_mask",
          "type": "uint256"
        }
      ],
      "name": "updateFeatures",
      "outputs": [],
      "stateMutability": "nonpayable",
      "type": "function"
    },
    {
      "inputs": [
        {
          "internalType": "address",
          "name": "operator",
          "type": "address"
        },
        {
          "internalType": "uint256",
          "name": "role",
          "type": "uint256"
        }
      ],
      "name": "updateRole",
      "outputs": [],
      "stateMutability": "nonpayable",
      "type": "function"
    },
    {
      "inputs": [
        {
          "internalType": "address",
          "name": "newImplementation",
          "type": "address"
        }
      ],
      "name": "upgradeTo",
      "outputs": [],
      "stateMutability": "nonpayable",
      "type": "function"
    },
    {
      "inputs": [
        {
          "internalType": "address",
          "name": "newImplementation",
          "type": "address"
        },
        {
          "internalType": "bytes",
          "name": "data",
          "type": "bytes"
        }
      ],
      "name": "upgradeToAndCall",
      "outputs": [],
      "stateMutability": "payable",
      "type": "function"
    }
  ],
  "bytecode": "0x60a06040523060601b60805234801561001757600080fd5b50600054610100900460ff16158080156100385750600054600160ff909116105b8061006357506100513061013960201b61083e1760201c565b158015610063575060005460ff166001145b6100ca5760405162461bcd60e51b815260206004820152602e60248201527f496e697469616c697a61626c653a20636f6e747261637420697320616c72656160448201526d191e481a5b9a5d1a585b1a5e995960921b606482015260840160405180910390fd5b6000805460ff1916600117905580156100ed576000805461ff0019166101001790555b8015610133576000805461ff0019169055604051600181527f7f26b83ff96e1f2b6a682f133852f6798a09c465da95921460cefb38474024989060200160405180910390a15b50610148565b6001600160a01b03163b151590565b60805160601c61122f61018260003960008181610454015281816104940152818161051d0152818161055d01526105d9015261122f6000f3fe6080604052600436106100f35760003560e01c8063ae5b102e1161008a578063b3c6501511610059578063b3c650151461029d578063c688d693146102bf578063d5bb7f67146102df578063fcc2c078146102ff57600080fd5b8063ae5b102e14610238578063ae60bda414610258578063ae682e2e14610270578063af504c961461028857600080fd5b80634f1ef286116100c65780634f1ef286146101b357806352d1902d146101c6578063725f3626146101db578063aaf10f421461020b57600080fd5b80630fbe133c146100f85780632b5214161461012f5780633659cfe61461015b578063442767331461017d575b600080fd5b34801561010457600080fd5b50610118610113366004610e5d565b61031f565b6040516101269291906110a1565b60405180910390f35b34801561013b57600080fd5b50306000908152600160205260409020545b604051908152602001610126565b34801561016757600080fd5b5061017b610176366004610e43565b610449565b005b34801561018957600080fd5b5061014d610198366004610e43565b6001600160a01b031660009081526001602052604090205490565b61017b6101c1366004610edb565b610512565b3480156101d257600080fd5b5061014d6105cc565b3480156101e757600080fd5b506101fb6101f6366004610fd9565b61067f565b6040519015158152602001610126565b34801561021757600080fd5b50610220610690565b6040516001600160a01b039091168152602001610126565b34801561024457600080fd5b5061017b610253366004610f98565b61069a565b34801561026457600080fd5b5061014d600160fe1b81565b34801561027c57600080fd5b5061014d600160ff1b81565b34801561029457600080fd5b5061017b610703565b3480156102a957600080fd5b5060005460405160ff9091168152602001610126565b3480156102cb57600080fd5b506101fb6102da366004610f98565b610816565b3480156102eb57600080fd5b5061017b6102fa366004610fd9565b610829565b34801561030b57600080fd5b506101fb61031a366004610fd9565b610833565b6000606061032c8561084d565b915082156103eb576000826001600160a01b0316858560405161035092919061101d565b6000604051808303816000865af19150503d806000811461038d576040519150601f19603f3d011682016040523d82523d6000602084013e610392565b606091505b5092509050806103e95760405162461bcd60e51b815260206004820152601b60248201527f70726f787920696e697469616c697a6174696f6e206661696c6564000000000060448201526064015b60405180910390fd5b505b846001600160a01b0316336001600160a01b03167f712c33c376f9104bcb4369b5ef428db727ad5fdb8cbe636eae1fe34df88887d7848787866040516104349493929190611049565b60405180910390a3935093915050565b905090565b306001600160a01b037f00000000000000000000000000000000000000000000000000000000000000001614156104925760405162461bcd60e51b81526004016103e0906110d8565b7f00000000000000000000000000000000000000000000000000000000000000006001600160a01b03166104c46108e7565b6001600160a01b0316146104ea5760405162461bcd60e51b81526004016103e090611124565b6104f381610903565b6040805160008082526020820190925261050f91839190610910565b50565b306001600160a01b037f000000000000000000000000000000000000000000000000000000000000000016141561055b5760405162461bcd60e51b81526004016103e0906110d8565b7f00000000000000000000000000000000000000000000000000000000000000006001600160a01b031661058d6108e7565b6001600160a01b0316146105b35760405162461bcd60e51b81526004016103e090611124565b6105bc82610903565b6105c882826001610910565b5050565b6000306001600160a01b037f0000000000000000000000000000000000000000000000000000000000000000161461066c5760405162461bcd60e51b815260206004820152603860248201527f555550535570677261646561626c653a206d757374206e6f742062652063616c60448201527f6c6564207468726f7567682064656c656761746563616c6c000000000000000060648201526084016103e0565b506000805160206111b383398151915290565b600061068a82610a8f565b92915050565b60006104446108e7565b6106a7600160ff1b610aab565b6105c882826106fe336106cf876001600160a01b031660009081526001602052604090205490565b6001600160a01b0391909116600090815260016020526040902054600019808818821618908716919091171690565b610abc565b600054610100900460ff16158080156107235750600054600160ff909116105b8061073d5750303b15801561073d575060005460ff166001145b6107a05760405162461bcd60e51b815260206004820152602e60248201527f496e697469616c697a61626c653a20636f6e747261637420697320616c72656160448201526d191e481a5b9a5d1a585b1a5e995960921b60648201526084016103e0565b6000805460ff1916600117905580156107c3576000805461ff0019166101001790555b6107ce336000610b16565b801561050f576000805461ff0019169055604051600181527f7f26b83ff96e1f2b6a682f133852f6798a09c465da95921460cefb38474024989060200160405180910390a150565b60006108228383610b99565b9392505050565b61050f308261069a565b600061068a82610bbb565b6001600160a01b03163b151590565b6000763d602d80600a3d3981f3363d3d373d3d3d363d730000008260601b60e81c176000526e5af43d82803e903d91602b57fd5bf38260781b17602052603760096000f090506001600160a01b0381166108e25760405162461bcd60e51b8152602060048201526016602482015275115490cc4c4d8dce8818dc99585d194819985a5b195960521b60448201526064016103e0565b919050565b6000805160206111b3833981519152546001600160a01b031690565b61050f600160fe1b610aab565b7f4910fdfa16fed3260ed0e7147f7cc6da11a60208b5b9406d12a635614ffd91435460ff16156109485761094383610bc7565b505050565b826001600160a01b03166352d1902d6040518163ffffffff1660e01b815260040160206040518083038186803b15801561098157600080fd5b505afa9250505080156109b1575060408051601f3d908101601f191682019092526109ae91810190610fc1565b60015b610a145760405162461bcd60e51b815260206004820152602e60248201527f45524331393637557067726164653a206e657720696d706c656d656e7461746960448201526d6f6e206973206e6f74205555505360901b60648201526084016103e0565b6000805160206111b38339815191528114610a835760405162461bcd60e51b815260206004820152602960248201527f45524331393637557067726164653a20756e737570706f727465642070726f786044820152681a58589b195555525160ba1b60648201526084016103e0565b50610943838383610c63565b3060009081526001602052604081205461068a905b8316831490565b61050f610ab782610bbb565b610c8e565b6001600160a01b03831660008181526001602090815260409182902084905581518581529081018490527fe9be537308880e0f56b7d7cfd7abf85f14c4934486d138f848b92a0cbaf659b4910160405180910390a2505050565b600054610100900460ff16610b815760405162461bcd60e51b815260206004820152602b60248201527f496e697469616c697a61626c653a20636f6e7472616374206973206e6f74206960448201526a6e697469616c697a696e6760a81b60648201526084016103e0565b610b8e8260001980610abc565b6105c8308283610abc565b6001600160a01b03821660009081526001602052604081205461082290610aa4565b600061068a3383610b99565b6001600160a01b0381163b610c345760405162461bcd60e51b815260206004820152602d60248201527f455243313936373a206e657720696d706c656d656e746174696f6e206973206e60448201526c1bdd08184818dbdb9d1c9858dd609a1b60648201526084016103e0565b6000805160206111b383398151915280546001600160a01b0319166001600160a01b0392909216919091179055565b610c6c83610cac565b600082511180610c795750805b1561094357610c888383610cec565b50505050565b8061050f57604051634ca8886760e01b815260040160405180910390fd5b610cb581610bc7565b6040516001600160a01b038216907fbc7cd75a20ee27fd9adebab32041f755214dbc6bffa90cc0225b39da2e5c2d3b90600090a250565b606061082283836040518060600160405280602781526020016111d3602791396060600080856001600160a01b031685604051610d29919061102d565b600060405180830381855af49150503d8060008114610d64576040519150601f19603f3d011682016040523d82523d6000602084013e610d69565b606091505b5091509150610d7a86838387610d84565b9695505050505050565b60608315610df0578251610de9576001600160a01b0385163b610de95760405162461bcd60e51b815260206004820152601d60248201527f416464726573733a2063616c6c20746f206e6f6e2d636f6e747261637400000060448201526064016103e0565b5081610dfa565b610dfa8383610e02565b949350505050565b815115610e125781518083602001fd5b8060405162461bcd60e51b81526004016103e091906110c5565b80356001600160a01b03811681146108e257600080fd5b600060208284031215610e54578081fd5b61082282610e2c565b600080600060408486031215610e71578182fd5b610e7a84610e2c565b9250602084013567ffffffffffffffff80821115610e96578384fd5b818601915086601f830112610ea9578384fd5b813581811115610eb7578485fd5b876020828501011115610ec8578485fd5b6020830194508093505050509250925092565b60008060408385031215610eed578182fd5b610ef683610e2c565b9150602083013567ffffffffffffffff80821115610f12578283fd5b818501915085601f830112610f25578283fd5b813581811115610f3757610f3761119c565b604051601f8201601f19908116603f01168101908382118183101715610f5f57610f5f61119c565b81604052828152886020848701011115610f77578586fd5b82602086016020830137856020848301015280955050505050509250929050565b60008060408385031215610faa578182fd5b610fb383610e2c565b946020939093013593505050565b600060208284031215610fd2578081fd5b5051919050565b600060208284031215610fea578081fd5b5035919050565b60008151808452611009816020860160208601611170565b601f01601f19169290920160200192915050565b8183823760009101908152919050565b6000825161103f818460208701611170565b9190910192915050565b6001600160a01b038516815260606020820181905281018390528284608083013760008060808584010152601f19601f850116820160808382030160408401526110966080820185610ff1565b979650505050505050565b6001600160a01b0383168152604060208201819052600090610dfa90830184610ff1565b6020815260006108226020830184610ff1565b6020808252602c908201527f46756e6374696f6e206d7573742062652063616c6c6564207468726f7567682060408201526b19195b1959d85d1958d85b1b60a21b606082015260800190565b6020808252602c908201527f46756e6374696f6e206d7573742062652063616c6c6564207468726f7567682060408201526b6163746976652070726f787960a01b606082015260800190565b60005b8381101561118b578181015183820152602001611173565b83811115610c885750506000910152565b634e487b7160e01b600052604160045260246000fdfe360894a13ba1a3210667c828492db98dca3e2076cc3735a920a3ca505d382bbc416464726573733a206c6f772d6c6576656c2064656c65676174652063616c6c206661696c6564a26469706673582212203949153cf7d8460abd1a477bb4b6f1c5fcbc5441926a245e5782c9724295142a64736f6c63430008040033",
  "linkReferences": {},
  "deployedLinkReferences": {}
}