{
  "_format": "hh-sol-artifact-1",
  "contractName": "GenericFactoryV1",
  "sourceName": "contracts/protocol/GenericFactoryV1.sol",
  "abi": [
    {
      "inputs": [],
      "name": "AccessDenied",
      "type": "error"
    },
    {
      "anonymous": false,
      "inputs": [
        {
          "indexed": false,
          "internalType": "address",
          "name": "previousAdmin",
          "type": "address"
        },
        {
          "indexed": false,
          "internalType": "address",
          "name": "newAdmin",
          "type": "address"
        }
      ],
      "name": "AdminChanged",
      "type": "event"
    },
    {
      "anonymous": false,
      "inputs": [
        {
          "indexed": true,
          "internalType": "address",
          "name": "beacon",
          "type": "address"
        }
      ],
      "name": "BeaconUpgraded",
      "type": "event"
    },
    {
      "anonymous": false,
      "inputs": [
        {
          "indexed": false,
          "internalType": "uint8",
          "name": "version",
          "type": "uint8"
        }
      ],
      "name": "Initialized",
      "type": "event"
    },
    {
      "anonymous": false,
      "inputs": [
        {
          "indexed": true,
          "internalType": "address",
          "name": "by",
          "type": "address"
        },
        {
          "indexed": false,
          "internalType": "address",
          "name": "proxyAddress",
          "type": "address"
        },
        {
          "indexed": true,
          "internalType": "address",
          "name": "implAddress",
          "type": "address"
        },
        {
          "indexed": false,
          "internalType": "bytes",
          "name": "data",
          "type": "bytes"
        },
        {
          "indexed": false,
          "internalType": "bytes",
          "name": "returnData",
          "type": "bytes"
        }
      ],
      "name": "ProxyDeployed",
      "type": "event"
    },
    {
      "anonymous": false,
      "inputs": [
        {
          "indexed": true,
          "internalType": "address",
          "name": "operator",
          "type": "address"
        },
        {
          "indexed": false,
          "internalType": "uint256",
          "name": "requested",
          "type": "uint256"
        },
        {
          "indexed": false,
          "internalType": "uint256",
          "name": "assigned",
          "type": "uint256"
        }
      ],
      "name": "RoleUpdated",
      "type": "event"
    },
    {
      "anonymous": false,
      "inputs": [
        {
          "indexed": true,
          "internalType": "address",
          "name": "implementation",
          "type": "address"
        }
      ],
      "name": "Upgraded",
      "type": "event"
    },
    {
      "inputs": [],
      "name": "ROLE_ACCESS_MANAGER",
      "outputs": [
        {
          "internalType": "uint256",
          "name": "",
          "type": "uint256"
        }
      ],
      "stateMutability": "view",
      "type": "function"
    },
    {
      "inputs": [],
      "name": "ROLE_UPGRADE_MANAGER",
      "outputs": [
        {
          "internalType": "uint256",
          "name": "",
          "type": "uint256"
        }
      ],
      "stateMutability": "view",
      "type": "function"
    },
    {
      "inputs": [
        {
          "internalType": "address",
          "name": "_implAddress",
          "type": "address"
        },
        {
          "internalType": "bytes",
          "name": "_data",
          "type": "bytes"
        }
      ],
      "name": "clone",
      "outputs": [
        {
          "internalType": "address",
          "name": "proxyAddress",
          "type": "address"
        },
        {
          "internalType": "bytes",
          "name": "returnData",
          "type": "bytes"
        }
      ],
      "stateMutability": "nonpayable",
      "type": "function"
    },
    {
      "inputs": [],
      "name": "features",
      "outputs": [
        {
          "internalType": "uint256",
          "name": "",
          "type": "uint256"
        }
      ],
      "stateMutability": "view",
      "type": "function"
    },
    {
      "inputs": [],
      "name": "getImplementation",
      "outputs": [
        {
          "internalType": "address",
          "name": "",
          "type": "address"
        }
      ],
      "stateMutability": "view",
      "type": "function"
    },
    {
      "inputs": [],
      "name": "getInitializedVersion",
      "outputs": [
        {
          "internalType": "uint64",
          "name": "",
          "type": "uint64"
        }
      ],
      "stateMutability": "view",
      "type": "function"
    },
    {
      "inputs": [
        {
          "internalType": "address",
          "name": "operator",
          "type": "address"
        }
      ],
      "name": "getRole",
      "outputs": [
        {
          "internalType": "uint256",
          "name": "",
          "type": "uint256"
        }
      ],
      "stateMutability": "view",
      "type": "function"
    },
    {
      "inputs": [
        {
          "internalType": "uint256",
          "name": "required",
          "type": "uint256"
        }
      ],
      "name": "isFeatureEnabled",
      "outputs": [
        {
          "internalType": "bool",
          "name": "",
          "type": "bool"
        }
      ],
      "stateMutability": "view",
      "type": "function"
    },
    {
      "inputs": [
        {
          "internalType": "address",
          "name": "operator",
          "type": "address"
        },
        {
          "internalType": "uint256",
          "name": "required",
          "type": "uint256"
        }
      ],
      "name": "isOperatorInRole",
      "outputs": [
        {
          "internalType": "bool",
          "name": "",
          "type": "bool"
        }
      ],
      "stateMutability": "view",
      "type": "function"
    },
    {
      "inputs": [
        {
          "internalType": "uint256",
          "name": "required",
          "type": "uint256"
        }
      ],
      "name": "isSenderInRole",
      "outputs": [
        {
          "internalType": "bool",
          "name": "",
          "type": "bool"
        }
      ],
      "stateMutability": "view",
      "type": "function"
    },
    {
      "inputs": [],
      "name": "postConstruct",
      "outputs": [],
      "stateMutability": "nonpayable",
      "type": "function"
    },
    {
      "inputs": [],
      "name": "proxiableUUID",
      "outputs": [
        {
          "internalType": "bytes32",
          "name": "",
          "type": "bytes32"
        }
      ],
      "stateMutability": "view",
      "type": "function"
    },
    {
      "inputs": [
        {
          "internalType": "uint256",
          "name": "_mask",
          "type": "uint256"
        }
      ],
      "name": "updateFeatures",
      "outputs": [],
      "stateMutability": "nonpayable",
      "type": "function"
    },
    {
      "inputs": [
        {
          "internalType": "address",
          "name": "operator",
          "type": "address"
        },
        {
          "internalType": "uint256",
          "name": "role",
          "type": "uint256"
        }
      ],
      "name": "updateRole",
      "outputs": [],
      "stateMutability": "nonpayable",
      "type": "function"
    },
    {
      "inputs": [
        {
          "internalType": "address",
          "name": "newImplementation",
          "type": "address"
        }
      ],
      "name": "upgradeTo",
      "outputs": [],
      "stateMutability": "nonpayable",
      "type": "function"
    },
    {
      "inputs": [
        {
          "internalType": "address",
          "name": "newImplementation",
          "type": "address"
        },
        {
          "internalType": "bytes",
          "name": "data",
          "type": "bytes"
        }
      ],
      "name": "upgradeToAndCall",
      "outputs": [],
      "stateMutability": "payable",
      "type": "function"
    }
  ],
  "bytecode": "0x60a06040523073ffffffffffffffffffffffffffffffffffffffff1660809073ffffffffffffffffffffffffffffffffffffffff1681525034801561004357600080fd5b5060008060019054906101000a900460ff161590508080156100755750600160008054906101000a900460ff1660ff16105b806100a8575061008a3061018360201b60201c565b1580156100a75750600160008054906101000a900460ff1660ff16145b5b6100e7576040517f08c379a00000000000000000000000000000000000000000000000000000000081526004016100de90610229565b60405180910390fd5b60016000806101000a81548160ff021916908360ff1602179055508015610124576001600060016101000a81548160ff0219169083151502179055505b801561017d5760008060016101000a81548160ff0219169083151502179055507f7f26b83ff96e1f2b6a682f133852f6798a09c465da95921460cefb38474024986001604051610174919061029b565b60405180910390a15b506102b6565b6000808273ffffffffffffffffffffffffffffffffffffffff163b119050919050565b600082825260208201905092915050565b7f496e697469616c697a61626c653a20636f6e747261637420697320616c72656160008201527f647920696e697469616c697a6564000000000000000000000000000000000000602082015250565b6000610213602e836101a6565b915061021e826101b7565b604082019050919050565b6000602082019050818103600083015261024281610206565b9050919050565b6000819050919050565b600060ff82169050919050565b6000819050919050565b600061028561028061027b84610249565b610260565b610253565b9050919050565b6102958161026a565b82525050565b60006020820190506102b0600083018461028c565b92915050565b60805161235c6102ed60003960008181610689015281816107170152818161085a015281816108e80152610998015261235c6000f3fe6080604052600436106100f35760003560e01c8063ae5b102e1161008a578063b3c6501511610059578063b3c650151461030c578063c688d69314610337578063d5bb7f6714610374578063fcc2c0781461039d576100f3565b8063ae5b102e14610276578063ae60bda41461029f578063ae682e2e146102ca578063af504c96146102f5576100f3565b80634f1ef286116100c65780634f1ef286146101c757806352d1902d146101e3578063725f36261461020e578063aaf10f421461024b576100f3565b80630fbe133c146100f85780632b521416146101365780633659cfe614610161578063442767331461018a575b600080fd5b34801561010457600080fd5b5061011f600480360381019061011a9190611648565b6103da565b60405161012d929190611747565b60405180910390f35b34801561014257600080fd5b5061014b610677565b6040516101589190611790565b60405180910390f35b34801561016d57600080fd5b50610188600480360381019061018391906117ab565b610687565b005b34801561019657600080fd5b506101b160048036038101906101ac91906117ab565b61080f565b6040516101be9190611790565b60405180910390f35b6101e160048036038101906101dc9190611908565b610858565b005b3480156101ef57600080fd5b506101f8610994565b604051610205919061197d565b60405180910390f35b34801561021a57600080fd5b50610235600480360381019061023091906119c4565b610a4d565b6040516102429190611a0c565b60405180910390f35b34801561025757600080fd5b50610260610a5f565b60405161026d9190611a27565b60405180910390f35b34801561028257600080fd5b5061029d60048036038101906102989190611a42565b610a6e565b005b3480156102ab57600080fd5b506102b4610ab8565b6040516102c19190611790565b60405180910390f35b3480156102d657600080fd5b506102df610adc565b6040516102ec9190611790565b60405180910390f35b34801561030157600080fd5b5061030a610b00565b005b34801561031857600080fd5b50610321610ca5565b60405161032e9190611aa5565b60405180910390f35b34801561034357600080fd5b5061035e60048036038101906103599190611a42565b610cb7565b60405161036b9190611a0c565b60405180910390f35b34801561038057600080fd5b5061039b600480360381019061039691906119c4565b610ccb565b005b3480156103a957600080fd5b506103c460048036038101906103bf91906119c4565b610cd8565b6040516103d19190611a0c565b60405180910390f35b600060606103f267e4ceb4f29de1c33a60c01b610cea565b61040667e520c73d87ac691060c01b610cea565b61040f85610ced565b9150610425676a9f6f099c4efa1160c01b610cea565b61043967d6f588e78ad0f5b560c01b610cea565b600084849050111561059f576104596796abc78a079381e960c01b610cea565b61046d67e320428fdbae424960c01b610cea565b61048167bd027a590e792d9160c01b610cea565b60006104976716e8020bb0c0e2b560c01b610cea565b8273ffffffffffffffffffffffffffffffffffffffff1685856040516104be929190611af0565b6000604051808303816000865af19150503d80600081146104fb576040519150601f19603f3d011682016040523d82523d6000602084013e610500565b606091505b50809350819250505061051d670ceb95a1057b861560c01b610cea565b61053167cb91947028126e5060c01b610cea565b6105456720fb301b1b5e0e0160c01b610cea565b80610585576040517f08c379a000000000000000000000000000000000000000000000000000000000815260040161057c90611b66565b60405180910390fd5b61059967d77c3326a14a120e60c01b610cea565b506105b4565b6105b367dfc1c597aabc754460c01b610cea565b5b6105c8672356ab7ad29b06fd60c01b610cea565b6105dc67ece3909babb3adac60c01b610cea565b8473ffffffffffffffffffffffffffffffffffffffff163373ffffffffffffffffffffffffffffffffffffffff167f712c33c376f9104bcb4369b5ef428db727ad5fdb8cbe636eae1fe34df88887d78487878660405161063f9493929190611bb3565b60405180910390a361065b67e884eb34a88eb00460c01b610cea565b61066f67abd1bfc19c66620460c01b610cea565b935093915050565b60006106823061080f565b905090565b7f000000000000000000000000000000000000000000000000000000000000000073ffffffffffffffffffffffffffffffffffffffff163073ffffffffffffffffffffffffffffffffffffffff1603610715576040517f08c379a000000000000000000000000000000000000000000000000000000000815260040161070c90611c6c565b60405180910390fd5b7f000000000000000000000000000000000000000000000000000000000000000073ffffffffffffffffffffffffffffffffffffffff16610754610e1f565b73ffffffffffffffffffffffffffffffffffffffff16146107aa576040517f08c379a00000000000000000000000000000000000000000000000000000000081526004016107a190611cfe565b60405180910390fd5b6107b381610e76565b61080c81600067ffffffffffffffff8111156107d2576107d16117dd565b5b6040519080825280601f01601f1916602001820160405280156108045781602001600182028036833780820191505090505b506000610ea2565b50565b6000600160008373ffffffffffffffffffffffffffffffffffffffff1673ffffffffffffffffffffffffffffffffffffffff168152602001908152602001600020549050919050565b7f000000000000000000000000000000000000000000000000000000000000000073ffffffffffffffffffffffffffffffffffffffff163073ffffffffffffffffffffffffffffffffffffffff16036108e6576040517f08c379a00000000000000000000000000000000000000000000000000000000081526004016108dd90611c6c565b60405180910390fd5b7f000000000000000000000000000000000000000000000000000000000000000073ffffffffffffffffffffffffffffffffffffffff16610925610e1f565b73ffffffffffffffffffffffffffffffffffffffff161461097b576040517f08c379a000000000000000000000000000000000000000000000000000000000815260040161097290611cfe565b60405180910390fd5b61098482610e76565b61099082826001610ea2565b5050565b60007f000000000000000000000000000000000000000000000000000000000000000073ffffffffffffffffffffffffffffffffffffffff163073ffffffffffffffffffffffffffffffffffffffff1614610a24576040517f08c379a0000000000000000000000000000000000000000000000000000000008152600401610a1b90611d90565b60405180910390fd5b7f360894a13ba1a3210667c828492db98dca3e2076cc3735a920a3ca505d382bbc60001b905090565b6000610a5882611010565b9050919050565b6000610a69610e1f565b905090565b610a977f800000000000000000000000000000000000000000000000000000000000000061102a565b610ab48282610aaf33610aa98761080f565b8661103e565b6110a9565b5050565b7f400000000000000000000000000000000000000000000000000000000000000081565b7f800000000000000000000000000000000000000000000000000000000000000081565b610b14675d8429958d2fd2eb60c01b610cea565b60008060019054906101000a900460ff16159050808015610b455750600160008054906101000a900460ff1660ff16105b80610b725750610b5430611142565b158015610b715750600160008054906101000a900460ff1660ff16145b5b610bb1576040517f08c379a0000000000000000000000000000000000000000000000000000000008152600401610ba890611e22565b60405180910390fd5b60016000806101000a81548160ff021916908360ff1602179055508015610bee576001600060016101000a81548160ff0219169083151502179055505b610c0267dbb83de5421cf35660c01b610cea565b610c1667d5f70cc9adea193460c01b610cea565b610c2a67ef52986a7536cbd560c01b610cea565b610c3e67f57a6ed7b5f9b64b60c01b610cea565b610c49336000611165565b8015610ca25760008060016101000a81548160ff0219169083151502179055507f7f26b83ff96e1f2b6a682f133852f6798a09c465da95921460cefb38474024986001604051610c999190611e94565b60405180910390a15b50565b6000610caf611223565b60ff16905090565b6000610cc38383611239565b905092915050565b610cd53082610a6e565b50565b6000610ce382611255565b9050919050565b50565b6000610d0367a85e55b6cf1a78ce60c01b610cea565b610d176784df850ab15cfa3260c01b610cea565b763d602d80600a3d3981f3363d3d373d3d3d363d730000008260601b60e81c176000526e5af43d82803e903d91602b57fd5bf38260781b17602052603760096000f09050610d6f671def606389cdd66e60c01b610cea565b610d83673815efc86d9119ac60c01b610cea565b610d97673f81fe853688717360c01b610cea565b600073ffffffffffffffffffffffffffffffffffffffff168173ffffffffffffffffffffffffffffffffffffffff1603610e06576040517f08c379a0000000000000000000000000000000000000000000000000000000008152600401610dfd90611efb565b60405180910390fd5b610e1a67f0dcd33b92d73c8660c01b610cea565b919050565b6000610e4d7f360894a13ba1a3210667c828492db98dca3e2076cc3735a920a3ca505d382bbc60001b611268565b60000160009054906101000a900473ffffffffffffffffffffffffffffffffffffffff16905090565b610e9f7f400000000000000000000000000000000000000000000000000000000000000061102a565b50565b610ece7f4910fdfa16fed3260ed0e7147f7cc6da11a60208b5b9406d12a635614ffd914360001b611272565b60000160009054906101000a900460ff1615610ef257610eed8361127c565b61100b565b8273ffffffffffffffffffffffffffffffffffffffff166352d1902d6040518163ffffffff1660e01b8152600401602060405180830381865afa925050508015610f5a57506040513d601f19601f82011682018060405250810190610f579190611f47565b60015b610f99576040517f08c379a0000000000000000000000000000000000000000000000000000000008152600401610f9090611fe6565b60405180910390fd5b7f360894a13ba1a3210667c828492db98dca3e2076cc3735a920a3ca505d382bbc60001b8114610ffe576040517f08c379a0000000000000000000000000000000000000000000000000000000008152600401610ff590612078565b60405180910390fd5b5061100a838383611335565b5b505050565b600061102361101d610677565b83611361565b9050919050565b61103b61103682611255565b611370565b50565b60008061104a8561080f565b905082811684179350827fffffffffffffffffffffffffffffffffffffffffffffffffffffffffffffffff1881167fffffffffffffffffffffffffffffffffffffffffffffffffffffffffffffffff1884169350839150509392505050565b80600160008573ffffffffffffffffffffffffffffffffffffffff1673ffffffffffffffffffffffffffffffffffffffff168152602001908152602001600020819055508273ffffffffffffffffffffffffffffffffffffffff167fe9be537308880e0f56b7d7cfd7abf85f14c4934486d138f848b92a0cbaf659b48383604051611135929190612098565b60405180910390a2505050565b6000808273ffffffffffffffffffffffffffffffffffffffff163b119050919050565b600060019054906101000a900460ff166111b4576040517f08c379a00000000000000000000000000000000000000000000000000000000081526004016111ab90612133565b60405180910390fd5b600073ffffffffffffffffffffffffffffffffffffffff168273ffffffffffffffffffffffffffffffffffffffff161461121457611213827fffffffffffffffffffffffffffffffffffffffffffffffffffffffffffffffff806110a9565b5b61121f3082836110a9565b5050565b60008060009054906101000a900460ff16905090565b600061124d6112478461080f565b83611361565b905092915050565b60006112613383611239565b9050919050565b6000819050919050565b6000819050919050565b61128581611142565b6112c4576040517f08c379a00000000000000000000000000000000000000000000000000000000081526004016112bb906121c5565b60405180910390fd5b806112f17f360894a13ba1a3210667c828492db98dca3e2076cc3735a920a3ca505d382bbc60001b611268565b60000160006101000a81548173ffffffffffffffffffffffffffffffffffffffff021916908373ffffffffffffffffffffffffffffffffffffffff16021790555050565b61133e836113aa565b60008251118061134b5750805b1561135c5761135a83836113f9565b505b505050565b60008182841614905092915050565b806113a7576040517f4ca8886700000000000000000000000000000000000000000000000000000000815260040160405180910390fd5b50565b6113b38161127c565b8073ffffffffffffffffffffffffffffffffffffffff167fbc7cd75a20ee27fd9adebab32041f755214dbc6bffa90cc0225b39da2e5c2d3b60405160405180910390a250565b606061141e838360405180606001604052806027815260200161230060279139611426565b905092915050565b60606000808573ffffffffffffffffffffffffffffffffffffffff16856040516114509190612216565b600060405180830381855af49150503d806000811461148b576040519150601f19603f3d011682016040523d82523d6000602084013e611490565b606091505b50915091506114a1868383876114ac565b925050509392505050565b6060831561150e576000835103611506576114c685611142565b611505576040517f08c379a00000000000000000000000000000000000000000000000000000000081526004016114fc90612279565b60405180910390fd5b5b829050611519565b6115188383611521565b5b949350505050565b6000825111156115345781518083602001fd5b806040517f08c379a000000000000000000000000000000000000000000000000000000000815260040161156891906122dd565b60405180910390fd5b6000604051905090565b600080fd5b600080fd5b600073ffffffffffffffffffffffffffffffffffffffff82169050919050565b60006115b082611585565b9050919050565b6115c0816115a5565b81146115cb57600080fd5b50565b6000813590506115dd816115b7565b92915050565b600080fd5b600080fd5b600080fd5b60008083601f840112611608576116076115e3565b5b8235905067ffffffffffffffff811115611625576116246115e8565b5b602083019150836001820283011115611641576116406115ed565b5b9250929050565b6000806000604084860312156116615761166061157b565b5b600061166f868287016115ce565b935050602084013567ffffffffffffffff8111156116905761168f611580565b5b61169c868287016115f2565b92509250509250925092565b6116b1816115a5565b82525050565b600081519050919050565b600082825260208201905092915050565b60005b838110156116f15780820151818401526020810190506116d6565b60008484015250505050565b6000601f19601f8301169050919050565b6000611719826116b7565b61172381856116c2565b93506117338185602086016116d3565b61173c816116fd565b840191505092915050565b600060408201905061175c60008301856116a8565b818103602083015261176e818461170e565b90509392505050565b6000819050919050565b61178a81611777565b82525050565b60006020820190506117a56000830184611781565b92915050565b6000602082840312156117c1576117c061157b565b5b60006117cf848285016115ce565b91505092915050565b600080fd5b7f4e487b7100000000000000000000000000000000000000000000000000000000600052604160045260246000fd5b611815826116fd565b810181811067ffffffffffffffff82111715611834576118336117dd565b5b80604052505050565b6000611847611571565b9050611853828261180c565b919050565b600067ffffffffffffffff821115611873576118726117dd565b5b61187c826116fd565b9050602081019050919050565b82818337600083830152505050565b60006118ab6118a684611858565b61183d565b9050828152602081018484840111156118c7576118c66117d8565b5b6118d2848285611889565b509392505050565b600082601f8301126118ef576118ee6115e3565b5b81356118ff848260208601611898565b91505092915050565b6000806040838503121561191f5761191e61157b565b5b600061192d858286016115ce565b925050602083013567ffffffffffffffff81111561194e5761194d611580565b5b61195a858286016118da565b9150509250929050565b6000819050919050565b61197781611964565b82525050565b6000602082019050611992600083018461196e565b92915050565b6119a181611777565b81146119ac57600080fd5b50565b6000813590506119be81611998565b92915050565b6000602082840312156119da576119d961157b565b5b60006119e8848285016119af565b91505092915050565b60008115159050919050565b611a06816119f1565b82525050565b6000602082019050611a2160008301846119fd565b92915050565b6000602082019050611a3c60008301846116a8565b92915050565b60008060408385031215611a5957611a5861157b565b5b6000611a67858286016115ce565b9250506020611a78858286016119af565b9150509250929050565b600067ffffffffffffffff82169050919050565b611a9f81611a82565b82525050565b6000602082019050611aba6000830184611a96565b92915050565b600081905092915050565b6000611ad78385611ac0565b9350611ae4838584611889565b82840190509392505050565b6000611afd828486611acb565b91508190509392505050565b600082825260208201905092915050565b7f70726f787920696e697469616c697a6174696f6e206661696c65640000000000600082015250565b6000611b50601b83611b09565b9150611b5b82611b1a565b602082019050919050565b60006020820190508181036000830152611b7f81611b43565b9050919050565b6000611b9283856116c2565b9350611b9f838584611889565b611ba8836116fd565b840190509392505050565b6000606082019050611bc860008301876116a8565b8181036020830152611bdb818587611b86565b90508181036040830152611bef818461170e565b905095945050505050565b7f46756e6374696f6e206d7573742062652063616c6c6564207468726f7567682060008201527f64656c656761746563616c6c0000000000000000000000000000000000000000602082015250565b6000611c56602c83611b09565b9150611c6182611bfa565b604082019050919050565b60006020820190508181036000830152611c8581611c49565b9050919050565b7f46756e6374696f6e206d7573742062652063616c6c6564207468726f7567682060008201527f6163746976652070726f78790000000000000000000000000000000000000000602082015250565b6000611ce8602c83611b09565b9150611cf382611c8c565b604082019050919050565b60006020820190508181036000830152611d1781611cdb565b9050919050565b7f555550535570677261646561626c653a206d757374206e6f742062652063616c60008201527f6c6564207468726f7567682064656c656761746563616c6c0000000000000000602082015250565b6000611d7a603883611b09565b9150611d8582611d1e565b604082019050919050565b60006020820190508181036000830152611da981611d6d565b9050919050565b7f496e697469616c697a61626c653a20636f6e747261637420697320616c72656160008201527f647920696e697469616c697a6564000000000000000000000000000000000000602082015250565b6000611e0c602e83611b09565b9150611e1782611db0565b604082019050919050565b60006020820190508181036000830152611e3b81611dff565b9050919050565b6000819050919050565b600060ff82169050919050565b6000819050919050565b6000611e7e611e79611e7484611e42565b611e59565b611e4c565b9050919050565b611e8e81611e63565b82525050565b6000602082019050611ea96000830184611e85565b92915050565b7f455243313136373a20637265617465206661696c656400000000000000000000600082015250565b6000611ee5601683611b09565b9150611ef082611eaf565b602082019050919050565b60006020820190508181036000830152611f1481611ed8565b9050919050565b611f2481611964565b8114611f2f57600080fd5b50565b600081519050611f4181611f1b565b92915050565b600060208284031215611f5d57611f5c61157b565b5b6000611f6b84828501611f32565b91505092915050565b7f45524331393637557067726164653a206e657720696d706c656d656e7461746960008201527f6f6e206973206e6f742055555053000000000000000000000000000000000000602082015250565b6000611fd0602e83611b09565b9150611fdb82611f74565b604082019050919050565b60006020820190508181036000830152611fff81611fc3565b9050919050565b7f45524331393637557067726164653a20756e737570706f727465642070726f7860008201527f6961626c65555549440000000000000000000000000000000000000000000000602082015250565b6000612062602983611b09565b915061206d82612006565b604082019050919050565b6000602082019050818103600083015261209181612055565b9050919050565b60006040820190506120ad6000830185611781565b6120ba6020830184611781565b9392505050565b7f496e697469616c697a61626c653a20636f6e7472616374206973206e6f74206960008201527f6e697469616c697a696e67000000000000000000000000000000000000000000602082015250565b600061211d602b83611b09565b9150612128826120c1565b604082019050919050565b6000602082019050818103600083015261214c81612110565b9050919050565b7f455243313936373a206e657720696d706c656d656e746174696f6e206973206e60008201527f6f74206120636f6e747261637400000000000000000000000000000000000000602082015250565b60006121af602d83611b09565b91506121ba82612153565b604082019050919050565b600060208201905081810360008301526121de816121a2565b9050919050565b60006121f0826116b7565b6121fa8185611ac0565b935061220a8185602086016116d3565b80840191505092915050565b600061222282846121e5565b915081905092915050565b7f416464726573733a2063616c6c20746f206e6f6e2d636f6e7472616374000000600082015250565b6000612263601d83611b09565b915061226e8261222d565b602082019050919050565b6000602082019050818103600083015261229281612256565b9050919050565b600081519050919050565b60006122af82612299565b6122b98185611b09565b93506122c98185602086016116d3565b6122d2816116fd565b840191505092915050565b600060208201905081810360008301526122f781846122a4565b90509291505056fe416464726573733a206c6f772d6c6576656c2064656c65676174652063616c6c206661696c6564a2646970667358221220eb5b148328df58bc5e3896e2bd8a9f7f37075820cf91f152b834348da9043fd064736f6c634300081d0033",
  "linkReferences": {},
  "deployedLinkReferences": {}
}