{
  "_format": "hh-sol-artifact-1",
  "contractName": "TokenFactoryV1",
  "sourceName": "contracts/protocol/TokenFactoryV1.sol",
  "abi": [
    {
      "anonymous": false,
      "inputs": [
        {
          "indexed": false,
          "internalType": "address",
          "name": "previousAdmin",
          "type": "address"
        },
        {
          "indexed": false,
          "internalType": "address",
          "name": "newAdmin",
          "type": "address"
        }
      ],
      "name": "AdminChanged",
      "type": "event"
    },
    {
      "anonymous": false,
      "inputs": [
        {
          "indexed": true,
          "internalType": "address",
          "name": "beacon",
          "type": "address"
        }
      ],
      "name": "BeaconUpgraded",
      "type": "event"
    },
    {
      "anonymous": false,
      "inputs": [
        {
          "indexed": false,
          "internalType": "address",
          "name": "proxyAddress",
          "type": "address"
        },
        {
          "indexed": true,
          "internalType": "address",
          "name": "implAddress",
          "type": "address"
        },
        {
          "indexed": false,
          "internalType": "string",
          "name": "name",
          "type": "string"
        },
        {
          "indexed": false,
          "internalType": "string",
          "name": "symbol",
          "type": "string"
        },
        {
          "indexed": true,
          "internalType": "address",
          "name": "initialHolder",
          "type": "address"
        },
        {
          "indexed": false,
          "internalType": "uint256",
          "name": "initialSupply",
          "type": "uint256"
        }
      ],
      "name": "ERC20ProxyDeployed",
      "type": "event"
    },
    {
      "anonymous": false,
      "inputs": [
        {
          "indexed": false,
          "internalType": "uint8",
          "name": "version",
          "type": "uint8"
        }
      ],
      "name": "Initialized",
      "type": "event"
    },
    {
      "anonymous": false,
      "inputs": [
        {
          "indexed": true,
          "internalType": "address",
          "name": "operator",
          "type": "address"
        },
        {
          "indexed": false,
          "internalType": "uint256",
          "name": "requested",
          "type": "uint256"
        },
        {
          "indexed": false,
          "internalType": "uint256",
          "name": "assigned",
          "type": "uint256"
        }
      ],
      "name": "RoleUpdated",
      "type": "event"
    },
    {
      "anonymous": false,
      "inputs": [
        {
          "indexed": true,
          "internalType": "address",
          "name": "implementation",
          "type": "address"
        }
      ],
      "name": "Upgraded",
      "type": "event"
    },
    {
      "inputs": [],
      "name": "ROLE_ACCESS_MANAGER",
      "outputs": [
        {
          "internalType": "uint256",
          "name": "",
          "type": "uint256"
        }
      ],
      "stateMutability": "view",
      "type": "function"
    },
    {
      "inputs": [],
      "name": "ROLE_UPGRADE_MANAGER",
      "outputs": [
        {
          "internalType": "uint256",
          "name": "",
          "type": "uint256"
        }
      ],
      "stateMutability": "view",
      "type": "function"
    },
    {
      "inputs": [
        {
          "internalType": "address",
          "name": "_erc20ImplAddress",
          "type": "address"
        },
        {
          "internalType": "string",
          "name": "_name",
          "type": "string"
        },
        {
          "internalType": "string",
          "name": "_symbol",
          "type": "string"
        },
        {
          "internalType": "address",
          "name": "_initialHolder",
          "type": "address"
        },
        {
          "internalType": "uint256",
          "name": "_initialSupply",
          "type": "uint256"
        }
      ],
      "name": "deployERC20",
      "outputs": [],
      "stateMutability": "nonpayable",
      "type": "function"
    },
    {
      "inputs": [
        {
          "internalType": "string",
          "name": "_name",
          "type": "string"
        },
        {
          "internalType": "string",
          "name": "_symbol",
          "type": "string"
        },
        {
          "internalType": "address",
          "name": "_initialHolder",
          "type": "address"
        },
        {
          "internalType": "uint256",
          "name": "_initialSupply",
          "type": "uint256"
        }
      ],
      "name": "deployERC20",
      "outputs": [],
      "stateMutability": "nonpayable",
      "type": "function"
    },
    {
      "inputs": [],
      "name": "erc20ImplAddress",
      "outputs": [
        {
          "internalType": "address",
          "name": "",
          "type": "address"
        }
      ],
      "stateMutability": "view",
      "type": "function"
    },
    {
      "inputs": [],
      "name": "features",
      "outputs": [
        {
          "internalType": "uint256",
          "name": "",
          "type": "uint256"
        }
      ],
      "stateMutability": "view",
      "type": "function"
    },
    {
      "inputs": [],
      "name": "getImplementation",
      "outputs": [
        {
          "internalType": "address",
          "name": "",
          "type": "address"
        }
      ],
      "stateMutability": "view",
      "type": "function"
    },
    {
      "inputs": [],
      "name": "getInitializedVersion",
      "outputs": [
        {
          "internalType": "uint64",
          "name": "",
          "type": "uint64"
        }
      ],
      "stateMutability": "view",
      "type": "function"
    },
    {
      "inputs": [
        {
          "internalType": "address",
          "name": "operator",
          "type": "address"
        }
      ],
      "name": "getRole",
      "outputs": [
        {
          "internalType": "uint256",
          "name": "",
          "type": "uint256"
        }
      ],
      "stateMutability": "view",
      "type": "function"
    },
    {
      "inputs": [
        {
          "internalType": "uint256",
          "name": "required",
          "type": "uint256"
        }
      ],
      "name": "isFeatureEnabled",
      "outputs": [
        {
          "internalType": "bool",
          "name": "",
          "type": "bool"
        }
      ],
      "stateMutability": "view",
      "type": "function"
    },
    {
      "inputs": [
        {
          "internalType": "address",
          "name": "operator",
          "type": "address"
        },
        {
          "internalType": "uint256",
          "name": "required",
          "type": "uint256"
        }
      ],
      "name": "isOperatorInRole",
      "outputs": [
        {
          "internalType": "bool",
          "name": "",
          "type": "bool"
        }
      ],
      "stateMutability": "view",
      "type": "function"
    },
    {
      "inputs": [
        {
          "internalType": "uint256",
          "name": "required",
          "type": "uint256"
        }
      ],
      "name": "isSenderInRole",
      "outputs": [
        {
          "internalType": "bool",
          "name": "",
          "type": "bool"
        }
      ],
      "stateMutability": "view",
      "type": "function"
    },
    {
      "inputs": [
        {
          "internalType": "address",
          "name": "_erc20ImplAddress",
          "type": "address"
        }
      ],
      "name": "postConstruct",
      "outputs": [],
      "stateMutability": "nonpayable",
      "type": "function"
    },
    {
      "inputs": [],
      "name": "proxiableUUID",
      "outputs": [
        {
          "internalType": "bytes32",
          "name": "",
          "type": "bytes32"
        }
      ],
      "stateMutability": "view",
      "type": "function"
    },
    {
      "inputs": [
        {
          "internalType": "uint256",
          "name": "_mask",
          "type": "uint256"
        }
      ],
      "name": "updateFeatures",
      "outputs": [],
      "stateMutability": "nonpayable",
      "type": "function"
    },
    {
      "inputs": [
        {
          "internalType": "address",
          "name": "operator",
          "type": "address"
        },
        {
          "internalType": "uint256",
          "name": "role",
          "type": "uint256"
        }
      ],
      "name": "updateRole",
      "outputs": [],
      "stateMutability": "nonpayable",
      "type": "function"
    },
    {
      "inputs": [
        {
          "internalType": "address",
          "name": "newImplementation",
          "type": "address"
        }
      ],
      "name": "upgradeTo",
      "outputs": [],
      "stateMutability": "nonpayable",
      "type": "function"
    },
    {
      "inputs": [
        {
          "internalType": "address",
          "name": "newImplementation",
          "type": "address"
        },
        {
          "internalType": "bytes",
          "name": "data",
          "type": "bytes"
        }
      ],
      "name": "upgradeToAndCall",
      "outputs": [],
      "stateMutability": "payable",
      "type": "function"
    }
  ],
  "bytecode": "0x60a06040523060601b60805234801561001757600080fd5b50600054610100900460ff16158080156100385750600054600160ff909116105b8061006357506100513061013960201b61091f1760201c565b158015610063575060005460ff166001145b6100ca5760405162461bcd60e51b815260206004820152602e60248201527f496e697469616c697a61626c653a20636f6e747261637420697320616c72656160448201526d191e481a5b9a5d1a585b1a5e995960921b606482015260840160405180910390fd5b6000805460ff1916600117905580156100ed576000805461ff0019166101001790555b8015610133576000805461ff0019169055604051600181527f7f26b83ff96e1f2b6a682f133852f6798a09c465da95921460cefb38474024989060200160405180910390a15b50610148565b6001600160a01b03163b151590565b60805160601c611397610182600039600081816105c90152818161060901528181610692015281816106d2015261074a01526113976000f3fe6080604052600436106101095760003560e01c8063aaf10f4211610095578063b3c6501511610064578063b3c65015146102cc578063b58af177146102ee578063c688d6931461030e578063d5bb7f671461032e578063fcc2c0781461034e57600080fd5b8063aaf10f4214610267578063ae5b102e1461027c578063ae60bda41461029c578063ae682e2e146102b457600080fd5b806344276733116100dc57806344276733146101a15780634f1ef286146101d757806352d1902d146101ea578063662026a3146101ff578063725f36261461023757600080fd5b80632b5214161461010e5780632fb47e241461013f57806331576ad5146101615780633659cfe614610181575b600080fd5b34801561011a57600080fd5b50306000908152600160205260409020545b6040519081526020015b60405180910390f35b34801561014b57600080fd5b5061015f61015a366004610fef565b610373565b005b34801561016d57600080fd5b5061015f61017c366004610f76565b610444565b34801561018d57600080fd5b5061015f61019c366004610f76565b6105be565b3480156101ad57600080fd5b5061012c6101bc366004610f76565b6001600160a01b031660009081526001602052604090205490565b61015f6101e5366004610f90565b610687565b3480156101f657600080fd5b5061012c61073d565b34801561020b57600080fd5b5060975461021f906001600160a01b031681565b6040516001600160a01b039091168152602001610136565b34801561024357600080fd5b50610257610252366004611133565b6107f0565b6040519015158152602001610136565b34801561027357600080fd5b5061021f610812565b34801561028857600080fd5b5061015f610297366004611079565b61081c565b3480156102a857600080fd5b5061012c600160fe1b81565b3480156102c057600080fd5b5061012c600160ff1b81565b3480156102d857600080fd5b5060005460405160ff9091168152602001610136565b3480156102fa57600080fd5b5061015f6103093660046110ba565b6108c1565b34801561031a57600080fd5b50610257610329366004611079565b6108e0565b34801561033a57600080fd5b5061015f610349366004611133565b610909565b34801561035a57600080fd5b50610257610369366004611133565b610913565b905090565b600061037e8661092e565b6040516350c29e3760e01b81529091506001600160a01b038216906350c29e37906103b9903390899089908990899061ffff90600401611193565b600060405180830381600087803b1580156103d357600080fd5b505af11580156103e7573d6000803e3d6000fd5b50505050826001600160a01b0316866001600160a01b03167fd1138df9e8383f43e80a4a4aca4ddc88b76dbc06d3f91e2276726a239a025b928388888760405161043494939291906111e5565b60405180910390a3505050505050565b600054610100900460ff16158080156104645750600054600160ff909116105b8061047e5750303b15801561047e575060005460ff166001145b6104e65760405162461bcd60e51b815260206004820152602e60248201527f496e697469616c697a61626c653a20636f6e747261637420697320616c72656160448201526d191e481a5b9a5d1a585b1a5e995960921b60648201526084015b60405180910390fd5b6000805460ff191660011790558015610509576000805461ff0019166101001790555b6001600160a01b03821661054e5760405162461bcd60e51b815260206004820152600c60248201526b7a65726f206164647265737360a01b60448201526064016104dd565b609780546001600160a01b0319166001600160a01b0384161790556105743360006109c8565b80156105ba576000805461ff0019169055604051600181527f7f26b83ff96e1f2b6a682f133852f6798a09c465da95921460cefb38474024989060200160405180910390a15b5050565b306001600160a01b037f00000000000000000000000000000000000000000000000000000000000000001614156106075760405162461bcd60e51b81526004016104dd90611240565b7f00000000000000000000000000000000000000000000000000000000000000006001600160a01b0316610639610a4b565b6001600160a01b03161461065f5760405162461bcd60e51b81526004016104dd9061128c565b61066881610a67565b6040805160008082526020820190925261068491839190610ab0565b50565b306001600160a01b037f00000000000000000000000000000000000000000000000000000000000000001614156106d05760405162461bcd60e51b81526004016104dd90611240565b7f00000000000000000000000000000000000000000000000000000000000000006001600160a01b0316610702610a4b565b6001600160a01b0316146107285760405162461bcd60e51b81526004016104dd9061128c565b61073182610a67565b6105ba82826001610ab0565b6000306001600160a01b037f000000000000000000000000000000000000000000000000000000000000000016146107dd5760405162461bcd60e51b815260206004820152603860248201527f555550535570677261646561626c653a206d757374206e6f742062652063616c60448201527f6c6564207468726f7567682064656c656761746563616c6c000000000000000060648201526084016104dd565b5060008051602061131b83398151915290565b3060009081526001602052604081205461080c905b8316831490565b92915050565b600061036e610a4b565b610829600160ff1b610913565b6108655760405162461bcd60e51b815260206004820152600d60248201526c1858d8d95cdcc819195b9a5959609a1b60448201526064016104dd565b6105ba82826108bc3361088d876001600160a01b031660009081526001602052604090205490565b6001600160a01b0391909116600090815260016020526040902054600019808818821618908716919091171690565b610c2f565b6097546108da906001600160a01b031685858585610373565b50505050565b6001600160a01b03821660009081526001602052604081205461090290610805565b9392505050565b610684308261081c565b600061080c33836108e0565b6001600160a01b03163b151590565b6000763d602d80600a3d3981f3363d3d373d3d3d363d730000008260601b60e81c176000526e5af43d82803e903d91602b57fd5bf38260781b17602052603760096000f090506001600160a01b0381166109c35760405162461bcd60e51b8152602060048201526016602482015275115490cc4c4d8dce8818dc99585d194819985a5b195960521b60448201526064016104dd565b919050565b600054610100900460ff16610a335760405162461bcd60e51b815260206004820152602b60248201527f496e697469616c697a61626c653a20636f6e7472616374206973206e6f74206960448201526a6e697469616c697a696e6760a81b60648201526084016104dd565b610a408260001980610c2f565b6105ba308283610c2f565b60008051602061131b833981519152546001600160a01b031690565b610a74600160fe1b610913565b6106845760405162461bcd60e51b815260206004820152600d60248201526c1858d8d95cdcc819195b9a5959609a1b60448201526064016104dd565b7f4910fdfa16fed3260ed0e7147f7cc6da11a60208b5b9406d12a635614ffd91435460ff1615610ae857610ae383610c89565b505050565b826001600160a01b03166352d1902d6040518163ffffffff1660e01b815260040160206040518083038186803b158015610b2157600080fd5b505afa925050508015610b51575060408051601f3d908101601f19168201909252610b4e918101906110a2565b60015b610bb45760405162461bcd60e51b815260206004820152602e60248201527f45524331393637557067726164653a206e657720696d706c656d656e7461746960448201526d6f6e206973206e6f74205555505360901b60648201526084016104dd565b60008051602061131b8339815191528114610c235760405162461bcd60e51b815260206004820152602960248201527f45524331393637557067726164653a20756e737570706f727465642070726f786044820152681a58589b195555525160ba1b60648201526084016104dd565b50610ae3838383610d25565b6001600160a01b03831660008181526001602090815260409182902084905581518581529081018490527fe9be537308880e0f56b7d7cfd7abf85f14c4934486d138f848b92a0cbaf659b4910160405180910390a2505050565b6001600160a01b0381163b610cf65760405162461bcd60e51b815260206004820152602d60248201527f455243313936373a206e657720696d706c656d656e746174696f6e206973206e60448201526c1bdd08184818dbdb9d1c9858dd609a1b60648201526084016104dd565b60008051602061131b83398151915280546001600160a01b0319166001600160a01b0392909216919091179055565b610d2e83610d4a565b600082511180610d3b5750805b15610ae3576108da8383610d8a565b610d5381610c89565b6040516001600160a01b038216907fbc7cd75a20ee27fd9adebab32041f755214dbc6bffa90cc0225b39da2e5c2d3b90600090a250565b6060610902838360405180606001604052806027815260200161133b602791396060600080856001600160a01b031685604051610dc79190611177565b600060405180830381855af49150503d8060008114610e02576040519150601f19603f3d011682016040523d82523d6000602084013e610e07565b606091505b5091509150610e1886838387610e22565b9695505050505050565b60608315610e8e578251610e87576001600160a01b0385163b610e875760405162461bcd60e51b815260206004820152601d60248201527f416464726573733a2063616c6c20746f206e6f6e2d636f6e747261637400000060448201526064016104dd565b5081610e98565b610e988383610ea0565b949350505050565b815115610eb05781518083602001fd5b8060405162461bcd60e51b81526004016104dd919061122d565b600067ffffffffffffffff80841115610ee557610ee5611304565b604051601f8501601f19908116603f01168101908282118183101715610f0d57610f0d611304565b81604052809350858152868686011115610f2657600080fd5b858560208301376000602087830101525050509392505050565b80356001600160a01b03811681146109c357600080fd5b600082601f830112610f67578081fd5b61090283833560208501610eca565b600060208284031215610f87578081fd5b61090282610f40565b60008060408385031215610fa2578081fd5b610fab83610f40565b9150602083013567ffffffffffffffff811115610fc6578182fd5b8301601f81018513610fd6578182fd5b610fe585823560208401610eca565b9150509250929050565b600080600080600060a08688031215611006578081fd5b61100f86610f40565b9450602086013567ffffffffffffffff8082111561102b578283fd5b61103789838a01610f57565b9550604088013591508082111561104c578283fd5b5061105988828901610f57565b93505061106860608701610f40565b949793965091946080013592915050565b6000806040838503121561108b578182fd5b61109483610f40565b946020939093013593505050565b6000602082840312156110b3578081fd5b5051919050565b600080600080608085870312156110cf578384fd5b843567ffffffffffffffff808211156110e6578586fd5b6110f288838901610f57565b95506020870135915080821115611107578485fd5b5061111487828801610f57565b93505061112360408601610f40565b9396929550929360600135925050565b600060208284031215611144578081fd5b5035919050565b600081518084526111638160208601602086016112d8565b601f01601f19169290920160200192915050565b600082516111898184602087016112d8565b9190910192915050565b600060018060a01b03808916835260c060208401526111b560c084018961114b565b83810360408501526111c7818961114b565b91909616606084015260808301949094525060a00152949350505050565b6001600160a01b03851681526080602082018190526000906112099083018661114b565b828103604084015261121b818661114b565b91505082606083015295945050505050565b602081526000610902602083018461114b565b6020808252602c908201527f46756e6374696f6e206d7573742062652063616c6c6564207468726f7567682060408201526b19195b1959d85d1958d85b1b60a21b606082015260800190565b6020808252602c908201527f46756e6374696f6e206d7573742062652063616c6c6564207468726f7567682060408201526b6163746976652070726f787960a01b606082015260800190565b60005b838110156112f35781810151838201526020016112db565b838111156108da5750506000910152565b634e487b7160e01b600052604160045260246000fdfe360894a13ba1a3210667c828492db98dca3e2076cc3735a920a3ca505d382bbc416464726573733a206c6f772d6c6576656c2064656c65676174652063616c6c206661696c6564a26469706673582212207d2ad0e009863eb1b40b06ccf684b2f0b8a829af156942bde92452070efebd5a64736f6c63430008040033",
  "linkReferences": {},
  "deployedLinkReferences": {}
}